:10100000F0BE03206D25000053460000534600004B
:101010005346000053460000534600000000000005
:101020000000000000000000000000005346000027
:1010300053460000000000005346000053460000E5
:101040001526000025260000534600004928000010
:10105000534600005346000053460000534600002C
:101060005346000053460000534600007928000014
:10107000534600005346000053460000534600000C
:1010800053460000534600005346000053460000FC
:1010900053460000534600005346000053460000EC
:1010A00053460000534600005346000053460000DC
:1010B00053460000534600000000000000000000FE
:1010C00053460000534600005346000053460000BC
:1010D00053460000534600005346000055290000C7
:1010E0005346000053460000534600000000000035
:1010F00000000000534600000000000053460000BE
:101100000D1800000400000004000000D3180000C7
:101110000F180000AD1800006465766963656964A6
:101120003D0000006C120000000000006C12000086
:101130000000000000000000200000000800000087
:101140000200000000000000000000000800000095
:101150000300000001000000200000000800000063
:101160000200000000000000000000000800000075
:1011700003000000206368616E6E656C3D2054784A
:10118000506F7765723D2B3864426D206170703D01
:101190006C6F6F706261636B2E6865780A00000087
:1011A00074110000090000007D1100002000000003
:1011B00072656365697665642020627974650000F4
:1011C000B011000009000000B91100000500000086
:1011D000734572724F6B20284352433D282900000B
:1011E000D611000006000000DC1100000100000024
:1011F000DD110000010000000000000020000000E0
:1012000000000000020000000000000002000000DA
:1012100000000000030000000100000020000000AA
:101220000C000000020000000000000000000000B0
:1012300006000000030000002C204C51493D000036
:101240003812000006000000290A6469646E2774E1
:10125000207265706C79202D2D206368616E6E653B
:101260006C2077617320627573790A0030303031F9
:101270003032303330343035303630373038303942
:10128000313031313132313331343135313631373A
:101290003138313932303231323232333234323520
:1012A0003236323732383239333033313332333306
:1012B00033343335333633373338333934303431EC
:1012C00034323433343434353436343734383439D2
:1012D00035303531353235333534353535363537CA
:1012E00035383539363036313632363336343635B0
:1012F0003636363736383639373037313732373396
:10130000373437353736373737383739383038317B
:101310003832383338343835383638373838383961
:101320003930393139323933393439353936393759
:101330003938393930780B010032353234323332B2
:10134000323231323031393138313731363135316D
:0C135000343133313231313236000000CC
:10135C00F0B503AF2DE9E00F8B688A460969D0E937
:10136C000069012B02D1012903D077E0012940F05B
:10137C00D480B9F1000F53D0DAF8141006EB090E33
:10138C00019300224B1C3146344602960D4615F94A
:10139C00010BB0F1FF3FC6B229DC754505D048788A
:1013AC008D1C00F03F0C294602E04FF0000C7146FA
:1013BC0006F01F0BDF2E07D9714508D011F8010B71
:1013CC0000F03F080D4605E04CEA8B160FE04FF09D
:1013DC000008714648EA8C1CF02E06D371450FD0DC
:1013EC0011F8010B00F03F060CE04CEA0B362946D5
:1013FC00013B17D0121B8E450A440C46C6D10BE09C
:10140C00002629464FF4E01000EA8B4040EA8C108D
:10141C000644B6F5881FEBD14A46DDE901361AE0E1
:10142C00002218E0019BB6F5881F02D14A46029EA5
:10143C0011E0029E3AB14A4505D04A4505D2B05654
:10144C0010F1400F01DB304601E0002000220028A3
:10145C000CBF4A460646012B0CD19146B9F1000F40
:10146C000BD0A9F1010009F0030C032807D20020CE
:10147C00324625E0DAE9060154E000203BE0ACEB13
:10148C0009030020B64632461478557804F0C0049F
:10149C009678D178802C05F0C00408BF0130802CE0
:1014AC0006F0C00408BF0130802C01F0C00108BF59
:1014BC000130802908BF013004320433E4D1764670
:1014CC00BCF1000F17D0117801F0C001802908BFC2
:1014DC000130BCF1010F0ED0517801F0C001802910
:1014EC0008BF0130BCF1020F05D0917801F0C001AA
:1014FC00802908BF0130DAF80CE0A9EB0001714536
:10150C000BD2B9F1000F15D0A9F1010109F0030CB0
:10151C00032911D2002133462FE0DAF81C104A4679
:10152C00DAF81800CB68314603B0BDE8000FBDE80F
:10153C00F040184700213BE0ACEB09040021B04619
:10154C0033461D785E789A7805F0C005D878802DE2
:10155C0006F0C00508BF0131802D02F0C00208BFA3
:10156C000131802A00F0C00008BF0131802808BF7B
:10157C00013104330434E4D14646BCF1000F17D0DA
:10158C00187800F0C000802808BF0131BCF1010FB1
:10159C000ED0587800F0C000802808BF0131BCF193
:1015AC00020F05D0987800F0C000802808BF0131E8
:1015BC009AF82000C21E18BF0246A1EB090000EBEE
:1015CC000E0100200C46DFE802F0080205020024A0
:1015DC00084602E0480801314C08451C013D08D082
:1015EC00DAE90602DAF80410126990470028F5D0FF
:1015FC0013E0DAE906014A46CB683146DAF804B062
:10160C00984750B9DAE906650134013C09D02A69DA
:10161C003046594690470028F7D00120BDE80E0F00
:10162C00F0BD0020FAE7D4D4F0B503AF2DE9000FDC
:10163C008DB0D1E9023BD1E900A6D1E9045C0321CC
:10164C008DF830102021059100216B4A04910B92EA
:10165C0003AA0A920891039006910293C3B1B34571
:10166C0088BFB346BBF1000F2DD0DAF80410026826
:10167C005318802B00F2B280DAF80030A1B3024488
:10168C0013F8014B01391471026801320260F5E75D
:10169C00B44588BFB446BCF1000F14D0DAF804107E
:1016AC0002685318802B00F29980DAF80030E34678
:1016BC00002978D0024413F8014B013914710268E7
:1016CC0001320260F4E74FF0000846450AD90AEBF4
:1016DC00C8005AF838104268DDE90A03DB689847FD
:1016EC0000287BD100207AE00298544601964FF0F6
:1016FC00010800F110094FF0000A6646029800EB51
:10170C008A0148680590087F8DF83000886804903D
:10171C00D1E9052062B1022A0CD0B04268D205EBA7
:10172C00C002364B52689A4204D155F8300000681A
:10173C00012200E00022CDE90620C968D9F800009A
:10174C0061B102290CD0B04252D205EBC0012B4A38
:10175C004968914204D155F830000068012100E03D
:10176C000021CDE9081059F8100CB04240D255F8C0
:10177C00301005EBC0004268084604A9904768BBCE
:10178C00D84530D204EB0A00D0E90212DDE90A0395
:10179C00DB6898470AF1080A09F1200908F10108E9
:1017AC000028ABD01AE00DF110093446002605EBE9
:1017BC00C60155F836004A684946904770B906F19B
:1017CC000108D84512D20AEBC600D0E90212DDE9B5
:1017DC000A03DB68984700284646E8D001200DB084
:1017EC00BDE8000FF0BDA246019E6EE726466CE7F1
:1017FC00314600F054FCFEDE001100009D2000007C
:10180C007047E0B502AF0068802909D202687F2AD0
:10181C0018D80244117101680131016000203DE0CB
:10182C000022B1F5006F01924FF002020CD28B092D
:10183C0062F39F118DF80510062161F35F138DF88B
:10184C00043028E0012029E00B46B1F5803F62F31B
:10185C009F130ED28DF806308B0962F39F13090B80
:10186C000E228DF8053062F31F118DF8041003223F
:10187C0011E08DF80730F02343EA91438DF80430E2
:10188C008B09090B62F39F1362F39F1104228DF8ED
:10189C0006308DF8051001A900F018F802B080BDD3
:1018AC00F0B503AF4DF8048D86B00068EC4691E8B6
:1018BC0074416346614683E87441FFF7B5FE06B098
:1018CC005DF8048BF0BD006800F000B8D0B502AF35
:1018DC0003689C18802C01D90120D0BD42B103446F
:1018EC0011F8014B013A1C71036801330360F5E7F1
:1018FC000020D0BD80B56F46017839B1032902D1E3
:10190C004178012904D100F0C5FBFEDE00214170B5
:10191C00064901220978C9B2002908BF03220270C6
:10192C004270B1FA81F0400980BD00BF94F10320F0
:10193C0080B56F46C8B0DFF8D0A601210AF10500CA
:10194C00D0E84F2F002A40F04083C0E8421F002A05
:10195C00F6D10AF104000121D0E84F2F002A40F003
:10196C004183C0E8421F002AF6D1CC4E0DF1240B66
:10197C00DFF8A41632204FF000080922C6F8FC004C
:10198C005846CDF82480FFF7A1FFC5480DF1F409A6
:10199C0042AC022541683A9100683D90DFF8800620
:1019AC00DFF878164591CDE943193AA942912AA955
:1019BC002F95CDE92D54CDE92B50DFF868062A90F0
:1019CC005846FFF731FEDFF86016D6F8FC0001260A
:1019DC002F96CDE92D8400F07F00CDE92B582AAD50
:1019EC00CDE94291DFF844162A9129468DF8F4008E
:1019FC005846FFF719FE05F12A00029005F129005F
:101A0C00019005F124008DF8C0802D94CDE92BB404
:101A1C00CB46039005F13400DFF83C96059005F1B8
:101A2C002C00069005F11000079005F11C002A947B
:101A3C0004909DF8C000DFE810F006009E029E02A4
:101A4C0022003B0009008DF8C4801DE09DF8D800F1
:101A5C00DFE810F0410192029102470107005100AA
:101A6C004B009DF8E000810700F04581032840F011
:101A7C0083829DF8E100012840F03F817CE29DF8D3
:101A8C00C400012800F07882DAF8100060B1016817
:101A9C005AE8042F824204D14AE80412002AF3D1F6
:101AAC0017E0BFF32F8FEFE703208DF8C4005DE242
:101ABC009DF8D000DFE810F0390060025F023D00B5
:101ACC00060013009DF8DC0081071FD0032844D0CA
:101ADC0052E20221C1702E908DF8C4601AE09DF87C
:101AEC00E40080B1032871D046E29DF8DC000128A7
:101AFC0040F08D8140E29DF8E40048B1032840F0AD
:101B0C003B82389D0DE1DDE935015DE0359823E040
:101B1C00379D05E12B9850F8041B02F0C3FC079885
:101B2C008DF8D08032902C983190ADF8D4803298CA
:101B3C0033900698FFF7DEFE18B103208DF8D00025
:101B4C0089E04FF48070ADF8D100012000064ED032
:101B5C0003988DF8DC80359036909AF80600C0B268
:101B6C0010B102286FD019E202F030FC5FFA80FB52
:101B7C00BBF1000F58D0BBF1010F64D0BBF1020FC9
:101B8C0040F0FD8136984549006800680330C1F883
:101B9C00F80044488AF80760066002F0CDFCCDE9F5
:101BAC0042012046022101F0D9FFDFF888142046BB
:101BBC0001F0EEFF01990DF1F40B02988DF8DC6049
:101BCC008DF8E48036913590CDE937019AF807000D
:101BDC0000F00300DFE810F0E20104001400210023
:101BEC0005208DF8D00003208DF8E40033E02B485D
:101BFC0001688DF8D0609DF8D10080F001002CE0D8
:101C0C008AF80780379880F800802648D0F8F803C7
:101C1C00389900F00100087001E08AF807808DF80F
:101C2C00E4609DF8D20091E702F0CAFB02F084FC5C
:101C3C00CDE942012046022101F090FFDFF8F813B4
:101C4C00204601F0A5FF04200DF1F40B8DF8D00017
:101C5C0003208DF8DC000021022082B2022A01D17F
:101C6C00042083E1ADF8BC00ADF8BE102E99CA7803
:101C7C00023A8DF8C420D2B2032A08D3CA78023AA9
:101C8C0051FA82F212798DF8C620012200E000226E
:101C9C0000048DF8C52007D00020CEE00C140040C5
:101CAC00600000100810004011F8030F821E51FA5A
:101CBC0082F0D2B2013152083AB10B78013A057870
:101CCC0001F8015B00F80139F6E707988DF8D88028
:101CDC0033902D983290DDE932013490ADF8DC80F0
:101CEC0035910598FFF706FE08B103203BE1CDF8CE
:101CFC00E080349837908DF8E1809AF80800012143
:101D0C00C0B2022808BF032102288DF8E0108DF81C
:101D1C00E11001D1042026E1069D8DF8E480379571
:101D2C003895002100208DF80861012905D0625CEE
:101D3C00013106FA02F21043F7E708B1C049086016
:101D4C009AF8060000F00300012800F00381A8BBFC
:101D5C0002208AF8060002F0EFFBCDE94201204692
:101D6C00022101F0FBFEB749204601F011FF286863
:101D7C00A84900680330C1F8F800AD4801464FF49B
:101D8C008040C1F80003D1F8F80140F48010C1F88C
:101D9C00F8019AF80700C0B201280FD103208AF885
:101DAC000700A348466002F0C7FBCDE9420120467C
:101DBC00022101F0D3FE2046A349C9E002F006FB44
:101DCC00C5B2002D00F0B880012D00F0C380022DAB
:101DDC0040F0E78096484FF000618AF80860C0F840
:101DEC00FC12466202F0A8FBCDE94201204602211A
:101DFC0001F0B4FE9549204601F0CAFE20468DF84C
:101E0C00086102F0C5F98DF8E4608DF8DC809AF871
:101E1C0008000122C1B2012908BF032201298DF853
:101E2C00DC2001D106209EE06FF0030151FA80F016
:101E3C00B0FA80F08DF8D860400908902B980168B2
:101E4C0001394A1C01D00160FAE702268049479605
:101E5C004D46CDE9458BCDE943680DF1E80842913B
:101E6C00DFF8F0910499CDF80091CDE93E583D9101
:101E7C009DF8C4102B984A1E18BF012201297849DD
:101E8C003B92764A08BF11463A912146FFF7CCFBAC
:101E9C00BDF8BC00734A01284FF0020008BF0320B4
:101EAC003B90BDF8BE10704808BF104627F82E1C9A
:101EBC006E494796CDE9456B012644910321439128
:101ECC006B4942916B493A904091A7F12E012B98A6
:101EDC00CDE93E912146CDF8F480A9464FF000089B
:101EEC00FFF7A2FB9DF8C50098B19DF8C60007F856
:101EFC00190C2B9860494796CDE9458BCDE9436881
:101F0C004291A7F11901CDF8F8903D912146FFF7C8
:101F1C008BFB2B9802225949FFF7D8FC0898002814
:101F2C003FF4F8AD2B9821225549FFF7CFFC2B98A5
:101F3C0002C802F0B7FAEDE502F042FA02F0FCFA40
:101F4C00CDE942012046022101F008FE4D49204610
:101F5C0001F01EFE20468DF8086102F019F90320ED
:101F6C008DF8E40005208DF8D80005208DF8C00010
:101F7C0002F071FB5DE5FEDE00F08CF8FEDE02F097
:101F8C00DBFA42ACCDE942010021204601F0E6FD2E
:101F9C002A49204601F0FCFD584610E001F0C4FF30
:101FAC00FEDE02F0C9FA42ACCDE942010021204626
:101FBC0001F0D4FD3449204601F0EAFD28462146C3
:101FCC0002F020FA02F05AFAFEDEBFF32F8F02F075
:101FDC00B3FA09ACCDE909010021204601F0BEFDA0
:101FEC000A490BE0BFF32F8F02F0A6FA09ACCDE93A
:101FFC0009010021204601F0B1FD0549204601F000
:10200C00C7FD02F021FBFEDE98F103206100000009
:10201C00560000000C140040181100009B24000016
:10202C00341100002411000001430000A011000035
:10203C000810004058000000570000005900000034
:10204C0080E100E05A0000005B0000005D00000031
:10205C00C01100005D1300001F2400006C12000072
:10206C00D0110000D1110000D4110000F8110000B3
:10207C00E011000071230000401200004812000023
:10208C004A1200005C0000005E00000002F0DDBAA5
:10209C000068FEE780B56F4600F006F8FEDE80B5FE
:1020AC006F4600F001F8FEDE80B56F4602F03EFA96
:1020BC00FEDED4D4F0B503AF2DE9000F83B0D0F819
:1020CC0000E09246BD680A461EF001014FF02B0B52
:1020DC0001EB050608BF4FF4881B1C4680465FEADF
:1020EC004E7103D44FF0000A002254E0BAF1000FF5
:1020FC000BD0AAF101010AF0030C032907D200212D
:10210C001346BCF1000F2BD142E0002140E08DE8DA
:10211C007000ACEB0A060021914613461A785D78E4
:10212C00987802F0C002DC78802A05F0C00208BF63
:10213C000131802A00F0C00008BF0131802804F072
:10214C00C00008BF0131802808BF013104330436B8
:10215C00E4D1DDE900454A46029EBCF1000F17D0E0
:10216C00187800F0C000802808BF0131BCF1010FC5
:10217C000ED0587800F0C000802808BF0131BCF1A7
:10218C00020F05D0987800F0C000802808BF0131FC
:10219C0006EB0A00461AD8F80800012818D1D8F81E
:1021AC000C90B14514D95FEA0E702AD40292A9EBB7
:1021BC00060198F8202000208946032A08BF012236
:1021CC00DFE802F0490245024FF00009084642E000
:1021DC0040465946534600F09EF828B10126304639
:1021EC0003B0BDE8000FF0BDD8F81C102A46D8F893
:1021FC001800CB68214603B0BDE8000FBDE8F040E5
:10220C001847D8F804005946029601260190302050
:10221C00C8F80400534698F820000090404688F80F
:10222C00206000F078F80028D9D198F82020AA4630
:10223C000298032A08BF0122A9EB000100200D46D9
:10224C00DFE802F03A0237020025084634E048087D
:10225C0001314FEA5109461C013E08D0D8E906026B
:10226C00D8F80410126990470028F5D0B6E7029A06
:10227C00404659465346D8F8046000F04CF8002804
:10228C00ACD1D8E906012A46CB68214698470028EC
:10229C00A4D109F10105D8E9069834460126013D7F
:1022AC002FD0D8F810204846214690470028F6D069
:1022BC0095E7480801314D08461C013E08D0D8E985
:1022CC000602D8F80410126990470028F5D085E76B
:1022DC00D8E906022146D3685246D8F804409847FC
:1022EC0000287FF47BAFD8E9069A01350126013D21
:1022FC0009D0DAF810204846214690470028F6D03D
:10230C006DE700266BE70098002688F820000198FE
:10231C00C8F8040063E7F0B503AF4DF804BD1C46E4
:10232C0015460646B1F5881F08D0D6E90602126993
:10233C00904718B101205DF804BBF0BD4DB1D6E952
:10234C0006012246CB6829465DF804BBBDE8F04087
:10235C00184700205DF804BBF0BD80B56F46FFF751
:10236C00A3FEFEDEF0B503AF4DF804BDA2B00688A7
:10237C0002AD0C46802106F00F0000F157020A282E
:10238C0038BF00F13002284602F0BAF90020B0EB59
:10239C00161F28D0310901F00F0101F157020A294B
:1023AC0038BF01F13002B0EB162F8DF886201DD00E
:1023BC00300A00F00F0000F157010A2838BF00F175
:1023CC0030010020B0EB163F8DF8851011D0300B8A
:1023DC0000F157010A2838BF00F130018DF8841044
:1023EC007C20042107E07F20012104E07E200221D3
:1023FC0001E07D200321009141F234312B18C0F211
:10240C00000120460222FFF755FE22B05DF804BB06
:10241C00F0BD80B56F468CB00A460178642915D39F
:10242C0048F21F50C5F2EB10A1FB00036FF06300E4
:10243C005B0903FB001041F26C21C0F20001C0B239
:10244C0031F81000ADF82D00242003E00A2906D243
:10245C0026200B4603F1300102AB195408E041F27F
:10246C006C20C0F2000030F81100ADF82D002520D2
:10247C00C0F12701009102A90B1841F26C21104602
:10248C00C0F200010022FFF715FE0CB080BDB0B504
:10249C0002AFA2B000680DF1080E8C468123002219
:1024AC0000F00F0101F157040A2938BF01F1300483
:1024BC000EEB0301B2EB101F01F8024C30D00409F3
:1024CC0004F00F0404F157050A2C38BF04F1300551
:1024DC00B2EB102F01F8035C27D0040A04F00F04B0
:1024EC0004F157050A2C38BF04F13005B2EB103F4C
:1024FC0001F8045C1ED0040B043B04F00F0404F13F
:10250C0057050A2C38BF04F1300501F8055C010CA5
:10251C00B2EB104F0846C3D1581E81280ED31CE0D5
:10252C00981E013B812809D317E0D81E023B812855
:10253C0004D312E0181F033B81280ED2C3F1810192
:10254C00009141F234310EEB0003C0F20001604601
:10255C000222FFF7AFFD22B0B0BDFFF7FEFEFEDE9C
:10256C0080B56F461B481D4A016841F080710160BF
:10257C00194800214160016811400131016018487F
:10258C000121C0F8101501601648816001601648E1
:10259C001649091A21F0030102F001F914481549F2
:1025AC00091A21F00302144902F059F802F04FF80D
:1025BC0012484FF48A51124C124D01600161AC4229
:1025CC0002D201CC8047FAE7FFF760FDFFF7B0F9C4
:1025DC00FEDE00BFFCED00E0001000E0FEFFFF009F
:1025EC000800004000B0004000F00320ACF10320D4
:1025FC00ACF103202CF203208C480000080500509D
:10260C007C4800008C48000080B56F4601F0A0FCAF
:10261C00BDE8804001F0CABCF0B503AF2DE9C00B9A
:10262C0001F08AFF6C46CDE900012046042101F03F
:10263C0095FA7949204601F0ABFA784A906B00067E
:10264C0005D000209063D2F80402400406D4106830
:10265C00000607D04FF0040810461BE091464FF0DF
:10266C0002081AE0104650F8481F090602D04FF035
:10267C0000080FE0104650F80C1F090602D04FF06E
:10268C00010807E0104650F86C1F090600F0C080E6
:10269C004FF0030891460021016001F04DFF6E469A
:1026AC000446CDE900010D463046032101F056FAEF
:1026BC005B49304601F06CFA28880C22411C6FF300
:1026CC001F30225430462980564901F061FADFE868
:1026DC0008F003722B482100DDE9000100250A886F
:1026EC00531C6FF31F3285540B8001F025FF6C4691
:1026FC00CDE900012046022101F030FA4E49204676
:10270C0001F046FA4FF000600421C9F8080246486F
:10271C00857161E0DDE9000104240A88531C6FF324
:10272C001F3284540B8070E0DDE9000102240A881A
:10273C003D4D531C6FF31F3284540B80A879000657
:10274C0066D101F0F9FE6C46CDE90001204602216C
:10275C0001F004FA3649204601F01AFA0120A8715A
:10276C0053E0DDE90012032013885C1C6FF31F3368
:10277C00C8542D4914808A79D2B2022A48D14FF418
:10278C008042C9F80422D9F8002122F48012C9F839
:10279C0000214FF00062C9F8082200228A710872E9
:1027AC0001F0CAFE6C46CDE900012046022101F081
:1027BC00D5F91E4926E0DDE9000101240A88531CE5
:1027CC006FF31F32845418480B808179C9B20129E8
:1027DC0004D002291CD10221017216E0C179C9B2C0
:1027EC00012915D10021C9F86C1081710221C17128
:1027FC0001F0A2FE6C46CDE900012046022101F059
:10280C00ADF90C49204601F0C3F9BDE80C0BF0BD45
:10281C0001F08AFBFEDE00BF480000000011004002
:10282C00490000004E00000098F103204D0000000C
:10283C004B0000004C0000004A000000DCB504AF67
:10284C0001F07AFE6C46CDE900012046042101F02E
:10285C0085F90449204601F09BF9034800210160E9
:10286C00DCBD00BF4700000018310040DCB504AFF0
:10287C002F480168C90741D1C16BC90722D000217B
:10288C002F4CC1632D490A88931C013204EA03338F
:10289C002C4C23600A8091B20C22B1FBF2F202EBB9
:1028AC004202A1EB820103290CD8DFE801F00207F8
:1028BC00020721494FF480724A6003E01E494FF42D
:1028CC0080720A60016CC9071FBF002101644FF4BC
:1028DC000031C0F80412416CC9071FBF00214164CC
:1028EC004FF48021C0F80412816CC9071FBF00216E
:1028FC0081644FF40021C0F80412DCBD01F01CFE11
:10290C006C46CDE900012046002101F027F9094968
:10291C00204601F03DF908484FF4805101604021F8
:10292C0001604FF48071416001F08EFEFEDE00BF4D
:10293C0004B10040460000000805005000F00320E0
:10294C0000F0FF0040B50040F0B503AF2DE9000FDB
:10295C0093B001F0F1FD0AACCDE90A010421204647
:10296C0001F0FCF8DFF82C1E204601F011F9D84AD2
:10297C00D2F85401000604D002F5AA704FF00709F2
:10298C003DE0104650F8FC1F090602D04FF0080934
:10299C0035E0D2F82401000604D002F592704FF015
:1029AC0003092CE0D2F85801000604D002F5AC70F3
:1029BC004FF0040923E0D2F85C01000604D002F5C4
:1029CC00AE704FF005091AE0D2F82C01000604D0C5
:1029DC0002F596704FF0000911E0D2F838010006AC
:1029EC0004D002F59C704FF0010908E0D2F81001F8
:1029FC00000600F06B8402F588704FF0020900218C
:102A0C009246016001F098FD0AAE0446CDE90A0138
:102A1C000D463046032101F0A1F8DFF87C1D30464D
:102A2C0001F0B6F828880C22411C6FF31F30225499
:102A3C0030462980DFF8641D01F0AAF80820DFE891
:102A4C0009F005090B070F110D13140000200CE001
:102A5C0003200AE0012008E0022006E0062004E042
:102A6C00042002E0052000E00720DDE90A121388AB
:102A7C00DFF82C8D5C1C6FF31F33C854148098F84E
:102A8C000200811ECAB2032A28BF0121C9B2012942
:102A9C0011D0022914D1DFE819F009000E01AE00A3
:102AAC00BA0047001F01A401F500AB01DFF8F40CDC
:102ABC0000214181E0E1B9F1070F08BF002802D0E5
:102ACC0001F084F8FEDE01F097F80005F8D501203E
:102ADC0088F8020001F030FD0AACCDE90A010221B0
:102AEC00204601F03BF8DFF8C01C204601F050F8FE
:102AFC0098F80000002800F0BF8198F80100002829
:102B0C0000F0BA8198F80200002800F0B58104208A
:102B1C0088F802000020A8F8000013B0BDE8000FF0
:102B2C00BDE8F04001F0B8B8DFF8780C4089002817
:102B3C00C6D1684E01220025D6F800905FFA89F0C4
:102B4C00C109B2EBD01F0C4618BF0224B5EBD01F45
:102B5C0008BF0C46D6F804A0B368022CF068D9B2B2
:102B6C0041EA00210991D6F810E07169B269F66961
:102B7C005FFA8EFC4CEA012BD2B242EA0622089292
:102B8C00CDF81C9040F04B818DF83050CDE90A55B2
:102B9C005546DDE9089601F0CFFC0DACCDE90D01F1
:102BAC000021204600F0DAFFDFF8001C204600F080
:102BBC00EFFF0798214601F001F92846214601F064
:102BCC00FDF8DFF8EC5B30462146A8475846214615
:102BDC00A84748462146A8473D490120086501F011
:102BEC00ABFC0AACCDE90A010221204600F0B6FF8D
:102BFC00DFF8701E3DE101F09FFC0AACCDE90A0143
:102C0C000221204600F0AAFFDFF85C1E31E1DFF85C
:102C1C006C6E7089012800F0218102287FF450AF7E
:102C2C00D14601F089FC0AACCDE90A01022120460B
:102C3C0000F094FFDFF8341E204600F0A9FFB089A5
:102C4C00002800F01D81234DD5F880014030C5F8D7
:102C5C008001B489412CC0F0168101F06DFC0AACE6
:102C6C00CDE90A010221204600F078FFDFF8001EB2
:102C7C00204600F08DFF4020214601F09FF8B089DE
:102C8C0040381AE100F0B8FFC10500F1D48080058E
:102C9C0040F1E58601F050FC0AACCDE90A010221B5
:102CAC00204600F05BFFDFF8E81D204600F070FFC7
:102CBC0008480021CFE001F03FFC0AACCDE90A0145
:102CCC000221204600F04AFFDFF8A81DD1E000BF2A
:102CDC000470024080740240DAF86854CAF86854F0
:102CEC0015F0040608D0DFF8940D0078C0B2022865
:102CFC007FF4E6AE00F0E8FFA8072AD501F01CFC33
:102D0C000AACCDE90A010221204600F027FFDFF8CA
:102D1C00841D204600F03CFF01F00EFC0AACCDE90E
:102D2C000A010221204600F019FFDFF86C1D204635
:102D3C0000F02EFFDFF8440D01210170DFF8400D8B
:102D4C008188C08889B280B288421EBFD348802156
:102D5C0001606EB101F0F0FB0AACCDE90A01022171
:102D6C00204600F0FBFEDFF8341D204600F010FF7B
:102D7C00680318D5CA48866A804601F0DDFB0AACA8
:102D8C00CDE90A010221204600F0E8FEDFF8101D13
:102D9C00204600F0FDFE06F07F00214601F00EF803
:102DAC000020C8F8280028030DD501F0C5FB0AAC9B
:102DBC00CDE90A010221204600F0D0FEDFF8E41C28
:102DCC00204600F0E5FE280756D501F0B5FB0AAC0D
:102DDC00CDE90A010221204600F0C0FEDFF8C81C34
:102DEC0047E013B0BDE8000FBDE8F04000F06CBF49
:102DFC0001F0A2FB0AACCDE90A010221204600F049
:102E0C00ADFEDFF8801C204600F0C2FEDFF86C0C33
:102E1C004178022980F02386002141702CE0C9F30F
:102E2C004112002A51D0022A4CD0012A7FF4ACAEB8
:102E3C004FF480724AE001F07FFB0AACCDE90A0145
:102E4C000221204600F08AFEDFF83C1C204600F0F0
:102E5C009FFE93480121C0F8AC100DE001F06CFB13
:102E6C000AACCDE90A010221204600F077FEDFF81A
:102E7C00E81C204600F08CFE13B0BDE8000FF0BD3E
:102E8C0000207081F8E701F057FB0DF12808CDE91F
:102E9C000A010221404600F061FEDFF8B81C4046F2
:102EAC0000F076FE2046414600F088FF00F0EAFF75
:102EBC0004F07F00C5F884010020B0810120C9F81E
:102ECC000000D9E74FF4007200E0002209F00F0671
:102EDC00032E3FF659AE04F001040493069400232C
:102EEC00DFE806F00A0205084FF4803304E04FF4E3
:102EFC00003301E04FF4403342EA0304C4F30122EF
:102F0C00260A1C0C012A059337D00396002A069E2C
:102F1C007FF43AAE5FFA8AF255460C2ACDF808B027
:102F2C0000F25382DFE812F00D0035015102190155
:102F3C0051020601BE00E70052016401AB01980189
:102F4C00A100002E00F041820998000402BF0898ED
:102F5C0080B2022840F03982022C00F01182012C40
:102F6C0000F01B82002C40F030820298000440F0EC
:102F7C002C824FF0000E04204EE106995FFA8AF085
:102F8C00049A554622283AD0DDF82090212821D0E9
:102F9C00202808BF002948D0059A002406F0030019
:102FAC00ADF840400F94CDE900B940EA1220099EDB
:102FBC002A4641EA002111A8334601F0D7FA9DF8C0
:102FCC004400022840F022828DF830400320CDE9E5
:102FDC000A4429E20029DFD0012CDDD10998000434
:102FEC0004BF1FFA89F00728D6D11FFA8BF0B0F571
:102FFC00807F28BF4FF0000CCED2022027E0DDF8F6
:10300C0020900029C8D1012C08BF5FEA0940C3D128
:10301C00099880B203289CBF1FFA8BF0FF28BBD8FD
:10302C0062F3082CC2F3400011E0012CB4D10998D2
:10303C00000404BF1FFA89F00728ADD11FFA8BF0EA
:10304C00B0F5807F28BF4FF0000CA5D203208DF87F
:10305C002A000F98ADF828C0CDF82B00BDF8400021
:10306C00ADF82F000120099EDEE1002E00F0AD81AD
:10307C00022C40F0AA810998000402BF089880B283
:10308C00022840F0A281029801F0A7FAC2B2022AEB
:10309C0000F09B8100F0010E0A20BDE004E200E08C
:1030AC0080740240002E00F09081002C40F08D8145
:1030BC0001F0A8FAC1B20C2900F087814FF0FF3162
:1030CC0051FA80F2062A00F2808104210220DFE806
:1030DC0012F007005201A3007C017C016E01780103
:1030EC000498000604BF02985FEA004040F06D812E
:1030FC00012100F0A4BC56EA040140F0668101F005
:10310C0081FAC0B20C2800F06081032800F02981FC
:10311C00022800F02881069E0128554640F0558172
:10312C000498000604BF02985FEA004040F04D810D
:10313C0001211EE1002E40F04881099880B27F28C1
:10314C0000F24381002C40F040810898029908431A
:10315C00000440F03A8105205CE0002E40F03581FF
:10316C000898000440F03181099880B2002800F0E2
:10317C00DD80022800F0BF80012808BF002C40F041
:10318C0024810298000440F020814FF0000E0820AA
:10319C0042E0002E40F01981032C00F016810898B3
:1031AC00000440F01281099880B2002800F0CD8014
:1031BC00012808BF002C40F008810298000440F060
:1031CC0004814FF0020E0020002125E0002E00F0BB
:1031DC00FC80089880B2012808BF002C40F0F580D4
:1031EC00099802990843000440F0EF80012013E095
:1031FC00002E40F0EA80099880B2FF2800F2E580AA
:10320C00002C40F0E280089802990843000440F03A
:10321C00DC800620DDF810E0049AC9B2120642EAFE
:10322C0001415FFA8EF241EA02210844CDF82900EF
:10323C00002002998DF828000898C1EA0040CDF8CA
:10324C002D009DF82A00BDF82810BDF82F80DDF860
:10325C002B4041EA004632E1002E40F0B680012CB2
:10326C0040F0B380089A120401BF0002090208431F
:10327C005FEA004040F0A98009200499CCE7002EB9
:10328C0000F0A380029884F00103002180B2B0F515
:10329C00807F4FF0000038BF0120099A92B21A4388
:1032AC00089B9BB283F001031A43B2FA82F25209D3
:1032BC00104008BF8646002800F0878000220320BB
:1032CC0004920022029200220892A5E7DFF8AC07D4
:1032DC000078C0B201287FF4CFADDFF8A407818855
:1032EC00C08889B280B288423FF4C6AD92464FF096
:1032FC000609FFF787BB44EA0E00000665D16FF0A4
:10330C00020050FA81F24FF0020E0820032AFFF45B
:10331C0083AF069ECAB2012A3FF47EAF5546022AFD
:10332C0053D14FF0020E0820022175E7022C4CD12C
:10333C00029801F052F90491C1B2022945D000F073
:10334C0001014FF0010E082066E7022C3DD10298D6
:10335C0001F043F9C2B2022A37D000F0010E00206E
:10336C005AE7022105E0069E5FEA0B4055462CD138
:10337C000021072064E30298000426D100215EE3BB
:10338C00029801F02AF90491C1B202291DD000F073
:10339C0001014FF0010E04203EE7029880B2B0F517
:1033AC00807F12D2714604204FF0020E34E704984D
:1033BC00000604BF02985FEA004006D102200221F9
:1033CC002AE70298000400F0398303982A460599ED
:1033DC00DDF808B000F00300CDF800B040EA112091
:1033EC00DDF82090CDF8049046EA0021099E11A842
:1033FC00334601F0BBF89DF84400022806D10020AA
:10340C008DF83000CDE90A0003200DE01198CDF8BD
:10341C003500BDF84800ADF839000D980A90DDF87C
:10342C003700CDF82B00022003283FF4B4AB9DF8F5
:10343C002A10BDF82820DDF82B4042EA0146E0B303
:10344C00DFF83856012827D06878022858D104F4C0
:10345C007F00C6F30745B0F5003F69D106F47F4005
:10346C00B0F5807F40F0A68101F066F80AAECDE998
:10347C000A010221304600F071FBDFF83C163046A1
:10348C0000F086FB2846314600F098FC2046314679
:10349C0000F097FCFFF7A0BB687802283CD13006FF
:1034AC0052D001F049F80AACCDE90A0100212046BE
:1034BC0000F054FBDFF80816ADE2BDF82F8026F0C3
:1034CC007F404FEA142A4FEA1049C0F30720DFE887
:1034DC0010F00B00E2008B00CA007300F8001E0114
:1034EC00D6004B017F00560101F026F80AACCDE95D
:1034FC000A010021204600F031FBDFF854168AE265
:10350C0001F01AF80AACCDE90A010021204600F0BE
:10351C0025FBDFF898157EE201F00EF80AACCDE938
:10352C000A010021204600F019FBDFF8901572E229
:10353C0001F002F80AACCDE90A010021204600F0A6
:10354C000DFBDFF86C1566E26FF0010050FAA6F087
:10355C00C1B2022928BF0220C6F30744C0B200281A
:10356C0000F07781012800F0418100F0E5FF0AAD01
:10357C00CDE90A010221284600F0F0FADFF84415E3
:10358C00284600F005FB04F00100294600F016FC6B
:10359C00C6F30020294600F011FC00F0CDFF0AAC68
:1035AC00CDE90A010221204600F0D8FADFF81815FF
:1035BC00204600F0EDFA12E100F0BEFF0AACCDE9B6
:1035CC000A010021204600F0C9FADFF8501522E26A
:1035DC0000F0B2FF0AACCDE90A010021204600F050
:1035EC00BDFADFF8F81416E200F0A6FF0AADCDE93B
:1035FC000A010221284600F0B1FADFF82815284606
:10360C0000F0C6FA4046294600F0D8FBE0B2042888
:10361C0000F21882DFE810F00500B501C9011602AE
:10362C00AA0100F089FF0AACCDE90A01022120466B
:10363C0000F094FADFF80015204600F0A9FA504685
:10364C00214600F0BBFB5FEA0A6000F0E98100F064
:10365C0073FF0AACCDE90A010021204600F07EFA86
:10366C00DFF8D814D7E100F067FF0AACCDE90A0106
:10367C000021204600F072FADFF8A414CBE100F030
:10368C005BFF0AACCDE90A010021204600F066FA86
:10369C00DFF85014BFE100F04FFF0AACCDE90A018E
:1036AC000221204600F05AFADFF89C14204600F064
:1036BC006FFA0120214600F081FBDFF89004012114
:1036CC00B5E100F039FF0AACCDE90A010221204630
:1036DC0000F044FADFF83014204600F059FA48465E
:1036EC00214600F06BFBE5494878002800F01F816B
:1036FC00012800F0BF8000F01FFF0AACCDE90A01E1
:10370C000021204600F02AFADFF8001483E100F0D3
:10371C0013FF0AACCDE90A010221204600F01EFA83
:10372C00DFF8C413204600F033FA4846214600F077
:10373C0045FBD2484078002800F00D81012800F0AC
:10374C00B180CE48B9F1000F00F03A81C0784845FD
:10375C0045D000F0F1FE0AACCDE90A01002120466B
:10376C0000F0FCF9E14956E100F0E6FE0AACCDE9C7
:10377C000A010021204600F0F1F9D9494BE100F093
:10378C00DBFE0AACCDE90A010021204600F0E6F987
:10379C00D14940E10000000001000000450000009C
:1037AC0022F2032098F10320030000000700000020
:1037BC00CF3D000000F0C0FE0AAECDE90A010221A7
:1037CC00304600F0CBF9BB49304600F0E1F9284611
:1037DC00314600F0F3FA2046314600F0EFFA13B010
:1037EC00BDE8000FBDE8F04000F046BB00F0A4FEC1
:1037FC000AACCDE90A010221204600F0AFF9B34929
:10380C00204600F0C5F9688900287FF459A90126E3
:10381C006E8100F091FE0AACCDE90A01022120462E
:10382C0000F09CF9AA49204600F0B2F9974908F13A
:10383C000300C1F880020720C1F884028E480146BB
:10384C00D0F8FC0140F00200C1F8FC018E64FFF7D7
:10385C0013BB00F071FE0AACCDE90A01022120462F
:10386C0000F07CF99B49204600F092F908F1030026
:10387C000721DCE0B9F1000F00F0B58088784845ED
:10388C003FF4FAAA012081F80290487000F054FE2F
:10389C000AACCDE90A010221204600F05FF99C49EF
:1038AC00FFF7E7BAB9F1000F99D0B9F1010F40F069
:1038BC00A88072480546867800F03EFE0AACCDE939
:1038CC000A0102214FF00209204600F047F989490C
:1038DC00204600F05DF96D494FF001080F2085F886
:1038EC000380AE7085F801900E46C1F89000092057
:1038FC00C1F894000020C86200F01EFE0AACCDE9AD
:10390C000A010221204600F029F97B49204600F0EB
:10391C003FF90A2021460A2500F050FA7748C6F8EC
:10392C0094015548C6F89851C0F8048057E7B9F18E
:10393C00000F3FF4A1AA012081F80290487000F01A
:10394C00FBFD0AACCDE90A010221204600F006F984
:10395C007149FFF78EBA00F0EFFD0AACCDE90A0110
:10396C000021204600F0FAF8664954E000F0E4FD2E
:10397C000AACCDE90A010021204600F0EFF86A49B3
:10398C0049E000F0D9FD0AACCDE90A01022120463C
:10399C0000F0E4F86649204600F0FAF8B8F1120F8E
:1039AC0028BF4FF01208634840E000F0C5FD0AAC98
:1039BC00CDE90A010121204600F0D0F85B492AE04C
:1039CC000646857800F0B8FD0AACCDE90A01022163
:1039DC00204600F0C3F84649204600F0D9F80120F3
:1039EC00B5707070FBE60020487000F0A5FD0AACC5
:1039FC00CDE90A010221204600F0B0F84549FFF755
:103A0C0038BA00F099FD0AACCDE90A010021204634
:103A1C0000F0A4F83A49204600F0BAF8FFF7DCB8F9
:103A2C004748B8F14B0F28BF4FF04B08414613B035
:103A3C00BDE8000FBDE8F04000F0C6B9032102203C
:103A4C00FFF7EABB00F078FD0AACCDE90A010021D2
:103A5C00204600F083F83B49204600F099F800F02E
:103A6C0097F9FEDE2E000000390000002F00000048
:103A7C00300000003A0000000470024098F103206E
:103A8C00ACF103200600000004000000807402402A
:103A9C000500000033000000340000003500000079
:103AAC003600000037000000380000002A0000003B
:103ABC002B0000002D0000002C0000002300000053
:103ACC002900000024000000250000002700000051
:103ADC002800000026000000080000002200000062
:103AEC00210000002000000015000000180000005C
:103AFC001B000000190000001A00000014F2032043
:103B0C00170000001600000010000000110000005B
:103B1C001400000013000000120000001F00000041
:103B2C001E000000090000000F0000000C00000047
:103B3C000B000000B4F103200D0000000E0000008B
:103B4C00C6F103200A0000001D00000020F2032033
:103B5C001C0000003100000032000000F0B503AF83
:103B6C004DF804BD094A1268D0E900342588920941
:103B7C006E1C6FF31F3559552680D0E9003118465D
:103B8C005DF804BBBDE8F04000F09AB9041000E009
:103B9C00F0B503AF4DF804BD8AB27F2A0AD3D0E941
:103BAC00003441F0800125886E1C6FF31F35595588
:103BBC00D1092680D0E9002003885C1C6FF31F33E9
:103BCC00D15404805DF804BBF0BDD4D4E0B502AF91
:103BDC0000F092F900F0B0FC6C46CDE900012046F3
:103BEC000021FFF7BBFF03492046FFF7D1FF00F090
:103BFC002BFDFEDE43000000F0B503AF2DE9F00B0A
:103C0C002248D0F80080C0F8008000F095FC01AC90
:103C1C000546CDE901010E4620460321FFF79EFF24
:103C2C001B492046FFF7B4FF30880A22411C6FF372
:103C3C001F302A54204631801649FFF7A9FF029EF7
:103C4C0040F6FF7127F81A8C358828466FF31F3021
:103C5C0088420DD1019CA7F11A09012204F6FF71CB
:103C6C00484600F07BFC09F101002146012204E0EA
:103C7C00019902220144A7F11A0000F06FFCA81C64
:103C8C003080404604B0BDE8000BF0BD007402402B
:103C9C004200000062000000DCB504AF08480121BE
:103CAC00016000F049FC6C46CDE900012046022180
:103CBC00FFF754FF03492046FFF76AFFDCBD00BF46
:103CCC000475024041000000F0B503AF2DE9C007B8
:103CDC00DFF8A4A0BAF80450BAF80600401B01049F
:103CEC001CD084B23F2C28BF3F2454FA85F081B2FB
:103CFC00E8B2B1F5807F13D9DAF80090C0F5807680
:103D0C00DFF8788009EB00013246404600F0A5FC54
:103D1C00A11B08EB06008AB2494606E0012625E005
:103D2C00DAF8001022460144144800F096FC2819D9
:103D3C00AAF8040020064FF0010617D000F0FCFB97
:103D4C006D46CDE9000128460221FFF707FF0C491B
:103D5C002846FFF71DFF2046294600F02FF809489A
:103D6C000649016044600848066002260748067050
:103D7C00BDE80C07F0BD00BFACF1032000C0032070
:103D8C0040000000287602400C70024098F103209D
:103D9C00E0B502AF00F0B0F800F0CEFB6C46CDE918
:103DAC00000120460021FFF7D9FE03492046FFF70A
:103DBC00EFFE00F049FCFEDE3D000000C0B200F05A
:103DCC0069B880B200F066B8F0B503AF4DF8048D59
:103DDC0082B0234E8046708990BB234C88B20D462E
:103DEC0040280AD9206820F004002060A5F140008A
:103DFC00B08102204025708104E000F043F80220DD
:103E0C00C6F80A0000F098FB6E46CDE9000130467A
:103E1C000221FFF7A3FE15493046FFF7B9FE2846ED
:103E2C003146FFF7CBFF124905F07F00486011487F
:103E3C00C1F800800121215002B05DF8048BF0BD67
:103E4C0000F07AFB6C46CDE9000120460021FFF71B
:103E5C0085FE04492046FFF79BFE00F0F5FBFEDED5
:103E6C0098F103203B000000007202403C0000006F
:103E7C000076024004FEFFFF0148012101607047FB
:103E8C00507002400248016841F004010160704723
:103E9C0000720240F0B503AF4DF804BD0246D1E903
:103EAC0000031C880626651C6FF31F3406551D8005
:103EBC00D1E900015DF804BBBDE8F04000F000B8AA
:103ECC00F0B503AF4DF804BD0C880023661C42F01E
:103EDC0080056FF31F34B3EBD21F08BF02F07F05D0
:103EEC00B3EBD21F05554FEAD21534462A460E8045
:103EFC00ECD15DF804BBF0BDDCB504AF0848002183
:103F0C00016000F019FB6C46CDE90001204602214E
:103F1C00FFF724FE03492046FFF73AFEDCBD00BF45
:103F2C00047502403F000000E0B502AF00F004FB56
:103F3C006C46CDE9000120460021FFF70FFE034936
:103F4C002046FFF725FE00F07FFBFEDE440000005C
:103F5C00DCB504AF00F0F0FA6C46CDE90001204668
:103F6C000421FFF7FBFD0D492046FFF711FE0C481D
:103F7C000168090611D00021016000F0DDFA6C46E1
:103F8C00CDE9000120460221FFF7E8FD0549204656
:103F9C00FFF7FEFD044801210170DCBD5300000059
:103FAC00000100405400000094F10320F0B503AF71
:103FBC002DE9C00B00F0C0FA6C46CDE9000120469B
:103FCC000421FFF7CBFD5D492046FFF7E1FD5C487E
:103FDC004FF000080168090602D04FF000090FE00D
:103FEC00014651F8042F120603D04FF00109084680
:103FFC0006E050F8081F090600F095804FF0020902
:10400C00C0F8008000F098FA6E460446CDE9000135
:10401C000D4630460321FFF7A1FD4A493046FFF714
:10402C00B7FD28880C22411C6FF31F3022543046F8
:10403C0029804549FFF7ACFDDDE900010A88531CD6
:10404C006FF31F3200F802900B80404DA878811E50
:10405C00CAB2032A28BF0121C9B271B1012967D1A3
:10406C002A78002A114618BF01217ABB98F0010268
:10407C002CD101212970002144E0B8F1000F4FD15F
:10408C00B9F1000F57D1334849F275310322016061
:10409C00C0F81421016001212F48016000F04CFA96
:1040AC006C46CDE9000120460221FFF757FD2B4954
:1040BC002046FFF76DFD2A4800210078A5F8011075
:1040CC00C0B2002818BF0120287029E0687890BB86
:1040DC0018EA010024D1B9F1020F2CD1012068702B
:1040EC0000F02AFA6C46CDE9000120460221FFF7C8
:1040FC0035FD17492046FFF74BFD2978A878B1FA12
:10410C0081F1490960B159B9687848B10420A870A7
:10411C0000202880BDE80C0BBDE8F040FFF7BCBDCB
:10412C00BDE80C0BF0BD4FF003094FF001088CE714
:10413C00FFF72EFEFEDEFFF749FDFEDE4F0000000E
:10414C001C010040020000005200000022F203207B
:10415C005100000000EC06400075024050000000C9
:10416C0094F1032007484FF4803101604FF48051E3
:10417C00C0F83C124FF4807103480160034800F012
:10418C0007B800BF04B300400C0500503613000004
:10419C00D0B502AF002201230021012A05D0845C96
:1041AC00013203FA04F42143F7E709B10148016035
:1041BC00D0BD00BF00E100E0B0B502AF154D00244A
:1041CC00B4F5C67F04D0281900F036F88434F7E72C
:1041DC0011480F2101234160082101600F498160C2
:1041EC008121C1600E490A6863F302020A6040F241
:1041FC0002214FF4822281620A49C16200210163CB
:10420C000949425009490A4A42500A48BDE8B0409F
:10421C00FFF7BEBF40C103200C150040080000068C
:10422C006C16004021100100F4FCFFFFF8FDFFFFAD
:10423C00094004083713000009490A69026051E873
:10424C00043F934207D141E80402002A1A4608BFF2
:10425C0000F0FFB9F2E7BFF32F8F1A46EEE700BF6D
:10426C0098F10320BCB504AF4FF0804001250560E8
:10427C0000F062F96C46CDE9000120460221FFF7FF
:10428C006DFC05492046FFF783FC04480560044893
:10429C00BDE8BC40FFF77CBF5500000004030040A4
:1042AC0038130000B0B502AF0C4D0024B4F5C67F36
:1042BC0004D02819FFF7C0FF8434F7E70848012120
:1042CC0001604FF4607101600648074901600748BE
:1042DC00FFF75EFF064880210160B0BD04F00320AB
:1042EC0004030040047302402194C0013813000001
:1042FC0004E100E0007800F07F02052A1ED00A28B5
:10430C001ED00F281ED014281ED019281ED01E28EF
:10431C001ED023281ED028281ED02D281ED032288F
:10432C001ED037281ED03C281ED041281ED046282F
:10433C001ED04B280CBF134A114A1AE01F4A18E032
:10434C001D4A16E01B4A14E0194A12E0174A10E005
:10435C00154A0EE0134A0CE0114A0AE00F4A08E035
:10436C000D4A06E00B4A04E0094A02E0074A00E065
:10437C00054AD1E90601CB6811460222184700BF55
:10438C0057130000391300003B1300003D130000CD
:10439C003F130000411300004313000045130000BD
:1043AC0047130000491300004B1300004D1300008D
:1043BC004F1300005113000053130000551300005D
:1043CC00014801210160704704100040BCB504AFE6
:1043DC000A48046800F0B0F86D46CDE900012846A3
:1043EC000321FFF7BBFB06492846FFF7D1FB20460C
:1043FC00294600F007F8204602B0B0BD5015004029
:10440C0060000000F0B503AF4DF804BD0C46054646
:10441C00D1E900010C260A88531C6FF31F32865415
:10442C0020460B801449FFF7B3FB05F00F01082061
:10443C00DFE801F0070D0F091521212121110B13C4
:10444C00160000200CE003200AE0062008E0012002
:10445C0006E0022004E0052002E0072000E0042032
:10446C00D4E9001213885C1C6FF31F33C8541480FA
:10447C005DF804BBF0BDFEDE5F000000E0B502AFEE
:10448C0000F05AF86C46CDE9000120460021FFF7F8
:10449C0065FB03492046FFF77BFB00F0D5F8FEDEF9
:1044AC003E000000E1B3F0B503AF2DE90007DFF8E3
:1044BC00749082460C46B9F80650B9F80400401BBB
:1044CC0000F58070010424D080B2A04238BF0446AD
:1044DC0054FA85F0E9B280B2B0F5807F0FD9D9F8E3
:1044EC000080C1F5807608EB01005146324600F0A1
:1044FC00B4F8A01B0AEB060182B2404604E0D9F8DE
:10450C00000022460844514600F0A7F82819A9F8E3
:10451C000600054880210160BDE80007BDE8F040B9
:10452C00704700BFACF1032004E200E080B56F4699
:10453C0000F08AF8FEDED4D4064905480968C9B2F1
:10454C000029054918BF00F5805018BF023170478B
:10455C0000D0032004ED00E090F103202AB110F804
:10456C00013B013A01F8013BF8E77047F0B503AFA6
:10457C004DF804BDD6B201F00104C1F30745D7E9EB
:10458C000212062E11D00A2E20D1012D08BF002CAC
:10459C001CD112041AD18AB2FF2A17D8017100213A
:1045AC0083700170190A417014E0012D0ED16CB1A9
:1045BC008CB2FF2C0AD803F47F44B4F5085F05D104
:1045CC000171012142804370017003E00021818060
:1045DC00022101605DF804BBF0BD024680B2FF28E9
:1045EC0001D9002107E0C2F30310002128B10828EB
:1045FC0001D1012002E002207047002002F00F01DF
:10460C007047D4D44FF0FF3151FA80F10C200A29B5
:10461C0018D8DFE801F006080A0C0E101214171750
:10462C0016000120704702207047032070470420B9
:10463C0070470520704706207047072070470820F8
:10464C0070470B207047FFBEAABE62B6704772B6A9
:10465C00704740BF704720BF704700F0A3B8042AD2
:10466C0038BFFFF7FABFB0B502AFA2F1040C0123BB
:10467C0003EB9C0313F003030ED08E4604465EF846
:10468C00045B012B44F8045B1FD163462046714642
:10469C00BCF10C0F04D212E01346BCF10C0F0ED37C
:1046AC000D68103B0560032B4D6845608D68856077
:1046BC00CD6801F11001C56000F11000F0D802F0D6
:1046CC000302BDE8B040FFF7C8BF4D68022B456040
:1046DC0007D1A2F1080308310830BCF10C0FDFD26E
:1046EC00EDE78B680C318360A2F10C030C30BCF14C
:1046FC000C0FD5D2E3E70B4611461A4600F08FB8E3
:10470C001346D2B2042938BFFFF7F5BFD0B502AFBC
:10471C00A1F1040E42EA0363012443EA024304EBD1
:10472C009E0443EA022314F0030410D08446012CA7
:10473C004CF8043B10D174466046BEF10C0F1ED2EF
:10474C0001F00301BDE8D0406046FFF7D4BF0C4632
:10475C00BEF10C0F13D2F3E7022C436007D10830E3
:10476C00A1F108048446BEF10C0F08D2E8E783607F
:10477C000C30A1F10C048446BEF10C0FE0D3C0E95F
:10478C000033103CC0E902331030032CF7D88446B8
:10479C0001F00301BDE8D0406046FFF7ACBF00223A
:1047AC00FFF7AEBFF0B503AF4DF8048DA2B3531EA7
:1047BC0002F0030C032B14D20022BCF1000F2BD0FF
:1047CC008B5CBCF1010F835426D0531CBCF1020F3F
:1047DC00CE5CC65420D00232895C81545DF8048BC7
:1047EC00F0BDACEB020E01F10108441C6FF00302AA
:1047FC0008EB0206A5180432F378EB7033792B71B1
:10480C0073796B71B379AB710EEB02030433EFD197
:10481C000432BCF1000FD3D15DF8048BF0BDD0B5E0
:10482C0002AF12B3531E02F0030C032B01D2002271
:10483C000FE0ACEB020E421C6FF00303D4180433F0
:10484C00A17161712171E1700EEB03040434F5D197
:10485C001A1DBCF1000F1ABF8154BCF1010FD0BD61
:10486C000244BCF1020F517000D1D0BD9170D0BD8B
:10487C00B142000071420000C541000071410000CE
:10488C0040C003200000000012010002EF020140B2
:10489C002020090300010000000109024B00020165
:1048AC000080FA080B00020202010009040000015A
:1048BC000202010005240010010524010301042457
:1048CC0002020524060001070581034000200904AB
:1048DC000100020A00000007050202400000070563
:1048EC008202400000000000A12000000000020035
:1048FC0003000000010000000280250000000008F9
:040000030000256D67
:00000001FF
