:1010000000C003207D160000C51D0000C51D0000A6
:10101000C51D0000C51D0000C51D0000000000002A
:10102000000000000000000000000000C51D0000DE
:10103000C51D000000000000C51D0000C51D00000A
:101040002517000029170000C51D00004D190000DC
:10105000C51D0000C51D0000C51D0000C51D000008
:10106000C51D0000C51D0000C51D00007D19000044
:10107000C51D0000C51D0000C51D0000C51D0000E8
:10108000C51D0000C51D0000C51D0000C51D0000D8
:10109000C51D0000C51D0000C51D0000C51D0000C8
:1010A000C51D0000C51D0000C51D0000C51D0000B8
:1010B000C51D0000C51D000000000000000000006C
:1010C000C51D0000C51D0000C51D0000C51D000098
:1010D000C51D0000C51D0000C51D0000C51D000088
:1010E000C51D0000C51D0000C51D0000000000005A
:1010F00000000000C51D000000000000C51D00002C
:041100000B010000DF
:1011040080B56F46017839B1032902D141780129AC
:1011140004D100F0A7FAFEDE002141700649012245
:101124000978C9B2002908BF032202704270B1FADB
:1011340081F0400980BD00BF06F0032080B56F46F2
:1011440098B0DFF8E4A40120DAE84F1F002940F04A
:101154005982CAE8410F0029F6D1C449502016AC7F
:101164004FF0000801264FF0030BC1F8FC0007A85C
:1011740000F12601029100F12501019100F1200105
:10118400049100F12C01069100F1280100F10C09F1
:10119400059100F1240100208DF830800994CDE9F7
:1011A40007440391C0B2DFE810F006000302030213
:1011B40022003B0009008DF834801DE09DF84400B6
:1011C400DFE810F0AC00F701F601B20007005500AB
:1011D4004F009DF84C00810700F0B080032840F0D8
:1011E400E8819DF84D00012840F0AA80E1E19DF8D6
:1011F4003400012800F0DD81DAF8040060B10168F0
:101204005AE8012F824204D14AE80112002AF3D19C
:1012140018E0BFF32F8FEFE703208DF8340040E18F
:101224009DF84000DFE810F03800C501C4013C001F
:10123400060016009DF84C00810723D0032800F017
:101244003E81B6E10221C1708DF831600A908DF8BB
:1012540034601BE09DF8540088B1032800F06781D6
:10126400A7E19DF84800012840F0EF80A1E19DF836
:10127400500048B1032840F09C81139D74E0DDE9DF
:10128400110152E1119819E1129D6CE08DF8408032
:10129400CDF8389007980D90ADF844800E980F90D3
:1012A4000598FFF72DFF10B18DF840B005E04FF41D
:1012B4008070ADF841000120FAE00021022082B2E2
:1012C400022A01D10420ECE0ADF82C004023ADF853
:1012D4002E109DF83110D84A002914BF53601360B2
:1012E400000481F001018DF83110CFD10A9911F871
:1012F400030F821E51FA82F0D2B2013152083AB180
:101304000B78013A057801F8015B00F80139F6E73A
:101314008DF84480CDF8389009980D90DDE90D01E1
:101324000F90ADF8488010910698FFF7E9FE08B1D8
:101334000320B3E0CDF84C800F9812908DF84D80C7
:101344009AF803000121C0B2022808BF0321022831
:101354008DF84C108DF84D1001D104209EE0039DB2
:101364008DF8508012951395002100208DF8586057
:10137400012905D0625C013106FA02F21043F7E755
:1013840008B1B14908609AF8010000F0030001288F
:101394007CD0A0BB02208AF8010000F0FFFCCDE95C
:1013A40016012046022100F055FBA849204600F012
:1013B4007DFB28689E4900680330C1F8F8009D4809
:1013C40001464FF48040C1F80003D1F8F80140F41D
:1013D4008010C1F8F8019AF80200C0B201280ED1B9
:1013E40094488AF802B0466000F0D8FCCDE91601B2
:1013F4002046022100F02EFB2046954944E000F0EF
:101404005BFCC5B2A5B3012D40D0022D40F0D480C1
:1014140088484FF000618AF80360C0F8FC12466205
:1014240000F0BCFCCDE916012046022100F012FBBD
:101434008849204600F03AFB20468DF8586000F0B9
:10144400ABFB8DF850608DF848809AF80300C0B269
:1014540001284FF0010008BF03208DF8480001D196
:1014640006201BE08DF8446010E700BF0C14004018
:1014740000F01CFC00F092FCCDE91601204602218C
:1014840000F0E8FA7449204600F010FB20468DF87D
:10149400586000F081FB8DF850B005208DF84400B1
:1014A40005208DF8300000F093FC9DF8300079E6BB
:1014B40000064AD004988DF84C80119012909AF846
:1014C4000100C0B210B102286AD098E000F0F4FB29
:1014D4005FFA80FBBBF1000F54D0BBF1010F5FD06A
:1014E400BBF1020F40F07780129851490068006800
:1014F4000330C1F8F8004F488AF80260066000F033
:101504004DFCCDE916012046022100F0A3FA4B4917
:10151400204600F0CBFA01994FF0030B02988DF8A6
:101524004C608DF8548012911190CDE913019AF812
:10153400020000F00300DFE800F06202111E052043
:101544008DF840008DF854B0B7E6394801688DF83D
:1015540040609DF8410080F00100B0E68AF8028006
:10156400139880F800803348D0F8F803149900F0F9
:101574000100087001E08AF802808DF854609DF83B
:10158400420095E700F092FB00F008FCCDE916015B
:101594002046022100F05EFA2949204600F086FA2E
:1015A40004204FF0030B8DF840008DF84CB084E616
:1015B400FEDE00F057F8FEDE00F0F0FB16ACCDE9DD
:1015C40016010021204600F045FA2449204600F087
:1015D4006DFA28460DE000F0E1FB16ACCDE91601EA
:1015E4000021204600F036FA1649204600F05EFA43
:1015F4005846214600F07CFB00F0B6FBFEDE00F00E
:1016040073FAFEDEBFF32F8F00F0C8FB07ACCDE901
:1016140007010021204600F01DFA0449204600F08D
:1016240045FA00F0CEFBFEDE08F003200D000000BA
:101634000C14004008100040080500500F00000082
:101644000E0000001000000080E100E01100000026
:101654001200000014000000130000001500000038
:1016640000F0B0BB80B56F4600F001F8FEDE80B537
:101674006F4600F08DFBFEDE80B56F461B481D4AA9
:10168400016841F0807101601948002141600168DE
:1016940011400131016018480121C0F810150160A2
:1016A40016488160016016481649091A21F00301A1
:1016B40000F032FC14481549091A21F003021449B8
:1016C40000F08AFB00F080FB12484FF48A51124C60
:1016D400124D01600161AC4202D201CC8047FAE7AD
:1016E400FFF7BEFFFFF72AFDFEDE00BFFCED00E0C2
:1016F400001000E0FEFFFF000800004000B00040C2
:1017040000F0032010F0032010F0032010F0032059
:10171400FC1F000008050050F01F0000FC1F000023
:1017240000F0F6B9F0B503AF2DE9C00B00F036FBBD
:101734006C46CDE900012046042100F08BF979497B
:10174400204600F0B3F9784A906B000605D00020DB
:101754009063D2F80402400406D41068000607D04F
:101764004FF0040810461BE091464FF002081AE0BF
:10177400104650F8481F090602D04FF000080FE049
:10178400104650F80C1F090602D04FF0010807E07C
:10179400104650F86C1F090600F0C0804FF0030893
:1017A40091460021016000F0F9FA6E460446CDE945
:1017B40000010D463046032100F04CF95B493046E8
:1017C40000F074F928880C22411C6FF31F30225456
:1017D40030462980564900F069F9DFE808F00372C1
:1017E4002B482100DDE9000100250A88531C6FF312
:1017F4001F3285540B8000F0D1FA6C46CDE900010C
:101804002046022100F026F94E49204600F04EF908
:101814004FF000600421C9F808024648457061E0B1
:10182400DDE9000104240A88531C6FF31F32845439
:101834000B8070E0DDE9000102240A883D4D531C51
:101844006FF31F3284540B806878000666D100F071
:10185400A5FA6C46CDE900012046022100F0FAF811
:101864003649204600F022F90120687053E0DDE992
:101874000012032013885C1C6FF31F33C8542D49D6
:1018840014804A78D2B2022A48D14FF48042C9F86F
:101894000422D9F8002122F48012C9F800214FF063
:1018A4000062C9F8082200224A70C87000F076FA73
:1018B4006C46CDE900012046022100F0CBF81E4918
:1018C40026E0DDE9000101240A88531C6FF31F326E
:1018D400845418480B804178C9B2012904D00229E4
:1018E4001CD10221C17016E08178C9B2012915D139
:1018F4000021C9F86C1041700221817000F04EFA89
:101904006C46CDE900012046022100F0A3F80C4901
:10191400204600F0CBF8BDE80C0BF0BD00F0E4F875
:10192400FEDE00BF020000000011004003000000C2
:101934000800000008F00320070000000500000074
:101944000600000004000000DCB504AF00F026FA35
:101954006C46CDE900012046042100F07BF80449DF
:10196400204600F0A3F8034800210160DCBD00BF5D
:101974000100000018310040DCB504AF2F480168B5
:10198400C90741D1C16BC90722D000212F4CC163C3
:101994002D490A88931C013204EA03332C4C23603A
:1019A4000A8091B20C22B1FBF2F202EB4202A1EBEB
:1019B400820103290CD8DFE801F00207020721495C
:1019C4004FF480724A6003E01E494FF480720A604B
:1019D400016CC9071FBF002101644FF40031C0F836
:1019E4000412416CC9071FBF002141644FF48021D8
:1019F400C0F80412816CC9071FBF002181644FF431
:101A04000021C0F80412DCBD00F0C8F96C46CDE931
:101A140000012046002100F01DF80949204600F08D
:101A240045F808484FF480510160402101604FF4AB
:101A34008071416000F0C5F9FEDE00BF04B10040D2
:101A4400000000000805005000F0032000F0FF0033
:101A540040B50040F0B503AF4DF804BD124A12681A
:101A6400D0E90034258892096E1C6FF31F3559554F
:101A740000232680D0E900100488661C42F080050B
:101A84006FF31F34B3EBD21F08BF02F07F05B3EB33
:101A9400D21F0D554FEAD21534462A460680ECD1A2
:101AA4005DF804BBF0BD00BF041000E0F0B503AF67
:101AB4004DF804BD8AB27F2A0AD3D0E9003441F03C
:101AC400800125886E1C6FF31F355955D109268076
:101AD400D0E9002003885C1C6FF31F33D1540480C9
:101AE4005DF804BBF0BDD4D4E0B502AF00F056F904
:101AF4006C46CDE9000120460021FFF7ABFF034906
:101B04002046FFF7D3FF00F05CF9FEDE0900000079
:101B1400DCB504AF00F042F96C46CDE90001204683
:101B24000421FFF797FF0D492046FFF7BFFF0C483C
:101B34000168090611D00021016000F02FF96C46FC
:101B4400CDE9000120460221FFF784FF0549204624
:101B5400FFF7ACFF044801210170DCBD0A0000005E
:101B6400000100400B00000006F0032007484FF47A
:101B7400803101604FF48051C0F83C124FF4807101
:101B840003480160034800F007B800BF04B30040F5
:101B94000C05005000110000D0B502AF0022012353
:101BA4000021012A05D0845C013203FA04F42143A4
:101BB400F7E709B101480160D0BD00BF00E100E0D2
:101BC400F0B503AF4DF804BD1E4C1F4D264604F579
:101BD400C670864212D06868014655E8010F8842F3
:101BE40004D145E80162002AF6D102E0BFF32F8F49
:101BF400F2E746F8841B00F0E9F8E8E713480F2100
:101C04000123416008210160114981608121C16083
:101C140010490A6863F302020A6040F202214FF499
:101C2400822281620C49C162002101630B49425046
:101C34000B490C4A42500C485DF804BBBDE8F04027
:101C4400FFF7AABF00C0032008F003200C150040D2
:101C5400080000066C16004021100100F4FCFFFF90
:101C6400F8FDFFFF0940040801110000BCB504AFF2
:101C74004FF080400125056000F090F86C46CDE9F6
:101C8400000120460221FFF7E5FE05492046FFF743
:101C94000DFF044805600448BDE8BC40FFF77CBF65
:101CA4000C0000000403004002110000014801215F
:101CB4000160704704100040BCB504AF0A480468D2
:101CC40000F06CF86D46CDE9000128460321FFF7CA
:101CD400C1FE06492846FFF7E9FE2046294600F0E2
:101CE40007F8204602B0B0BD5015004017000000B0
:101CF400F0B503AF4DF804BD0C460546D1E900012B
:101D04000C260A88531C6FF31F32865420460B801E
:101D14001449FFF7CBFE05F00F010820DFE801F0BE
:101D2400070D0F091521212121110B131600002085
:101D34000CE003200AE0062008E0012006E002206F
:101D440004E0052002E0072000E00420D4E90012AA
:101D540013885C1C6FF31F33C85414805DF804BBF4
:101D6400F0BDFEDE16000000E0B502AF00F016F88C
:101D74006C46CDE9000120460021FFF76BFE0349C4
:101D84002046FFF793FE00F01CF8FEDE180000006A
:101D940080B56F4600F015F8FEDED4D40649054838
:101DA4000968C9B20029054918BF00F5805018BF59
:101DB4000231704700D0032004ED00E002F003205C
:101DC400FFBEAABE62B6704772B6704740BF704786
:101DD40020BF704700F0A3B8042A38BFFFF7FABF4A
:101DE400B0B502AFA2F1040C012303EB9C0313F082
:101DF40003030ED08E4604465EF8045B012B44F8C0
:101E0400045B1FD1634620467146BCF10C0F04D21B
:101E140012E01346BCF10C0F0ED30D68103B0560A5
:101E2400032B4D6845608D688560CD6801F1100114
:101E3400C56000F11000F0D802F00302BDE8B04024
:101E4400FFF7C8BF4D68022B456007D1A2F1080314
:101E540008310830BCF10C0FDFD2EDE78B680C3190
:101E64008360A2F10C030C30BCF10C0FD5D2E3E774
:101E74000B4611461A4600F08FB81346D2B2042915
:101E840038BFFFF7F5BFD0B502AFA1F1040E42EAA7
:101E94000363012443EA024304EB9E0443EA02235E
:101EA40014F0030410D08446012C4CF8043B10D1E8
:101EB40074466046BEF10C0F1ED201F00301BDE86A
:101EC400D0406046FFF7D4BF0C46BEF10C0F13D2CE
:101ED400F3E7022C436007D10830A1F108048446DB
:101EE400BEF10C0F08D2E8E783600C30A1F10C04BA
:101EF4008446BEF10C0FE0D3C0E90033103CC0E9C6
:101F040002331030032CF7D8844601F00301BDE8F6
:101F1400D0406046FFF7ACBF0022FFF7AEBFF0B57C
:101F240003AF4DF8048DA2B3531E02F0030C032B30
:101F340014D20022BCF1000F2BD08B5CBCF1010F3A
:101F4400835426D0531CBCF1020FCE5CC65420D05F
:101F54000232895C81545DF8048BF0BDACEB020E57
:101F640001F10108441C6FF0030208EB0206A518F6
:101F74000432F378EB7033792B7173796B71B37925
:101F8400AB710EEB02030433EFD10432BCF1000F4A
:101F9400D3D15DF8048BF0BDD0B502AF12B3531E9C
:101FA40002F0030C032B01D200220FE0ACEB020E73
:101FB400421C6FF00303D4180433A17161712171C1
:101FC400E1700EEB03040434F5D11A1DBCF1000FCB
:101FD4001ABF8154BCF1010FD0BD0244BCF1020F01
:0A1FE400517000D1D0BD9170D0BD46
:0C1FF000711C0000C51B0000711B0000EC
:040000030000167D66
:00000001FF
