:10100000F8F30320552500002B4500002B45000078
:101010002B4500002B4500002B4500000000000080
:101020000000000000000000000000002B45000050
:101030002B450000000000002B4500002B45000060
:10104000FD2500000D2600002B4500003128000082
:101050002B4500002B4500002B4500002B450000D0
:101060002B4500002B4500002B45000061280000A7
:101070002B4500002B4500002B4500002B450000B0
:101080002B4500002B4500002B4500002B450000A0
:101090002B4500002B4500002B4500002B45000090
:1010A0002B4500002B4500002B4500002B45000080
:1010B0002B4500002B450000000000000000000050
:1010C0002B4500002B4500002B4500002B45000060
:1010D0002B4500002B4500002B4500003D2900005A
:1010E0002B4500002B4500002B45000000000000B0
:1010F000000000002B450000000000002B45000010
:10110000F91700000400000004000000BF180000F0
:10111000FB170000991800006465766963656964CF
:101120003D000000581200000000000058120000AE
:101130000000000000000000200000000800000087
:101140000200000000000000000000000800000095
:101150000300000001000000200000000800000063
:101160000200000000000000000000000800000075
:1011700003000000206368616E6E656C3D2054784A
:10118000506F7765723D2B3864426D0A7411000010
:10119000090000007D1100000F000000726563650A
:1011A0006976656420206279746500009C110000F6
:1011B00009000000A51100000500000073457272CF
:1011C0004F6B20284352433D28290000C2110000E4
:1011D00006000000C811000001000000C911000055
:1011E00001000000000000002000000000000000DE
:1011F00002000000000000000200000000000000EB
:101200000300000001000000200000000C000000AE
:1012100002000000000000000000000006000000C6
:10122000030000002C204C51493D00002412000016
:1012300006000000290A6469646E277420726570D4
:101240006C79202D2D206368616E6E656C2077614E
:101250007320627573790A003030303130323033A8
:101260003034303530363037303830393130313154
:10127000313231333134313531363137313831393A
:101280003230323132323233323432353236323732
:101290003238323933303331333233333334333518
:1012A00033363337333833393430343134323433FE
:1012B00034343435343634373438343935303531E4
:1012C00035323533353435353536353735383539CA
:1012D00036303631363236333634363536363637C2
:1012E00036383639373037313732373337343735A8
:1012F000373637373738373938303831383238338E
:101300003834383538363837383838393930393173
:101310003932393339343935393639373938393959
:1013200030780B01003235323432333232323132DE
:10133000303139313831373136313531343133317B
:081340003231313236000000A9
:10134800F0B503AF2DE9E00F8B688A460969D0E94B
:101358000069012B02D1012903D077E0012940F06F
:10136800D480B9F1000F53D0DAF8141006EB090E47
:10137800019300224B1C3146344602960D4615F95E
:10138800010BB0F1FF3FC6B229DC754505D048789E
:101398008D1C00F03F0C294602E04FF0000C71460E
:1013A80006F01F0BDF2E07D9714508D011F8010B85
:1013B80000F03F080D4605E04CEA8B160FE04FF0B1
:1013C8000008714648EA8C1CF02E06D371450FD0F0
:1013D80011F8010B00F03F060CE04CEA0B362946E9
:1013E800013B17D0121B8E450A440C46C6D10BE0B0
:1013F800002629464FF4E01000EA8B4040EA8C10A2
:101408000644B6F5881FEBD14A46DDE901361AE0F5
:10141800002218E0019BB6F5881F02D14A46029EB9
:1014280011E0029E3AB14A4505D04A4505D2B05668
:1014380010F1400F01DB304601E0002000220028B7
:101448000CBF4A460646012B0CD19146B9F1000F54
:101458000BD0A9F1010009F0030C032807D20020E2
:10146800324625E0DAE9060154E000203BE0ACEB27
:1014780009030020B64632461478557804F0C004B3
:101488009678D178802C05F0C00408BF0130802CF4
:1014980006F0C00408BF0130802C01F0C00108BF6D
:1014A8000130802908BF013004320433E4D1764684
:1014B800BCF1000F17D0117801F0C001802908BFD6
:1014C8000130BCF1010F0ED0517801F0C001802924
:1014D80008BF0130BCF1020F05D0917801F0C001BE
:1014E800802908BF0130DAF80CE0A9EB000171454A
:1014F8000BD2B9F1000F15D0A9F1010109F0030CC5
:10150800032911D2002133462FE0DAF81C104A468D
:10151800DAF81800CB68314603B0BDE8000FBDE823
:10152800F040184700213BE0ACEB09040021B0462D
:1015380033461D785E789A7805F0C005D878802DF6
:1015480006F0C00508BF0131802D02F0C00208BFB7
:101558000131802A00F0C00008BF0131802808BF8F
:10156800013104330434E4D14646BCF1000F17D0EE
:10157800187800F0C000802808BF0131BCF1010FC5
:101588000ED0587800F0C000802808BF0131BCF1A7
:10159800020F05D0987800F0C000802808BF0131FC
:1015A8009AF82000C21E18BF0246A1EB090000EB02
:1015B8000E0100200C46DFE802F0080205020024B4
:1015C800084602E0480801314C08451C013D08D096
:1015D800DAE90602DAF80410126990470028F5D013
:1015E80013E0DAE906014A46CB683146DAF804B076
:1015F800984750B9DAE906650134013C09D02A69EF
:101608003046594690470028F7D00120BDE80E0F14
:10161800F0BD0020FAE7D4D4F0B503AF2DE9000FF0
:101628008DB0D1E9023BD1E900A6D1E9045C0321E0
:101638008DF830102021059100216B4A04910B92FE
:1016480003AA0A920891039006910293C3B1B34585
:1016580088BFB346BBF1000F2DD0DAF8041002683A
:101668005318802B00F2B280DAF80030A1B302449C
:1016780013F8014B01391471026801320260F5E771
:10168800B44588BFB446BCF1000F14D0DAF8041092
:1016980002685318802B00F29980DAF80030E3468C
:1016A800002978D0024413F8014B013914710268FB
:1016B80001320260F4E74FF0000846450AD90AEB08
:1016C800C8005AF838104268DDE90A03DB68984711
:1016D80000287BD100207AE00298544601964FF00A
:1016E800010800F110094FF0000A6646029800EB65
:1016F8008A0148680590087F8DF830008868049052
:10170800D1E9052062B1022A0CD0B04268D205EBBB
:10171800C002364B52689A4204D155F8300000682E
:10172800012200E00022CDE90620C968D9F80000AE
:1017380061B102290CD0B04252D205EBC0012B4A4C
:101748004968914204D155F830000068012100E051
:101758000021CDE9081059F8100CB04240D255F8D4
:10176800301005EBC0004268084604A9904768BBE2
:10177800D84530D204EB0A00D0E90212DDE90A03A9
:10178800DB6898470AF1080A09F1200908F10108FD
:101798000028ABD01AE00DF110093446002605EBFD
:1017A800C60155F836004A684946904770B906F1AF
:1017B8000108D84512D20AEBC600D0E90212DDE9C9
:1017C8000A03DB68984700284646E8D001200DB098
:1017D800BDE8000FF0BDA246019E6EE726466CE705
:1017E800314600F052FCFEDE0011000085200000AA
:1017F8007047E0B502AF0068802909D202687F2AE5
:1018080018D80244117101680131016000203DE0DF
:101818000022B1F5006F01924FF002020CD28B0941
:1018280062F39F118DF80510062161F35F138DF89F
:10183800043028E0012029E00B46B1F5803F62F32F
:101848009F130ED28DF806308B0962F39F13090B94
:101858000E228DF8053062F31F118DF80410032253
:1018680011E08DF80730F02343EA91438DF80430F6
:101878008B09090B62F39F1362F39F1104228DF801
:1018880006308DF8051001A900F018F802B080BDE7
:10189800F0B503AF4DF8048D86B00068EC4691E8CA
:1018A80074416346614683E87441FFF7B5FE06B0AC
:1018B8005DF8048BF0BD006800F000B8D0B502AF49
:1018C80003689C18802C01D90120D0BD42B1034483
:1018D80011F8014B013A1C71036801330360F5E705
:1018E8000020D0BD80B56F46017839B1032902D1F7
:1018F8004178012904D100F0C3FBFEDE00214170CC
:10190800064901220978C9B2002908BF03220270DA
:101918004270B1FA81F0400980BD00BF94FD0320F8
:1019280080B56F46C8B0DFF8CCA601210AF10500E2
:10193800D0E84F2F002A40F03E83C0E8421F002A1B
:10194800F6D10AF104000121D0E84F2F002A40F017
:101958003F83C0E8421F002AF6D1D14E0DF1200B7B
:10196800DFF8A01632204FF000080922C6F8FC0064
:101978005846CDF82080FFF7A1FFCA480DF1F409B9
:1019880042AC022541683A9100683D90DFF87C0638
:10199800DFF874164591CDE943193AA9429129A96E
:1019A8002E95CDE92C54CDE92A50DFF8640629900C
:1019B8005846FFF731FEDFF85C16D6F8FC00012622
:1019C8002E96CDE92C8400F07F00CDE92A5829AD68
:1019D800CDE94291DFF84016299129468DF8F400A7
:1019E8005846FFF719FE05F12A00029005F1290073
:1019F8008DF8BC802C94CDE92AB4CB46019005F132
:101A08002400DFF84096039005F13400049005F1B6
:101A18002C00059005F11000299406909DF8BC0053
:101A2800DFE810F006009F029F0222003B00090039
:101A38008DF8C0801DE09DF8D400DFE810F03D016E
:101A4800930292024301070051004B009DF8DC000D
:101A5800810700F04181032840F084829DF8DD0071
:101A6800012840F03B817DE29DF8C000012800F08C
:101A78007982DAF8100060B101685AE8042F8242CE
:101A880004D14AE80412002AF3D117E0BFF32F8FDC
:101A9800EFE703208DF8C0005EE29DF8CC00DFE898
:101AA80010F03900610260023D00060013009DF845
:101AB800D80081071FD0032844D053E20221C17007
:101AC8002D908DF8C0601AE09DF8E00080B10328E1
:101AD80071D047E29DF8D800012840F0898141E2A1
:101AE8009DF8E00048B1032840F03C82379D09E1A9
:101AF800DDE934015DE0349823E0369D01E12A9860
:101B080050F8041B02F03CFC06988DF8CC8031900C
:101B18002B983090ADF8D080319832900598FFF727
:101B2800E1FE18B103208DF8CC0089E04FF48070F5
:101B3800ADF8CD00012000064ED003988DF8D8806E
:101B4800349035909AF80600C0B210B102286FD0D0
:101B58001AE202F0A9FB5FFA80FBBBF1000F58D034
:101B6800BBF1010F64D0BBF1020F40F0FE81359844
:101B78004B49006800680330C1F8F8004A488AF801
:101B88000760066002F046FCCDE9420120460221CA
:101B980001F052FFDFF88814204601F067FF019931
:101BA8000DF1F40B02988DF8D8608DF8E08035912E
:101BB8003490CDE936019AF8070000F00300DFE819
:101BC80010F0E30104001400210005208DF8CC007A
:101BD80003208DF8E00033E0314801688DF8CC60CF
:101BE8009DF8CD0080F001002CE08AF80780369837
:101BF80080F800802C48D0F8F803379900F00100ED
:101C0800087001E08AF807808DF8E0609DF8CE0042
:101C180091E702F043FB02F0FDFBCDE942012046CB
:101C2800022101F009FFDFF8FC13204601F01EFF36
:101C380004200DF1F40B8DF8CC0003208DF8D800AA
:101C48000021022082B2022A01D1042084E1ADF8E9
:101C5800B800ADF8BA102D99CA78023AD3B2032B5E
:101C680006D351FA82F212798DF8C120012200E0E0
:101C7800002200048DF8C02001D00020CEE011F829
:101C8800030F821E51FA82F0D2B2013152086AB1B2
:101C98000B78013A057801F8015B00F80139F6E79D
:101CA8000C140040600000100810004006988DF8E1
:101CB800D48032902C983190DDE931013390ADF821
:101CC800D88034910498FFF70DFE08B1032040E155
:101CD800CDF8DC80339836908DF8DD809AF80800CE
:101CE8000121C0B2022808BF032102288DF8DC10A8
:101CF8008DF8DD1001D104202BE1059D8DF8E080E1
:101D080036953795002100208DF80861012905D006
:101D1800625C013106FA02F21043F7E708B1C349E1
:101D280008609AF8060000F00300012800F0088116
:101D3800A8BB02208AF8060002F06CFBCDE942013C
:101D48002046022101F078FEB949204601F08EFEB6
:101D58002868AB4900680330C1F8F800AF4801466D
:101D68004FF48040C1F80003D1F8F80140F4801026
:101D7800C1F8F8019AF80700C0B201280FD1032072
:101D88008AF80700A548466002F044FBCDE9420105
:101D98002046022101F050FE2046A649CEE002F07E
:101DA80083FAC5B2002D00F0BD80012D00F0C88077
:101DB800022D40F0EC8099484FF000618AF80860E5
:101DC800C0F8FC12466202F025FBCDE9420120462C
:101DD800022101F031FE9849204601F047FE2046D5
:101DE8008DF8086102F042F98DF8E0608DF8D8802E
:101DF8009AF808000122C1B2012908BF032201296B
:101E08008DF8D82001D10620A3E06FF0030151FA24
:101E180080F0B0FA80F08DF8D460400907902A98D5
:101E2800016801394A1C01D00160FAE72D990226A0
:101E3800824A4D46DFF80892C97847960239CDE9BB
:101E4800458BCDE943680DF1E8084292A7F13902C4
:101E580007F8391CC9B2CDF80091CDE93E583D923A
:101E68004A1E2A9818BF0122012978493B92764ACE
:101E780008BF11463A912146FFF7CEFBBDF8B800DE
:101E8800734A01284FF0020008BF03203B90BDF8B9
:101E9800BA10704808BF104627F82E1C6E4947969E
:101EA800CDE9456B01264491032143916B49429149
:101EB8006B493A904091A7F12E012A98CDE93E91BD
:101EC8002146CDF8F480A9464FF00008FFF7A4FB9F
:101ED8009DF8C00098B19DF8C10007F8190C2A9820
:101EE80060494796CDE9458BCDE943684291A7F112
:101EF8001901CDF8F8903D912146FFF78DFB2A98FE
:101F080002225949FFF7DAFC079800283FF4F7AD99
:101F18002A9821225549FFF7D1FC2A9802C802F0D5
:101F28002FFAECE502F0BAF902F074FACDE94201B1
:101F38002046022101F080FD4D49204601F096FD22
:101F480020468DF8086102F091F803208DF8E00032
:101F580005208DF8D40005208DF8BC0002F0E9FAC0
:101F68005CE5FEDE00F08CF8FEDE02F053FA42ACCF
:101F7800CDE942010021204601F05EFD2A492046B4
:101F880001F074FD584610E001F03CFFFEDE02F05F
:101F980041FA42ACCDE942010021204601F04CFD56
:101FA8003449204601F062FD2846214602F098F99E
:101FB80002F0D2F9FEDEBFF32F8F02F02BFA08AC45
:101FC800CDE908010021204601F036FD0A490BE061
:101FD800BFF32F8F02F01EFA08ACCDE908010021EB
:101FE800204601F029FD0549204601F03FFD02F099
:101FF80099FAFEDE98FD0320590000004E0000000B
:102008000C14004018110000832400003411000053
:1020180024110000D94100008C1100000810004074
:10202800500000004F0000005100000080E100E077
:10203800520000005300000055000000AC110000E1
:10204800491300000724000058120000BC110000CA
:10205800BD110000C0110000E4110000CC11000007
:10206800592300002C120000341200003612000020
:10207800540000005600000002F055BA0068FEE760
:1020880080B56F4600F006F8FEDE80B56F4600F0BA
:1020980001F8FEDE80B56F4602F0B6F9FEDED4D454
:1020A800F0B503AF2DE9000F83B0D0F800E09246F9
:1020B800BD680A461EF001014FF02B0B01EB050627
:1020C80008BF4FF4881B1C4680465FEA4E7103D454
:1020D8004FF0000A002254E0BAF1000F0BD0AAF129
:1020E80001010AF0030C032907D200211346BCF1B1
:1020F800000F2BD142E0002140E08DE87000ACEBEE
:102108000A060021914613461A785D78987802F0FD
:10211800C002DC78802A05F0C00208BF0131802A9D
:1021280000F0C00008BF0131802804F0C00008BFDB
:102138000131802808BF013104330436E4D1DDE9D8
:1021480000454A46029EBCF1000F17D0187800F0EF
:10215800C000802808BF0131BCF1010F0ED05878AB
:1021680000F0C000802808BF0131BCF1020F05D083
:10217800987800F0C000802808BF013106EB0A00FB
:10218800461AD8F80800012818D1D8F80C90B1459B
:1021980014D95FEA0E702AD40292A9EB060198F8C6
:1021A800202000208946032A08BF0122DFE802F028
:1021B800490245024FF00009084642E040465946A8
:1021C800534600F09EF828B10126304603B0BDE81A
:1021D800000FF0BDD8F81C102A46D8F81800CB68B4
:1021E800214603B0BDE8000FBDE8F0401847D8F815
:1021F800040059460296012601903020C8F80400D0
:10220800534698F820000090404688F8206000F077
:1022180078F80028D9D198F82020AA460298032AED
:1022280008BF0122A9EB000100200D46DFE802F0FB
:102238003A0237020025084634E0480801314FEADF
:102248005109461C013E08D0D8E90602D8F8041006
:10225800126990470028F5D0B6E7029A40465946D9
:102268005346D8F8046000F04CF80028ACD1D8E9FF
:1022780006012A46CB68214698470028A4D109F1CF
:102288000105D8E9069834460126013D2FD0D8F833
:1022980010204846214690470028F6D095E7480880
:1022A80001314D08461C013E08D0D8E90602D8F88D
:1022B8000410126990470028F5D085E7D8E906028E
:1022C8002146D3685246D8F80440984700287FF43E
:1022D8007BAFD8E9069A01350126013D09D0DAF825
:1022E80010204846214690470028F6D06DE7002682
:1022F8006BE70098002688F820000198C8F80400C9
:1023080063E7F0B503AF4DF804BD1C461546064615
:10231800B1F5881F08D0D6E906021269904718B1AE
:1023280001205DF804BBF0BD4DB1D6E90601224697
:10233800CB6829465DF804BBBDE8F040184700208B
:102348005DF804BBF0BD80B56F46FFF7A3FEFEDE67
:10235800F0B503AF4DF804BDA2B0068802AD0C4637
:10236800802106F00F0000F157020A2838BF00F15B
:102378003002284602F032F90020B0EB161F28D0B0
:10238800310901F00F0101F157020A2938BF01F1A3
:102398003002B0EB162F8DF886201DD0300A00F0E1
:1023A8000F0000F157010A2838BF00F13001002062
:1023B800B0EB163F8DF8851011D0300B00F15701A6
:1023C8000A2838BF00F130018DF884107C200421E0
:1023D80007E07F20012104E07E20022101E07D202A
:1023E8000321009141F220312B18C0F20001204650
:1023F8000222FFF755FE22B05DF804BBF0BD80B5A0
:102408006F468CB00A460178642915D348F21F50EC
:10241800C5F2EB10A1FB00036FF063005B0903FB3F
:10242800001041F25821C0F20001C0B231F810008A
:10243800ADF82D00242003E00A2906D226200B46F9
:1024480003F1300102AB195408E041F25820C0F200
:10245800000030F81100ADF82D002520C0F127014B
:10246800009102A90B1841F258211046C0F2000150
:102478000022FFF715FE0CB080BDB0B502AFA2B0C8
:1024880000680DF1080E8C468123002200F00F0130
:1024980001F157040A2938BF01F130040EEB03019A
:1024A800B2EB101F01F8024C30D0040904F00F04FD
:1024B80004F157050A2C38BF04F13005B2EB102F90
:1024C80001F8035C27D0040A04F00F0404F157054F
:1024D8000A2C38BF04F13005B2EB103F01F8045C58
:1024E8001ED0040B043B04F00F0404F157050A2C1A
:1024F80038BF04F1300501F8055C010CB2EB104F50
:102508000846C3D1581E81280ED31CE0981E013BF3
:10251800812809D317E0D81E023B812804D312E092
:10252800181F033B81280ED2C3F18101009141F2AB
:1025380020310EEB0003C0F2000160460222FFF7D3
:10254800AFFD22B0B0BDFFF7FEFEFEDE80B56F46E0
:102558001B481D4A016841F080710160194800213B
:102568004160016811400131016018480121C0F83B
:102578001015016016488160016016481649091A4D
:1025880021F0030102F079F814481549091A21F0DD
:102598000302144901F0D1FF01F0C7FF12484FF4BC
:1025A8008A51124C124D01600161AC4202D201CC39
:1025B8008047FAE7FFF760FDFFF7B2F9FEDE00BFDC
:1025C800FCED00E0001000E0FEFFFF000800004006
:1025D80000B0004000FC0320ACFD0320ACFD03204C
:1025E8002CFE0320644700000805005054470000F3
:1025F8006447000080B56F4601F018FCBDE88040D4
:1026080001F042BCF0B503AF2DE9C00B01F002FFA9
:102618006C46CDE900012046042101F00DFA794904
:10262800204601F023FA784A906B000605D0002076
:102638009063D2F80402400406D41068000607D05C
:102648004FF0040810461BE091464FF002081AE0CC
:10265800104650F8481F090602D04FF000080FE056
:10266800104650F80C1F090602D04FF0010807E089
:10267800104650F86C1F090600F0C0804FF00308A0
:1026880091460021016001F0C5FE6E460446CDE981
:1026980000010D463046032101F0CEF95B49304672
:1026A80001F0E4F928880C22411C6FF35F202254C2
:1026B80030462980564901F0D9F9DFE808F003725D
:1026C8002B482100DDE9000100250A88531C6FF31F
:1026D8005F2285540B8001F09DFE6C46CDE9000118
:1026E8002046022101F0A8F94E49204601F0BEF922
:1026F8004FF000600421C9F808024648857161E07E
:10270800DDE9000104240A88531C6FF35F22845416
:102718000B8070E0DDE9000102240A883D4D531C5E
:102728006FF35F2284540B80A879000666D101F00C
:1027380071FE6C46CDE900012046022101F07CF9CA
:102748003649204601F092F90120A87153E0DDE9ED
:102758000012032013885C1C6FF35F23C8542D49B3
:1027680014808A79D2B2022A48D14FF48042C9F83B
:102778000422D9F8002122F48012C9F800214FF070
:102788000062C9F8082200228A71087201F042FE2C
:102798006C46CDE900012046022101F04DF91E49A1
:1027A80026E0DDE9000101240A88531C6FF35F224B
:1027B800845418480B808179C9B2012904D00229B0
:1027C8001CD10221017216E0C179C9B2012915D1C3
:1027D8000021C9F86C1081710221C17101F01AFE43
:1027E8006C46CDE900012046022101F025F90C498B
:1027F800204601F03BF9BDE80C0BF0BD01F002FBEF
:10280800FEDE00BF40000000001100404100000053
:102818004600000098FD032045000000430000002A
:102828004400000042000000DCB504AF01F0F2FDF6
:102838006C46CDE900012046042101F0FDF8044969
:10284800204601F013F9034800210160DCBD00BFF8
:102858003F00000018310040DCB504AF2F48016884
:10286800C90741D1C16BC90722D000212F4CC163D0
:102878002D490A88931C013204EA03332C4C236047
:102888000A8091B20C22B1FBF2F202EB4202A1EBF8
:10289800820103290CD8DFE801F002070207214969
:1028A8004FF480724A6003E01E494FF480720A6058
:1028B800016CC9071FBF002101644FF40031C0F843
:1028C8000412416CC9071FBF002141644FF48021E5
:1028D800C0F80412816CC9071FBF002181644FF43E
:1028E8000021C0F80412DCBD01F094FD6C46CDE96E
:1028F80000012046002101F09FF80949204601F017
:10290800B5F808484FF480510160402101604FF448
:102918008071416001F006FEFEDE00BF04B1004098
:102928003E0000000805005000FC032000F0FF00F6
:1029380040B50040F0B503AF2DE9000F93B001F0AA
:1029480069FD0AACCDE90A010421204601F074F8BA
:10295800DFF8641E204601F089F8D84AD2F85401FD
:10296800000604D002F5AA704FF007093DE01046B2
:1029780050F8FC1F090602D04FF0080935E0D2F8DC
:102988002401000604D002F592704FF003092CE0F0
:10299800D2F85801000604D002F5AC704FF00409D3
:1029A80023E0D2F85C01000604D002F5AE704FF0C7
:1029B80005091AE0D2F82C01000604D002F5967039
:1029C8004FF0000911E0D2F83801000604D002F5F2
:1029D8009C704FF0010908E0D2F81001000600F0E1
:1029E8005F8402F588704FF0020900219246016069
:1029F80001F010FD0AAE0446CDE90A010D46304645
:102A0800032101F019F8DFF8B41D304601F02EF863
:102A180028880C22411C6FF35F20225430462980FD
:102A2800DFF89C1D01F022F80820DFE809F005090D
:102A38000B070F110D13140000200CE003200AE00F
:102A4800012008E0022006E0062004E0042002E05D
:102A5800052000E00720DDE90A121388DFF8648DFD
:102A68005C1C6FF35F23C854148098F80200811E21
:102A7800CAB2032A28BF0121C9B2012911D00229EB
:102A880014D1DFE819F009000E01AE00BA004700C2
:102A98001F019401F5009B01DFF82C0D00214181F5
:102AA800D0E1B9F1070F08BF002802D000F0FCFF01
:102AB800FEDE01F00FF80005F8D5012088F80200C5
:102AC80001F0A8FC0AACCDE90A010221204600F079
:102AD800B3FFDFF8841E204600F0C8FF98F8000016
:102AE800002800F0AF8198F80100002800F0AA81C2
:102AF80098F80200002800F0A581042088F8020058
:102B08000020A8F8000013B0BDE8000FBDE8F040B1
:102B180001F030B8DFF8480E40890028C6D1684E69
:102B280001220025D6F800905FFA89F0C109B2EBBE
:102B3800D01F0C4618BF0224B5EBD01F08BF0C46A7
:102B4800D6F804A0B368022CF068D9B241EA002193
:102B58000991D6F810E07169B269F6695FFA8EFCDE
:102B68004CEA012BD2B242EA06220892CDF81C9018
:102B780040F03B818DF83050CDE90A555546DDE9E6
:102B8800089601F047FC0DACCDE90D010021204667
:102B980000F052FFDFF87C1E204600F067FF079820
:102BA800214601F079F82846214601F075F8DFF84A
:102BB800685E30462146A84758462146A8474846F9
:102BC8002146A8473D490120086501F023FC0AACCD
:102BD800CDE90A010221204600F02EFFDFF83C1E55
:102BE8002DE101F017FC0AACCDE90A0102212046CB
:102BF80000F022FFDFF8381E21E1DFF8646D7089EC
:102C0800012800F0118102287FF450AFD14601F06D
:102C180001FC0AACCDE90A010221204600F00CFFB4
:102C2800DFF8FC1D204600F021FFB089002800F0E5
:102C38000D81234DD5F880014030C5F88001B48955
:102C4800412CC0F0068101F0E5FB0AACCDE90A0190
:102C58000221204600F0F0FEDFF8CC1D204600F0EF
:102C680005FF4020214601F017F8B08940380AE1F5
:102C780000F030FFC10500F1C480800540F169868D
:102C880001F0C8FB0AACCDE90A010221204600F098
:102C9800D3FEDFF8E01C204600F0E8FE08480021DB
:102CA800BFE001F0B7FB0AACCDE90A0102212046DA
:102CB80000F0C2FEDFF87C1DC1E000BF04700240D6
:102CC80080740240DAF86854CAF86854680708D56E
:102CD800DFF88C0C0078C0B202287FF4E7AE00F071
:102CE80061FFA8072AD501F095FB0AACCDE90A01D6
:102CF8000221204600F0A0FEDFF87C1C204600F0F0
:102D0800B5FE01F087FB0AACCDE90A010221204695
:102D180000F092FEDFF8641C204600F0A7FEDFF802
:102D2800400C01210170DFF83C0C8188C08889B211
:102D380080B288421EBFD94880210160680318D537
:102D4800DB48866A804601F065FB0AACCDE90A01DA
:102D58000221204600F070FEDFF8241C204600F017
:102D680085FE06F07F00214600F096FF0020C8F897
:102D7800280028030DD501F04DFB0AACCDE90A0166
:102D88000221204600F058FEDFF8F81B204600F02C
:102D98006DFE280756D501F03DFB0AACCDE90A01C6
:102DA8000221204600F048FEDFF8DC1B47E013B0A4
:102DB800BDE8000FBDE8F04000F0F4BE01F02AFBCA
:102DC8000AACCDE90A010221204600F035FEDFF801
:102DD800981B204600F04AFEDFF8840B4178022950
:102DE80080F0B785002141702CE0C9F34112002A18
:102DF80051D0022A4CD0012A7FF4BCAE4FF4807225
:102E08004AE001F007FB0AACCDE90A01022120469D
:102E180000F012FEDFF8541B204600F027FEA448FD
:102E28000121C0F8AC100DE001F0F4FA0AACCDE9CC
:102E38000A010221204600F0FFFDDFF8F01B2046C2
:102E480000F014FE13B0BDE8000FF0BD0020708143
:102E5800F8E701F0DFFA0DF12808CDE90A010221AF
:102E6800404600F0E9FDDFF8BC1B404600F0FEFDDF
:102E78002046414600F010FF00F072FF04F07F008A
:102E8800C5F884010020B0810120C9F80000D9E705
:102E98004FF4007200E0002209F00F06032E3FF6FF
:102EA80069AE04F00104049306940023DFE806F0F9
:102EB8000A0205084FF4803304E04FF4003301E0C0
:102EC8004FF4403342EA0304C4F30122260A1C0CDF
:102ED800012A059337D00396002A069E7FF44AAE4E
:102EE8005FFA8AF255460C2ACDF808B000F25782EC
:102EF800DFE812F00D00390155021D0155020A01E3
:102F0800BA00EB0056016801AF019C01A100002E38
:102F180000F045820998000402BF089880B2022890
:102F280040F03D82022C00F01582012C00F01F8237
:102F3800002C40F034820298000440F030824FF0B8
:102F4800000E042052E106995FFA8AF0049A554669
:102F580022283AD0DDF82090212821D0202808BF47
:102F6800002948D0059A002406F00300ADF8404037
:102F78000F94CDE900B940EA1220099E2A4641EA99
:102F8800002111A8334601F05FFA9DF84400022899
:102F980040F026828DF830400320CDE90A442DE226
:102FA8000029DFD0012CDDD10998000404BF1FFAE5
:102FB80089F00728D6D11FFA8BF0B0F5807F28BF9B
:102FC8004FF0000CCED2022027E0DDF82090002937
:102FD800C8D1012C08BF5FEA0940C3D1099880B263
:102FE80003289CBF1FFA8BF0FF28BBD862F3082C7C
:102FF800C2F3400011E0012CB4D10998000404BFC9
:103008001FFA89F00728ADD11FFA8BF0B0F5807F41
:1030180028BF4FF0000CA5D203208DF82A000F9886
:10302800ADF828C0CDF82B00BDF84000ADF82F0052
:103038000120099EE2E1002E00F0B181022C40F04F
:10304800AE810998000402BF089880B2022840F0B7
:10305800A681029801F02FFAC2B2022A00F09F81DD
:1030680000F0010E0A20C1E0002E00F09881002C2B
:1030780040F0958101F034FAC1B20C2900F08F813B
:103088004FF0FF3151FA80F2062A00F288810FF2E0
:10309800100304210220D3E812F000BF04E200E08C
:1030A8000D005801A9008201820174017E0100BF50
:1030B800807402400498000604BF02985FEA00404A
:1030C80040F06D81012100F035BC56EA040140F062
:1030D800668101F005FAC0B20C2800F0608103286F
:1030E80000F02981022800F02881069E0128554613
:1030F80040F055810498000604BF02985FEA00403A
:1031080040F04D8101211EE1002E40F048810998D0
:1031180080B27F2800F24381002C40F0408108985B
:1031280002990843000440F03A8105205CE0002E33
:1031380040F035810898000440F03181099880B248
:10314800002800F0C280022800F0CE80012808BFC5
:10315800002C40F024810298000440F020814FF0B8
:10316800000E082042E0002E40F01981032C00F0E8
:1031780016810898000440F01281099880B200284E
:1031880000F0CD80012808BF002C40F0088102988B
:10319800000440F004814FF0020E0020002125E0D9
:1031A800002E00F0FC80089880B2012808BF002C8F
:1031B80040F0F580099802990843000440F0EF8038
:1031C800012013E0002E40F0EA80099880B2FF2821
:1031D80000F2E580002C40F0E2800898029908434C
:1031E800000440F0DC800620DDF810E0049AC9B243
:1031F800120642EA01415FFA8EF241EA02210844CE
:10320800CDF82900002002998DF828000898C1EA15
:103218000040CDF82D009DF82A00BDF82810BDF813
:103228002F80DDF82B4041EA004634E1002E40F0C3
:10323800B680012C40F0B380089A120401BF000246
:10324800090208435FEA004040F0A9800920049978
:10325800CCE7002E00F0A380029884F0010300213F
:1032680080B2B0F5807F4FF0000038BF0120099A86
:1032780092B21A43089B9BB283F001031A43B2FA35
:1032880082F25209104008BF8646002800F0878065
:103298000022032004920022029200220892A5E74D
:1032A800DFF8BC060078C0B201287FF4CBADDFF8A8
:1032B800B4068188C08889B280B288423FF4C2AD22
:1032C80092464FF00609FFF793BB022C67D102988C
:1032D80001F0F1F80491C1B2022960D000F00101B7
:1032E8004FF0010E082081E744EA0E00000656D18F
:1032F8006FF0020050FA81F24FF0020E0820032A04
:10330800FFF474AF069ECAB2012A3FF46FAF554668
:10331800022A44D14FF0020E0820022166E7022C4F
:103328003DD1029801F0C7F8C2B2022A37D000F0A6
:10333800010E00205AE7022105E0069E5FEA0B40D5
:1033480055462CD100210720F5E20298000426D129
:103358000021EFE2029801F0AEF80491C1B202290F
:103368001DD000F001014FF0010E04203EE7029845
:1033780080B2B0F5807F12D2714604204FF0020E61
:1033880034E70498000604BF02985FEA004006D1BB
:10339800022002212AE70298000400F0CA8203985A
:1033A8002A460599DDF808B000F00300CDF800B012
:1033B80040EA1120DDF82090CDF8049046EA00217B
:1033C800099E11A8334601F03FF89DF844000228F1
:1033D80006D100208DF83000CDE90A0003200DE069
:1033E8001198CDF83500BDF84800ADF839000D98B2
:1033F8000A90DDF83700CDF82B00022003283FF4AF
:10340800C0AB9DF82A10BDF82820DDF82B4042EA11
:103418000146F0B30128DFF8480528D04078022893
:1034280073D104F47F00C6F30745B0F5003F40F0C0
:10343800F68006F47F40B0F5807F40F0318100F0DF
:10344800E9FF0AAECDE90A010221304600F0F4FA9C
:10345800DFF84415304600F009FB2846314600F0F5
:103468001BFC2046314600F01AFCFFF7ABBB407846
:10347800022856D1300600F0DD8000F0CBFF0AAC00
:10348800CDE90A010021204600F0D6FADFF8101530
:103498003CE2BDF82F8026F07F41C1F307200228C7
:1034A80072D00C0C052848D0062840F0AC8000F0FB
:1034B800B1FF0AAECDE90A010221304600F0BCFA9C
:1034C800DFF8F414304600F0D1FA2046314600F017
:1034D800E3FBDFF88C144878002800F062810128AB
:1034E80000F00A81002C00F0E081C878A04200F0CA
:1034F800EE8100F08FFF0AACCDE90A0100212046D9
:1035080000F09AFADFF8B41400E200F083FF0AAC86
:10351800CDE90A010021204600F08EFADFF86C148C
:10352800F4E100F077FF0AACCDE90A01002120465A
:1035380000F082FADFF86414E8E100F06BFF0AADEE
:10354800CDE90A010221284600F076FADFF888144E
:10355800284600F08BFA2046294600F09DFBDFF84C
:1035680000144878002800F00A81012800F0AE8095
:1035780000F050FF0AACCDE90A010021204600F016
:103588005BFADFF85814C1E100F044FF0AAECDE958
:103598000A010221304600F04FFADFF85014304695
:1035A80000F064FA4046314600F076FBE0B20428A9
:1035B80000F2C281DFE810F0050015012901C00101
:1035C8000A01240A00F026FF0AAECDE90A01022109
:1035D800304600F031FADFF82814304600F046FA99
:1035E8002046314600F058FB200600F0948100F098
:1035F80011FF0AACCDE90A010021204600F01CFAAF
:10360800DFF8001482E100F005FF0AACCDE90A01F9
:103618000021204600F010FADFF8F41376E100F0FC
:10362800F9FE0AACCDE90A010021204600F004FAAF
:10363800D7496BE16FF0010050FAA6F0C1B2022938
:1036480028BF0220C6F30745C0B2002800F01C813D
:10365800012800F0E58000F0DDFE0AACCDE90A01A2
:103668000221204600F0E8F9CE49204600F0FEF994
:1036780005F00100214600F00FFBC6F300202146AB
:1036880000F00AFB00F0C6FE0AACCDE90A010221EF
:10369800204600F0D1F9C449204600F0E7F916E1C8
:1036A80000F0B8FE0AAECDE90A010221304600F06A
:1036B800C3F9B849304600F0D9F92846314600F038
:1036C800EBFA2046314600F0E7FA00E1002C00F062
:1036D80005818878A0423FF4B5AB01208C70487012
:1036E80000F098FE0AACCDE90A010221204600F05C
:1036F800A3F9BB49FFF7A3BB002C00F0E880012C1D
:1037080040F0FA808E780D4600F084FE0AACCDE9D0
:103718000A0102214FF00209204600F08DF9A9495B
:10372800204600F0A3F992494FF001080F2085F8D0
:103738000380AE7085F801900E46C1F8900009200C
:10374800C1F894000020C86200F064FE0AACCDE91C
:103758000A010221204600F06FF99B49204600F03B
:1037680085F90A2021460A2500F096FA9748C6F8F6
:1037780094017A48C6F89851C0F80480A7E0002C54
:103788003FF460AB01208C70487000F043FE0AAC37
:10379800CDE90A010221204600F04EF99249FFF7CF
:1037A8004EBB00F037FE0AACCDE90A0100212046E5
:1037B80000F042F98749A9E000000000010000007C
:1037C8003D00000020FE032098FD032000F022FEAB
:1037D8000AACCDE90A010021204600F02DF9844900
:1037E80094E000F017FE0AACCDE90A010221204658
:1037F80000F022F98049204600F038F9B8F1120F9C
:1038080028BF4FF012087D488BE000F003FE0AAC99
:10381800CDE90A010121204600F00EF9754975E04D
:1038280000F0F8FD0AACCDE90A010221204600F0BB
:1038380003F95E49204600F019F9494948890028EA
:103848007FF434A901254D8100F0E4FD0AACCDE9EF
:103858000A010221204600F0EFF85549204600F001
:1038680005F9434908F10300C1F880020720C1F8AF
:1038780084023A480146D0F8FC0140F00200C1F841
:10388800FC018D64FFF7DEBA00F0C4FD0AACCDE997
:103898000A010221204600F0CFF84649204600F0F0
:1038A800E5F808F1030007213CE08D780E4600F0AA
:1038B800B1FD0AACCDE90A010221204600F0BCF8AE
:1038C8003F49204600F0D2F80120B570707013B05F
:1038D800BDE8000FBDE8F04000F03CBA0020487099
:1038E80000F098FD0AACCDE90A010221204600F05B
:1038F800A3F83C49FFF7A3BA00F08CFD0AACCDE968
:103908000A010021204600F097F83149204600F0CE
:10391800ADF8FFF757B93C48B8F14B0F28BF4FF047
:103928004B08414613B0BDE8000FBDE8F04000F079
:10393800B9B90321022059E400F06CFD0AACCDE9C5
:103948000A010021204600F077F83049204600F0AF
:103958008DF800F08BF9FEDE0300000004700240D1
:1039680098FD0320ACFD03200600000004000000C1
:1039780080740240050000002C0000002D000000AB
:103988002E0000002F00000030000000230000007F
:103998002400000026000000250000001C00000094
:1039A800220000001D0000001E0000002000000092
:1039B800210000001F000000150000001800000092
:1039C8001B000000190000001A00000014FE03206C
:1039D8001700000016000000100000001100000091
:1039E800140000001300000012000000090000008D
:1039F8000F0000000C0000000B000000B4FD0320C5
:103A08000D0000000E000000C6FD03200A000000A3
:103A18000800000007000000A73C00002700000085
:103A2800280000002A000000290000002B000000E8
:103A38003100000032000000F0B503AF4DF804BDBE
:103A4800094A1268D0E90034258892096E1C6FF380
:103A58005F2559552680D0E9003118465DF804BB2A
:103A6800BDE8F04000F09AB9041000E0F0B503AFEB
:103A78004DF804BD8AB27F2A0AD3D0E9003441F058
:103A8800800125886E1C6FF35F255955D109268062
:103A9800D0E9002003885C1C6FF35F23D1540480B5
:103AA8005DF804BBF0BDD4D4E0B502AF00F092F9E4
:103AB80000F0B0FC6C46CDE9000120460021FFF77C
:103AC800BBFF03492046FFF7D1FF00F02BFDFEDEC8
:103AD8003B000000F0B503AF2DE9F00B2248D0F809
:103AE8000080C0F8008000F095FC01AC0546CDE9E7
:103AF80001010E4620460321FFF79EFF1B49204681
:103B0800FFF7B4FF30880A22411C6FF35F202A5464
:103B1800204631801649FFF7A9FF029E40F2FF11A7
:103B280027F81A8C358828466FF35F2088420DD114
:103B3800019CA7F11A09012204F2FF11484600F07E
:103B48007BFC09F101002146012204E001990222CF
:103B58000144A7F11A0000F06FFCA81C3080404611
:103B680004B0BDE8000BF0BD007402403A0000004C
:103B78005A000000DCB504AF08480121016000F0DC
:103B880049FC6C46CDE9000120460221FFF754FFAD
:103B980003492046FFF76AFFDCBD00BF04750240F9
:103BA80039000000F0B503AF2DE9C007DFF8A4A085
:103BB800BAF80450BAF80600401B01041CD084B2BD
:103BC8003F2C28BF3F2454FA85F081B2E8B2B1F502
:103BD800807F13D9DAF80090C0F58076DFF8788016
:103BE80009EB00013246404600F0A5FCA11B08EB9A
:103BF80006008AB2494606E0012625E0DAF80010F8
:103C080022460144144800F096FC2819AAF804003A
:103C180020064FF0010617D000F0FCFB6D46CDE9F9
:103C2800000128460221FFF707FF0C492846FFF745
:103C38001DFF2046294600F02FF809480649016073
:103C4800446008480660022607480670BDE80C076D
:103C5800F0BD00BFACFD032000F4032038000000D5
:103C6800287602400C70024098FD0320E0B502AFB0
:103C780000F0B0F800F0CEFB6C46CDE9000120461C
:103C88000021FFF7D9FE03492046FFF7EFFE00F0B9
:103C980049FCFEDE35000000C0B200F069B880B211
:103CA80000F066B8F0B503AF4DF8048D82B0234E2E
:103CB8008046708990BB234C88B20D4640280AD9AB
:103CC800206820F004002060A5F14000B0810220A7
:103CD8004025708104E000F043F80220C6F80A008D
:103CE80000F098FB6E46CDE9000130460221FFF74F
:103CF800A3FE15493046FFF7B9FE28463146FFF7BF
:103D0800CBFF124905F07F0048601148C1F80080D8
:103D18000121215002B05DF8048BF0BD00F07AFB60
:103D28006C46CDE9000120460021FFF785FE0449D5
:103D38002046FFF79BFE00F0F5FBFEDE98FD032012
:103D48003300000000720240340000000076024098
:103D580004FEFFFF014801210160704750700240D6
:103D68000248016841F00401016070470072024096
:103D7800F0B503AF4DF804BD0246D1E900031C8835
:103D88000626651C6FF35F2406551D80D1E90001E6
:103D98005DF804BBBDE8F04000F000B8F0B503AF33
:103DA8004DF804BD0C880023661C42F080056FF3B3
:103DB8005F24B3EBD21F08BF02F07F05B3EBD21F1D
:103DC80005554FEAD21534462A460E80ECD15DF8E7
:103DD80004BBF0BDDCB504AF08480021016000F069
:103DE80019FB6C46CDE9000120460221FFF724FEAD
:103DF80003492046FFF73AFEDCBD00BF04750240C8
:103E080037000000E0B502AF00F004FB6C46CDE9D6
:103E1800000120460021FFF70FFE03492046FFF767
:103E280025FE00F07FFBFEDE3C000000DCB504AFA1
:103E380000F0F0FA6C46CDE9000120460421FFF7B6
:103E4800FBFD0D492046FFF711FE0C4801680906E5
:103E580011D00021016000F0DDFA6C46CDE90001C7
:103E680020460221FFF7E8FD05492046FFF7FEFD41
:103E7800044801210170DCBD4B0000000001004036
:103E88004C00000094FD0320F0B503AF2DE9C00BF2
:103E980000F0C0FA6C46CDE9000120460421FFF786
:103EA800CBFD5D492046FFF7E1FD5C484FF0000877
:103EB8000168090602D04FF000090FE0014651F8E9
:103EC800042F120603D04FF00109084606E050F807
:103ED800081F090600F095804FF00209C0F800801D
:103EE80000F098FA6E460446CDE900010D463046CA
:103EF8000321FFF7A1FD4A493046FFF7B7FD28889F
:103F08000C22411C6FF35F2022543046298045491A
:103F1800FFF7ACFDDDE900010A88531C6FF35F224F
:103F280000F802900B80404DA878811ECAB2032A7F
:103F380028BF0121C9B271B1012967D12A78002AA5
:103F4800114618BF01217ABB98F001022CD101213A
:103F58002970002144E0B8F1000F4FD1B9F1000FEA
:103F680057D1334849F2753103220160C0F8142152
:103F7800016001212F48016000F04CFA6C46CDE940
:103F8800000120460221FFF757FD2B492046FFF785
:103F98006DFD2A4800210078A5F80110C0B200285C
:103FA80018BF0120287029E0687890BB18EA010042
:103FB80024D1B9F1020F2CD10120687000F02AFA3F
:103FC8006C46CDE9000120460221FFF735FD17496F
:103FD8002046FFF74BFD2978A878B1FA81F1490905
:103FE80060B159B9687848B10420A87000202880C9
:103FF800BDE80C0BBDE8F040FFF7BCBDBDE80C0BFD
:10400800F0BD4FF003094FF001088CE7FFF72EFED3
:10401800FEDEFFF749FDFEDE470000001C01004000
:10402800020000004A00000020FE032049000000B2
:1040380000EC0640007502404800000094FD032093
:1040480007484FF4803101604FF48051C0F83C12AA
:104058004FF4807103480160034800F007B800BFBF
:1040680004B300400C05005022130000D0B502AF85
:10407800002201230021012A05D0845C013203FAC1
:1040880004F42143F7E709B101480160D0BD00BF3E
:1040980000E100E0B0B502AF154D0024B4F5C67FCD
:1040A80004D0281900F036F88434F7E711480F21B6
:1040B80001234160082101600F4981608121C160AD
:1040C8000E490A6863F302020A6040F202214FF4C3
:1040D800822281620A49C162002101630949425072
:1040E80009490A4A42500A48BDE8B040FFF7BEBF36
:1040F80040F503200C150040080000066C1600402F
:1041080021100100F4FCFFFFF8FDFFFF094004083F
:104118002313000009490A69026051E8043F9342E9
:1041280007D141E80402002A1A4608BF00F0FFB987
:10413800F2E7BFF32F8F1A46EEE700BF98FD032082
:10414800BCB504AF4FF080400125056000F062F96E
:104158006C46CDE9000120460221FFF76DFC0549B8
:104168002046FFF783FC044805600448BDE8BC40CE
:10417800FFF77CBF4D00000004030040241300003B
:10418800B0B502AF0C4D0024B4F5C67F04D0281991
:10419800FFF7C0FF8434F7E70848012101604FF4B6
:1041A800607101600648074901600748FFF75EFF34
:1041B800064880210160B0BD04FC032004030040D0
:1041C800047302402194C0012413000004E100E0BC
:1041D800007800F07F02052A1ED00A281ED00F287A
:1041E8001ED014281ED019281ED01E281ED0232801
:1041F8001ED028281ED02D281ED032281ED03728A1
:104208001ED03C281ED041281ED046281ED04B2840
:104218000CBF134A114A1AE01F4A18E01D4A16E05B
:104228001B4A14E0194A12E0174A10E0154A0EE03A
:10423800134A0CE0114A0AE00F4A08E00D4A06E06A
:104248000B4A04E0094A02E0074A00E0054AD1E9BE
:104258000601CB6811460222184700BF431300002D
:104268002513000027130000291300002B1300005A
:104278002D1300002F13000031130000331300002A
:104288003513000037130000391300003B130000FA
:104298003D1300003F1300004113000001480121B5
:1042A8000160704704100040BCB504AF0A480468B8
:1042B80000F0B0F86D46CDE9000128460321FFF76C
:1042C800BBFB06492846FFF7D1FB2046294600F0EC
:1042D80007F8204602B0B0BD501500405800000055
:1042E800F0B503AF4DF804BD0C460546D1E9000111
:1042F8000C260A88531C6FF35F22865420460B80D5
:104308001449FFF7B3FB05F00F010820DFE801F0BF
:10431800070D0F091521212121110B13160000206B
:104328000CE003200AE0062008E0012006E0022055
:1043380004E0052002E0072000E00420D4E9001290
:1043480013885C1C6FF35F23C85414805DF804BBAA
:10435800F0BDFEDE57000000E0B502AF00F05AF8ED
:104368006C46CDE9000120460021FFF765FB0349B3
:104378002046FFF77BFB00F0D5F8FEDE3600000094
:10438800E1B3F0B503AF2DE90007DFF8749082467A
:104398000C46B9F80650B9F80400401B00F58070C7
:1043A800010424D080B2A04238BF044654FA85F0F4
:1043B800E9B280B2B0F5807F0FD9D9F80080C1F595
:1043C800807608EB01005146324600F0B4F8A01B95
:1043D8000AEB060182B2404604E0D9F80000224602
:1043E8000844514600F0A7F82819A9F8060005481E
:1043F80080210160BDE80007BDE8F040704700BFBC
:10440800ACFD032004E200E080B56F4600F08AF8B6
:10441800FEDED4D4064905480968C9B20029054911
:1044280018BF00F5007018BF0231704700F803206C
:1044380004ED00E090FD03202AB110F8013B013A99
:1044480001F8013BF8E77047F0B503AF4DF804BD3C
:10445800D6B201F00104C1F30745D7E90212062ECE
:1044680011D00A2E20D1012D08BF002C1CD1120416
:104478001AD18AB2FF2A17D80171002183700170FE
:10448800190A417014E0012D0ED16CB18CB2FF2CC9
:104498000AD803F47F44B4F5085F05D101710121FE
:1044A80042804370017003E0002181800221016095
:1044B8005DF804BBF0BD024680B2FF2801D9002197
:1044C80007E0C2F30310002128B1082801D1012018
:1044D80002E002207047002002F00F017047D4D498
:1044E8004FF0FF3151FA80F10C200A2918D8DFE883
:1044F80001F006080A0C0E101214171716000120F6
:104508007047022070470320704704207047052039
:1045180070470620704707207047082070470B2017
:104528007047FFBEAABE62B6704772B6704740BFFA
:10453800704720BF704700F0A3B8042A38BFFFF7C0
:10454800FABFB0B502AFA2F1040C012303EB9C0340
:1045580013F003030ED08E4604465EF8045B012B6D
:1045680044F8045B1FD1634620467146BCF10C0F2A
:1045780004D212E01346BCF10C0F0ED30D68103BA9
:104588000560032B4D6845608D688560CD6801F135
:104598001001C56000F11000F0D802F00302BDE878
:1045A800B040FFF7C8BF4D68022B456007D1A2F1A4
:1045B800080308310830BCF10C0FDFD2EDE78B6837
:1045C8000C318360A2F10C030C30BCF10C0FD5D276
:1045D800E3E70B4611461A4600F08FB81346D2B2ED
:1045E800042938BFFFF7F5BFD0B502AFA1F1040E1B
:1045F80042EA0363012443EA024304EB9E0443EACC
:10460800022314F0030410D08446012C4CF8043B18
:1046180010D174466046BEF10C0F1ED201F00301A2
:10462800BDE8D0406046FFF7D4BF0C46BEF10C0F82
:1046380013D2F3E7022C436007D10830A1F1080434
:104648008446BEF10C0F08D2E8E783600C30A1F174
:104658000C048446BEF10C0FE0D3C0E90033103CD3
:10466800C0E902331030032CF7D8844601F0030167
:10467800BDE8D0406046FFF7ACBF0022FFF7AEBFF1
:10468800F0B503AF4DF8048DA2B3531E02F0030C2E
:10469800032B14D20022BCF1000F2BD08B5CBCF191
:1046A800010F835426D0531CBCF1020FCE5CC654B4
:1046B80020D00232895C81545DF8048BF0BDACEBEC
:1046C800020E01F10108441C6FF0030208EB020618
:1046D800A5180432F378EB7033792B7173796B7109
:1046E800B379AB710EEB02030433EFD10432BCF1A2
:1046F800000FD3D15DF8048BF0BDD0B502AF12B373
:10470800531E02F0030C032B01D200220FE0ACEB86
:10471800020E421C6FF00303D4180433A1716171B7
:104728002171E1700EEB03040434F5D11A1DBCF1BC
:10473800000F1ABF8154BCF1010FD0BD0244BCF177
:0C474800020F517000D1D0BD9170D0BDA7
:1047540089410000494100009D400000494000009B
:1047640040F403200000000012010002EF020140A7
:104774002020090300010000000109024B0002018E
:104784000080FA080B000202020100090400000183
:104794000202010005240010010524010301042480
:1047A40002020524060001070581034000200904D4
:1047B4000100020A0000000705020240000007058C
:1047C4008202400000000000A1200000000002005E
:1047D4000300000000000280250000000008000023
:04000003000025557F
:00000001FF
