:1010000000C00320B5180000FD1F0000FD1F0000F8
:10101000FD1F0000FD1F0000FD1F0000000000007C
:10102000000000000000000000000000FD1F0000A4
:10103000FD1F000000000000FD1F0000FD1F00005C
:101040005D19000061190000FD1F0000851B0000F4
:10105000FD1F0000FD1F0000FD1F0000FD1F000020
:10106000FD1F0000FD1F0000FD1F0000B51B00005C
:10107000FD1F0000FD1F0000FD1F0000FD1F000000
:10108000FD1F0000FD1F0000FD1F0000FD1F0000F0
:10109000FD1F0000FD1F0000FD1F0000FD1F0000E0
:1010A000FD1F0000FD1F0000FD1F0000FD1F0000D0
:1010B000FD1F0000FD1F00000000000000000000F8
:1010C000FD1F0000FD1F0000FD1F0000FD1F0000B0
:1010D000FD1F0000FD1F0000FD1F0000FD1F0000A0
:1010E000FD1F0000FD1F0000FD1F000000000000AC
:1010F00000000000FD1F000000000000FD1F0000B8
:10110000525B5D4D446657777E636A21313A3B649A
:1011100073622E347156424A5C3C7B2225292A4C4C
:10112000494758362327375E4041515F6972793EFF
:101130007C28657D596F356E7024763F336C383D61
:10114000264E5A482B672F453020756168743253FC
:101150007A2C552D50784B544F4643606B6D394770
:101160005C75783322576E53516C2C7348204F6A4C
:1011700049313F723D2F215468715D246F746B7B40
:101180005B2D3B25645E61632A2339267D36504200
:1011900052585A692755655F402E4A663556416D4B
:1011A000293C767037774D384460624B434C3A287F
:1011B0007C32453E2B464E7A3059347E67790000AA
:1011C0004E4B62657E6A4422277D445F627D4326E2
:1011D00051265F624326653744266544434B584495
:1011E0007A2B264F262858445B3527496235446EB2
:1011F000277D7E6A4B275F2C636F72726563740074
:0C120000696E636F72726563740B01000D
:10120C0004C8C9B252003AB110F8023B023A8B4200
:10121C00F9D1411E023801E00020002100B9002163
:10122C000846704780B56F46017839B1032902D161
:10123C004178012904D100F02DFBFEDE0021417024
:10124C00064901220978C9B2002908BF032202709D
:10125C004270B1FA81F0400980BD00BF06F0032056
:10126C0080B56F46DAB0DFF8DC850120D8E84F1F77
:10127C00002940F0D482C8E8410F0029F6D1C749B3
:10128C000DF11C0CDFF8C8E55020DFF8C8950CF107
:10129C00040AC1F8FC00002107915F2920D0079EA9
:1012AC0052461EF8015019F80100013173003BB190
:1012BC0012F8024B023B8442F9D1531E023A01E070
:1012CC00002200230AB11D70E7E77F2EE5D80AF84B
:1012DC0016000AEB46004570079801300790DCE7D2
:1012EC0048A8AE4C00F12A01019100F129010091AE
:1012FC0000F12401039100F13001059100F12C0162
:10130C00049100F1280110300DF5B07B00260690F9
:10131C004FF0010A4FF0030900208DF83861CDE938
:10132C004ACBCDE948BB0291C0B2DFE810F0060011
:10133C004E024E0222003B0009008DF83C611DE07C
:10134C009DF84C01DFE810F0F70042024102FD006D
:10135C00070055004F009DF85401810700F0FA80FA
:10136C00032840F033829DF85501012840F0F480A9
:10137C002CE29DF83C01012800F02882D8F80400EA
:10138C0060B1016858E8012F824204D148E801128B
:10139C00002AF3D118E0BFF32F8FEFE703208DF86D
:1013AC003C018EE19DF84801DFE810F03800100296
:1013BC000F023C00060016009DF85401810723D053
:1013CC00032800F08C8101E20221C1708DF839A153
:1013DC004C908DF83CA11BE09DF85C0188B1032872
:1013EC0000F0B481F2E19DF85001012840F04081F9
:1013FC00ECE19DF8580148B1032840F0E781559D78
:10140C00BEE0DDE953019FE1539867E1549DB6E0DE
:10141C0006988DF84861509048984F90ADF84C6103
:10142C00509851900498FFF7FDFE10B18DF848913B
:10143C0005E04FF48070ADF84901012048E100212E
:10144C00022082B2022A01D104203AE1ADF8340123
:10145C004023ADF836119DF83911514A002914BFBB
:10146C0053601360000481F001018DF83911CFD164
:10147C004C98C17803290BD0022919D13A21382272
:10148C00C1704C98DFF8E413043000F058FE4CE0C7
:10149C0001794A988DF86011FFF7B2FE002808BF59
:1014AC0058464C99007881F803904C9908713CE0AF
:1014BC00061D881EC5B25DB134464A9814F8011B4E
:1014CC00FFF79EFE08B100783070013D2646F2E72A
:1014DC004C9CE0783A280AD1DFF89013201D884202
:1014EC0012D0DFF88813382200F0F2FD60B1DB482F
:1014FC004FF48051092201600B20E0704C98DC49BC
:10150C00043000F01CFE0EE0D4484FF480514160D2
:10151C000920E070D7484C9A01460068D1F80310B6
:10152C00C2F807105060C94C002606988DF84C6123
:10153C0050904B984F90DDE94F015190ADF85061B0
:10154C0052910598FFF76EFE08B10320B6E0559650
:10155C00519854908DF8556198F803000121C0B250
:10156C00022808BF032102288DF854118DF855115B
:10157C0001D10420A2E0029D8DF858615495559537
:10158C00002100208DF860A101290BD01BF801204F
:10159C0001310AFA02F21043F6E700BF0C140040C6
:1015AC000805005008B1B449086098F8010000F033
:1015BC00030001287AD0A0BB022088F8010000F0BB
:1015CC0005FDCDE958015846022100F05BFBAB4903
:1015DC00584600F083FB286800680330C4F8F80014
:1015EC009D4801464FF48040C1F80003D1F8F80142
:1015FC0040F48010C1F8F80198F80200C0B201283C
:10160C000FD1954888F80290C0F804A000F0DEFCD9
:10161C00CDE958015846022100F034FB5846984950
:10162C0042E000F061FCC5B295B3012D3ED0022D15
:10163C0040F0CF8088484FF0006188F803A0C0F8D4
:10164C00FC12C0F824A000F0C1FCCDE958015846AA
:10165C00022100F017FB8B49584600F03FFB58461F
:10166C008DF860A100F0B0FB8DF858A18DF8506199
:10167C0098F80300C0B201284FF0010008BF032006
:10168C008DF8500101D1062018E08DF84CA1BFE671
:10169C0000F024FC00F09AFCCDE9580158460221D8
:1016AC0000F0F0FA7849584600F018FB58468DF8CF
:1016BC0060A100F089FB8DF8589105208DF84C0144
:1016CC0005208DF8380100F09BFC9DF838012BE6C5
:1016DC00000649D003988DF854615390549098F8B3
:1016EC000100C0B210B1022867D095E000F0FCFBFD
:1016FC005FFA80F9B9F1000F51D0B9F1010F5CD04C
:10170C00B9F1020F74D15498006800680330C4F822
:10171C00F800514888F802A0C0F800A000F056FC70
:10172C00CDE958015846022100F0ACFA4C49584614
:10173C0000F0D4FA00994FF0030901988DF854A1E8
:10174C008DF85C6154915390CDE9550198F80200E5
:10175C0000F00300DFE800F06002101C05208DF89B
:10176C0048018DF85C916AE621688DF848A19DF8D6
:10177C00490180F0010064E688F802605598067013
:10178C003548D0F8F803569900F00100087001E0D4
:10179C0088F802608DF85CA19DF84A0198E700F08A
:1017AC009DFB00F013FCCDE958015846022100F0D6
:1017BC0069FA2C49584600F091FA04204FF00309BD
:1017CC008DF848018DF8549139E6FEDE00F062F890
:1017DC00FEDE00F0FBFB58ACCDE9580100212046A1
:1017EC0000F050FA2949204600F078FA28460DE01E
:1017FC0000F0ECFB58ACCDE958010021204600F07C
:10180C0041FA1949204600F069FA4846214600F091
:10181C0087FB00F0C1FBFEDE00F07EFAFEDEBFF3BC
:10182C002F8F00F0D3FB07ACCDE907010021204638
:10183C0000F028FA0449204600F050FA00F0D9FBD9
:10184C00FEDE00BF08F003200D0000000C14004069
:10185C005F11000000110000081000400805005046
:10186C000F0000000E00000010000000C01100006E
:10187C0000120000F811000080E100E011000000EF
:10188C0012000000140000001300000015000000FE
:10189C0000F0B0BB80B56F4600F001F8FEDE80B5FD
:1018AC006F4600F08DFBFEDE80B56F461B481D4A6F
:1018BC00016841F0807101601948002141600168A4
:1018CC0011400131016018480121C0F81015016068
:1018DC0016488160016016481649091A21F0030167
:1018EC0000F0CFFC14481549091A21F003021449E1
:1018FC0000F027FC00F080FB12484FF48A51124C88
:10190C00124D01600161AC4202D201CC8047FAE772
:10191C00FFF7BEFFFFF7A4FCFEDE00BFFCED00E00E
:10192C00001000E0FEFFFF000800004000B0004087
:10193C0000F0032010F0032010F0032010F003201F
:10194C00A02200000805005094220000A0220000F4
:10195C0000F0F6B9F0B503AF2DE9C00B00F036FB83
:10196C006C46CDE900012046042100F08BF9794941
:10197C00204600F0B3F9784A906B000605D00020A1
:10198C009063D2F80402400406D41068000607D015
:10199C004FF0040810461BE091464FF002081AE085
:1019AC00104650F8481F090602D04FF000080FE00F
:1019BC00104650F80C1F090602D04FF0010807E042
:1019CC00104650F86C1F090600F0C0804FF0030859
:1019DC0091460021016000F0F9FA6E460446CDE90B
:1019EC0000010D463046032100F04CF95B493046AE
:1019FC0000F074F928880C22411C6FF31F3022541C
:101A0C0030462980564900F069F9DFE808F0037286
:101A1C002B482100DDE9000100250A88531C6FF3D7
:101A2C001F3285540B8000F0D1FA6C46CDE90001D1
:101A3C002046022100F026F94E49204600F04EF9CE
:101A4C004FF000600421C9F808024648457061E077
:101A5C00DDE9000104240A88531C6FF31F328454FF
:101A6C000B8070E0DDE9000102240A883D4D531C17
:101A7C006FF31F3284540B806878000666D100F037
:101A8C00A5FA6C46CDE900012046022100F0FAF8D7
:101A9C003649204600F022F90120687053E0DDE958
:101AAC000012032013885C1C6FF31F33C8542D499C
:101ABC0014804A78D2B2022A48D14FF48042C9F835
:101ACC000422D9F8002122F48012C9F800214FF029
:101ADC000062C9F8082200224A70C87000F076FA39
:101AEC006C46CDE900012046022100F0CBF81E49DE
:101AFC0026E0DDE9000101240A88531C6FF31F3234
:101B0C00845418480B804178C9B2012904D00229A9
:101B1C001CD10221C17016E08178C9B2012915D1FE
:101B2C000021C9F86C1041700221817000F04EFA4E
:101B3C006C46CDE900012046022100F0A3F80C49C7
:101B4C00204600F0CBF8BDE80C0BF0BD00F0E4F83B
:101B5C00FEDE00BF02000000001100400300000088
:101B6C000800000008F0032007000000050000003A
:101B7C000600000004000000DCB504AF00F026FAFB
:101B8C006C46CDE900012046042100F07BF80449A5
:101B9C00204600F0A3F8034800210160DCBD00BF23
:101BAC000100000018310040DCB504AF2F4801687B
:101BBC00C90741D1C16BC90722D000212F4CC16389
:101BCC002D490A88931C013204EA03332C4C236000
:101BDC000A8091B20C22B1FBF2F202EB4202A1EBB1
:101BEC00820103290CD8DFE801F002070207214922
:101BFC004FF480724A6003E01E494FF480720A6011
:101C0C00016CC9071FBF002101644FF40031C0F8FB
:101C1C000412416CC9071FBF002141644FF480219D
:101C2C00C0F80412816CC9071FBF002181644FF4F6
:101C3C000021C0F80412DCBD00F0C8F96C46CDE9F7
:101C4C0000012046002100F01DF80949204600F053
:101C5C0045F808484FF480510160402101604FF471
:101C6C008071416000F0C5F9FEDE00BF04B1004098
:101C7C00000000000805005000F0032000F0FF00F9
:101C8C0040B50040F0B503AF4DF804BD124A1268E0
:101C9C00D0E90034258892096E1C6FF31F35595515
:101CAC0000232680D0E900100488661C42F08005D1
:101CBC006FF31F34B3EBD21F08BF02F07F05B3EBF9
:101CCC00D21F0D554FEAD21534462A460680ECD168
:101CDC005DF804BBF0BD00BF041000E0F0B503AF2D
:101CEC004DF804BD8AB27F2A0AD3D0E9003441F002
:101CFC00800125886E1C6FF31F355955D10926803C
:101D0C00D0E9002003885C1C6FF31F33D15404808E
:101D1C005DF804BBF0BDD4D4E0B502AF00F056F9C9
:101D2C006C46CDE9000120460021FFF7ABFF0349CB
:101D3C002046FFF7D3FF00F05CF9FEDE090000003F
:101D4C00DCB504AF00F042F96C46CDE90001204649
:101D5C000421FFF797FF0D492046FFF7BFFF0C4802
:101D6C000168090611D00021016000F02FF96C46C2
:101D7C00CDE9000120460221FFF784FF05492046EA
:101D8C00FFF7ACFF044801210170DCBD0A00000024
:101D9C00000100400B00000006F0032007484FF440
:101DAC00803101604FF48051C0F83C124FF48071C7
:101DBC0003480160034800F007B800BF04B30040BB
:101DCC000C05005009120000D0B502AF002201230F
:101DDC000021012A05D0845C013203FA04F421436A
:101DEC00F7E709B101480160D0BD00BF00E100E098
:101DFC00F0B503AF4DF804BD1E4C1F4D264604F53F
:101E0C00C670864212D06868014655E8010F8842B8
:101E1C0004D145E80162002AF6D102E0BFF32F8F0E
:101E2C00F2E746F8841B00F0E9F8E8E713480F21C5
:101E3C000123416008210160114981608121C16049
:101E4C0010490A6863F302020A6040F202214FF45F
:101E5C00822281620C49C162002101630B4942500C
:101E6C000B490C4A42500C485DF804BBBDE8F040ED
:101E7C00FFF7AABF00C0032008F003200C15004098
:101E8C00080000066C16004021100100F4FCFFFF56
:101E9C00F8FDFFFF094004080A120000BCB504AFAE
:101EAC004FF080400125056000F090F86C46CDE9BC
:101EBC00000120460221FFF7E5FE05492046FFF709
:101ECC000DFF044805600448BDE8BC40FFF77CBF2B
:101EDC000C000000040300400B120000014801211B
:101EEC000160704704100040BCB504AF0A48046898
:101EFC0000F06CF86D46CDE9000128460321FFF790
:101F0C00C1FE06492846FFF7E9FE2046294600F0A7
:101F1C0007F8204602B0B0BD501500401700000075
:101F2C00F0B503AF4DF804BD0C460546D1E90001F0
:101F3C000C260A88531C6FF31F32865420460B80E4
:101F4C001449FFF7CBFE05F00F010820DFE801F084
:101F5C00070D0F091521212121110B13160000204B
:101F6C000CE003200AE0062008E0012006E0022035
:101F7C0004E0052002E0072000E00420D4E9001270
:101F8C0013885C1C6FF31F33C85414805DF804BBBA
:101F9C00F0BDFEDE16000000E0B502AF00F016F852
:101FAC006C46CDE9000120460021FFF76BFE03498A
:101FBC002046FFF793FE00F01CF8FEDE1800000030
:101FCC0080B56F4600F015F8FEDED4D406490548FE
:101FDC000968C9B20029054918BF00F5805018BF1F
:101FEC000231704700D0032004ED00E002F0032022
:101FFC00FFBEAABE62B6704772B6704740BF70474C
:10200C0020BF7047F0B503AF4DF8048DA2B3531E3B
:10201C0002F0030C032B14D20022BCF1000F2BD0C6
:10202C008B5CBCF1010F835426D0531CBCF1020F06
:10203C00CE5CC65420D00232895C81545DF8048B8E
:10204C00F0BDACEB020E01F10108441C6FF0030271
:10205C0008EB0206A5180432F378EB7033792B7178
:10206C0073796B71B379AB710EEB02030433EFD15F
:10207C000432BCF1000FD3D15DF8048BF0BDD0B5A8
:10208C0002AF12B3531E02F0030C032B01D2002239
:10209C000FE0ACEB020E421C6FF00303D4180433B8
:1020AC00A17161712171E1700EEB03040434F5D15F
:1020BC001A1DBCF1000F1ABF8154BCF1010FD0BD29
:1020CC000244BCF1020F517000D1D0BD9170D0BD53
:1020DC00F0B503AF2DE9000B4AB3A2F1010EC2F12A
:1020EC00000C0023CC5CC55CA54224D19E451ED0BF
:1020FC0001EB030800EB030998F8014099F8015033
:10210C00A54218D10CEB0306B41C10D098F8024071
:10211C0099F80250A5420ED1F41C08D098F803404F
:10212C0099F80350A54206D104339A42DAD1002023
:10213C00BDE8000BF0BD281BBDE8000BF0BDFFF7A0
:10214C0061BF042A38BFFFF7FABFB0B502AFA2F1E6
:10215C00040C012303EB9C0313F003030ED08E46F7
:10216C0004465EF8045B012B44F8045B1FD1634604
:10217C0020467146BCF10C0F04D212E01346BCF1A0
:10218C000C0F0ED30D68103B0560032B4D6845609A
:10219C008D688560CD6801F11001C56000F11000FB
:1021AC00F0D802F00302BDE8B040FFF7C8BF4D689D
:1021BC00022B456007D1A2F1080308310830BCF1AD
:1021CC000C0FDFD2EDE78B680C318360A2F10C03AE
:1021DC000C30BCF10C0FD5D2E3E70B4611461A4676
:1021EC00FFF74DBF1346D2B2042938BFFFF7F5BF36
:1021FC00D0B502AFA1F1040E42EA0363012443EA15
:10220C00024304EB9E0443EA022314F0030410D0AF
:10221C008446012C4CF8043B10D174466046BEF148
:10222C000C0F1ED201F00301BDE8D0406046FFF751
:10223C00D4BF0C46BEF10C0F13D2F3E7022C436053
:10224C0007D10830A1F108048446BEF10C0F08D266
:10225C00E8E783600C30A1F10C048446BEF10C0F4E
:10226C00E0D3C0E90033103CC0E902331030032C3A
:10227C00F7D8844601F00301BDE8D0406046FFF773
:08228C00ACBF0022FFF7AEBF5A
:0C229400A91E0000FD1D0000A91D000097
:04000003000018B52C
:00000001FF
