:10100000B0BE0320CD2C00001F4E00001F4E00007C
:101010001F4E00001F4E00001F4E00000000000089
:101020000000000000000000000000001F4E000053
:101030001F4E0000000000001F4E00001F4E000069
:10104000752D0000852D00001F4E0000A92F000007
:101050001F4E00001F4E00001F4E00001F4E0000DC
:101060001F4E00001F4E00001F4E0000D92F000031
:101070001F4E00001F4E00001F4E00001F4E0000BC
:101080001F4E00001F4E00001F4E00001F4E0000AC
:101090001F4E00001F4E00001F4E00001F4E00009C
:1010A0001F4E00001F4E00001F4E00001F4E00008C
:1010B0001F4E00001F4E0000000000000000000056
:1010C0001F4E00001F4E00001F4E00001F4E00006C
:1010D0001F4E00001F4E00001F4E0000B5300000E4
:1010E0001F4E00001F4E00001F4E000000000000B9
:1010F000000000001F4E0000000000001F4E000016
:10110000791900000400000004000000791A0000B2
:10111000B5190000531A0000525B5D4D44665777C5
:101120007E636A21313A3B6473622E347156424ABF
:101130005C3C7B2225292A4C494758362327375EB9
:101140004041515F6972793E7C28657D596F356EEB
:101150007024763F336C383D264E5A482B672F4516
:1011600030207561687432537A2C552D50784B5469
:101170004F4643606B6D39475C75783322576E5329
:10118000516C2C7348204F6A49313F723D2F2154D6
:1011900068715D246F746B7B5B2D3B25645E6163BE
:1011A0002A2339267D36504252585A692755655FA1
:1011B000402E4A663556416D293C767037774D385A
:1011C0004460624B434C3A287C32453E2B464E7A73
:1011D0003059347E677900004E4B62657E6A442246
:1011E000277D445F627D432651265F624326653733
:1011F00044266544434B58447A2B264F26285844AE
:101200005B3527496235446E277D7E6A4B275F2C0C
:1012100064657669636569643D000000D813000069
:1012200000000000D81300000000000000000000D3
:101230002000000008000000020000000000000084
:101240000000000008000000030000000100000092
:101250002000000008000000020000000000000064
:101260000000000008000000030000002063686127
:101270006E6E656C3D205478506F7765723D2B38EB
:1012800064426D206170703D70757A7A6C652E686D
:1012900065780A006C120000090000007512000059
:1012A0001E000000696E76616C6964204849442024
:1012B0007061636B65740A726571756573746564DA
:1012C000206368616E6E656C206973206F75742091
:1012D0006F662072616E6765202831312D323629A4
:1012E0000A6E6F77206C697374656E696E67206F24
:1012F0006E206368616E6E656C200A00E11200006A
:1013000019000000FA12000001000000636F727201
:10131000656374696E636F72726563747265636529
:101320006976656420206279746500001C130000F2
:1013300009000000251300000500000073457272CB
:101340004F6B20284352433D2829000042130000E0
:1013500006000000481300000100000049130000CF
:10136000010000000000000020000000000000005C
:101370000200000000000000020000000000000069
:101380000300000001000000200000000C0000002D
:101390000200000000000000000000000600000045
:1013A000030000002C204C51493D0000A413000014
:1013B00006000000290A6469646E27742072657053
:1013C0006C79202D2D206368616E6E656C207761CD
:1013D0007320627573790A00303030313032303327
:1013E00030343035303630373038303931303131D3
:1013F00031323133313431353136313731383139B9
:1014000032303231323232333234323532363237B0
:101410003238323933303331333233333334333596
:10142000333633373338333934303431343234337C
:101430003434343534363437343834393530353162
:101440003532353335343535353635373538353948
:101450003630363136323633363436353636363740
:101460003638363937303731373237333734373526
:10147000373637373738373938303831383238330C
:1014800038343835383638373838383939303931F2
:1014900039323933393439353936393739383939D8
:1014A00030780B010032353234323332323231325D
:1014B00030313931383137313631353134313331FA
:0814C000323131323600000028
:1014C800F0B503AF2DE9E00F8B688A460969D0E9CA
:1014D8000069012B02D1012903D077E0012940F0EE
:1014E800D480B9F1000F53D0DAF8141006EB090EC6
:1014F800019300224B1C3146344602960D4615F9DD
:10150800010BB0F1FF3FC6B229DC754505D048781C
:101518008D1C00F03F0C294602E04FF0000C71468C
:1015280006F01F0BDF2E07D9714508D011F8010B03
:1015380000F03F080D4605E04CEA8B160FE04FF02F
:101548000008714648EA8C1CF02E06D371450FD06E
:1015580011F8010B00F03F060CE04CEA0B36294667
:10156800013B17D0121B8E450A440C46C6D10BE02E
:10157800002629464FF4E01000EA8B4040EA8C1020
:101588000644B6F5881FEBD14A46DDE901361AE074
:10159800002218E0019BB6F5881F02D14A46029E38
:1015A80011E0029E3AB14A4505D04A4505D2B056E7
:1015B80010F1400F01DB304601E000200022002836
:1015C8000CBF4A460646012B0CD19146B9F1000FD3
:1015D8000BD0A9F1010009F0030C032807D2002061
:1015E800324625E0DAE9060154E000203BE0ACEBA6
:1015F80009030020B64632461478557804F0C00432
:101608009678D178802C05F0C00408BF0130802C72
:1016180006F0C00408BF0130802C01F0C00108BFEB
:101628000130802908BF013004320433E4D1764602
:10163800BCF1000F17D0117801F0C001802908BF54
:101648000130BCF1010F0ED0517801F0C0018029A2
:1016580008BF0130BCF1020F05D0917801F0C0013C
:10166800802908BF0130DAF80CE0A9EB00017145C8
:101678000BD2B9F1000F15D0A9F1010109F0030C43
:10168800032911D2002133462FE0DAF81C104A460C
:10169800DAF81800CB68314603B0BDE8000FBDE8A2
:1016A800F040184700213BE0ACEB09040021B046AC
:1016B80033461D785E789A7805F0C005D878802D75
:1016C80006F0C00508BF0131802D02F0C00208BF36
:1016D8000131802A00F0C00008BF0131802808BF0E
:1016E800013104330434E4D14646BCF1000F17D06D
:1016F800187800F0C000802808BF0131BCF1010F44
:101708000ED0587800F0C000802808BF0131BCF125
:10171800020F05D0987800F0C000802808BF01317A
:101728009AF82000C21E18BF0246A1EB090000EB80
:101738000E0100200C46DFE802F008020502002432
:10174800084602E0480801314C08451C013D08D014
:10175800DAE90602DAF80410126990470028F5D091
:1017680013E0DAE906014A46CB683146DAF804B0F4
:10177800984750B9DAE906650134013C09D02A696D
:101788003046594690470028F7D00120BDE80E0F93
:10179800F0BD0020FAE7D4D4F0B503AF2DE9000F6F
:1017A8008DB0D1E9023BD1E900A6D1E9045C03215F
:1017B8008DF830102021059100216B4A04910B927D
:1017C80003AA0A920891039006910293C3B1B34504
:1017D80088BFB346BBF1000F2DD0DAF804100268B9
:1017E8005318802B00F2B280DAF80030A1B302441B
:1017F80013F8014B01391471026801320260F5E7F0
:10180800B44588BFB446BCF1000F14D0DAF8041010
:1018180002685318802B00F29980DAF80030E3460A
:10182800002978D0024413F8014B01391471026879
:1018380001320260F4E74FF0000846450AD90AEB86
:10184800C8005AF838104268DDE90A03DB6898478F
:1018580000287BD100207AE00298544601964FF088
:10186800010800F110094FF0000A6646029800EBE3
:101878008A0148680590087F8DF8300088680490D0
:10188800D1E9052062B1022A0CD0B04268D205EB3A
:10189800C002364B52689A4204D155F830000068AD
:1018A800012200E00022CDE90620C968D9F800002D
:1018B80061B102290CD0B04252D205EBC0012B4ACB
:1018C8004968914204D155F830000068012100E0D0
:1018D8000021CDE9081059F8100CB04240D255F853
:1018E800301005EBC0004268084604A9904768BB61
:1018F800D84530D204EB0A00D0E90212DDE90A0328
:10190800DB6898470AF1080A09F1200908F101087B
:101918000028ABD01AE00DF110093446002605EB7B
:10192800C60155F836004A684946904770B906F12D
:101938000108D84512D20AEBC600D0E90212DDE947
:101948000A03DB68984700284646E8D001200DB016
:10195800BDE8000FF0BDA246019E6EE726466CE783
:10196800314600F04EFFFEDE00110000FD270000AA
:1019780070470021017003F054BA006818B10021C3
:10198800017003F04EBA70470068002818BF03F0D2
:1019980059B870470068002818BF03F053B870475B
:1019A8000068002818BFFFF7E4BF7047E0B502AF32
:1019B8000068802909D202687F2A18D80244117168
:1019C80001680131016000203DE00022B1F5006F9F
:1019D80001924FF002020CD28B0962F39F118DF82D
:1019E8000510062161F35F138DF8043028E001200B
:1019F80029E00B46B1F5803F62F39F130ED28DF8B4
:101A080006308B0962F39F13090B0E228DF80530FF
:101A180062F31F118DF80410032211E08DF80730CE
:101A2800F02343EA91438DF804308B09090B62F3E4
:101A38009F1362F39F1104228DF806308DF805106C
:101A480001A900F02AF802B080BDF0B503AF4DF847
:101A5800048D86B00068EC4691E87441634661469F
:101A680083E87441FFF798FE06B05DF8048BF0BD7B
:101A7800006800F012B804C8C9B252003AB110F8B0
:101A8800023B023A8B42F9D1411E023801E00020A4
:101A9800002100B9002108467047D0B502AF03689D
:101AA8009C18802C01D90120D0BD42B1034411F803
:101AB800014B013A1C71036801330360F5E700200C
:101AC800D0BD016801394A1C08BF70470160F9E7B9
:101AD800F0B503AF2DE9E00F0446007CDFE810F015
:101AE800070009010B010D0015004A004300002002
:101AF800A082D4E90001C4E9020104F1140000F055
:101B08001FF978B102200321EFE0204610F8181FD2
:101B1800061F8A070ED0032940F0EB80717901294E
:101B28000AD1E6E0A068264646F8140F00213046A0
:101B380040F8041F0021717179490122497AC9B21C
:101B4800022908BF032202297271027002D1022001
:101B58000421CAE00020A04604F10C0BC6F800B02E
:101B680008F81C0F14E0264616F8140F012840F058
:101B78008C80BEE0A04618F81C0FA8F1080628B112
:101B8800032840F0B680D4F818B003E0D6F800B0C7
:101B9800C4F818B001AB0121002200208DF8041010
:101BA800012A05D09D5C013201FA05F52843F7E7C3
:101BB80008B15C490860DFF868A19AF8070000F0EE
:101BC8000300012800F08680B0BB02208AF80700D5
:101BD80003F070F80DF10409CDE90101022148462E
:101BE80002F07CFB5049484602F092FBDBF800000B
:101BF8000068C11C4D48C0F8F8144FF48041C0F883
:101C0800FC12D0F8F41141F48011C0F8F4119AF8DC
:101C18000810C9B201290FD103218AF8081001213F
:101C2800016003F047F801ADCDE901010221284622
:101C380002F054FB3E494AE002F072FFC5B2D5B348
:101C4800012D47D0022D57D138484FF001094FF0E8
:101C580000618AF80990C0F8F812C0F8209003F0E3
:101C680029F801ADCDE901010221284602F036FB31
:101C78003049284602F04CFB01A88DF8049002F088
:101C88002FFE002088F80090307025480122407A05
:101C9800C1B2012908BF03220129327002D10220F2
:101CA800062122E06FF0030151FA80F0B0FA80F0CB
:101CB8000121400919E002F02DFF02F0FBFF01AD00
:101CC800CDE901010221284602F008FB1A492846FD
:101CD80002F01EFB01208DF8040001A802F000FEAE
:101CE8000320052188F8000002202174BDE80E0FAA
:101CF800F0BD00F081FDFEDE02F0DCFF01ACCDE9B5
:101D080001010021204602F0E9FA0C49204602F0C0
:101D1800FFFA2846214602F01FFF02F059FFFEDEB7
:101D28009AF1032080E100E05B0000000C10004005
:101D38005C0000005E0000005D0000005F00000025
:101D480080B56F46017839B1032902D1417801295C
:101D580004D100F051FDFEDE002141700649012248
:101D68000978C9B2002908BF032202704270B1FA8B
:101D780081F0400980BD00BF98F10320DCB504AFB5
:101D880004460078012810D002F07AFF009020B1B4
:101D980002210190C170012104E06846FFF7FAFDB5
:101DA80000200321217002B0D0BD00F025FDFEDE29
:101DB80080B56F46ADF54E7DAC484021DFF89C39C3
:101DC8000160581D0121D0E84F2F002A40F0998466
:101DD800C0E8421F002AF6D1002001218DF84B00EF
:101DE800981DD0E84F2F002A40F09884C0E8421F81
:101DF800002AF6D1181D0121D0E84F2F002A40F003
:101E08009A84C0E8421F002AF6D199494B20DFF88E
:101E180060C9DFF860E9C1F8FC0034A901F10408E1
:101E28000020139034905F2820D0349E41461CF83F
:101E380000501EF80040013072003AB111F8023B20
:101E4800023AA342F9D14A1E023901E000210022D8
:101E580009B11570E7E77F2EE5D808EB460108F8C9
:101E680016404D70349901313491DCE713ADDFF839
:101E7800081909222846FFF710FE7E480DF5487B11
:101E8800A7AE02244168C4910068C890DFF8F00842
:101E9800DFF8E818AA91CDE9A81BC4A9A79176A9EB
:101EA8007B94CDE97946CDE97740DFF8D80876907C
:101EB8002846FFF771FC6E480DF5EC78DFF8C81876
:101EC8004FF0010A4FF00009D0F8FC00CDE9A7B1A6
:101ED80000F07F00DFF8B418CDE97A6ACDF8E49114
:101EE800CDE97749769141468DF820032846FFF7DA
:101EF80053FC0DF2D7118DF8C6928DF878920DF13A
:101F08004B007890CDE976B1AB9134A9AA91A7A9F5
:101F180081E8210806F14100059006F128000C909F
:101F280006F11C000B9006F13E00029006F13D0000
:101F3800019006F13800089006F140000D9006F176
:101F48001400099006F130000E9008F1100004907A
:101F580008F19800039008F19000109008F10C0027
:101F6800DFF8F857079008F1A4000F9006F12B004E
:101F78000A9008F1A1008DF8D79106909DF8780293
:101F88000DF54478DFE810F00B00A203A203390036
:101F980047002B001D0033011F00120021008DF89F
:101FA8007C92CDF8E4918DF87A922BE09F9C207872
:101FB800002849D05846CDF82093FFF7DEFC0920C9
:101FC80045E19F98FBE09F9C38E19F9C2078A8B34F
:101FD8005846CDF82093FFF7D0FC0A2037E19DF84A
:101FE8008802DFE810F04F008B03730305003D0003
:101FF8009DF88C02012849D180E39DF87C020128D4
:1020080000F07C8302F03CFEC89080B18DF87C9291
:102018008DF86C929A900F98FFF7B0FEC89008B1AF
:102028009C9029E05846FFF7AFFC04200FE1584682
:10203800FFF7B0FC03208DF87C0208E184F800A0CB
:102048001321DFF85C0704E0DFF850072A2184F841
:1020580000A002F0D1FD84F8009002F0E2FE0BE04F
:102068009DF88C0201282CD148E300BF0C050050D4
:102078000C1400406000001010988DF88892A09011
:1020880076989F908DF88C92A098A190A87AC0B26B
:10209800012818BF03208DF88C0260D1C348412461
:1020A8000346D0F87804A19900F07F000A6804324A
:1020B800C3F80827BE4A1460C3F800A008718DF859
:1020C8008C92A87AC0B202284BD18DF888A28DF8DC
:1020D8008CA202F0EFFD0546CDE9C8010E46584630
:1020E800022102F0FBF8DFF8AC165846DDF86882EA
:1020F8009DF86C4202F00CF930880B22411C6FF3FA
:102108001F302A5422463180DDE9C8563146284618
:1021180002F07EFA08F1040228463146234602F00E
:10212800DBFD9DF86C020DF54478012818BF4028A6
:1021380021D19A980079A0F10B010F2900F2E380D0
:102148000520DFF81856DFE801F0360825291F2D8D
:10215800312B3523331D212F1B270A202BE0032089
:1021680005E003200DF544788DF88C0204208DF8E5
:10217800880205206BE0789C9F94DFF8E05525E7FE
:102188004B2018E03C2016E0192014E0412012E012
:10219800322010E00F200EE050200CE014200AE05E
:1021A800282008E01E2006E0462004E0232002E064
:1021B800372000E02D208DF8790277989F900178DC
:1021C80031B15846CDF82093FFF7EAFB06203EE0F0
:1021D800784A80F800A09D908DF87AA29DF879122F
:1021E800C2F8FC1003998DF88C92CDE99F010F98E5
:1021F800FFF76EFCC0B2022801D1072027E08DF856
:102208007A929D9880F8009002F00BFE079C204679
:10221800FFF757FC0220CDE9CC8ACDE9CA99594687
:10222800C990DFF87405C890DFF85C05C59006987A
:10223800C4902046FFF7B0FA789C9F942078002835
:1022480048D05846CDF82093FFF797FB08208DF823
:1022580078029DF8C602DFE810F00A003902390258
:102268000C001500260022001301240020008DF820
:10227800CC920E98FFF782FDC89030B3AC90A79C23
:10228800B39400E0B39C2078002846D05846CDF897
:102298002093FFF772FB04203AE0B39C8FE1B398D8
:1022A800D4E0B39C76E19DF8D802DFE810F0460050
:1022B80027020F024A00060020009DF8E402810769
:1022C8001FD0032800F08D8118E25846FFF75CFB09
:1022D80003201DE084F800A07999049802F08CFC92
:1022E80084F8009002F09DFD8DF87A92C4E69DF87E
:1022F800EC0218B1032800F0A981FFE1DDE9B7017C
:10230800A2E1B7986CE1789C9F94DFF850544EE6B0
:102318008DF8C60202F087FD30E684F800A0A89880
:1023280002C802F069FC84F8009002F07AFD09986E
:102338008DF8D892B490A998B390ADF8DC92B4987F
:10234800B5900D98FFF7FCFC18B103208DF8D80262
:1023580005E04FF48070ADF8D90201203AE1002180
:10236800022082B2022A01D10520D1E7ADF8C002CD
:10237800ADF8C212AC99CA78023A8DF8C722D2B227
:10238800032A08D3CA78023A51FA82F212798DF8F0
:10239800C922012200E000220DF5447800048DF8DE
:1023A800C82209D000202C467CE000BF34700240CF
:1023B800407702400C140040C878032808D002284F
:1023C80016D13A203822C870AC98DFF8E41338E008
:1023D8000979AA988DF82013FFF74DFB002808BF4C
:1023E8005846AC9903220078CA70AC9908712BE062
:1023F80002380D1DC4B2DFF8B8135CB12E46AA9896
:1024080016F8011BFFF737FB08B100782870013C6C
:102418003546F0E7AC9CD14DE0783A2808D1201D2C
:10242800884209D0DFF88813382202F064FD18B119
:10243800DFF88413092201E00722DE49901CE070CE
:10244800AC98043002F08EFDAB98B390017831B1AE
:102458005846CDF82093FFF7A3FA062058E70999C4
:102468000F2280F800A0AD90CDE9B301DDE9C001ED
:102478008DF8DC92CDE9B501BCA9059802F072FD92
:102488000E98FFF725FB0546C0B2022802D10720A7
:10249800B24D3DE7AD9880F8009002F0C2FCAF4C19
:1024A80005F001001190A898FFF70BFB0226C3491D
:1024B800CD960DF5487BCDE9CB98CDE9C9690DF5E9
:1024C8004279C891DFF8F8A2BE4D0A99CDF81CA34D
:1024D800CDF81893C595C4919DF8C712A8984A1EBF
:1024E80018BF01220129B949C392B74A08BF11464A
:1024F800C2915946FFF750F9BDF8C202ADF8C402BF
:10250800BDF8C002B24901284FF0020008BF0320FD
:10251800AF90B04808BF0846AF49CD96CDE9CB6823
:102528004E46CA910321C9914FF00009AB49C891A1
:10253800AB49C7910C99AE90A898CDE9C5A10B9964
:10254800C4915946FFF728F99DF8C8024FF0010ACF
:1025580088B19DF8C9028DF80803A898A149CDF85B
:1025680034A3CDE9CB98CDE9C9A9C8915946CDE99D
:10257800C465FFF711F9A89802229B49FFF78DFA65
:1025880011982546C8B1A89821229849FFF785FADD
:10259800A79CB394207830B15846CDF82093FFF724
:1025A800ECF90820B4E684F800A0A89802C802F064
:1025B80023FB84F8009002F034FCA79CB3942078A5
:1025C80000283FF4AAAE5846CDF82093FFF7D5F976
:1025D80009209DE6000647D008988DF8E492B79048
:1025E800B890E879C0B210B1022868D083E002F050
:1025F80097FA5FFA80F8B8F1000F52D0B8F1010FDE
:102608005DD0B8F1020F62D1B898584900680068E7
:102618000330C1F8F8005E4885F808A0C0F800A0AB
:1026280002F048FBCDE9C8015846022101F056FEE8
:102638005C49584601F06CFE019902988DF8E4A2B5
:102648008DF8EC92B891B790CDE9B901287A00F0ED
:102658000300DFE800F05002121F05208DF8D802B1
:1026680003208DF8EC027AE6404801688DF8D8A27C
:102678009DF8D90280F0010073E685F80890B998B2
:1026880080F800904248D0F8F803BA9900F00100A9
:10269800087001E085F808908DF8ECA29DF8DA0240
:1026A80098E702F037FA02F005FBCDE9C801584671
:1026B800022101F013FE3C49584601F029FE04208E
:1026C8008DF8D80203208DF8E40248E6FEDE02F019
:1026D800F1FAC8ACCDE9C8010021204601F0FEFDA1
:1026E8003249204601F014FE4046214602F034FAF1
:1026F80002F06EFAFEDE01F0BFFFFEDE00F07CF8AD
:10270800FEDEBFF32F8F02F0D5FA34ACCDE93401E9
:102718000021204601F0E2FD114918E0BFF32F8F98
:1027280002F0C8FA34ACCDE934010021204601F0AA
:10273800D5FD0C490BE0BFF32F8F02F0BBFA34AC88
:10274800CDE934010021204601F0C8FD06492046A4
:1027580001F0DEFD02F060FBFEDE00BF9AF103200F
:102768006200000063000000570000000C140040E5
:10277800771100001811000010120000FB2B000058
:102788002C1200001C120000514A00009412000094
:102798000810004000000000FC120000B712000002
:1027A800A412000059000000580000005A00000060
:1027B800D81100000C130000131300002C130000A4
:1027C800C91400007F2B0000D81300003C13000040
:1027D8003D13000040130000641300004C13000078
:1027E800D12A0000AC130000B4130000B613000097
:1027F80002F013BB0068FEE780B56F4600F006F8EC
:10280800FEDE80B56F4600F001F8FEDE80B56F464B
:1028180002F04AFAFEDED4D4F0B503AF2DE9000F7A
:1028280083B0D0F800E09246BD680A461EF0010168
:102838004FF02B0B01EB050608BF4FF4881B1C4615
:1028480080465FEA4E7103D44FF0000A002254E03C
:10285800BAF1000F0BD0AAF101010AF0030C032909
:1028680007D200211346BCF1000F2BD142E0002112
:1028780040E08DE87000ACEB0A0600219146134653
:102888001A785D78987802F0C002DC78802A05F022
:10289800C00208BF0131802A00F0C00008BF013122
:1028A800802804F0C00008BF0131802808BF01312A
:1028B80004330436E4D1DDE900454A46029EBCF102
:1028C800000F17D0187800F0C000802808BF013129
:1028D800BCF1010F0ED0587800F0C000802808BF66
:1028E8000131BCF1020F05D0987800F0C0008028B3
:1028F80008BF013106EB0A00461AD8F8080001287B
:1029080018D1D8F80C90B14514D95FEA0E702AD4C2
:102918000292A9EB060198F8202000208946032A94
:1029280008BF0122DFE802F0490245024FF0000922
:10293800084642E040465946534600F09EF828B102
:102948000126304603B0BDE8000FF0BDD8F81C10D2
:102958002A46D8F81800CB68214603B0BDE8000F16
:10296800BDE8F0401847D8F80400594602960126F9
:1029780001903020C8F80400534698F820000090D1
:10298800404688F8206000F078F80028D9D198F8F7
:102998002020AA460298032A08BF0122A9EB0001B9
:1029A80000200D46DFE802F03A023702002508460B
:1029B80034E0480801314FEA5109461C013E08D06D
:1029C800D8E90602D8F80410126990470028F5D013
:1029D800B6E7029A404659465346D8F8046000F0D4
:1029E8004CF80028ACD1D8E906012A46CB68214624
:1029F80098470028A4D109F10105D8E9069834467A
:102A08000126013D2FD0D8F810204846214690478E
:102A18000028F6D095E7480801314D08461C013ECC
:102A280008D0D8E90602D8F804101269904700289F
:102A3800F5D085E7D8E906022146D3685246D8F88A
:102A48000440984700287FF47BAFD8E9069A0135FF
:102A58000126013D09D0DAF8102048462146904762
:102A68000028F6D06DE700266BE70098002688F866
:102A780020000198C8F8040063E7F0B503AF4DF8EB
:102A880004BD1C4615460646B1F5881F08D0D6E990
:102A980006021269904718B101205DF804BBF0BD29
:102AA8004DB1D6E906012246CB6829465DF804BB3C
:102AB800BDE8F040184700205DF804BBF0BD80B5C4
:102AC8006F46FFF7A3FEFEDEF0B503AF4DF804BD79
:102AD800A2B0068802AD0C46802106F00F0000F176
:102AE80057020A2838BF00F13002284602F08DFA52
:102AF8000020B0EB161F28D0310901F00F0101F1B9
:102B080057020A2938BF01F13002B0EB162F8DF8B1
:102B180086201DD0300A00F00F0000F157010A2866
:102B280038BF00F130010020B0EB163F8DF885105A
:102B380011D0300B00F157010A2838BF00F13001DD
:102B48008DF884107C20042107E07F20012104E017
:102B58007E20022101E07D200321009141F2A04165
:102B68002B18C0F2000120460222FFF755FE22B0C2
:102B78005DF804BBF0BD80B56F468CB00A4601789D
:102B8800642915D348F21F50C5F2EB10A1FB0003CE
:102B98006FF063005B0903FB001041F2D831C0F20B
:102BA8000001C0B231F81000ADF82D00242003E078
:102BB8000A2906D226200B4603F1300102AB19542C
:102BC80008E041F2D830C0F2000030F81100ADF84A
:102BD8002D002520C0F12701009102A90B1841F210
:102BE800D8311046C0F200010022FFF715FE0CB0E4
:102BF80080BDB0B502AFA2B000680DF1080E8C46DA
:102C08008123002200F00F0101F157040A2938BF7F
:102C180001F130040EEB0301B2EB101F01F8024C76
:102C280030D0040904F00F0404F157050A2C38BF0A
:102C380004F13005B2EB102F01F8035C27D0040A29
:102C480004F00F0404F157050A2C38BF04F13005CD
:102C5800B2EB103F01F8045C1ED0040B043B04F0F7
:102C68000F0404F157050A2C38BF04F1300501F8A8
:102C7800055C010CB2EB104F0846C3D1581E8128E1
:102C88000ED31CE0981E013B812809D317E0D81EFB
:102C9800023B812804D312E0181F033B81280ED27F
:102CA800C3F18101009141F2A0410EEB0003C0F293
:102CB800000160460222FFF7AFFD22B0B0BDFFF76A
:102CC800FEFEFEDE80B56F461B481D4A016841F0D6
:102CD800807101601948002141600168114001318B
:102CE800016018480121C0F810150160164881607C
:102CF800016016481649091A21F0030102F0D4F9B7
:102D080014481549091A21F00302144902F02CF954
:102D180002F085F812484FF48A51124C124D0160A6
:102D28000161AC4202D201CC8047FAE7FFF760FDAF
:102D3800FFF73EF8FEDE00BFFCED00E0001000E00B
:102D4800FEFFFF000800004000B0004000F0032034
:102D5800ACF10320ACF103206CF20320C850000052
:102D680008050050B8500000C850000080B56F46F4
:102D780001F096FCBDE8804001F0C0BCF0B503AF9F
:102D88002DE9C00B01F096FF6C46CDE90001204605
:102D9800042101F0A3FA7949204601F0B9FA784AEA
:102DA800906B000605D000209063D2F8040240041E
:102DB80006D41068000607D04FF0040810461BE040
:102DC80091464FF002081AE0104650F8481F0906CD
:102DD80002D04FF000080FE0104650F80C1F09060B
:102DE80002D04FF0010807E0104650F86C1F0906A2
:102DF80000F0C0804FF0030891460021016001F007
:102E080059FF6E460446CDE900010D4630460321C0
:102E180001F064FA5B49304601F07AFA28880C22FE
:102E2800411C6FF31F30225430462980564901F067
:102E38006FFADFE808F003722B482100DDE9000192
:102E480000250A88531C6FF31F3285540B8001F04C
:102E580031FF6C46CDE900012046022101F03EFA1F
:102E68004E49204601F054FA4FF000600421C9F899
:102E780008024648C57161E0DDE9000104240A88BA
:102E8800531C6FF31F3284540B8070E0DDE900019E
:102E980002240A883D4D531C6FF31F3284540B8063
:102EA800E879000666D101F005FF6C46CDE900011E
:102EB8002046022101F012FA3649204601F028FA8C
:102EC8000120E87153E0DDE90012032013885C1C3F
:102ED8006FF31F33C8542D491480CA79D2B2022A1D
:102EE80048D14FF48042C9F80422D9F8002122F4CD
:102EF8008012C9F800214FF00062C9F808220022A8
:102F0800CA71487201F0D6FE6C46CDE90001204630
:102F1800022101F0E3F91E4926E0DDE90001012460
:102F28000A88531C6FF31F32845418480B80C179E8
:102F3800C9B2012904D002291CD10221417216E02C
:102F4800017AC9B2012915D10021C9F86C10C171E3
:102F58000221017201F0AEFE6C46CDE90001204667
:102F6800022101F0BBF90C49204601F0D1F9BDE876
:102F78000C0BF0BD01F080FBFEDE00BF4900000035
:102F8800001100404A0000004F0000009AF10320A1
:102F98004E0000004C0000004D0000004B000000F7
:102FA800DCB504AF01F086FE6C46CDE90001204691
:102FB800042101F093F90449204601F0A9F90348D6
:102FC80000210160DCBD00BF48000000183100404E
:102FD800DCB504AF2F480168C90741D1C16BC907E7
:102FE80022D000212F4CC1632D490A88931C01323D
:102FF80004EA03332C4C23600A8091B20C22B1FB03
:10300800F2F202EB4202A1EB820103290CD8DFE8BD
:1030180001F00207020721494FF480724A6003E079
:103028001E494FF480720A60016CC9071FBF002156
:1030380001644FF40031C0F80412416CC9071FBF86
:10304800002141644FF48021C0F80412816CC90743
:103058001FBF002181644FF40021C0F80412DCBDB9
:1030680001F028FE6C46CDE900012046002101F060
:1030780035F90949204601F04BF908484FF48051C9
:103088000160402101604FF48071416001F0C4FE8D
:10309800FEDE00BF04B100404700000008050050F4
:1030A80000F0032000F0FF0040B50040F0B503AF8A
:1030B8002DE9000F93B001F0FDFD0AACCDE90A013E
:1030C8000421204601F00AF9DFF85017204601F0E4
:1030D8001FF9DB4AD2F85401000604D002F5AA70A1
:1030E8004FF007093DE0104650F8FC1F090602D0D2
:1030F8004FF0080935E0D2F82401000604D002F5A3
:1031080092704FF003092CE0D2F85801000604D061
:1031180002F5AC704FF0040923E0D2F85C01000618
:1031280004D002F5AE704FF005091AE0D2F82C0170
:10313800000604D002F596704FF0000911E0D2F8AD
:103148003801000604D002F59C704FF0010908E030
:10315800D2F81001000600F0778402F588704FF06D
:10316800020900219246016001F0A4FD0AAE04465E
:10317800CDE90A010D463046032101F0AFF8DFF82A
:10318800941D304601F0C4F828880C22411C6FF3C6
:103198001F30225430462980DFF87C1D01F0B8F832
:1031A8000820DFE809F005090B070F110D131400BB
:1031B80000200CE003200AE0012008E0022006E0DD
:1031C800062004E0042002E0052000E00720DDE9F5
:1031D8000A121388DFF8448D5C1C6FF31F33C85440
:1031E800148098F80200811ECAB2032A28BF012160
:1031F800C9B2012911D0022914D1DFE819F0090058
:103208000E01AE00BA0047002501AE01F500B50178
:10321800DFF80C0D00218181EAE1B9F1070F08BF41
:10322800002802D001F092F8FEDE01F0A5F80005B2
:10323800F8D5012088F8020001F03CFD0AACCDE980
:103248000A010221204601F049F8DFF8D81C20467F
:1032580001F05EF898F80000002800F0C98198F89D
:103268000100002800F0C48198F80200002800F04E
:10327800BF81042088F802000020A8F8000013B0DD
:10328800BDE8000FBDE8F04001F0AEB8DFF8900CE3
:1032980080890028C6D16B4E01220025D6F80090FF
:1032A8005FFA89F0C109B2EBD01F0C4618BF02249F
:1032B800B5EBD01F08BF0C46D6F804A0B368022CA3
:1032C800F068D9B241EA00210991D6F810E0716995
:1032D800B269F6695FFA8EFC4CEA012BD2B242EA77
:1032E80006220892CDF81C9040F055818DF8305098
:1032F800CDE90A555546DDE9089601F0DBFC0DAC31
:10330800CDE90D010021204600F0E8FFDFF8181C88
:10331800204600F0FDFF0798214601F0F7F82846FF
:10332800214601F0F3F8DFF8045C30462146A8474F
:1033380058462146A84748462146A8474049012003
:10334800086501F0B7FC0AACCDE90A010221204664
:1033580000F0C4FFDFF8D81B47E101F0ABFC0AAC72
:10336800CDE90A010221204600F0B8FFDFF8C41BAE
:103378003BE1DFF8AC6BB089012800F02B81022813
:103388007FF450AFD14601F095FC0AACCDE90A01B3
:103398000221204600F0A2FFDFF84C1E204600F074
:1033A800B7FFF089002800F02781264DD5F8800165
:1033B8004030C5F88001F489412CC0F0208101F02B
:1033C80079FC0AACCDE90A010221204600F086FF0B
:1033D800DFF8181E204600F09BFF4020214601F030
:1033E80095F8F089403824E100F0C6FFC10500F1E6
:1033F800DE80800540F1F58601F05CFC0AACCDE981
:103408000A010221204600F069FFDFF8001E20466D
:1034180000F07EFF0B480021D9E001F04BFC0AAC1C
:10342800CDE90A0102210225204600F057FFDFF806
:10343800C01D204600F06CFFDFF8BC0D8572D7E098
:103448000470024080740240DAF86854CAF868547C
:1034580015F0040608D0DFF8A00D0078C0B20228E5
:103468007FF4E0AE00F0D8FFA8072AD501F022FCCF
:103478000AACCDE90A010221204600F02FFFDFF84F
:10348800901D204600F044FF01F014FC0AACCDE981
:103498000A010221204600F021FFDFF8781D2046AE
:1034A80000F036FFDFF8500D01210170DFF84C0DF8
:1034B8008188C08889B280B288421EBFD5488021E1
:1034C80001606EB101F0F6FB0AACCDE90A010221F8
:1034D800204600F003FFDFF8401D204600F018FFEB
:1034E800680318D5CC48866A804601F0E3FB0AAC2D
:1034F800CDE90A010221204600F0F0FEDFF81C1D8C
:10350800204600F005FF06F07F00214600F0FEFF90
:103518000020C8F82800280311D501F0CBFB0AAC1D
:10352800CDE90A010221204600F0D8FEDFF8F01CA0
:10353800204600F0EDFEDFF8C00C0121817228075B
:1035480056D501F0B7FB0AACCDE90A0102212046A5
:1035580000F0C4FEDFF8CC1C47E013B0BDE8000F54
:10356800BDE8F04000F058BF01F0A4FB0AACCDE97B
:103578000A010221204600F0B1FEDFF8841C204633
:1035880000F0C6FEDFF8700C4178022980F0298629
:10359800002141702CE0C9F34112002A51D0022ABF
:1035A8004CD0012A7FF4A2AE4FF480724AE001F0B9
:1035B80081FB0AACCDE90A010221204600F08EFE0B
:1035C800DFF8401C204600F0A3FE93480121C0F814
:1035D800AC100DE001F06EFB0AACCDE90A01022146
:1035E800204600F07BFEDFF8F01C204600F090FE3D
:1035F80013B0BDE8000FF0BD0020B081F8E701F07E
:1036080059FB0DF12808CDE90A010221404600F0D6
:1036180065FEDFF8C01C404600F07AFE20464146B1
:1036280000F074FF00F0D6FF04F07F00C5F88401B5
:103638000020F0810120C9F80000D9E74FF400729A
:1036480000E0002209F00F06032E3FF64FAE04F00B
:103658000104049306940023DFE806F00A02050833
:103668004FF4803304E04FF4003301E04FF440336B
:1036780042EA0304C4F30122260A1C0C012A05931A
:1036880037D00396002A069E7FF430AE5FFA8AF29E
:1036980055460C2ACDF808B000F25582DFE812F042
:1036A8000D00370153021B0153020801C000E90055
:1036B80054016601AD019A01A100002E00F0438279
:1036C8000998000402BF089880B2022840F03B82A3
:1036D800022C00F01382012C00F01D82002C40F017
:1036E80032820298000440F02E824FF0000E04202F
:1036F80050E106995FFA8AF0049A554622283AD092
:10370800DDF82090212821D0202808BF002948D0A2
:10371800059A002406F00300ADF840400F94CDE967
:1037280000B940EA1220099E2A4641EA002111A860
:10373800334601F004FB9DF84400022840F024823F
:103748008DF830400320CDE90A442BE20029DFD070
:10375800012CDDD10998000404BF1FFA89F007285D
:10376800D6D11FFA8BF0B0F5807F28BF4FF0000C40
:10377800CED2022027E0DDF820900029C8D1012C04
:1037880008BF5FEA0940C3D1099880B203289CBFEB
:103798001FFA8BF0FF28BBD862F3082CC2F3400055
:1037A80011E0012CB4D10998000404BF1FFA89F074
:1037B8000728ADD11FFA8BF0B0F5807F28BF4FF0F6
:1037C800000CA5D203208DF82A000F98ADF828C068
:1037D800CDF82B00BDF84000ADF82F000120099E60
:1037E800E0E1002E00F0AF81022C40F0AC81099896
:1037F800000402BF089880B2022840F0A481029811
:1038080001F0D4FAC2B2022A00F09D8100F0010E44
:103818000A20BFE004E200E08074024001000000DA
:10382800002E00F09081002C40F08D8101F0D2FA3A
:10383800C1B20C2900F087814FF0FF3151FA80F2B4
:10384800062A00F2808104210220DFE812F0070036
:103858005201A3007C017C016E01780104980006E6
:1038680004BF02985FEA004040F06D81012100F03A
:10387800A8BC56EA040140F0668101F0ABFAC0B278
:103888000C2800F06081032800F02981022800F04C
:103898002881069E0128554640F055810498000667
:1038A80004BF02985FEA004040F04D8101211EE10B
:1038B800002E40F04881099880B27F2800F24381A9
:1038C800002C40F04081089802990843000440F019
:1038D8003A8105205CE0002E40F03581089800040C
:1038E80040F03181099880B2002800F0DD8002287C
:1038F80000F0BF80012808BF002C40F02481029806
:10390800000440F020814FF0000E082042E0002E15
:1039180040F01981032C00F016810898000440F04B
:103928001281099880B2002800F0CD80012808BFD4
:10393800002C40F008810298000440F004814FF008
:10394800020E0020002125E0002E00F0FC800898DF
:1039580080B2012808BF002C40F0F5800998029930
:103968000843000440F0EF80012013E0002E40F0EF
:10397800EA80099880B2FF2800F2E580002C40F028
:10398800E280089802990843000440F0DC80062091
:10399800DDF810E0049AC9B2120642EA01415FFA62
:1039A8008EF241EA02210844CDF82900002002994C
:1039B8008DF828000898C1EA0040CDF82D009DF840
:1039C8002A00BDF82810BDF82F80DDF82B4041EA09
:1039D800004634E1002E40F0B680012C40F0B38060
:1039E800089A120401BF0002090208435FEA004076
:1039F80040F0A98009200499CCE7002E00F0A380AC
:103A0800029884F00103002180B2B0F5807F4FF066
:103A1800000038BF0120099A92B21A43089B9BB252
:103A280083F001031A43B2FA82F25209104008BF28
:103A38008646002800F08780002203200492002296
:103A4800029200220892A5E7DFF8AC070078C0B21E
:103A580001287FF4CDADDFF8A4078188C08889B23A
:103A680080B288423FF4C4AD92464FF00609FFF792
:103A78007BBB44EA0E00000665D16FF0020050FAE5
:103A880081F24FF0020E0820032AFFF483AF069E4E
:103A9800CAB2012A3FF47EAF5546022A53D14FF0ED
:103AA800020E0820022175E7022C4CD1029801F081
:103AB8007DF90491C1B2022945D000F001014FF00F
:103AC800010E082066E7022C3DD1029801F06EF93C
:103AD800C2B2022A37D000F0010E00205AE70221B4
:103AE80005E0069E5FEA0B4055462CD100210720D1
:103AF80068E30298000426D1002162E3029801F0ED
:103B080055F90491C1B202291DD000F001014FF00E
:103B1800010E04203EE7029880B2B0F5807F12D2F1
:103B2800714604204FF0020E34E70498000604BFE3
:103B380002985FEA004006D1022002212AE7029893
:103B4800000400F03D8303982A460599DDF808B083
:103B580000F00300CDF800B040EA1120DDF8209015
:103B6800CDF8049046EA0021099E11A8334601F0D9
:103B7800E6F89DF84400022806D100208DF83000B0
:103B8800CDE90A0003200DE01198CDF83500BDF805
:103B98004800ADF839000D980A90DDF83700CDF8E7
:103BA8002B00022003283FF4A8AB9DF82A10BDF88B
:103BB8002820DDF82B4042EA0146F0B3DFF83856FA
:103BC800012829D0687802285AD104F47F00C6F366
:103BD8000745B0F5003F6BD106F47F40B0F5807F14
:103BE80040F0AA8101F066F80AAECDE90A01022187
:103BF800304600F073FBDFF83C16304600F088FBD7
:103C08002846314600F082FC2046314600F081FC0F
:103C1800DFF824062121CCE2687802283CD130065E
:103C280052D001F047F80AACCDE90A01002120463C
:103C380000F054FBDFF80816AFE2BDF82F8026F03D
:103C48007F404FEA142A4FEA1049C0F30720DFE803
:103C580010F00B00E2008B00CA007300F8001E0190
:103C6800D6004B017F00560101F024F80AACCDE9DB
:103C78000A010021204600F031FBDFF854168CE2DF
:103C880001F018F80AACCDE90A010021204600F03D
:103C980025FBDFF8941580E201F00CF80AACCDE9B9
:103CA8000A010021204600F019FBDFF8901574E2A4
:103CB80001F000F80AACCDE90A010021204600F025
:103CC8000DFBDFF8681568E26FF0010050FAA6F006
:103CD800C1B2022928BF0220C6F30744C0B2002897
:103CE80000F07981012800F0438100F0E3FF0AAD7C
:103CF800CDE90A010221284600F0F0FADFF8441560
:103D0800284600F005FB04F00100294600F0FEFB00
:103D1800C6F30020294600F0F9FB00F0CBFF0AACFF
:103D2800CDE90A010221204600F0D8FADFF818157B
:103D3800204600F0EDFA14E100F0BCFF0AACCDE932
:103D48000A010021204600F0C9FADFF8501524E2E4
:103D580000F0B0FF0AACCDE90A010021204600F0CE
:103D6800BDFADFF8F81418E200F0A4FF0AADCDE9B7
:103D78000A010221284600F0B1FADFF82815284682
:103D880000F0C6FA4046294600F0C0FBE0B204281D
:103D980000F21A82DFE810F00500B701CB01180223
:103DA800AC0100F087FF0AACCDE90A0102212046E8
:103DB80000F094FADFF80015204600F0A9FA504602
:103DC800214600F0A3FB5FEA0A6000F0EB8100F0F7
:103DD80071FF0AACCDE90A010021204600F07EFA05
:103DE800DFF8D814D9E100F065FF0AACCDE90A0183
:103DF8000021204600F072FADFF8A414CDE100F0AB
:103E080059FF0AACCDE90A010021204600F066FA04
:103E1800DFF85014C1E100F04DFF0AACCDE90A010A
:103E28000221204600F05AFADFF89C14204600F0E0
:103E38006FFA0120214600F069FBDFF890040121A8
:103E4800B7E100F037FF0AACCDE90A0102212046AC
:103E580000F044FADFF83014204600F059FA4846DA
:103E6800214600F053FBE4494878002800F02181FE
:103E7800012800F0C18000F01DFF0AACCDE90A015D
:103E88000021204600F02AFADFF8001485E100F04E
:103E980011FF0AACCDE90A010221204600F01EFA02
:103EA800DFF8C413204600F033FA4846214600F0F4
:103EB8002DFBD1484078002800F00F81012800F040
:103EC800B380CD48B9F1000F00F03C81C078484577
:103ED80047D000F0EFFE0AACCDE90A0100212046E8
:103EE80000F0FCF9E14958E100F0E4FE0AACCDE944
:103EF8000A010021204600F0F1F9D9494DE100F00E
:103F0800D9FE0AACCDE90A010021204600F0E6F905
:103F1800D14942E1020000004600000062F203209D
:103F28009AF1032004000000080000001B4500006F
:103F38002F0000003A00000000F0BCFE0AAECDE9F8
:103F48000A010221304600F0C9F9B949304600F0AB
:103F5800DFF92846314600F0D9FA2046314600F00C
:103F6800D5FA13B0BDE8000FBDE8F04000F02CBB57
:103F780000F0A0FE0AACCDE90A010221204600F0BB
:103F8800ADF9B249204600F0C3F9A88900287FF4AA
:103F980049A90126AE8100F08DFE0AACCDE90A01DF
:103FA8000221204600F09AF9A949204600F0B0F90C
:103FB800954908F10300C1F880020720C1F884027E
:103FC8008C480146D0F8FC0140F00200C1F8FC0121
:103FD8008E64FFF70DBB00F06DFE0AACCDE90A0157
:103FE8000221204600F07AF99A49204600F090F91B
:103FF80008F103000721DCE0B9F1000F00F0B580FB
:10400800887848453FF4F4AA012081F80290487066
:1040180000F050FE0AACCDE90A010221204600F06A
:104028005DF99B49FFF7E1BAB9F1000F99D0B9F1F1
:10403800010F40F0A88070480546867800F03AFEE7
:104048000AACCDE90A0102214FF00209204600F02E
:1040580045F98849204600F05BF96B494FF00108A3
:104068000F2085F80380AE7085F801900E46C1F8E0
:1040780090000920C1F894000020C86200F01AFEE0
:104088000AACCDE90A010221204600F027F97A4955
:10409800204600F03DF90A2021460A2500F036FAAC
:1040A8007648C6F894015348C6F89851C0F8048079
:1040B80057E7B9F1000F3FF49BAA012081F802905D
:1040C800487000F0F7FD0AACCDE90A01022120464C
:1040D80000F004F97049FFF788BA00F0EBFD0AAC6C
:1040E800CDE90A010021204600F0F8F8654954E0BE
:1040F80000F0E0FD0AACCDE90A010021204600F0FD
:10410800EDF8694949E000F0D5FD0AACCDE90A01AE
:104118000221204600F0E2F86549204600F0F8F850
:10412800B8F1120F28BF4FF01208624840E000F0C3
:10413800C1FD0AACCDE90A010121204600F0CEF804
:104148005A492AE00646857800F0B4FD0AACCDE964
:104158000A010221204600F0C1F84549204600F036
:10416800D7F80120B5707070FBE60020487000F0A9
:10417800A1FD0AACCDE90A010221204600F0AEF803
:104188004449FFF732BA00F095FD0AACCDE90A01BF
:104198000021204600F0A2F83949204600F0B8F87E
:1041A800FFF7CCB84648B8F16B0F28BF4FF06B0843
:1041B800414613B0BDE8000FBDE8F04000F0ACB9CF
:1041C80003210220FFF7E6BB00F074FD0AACCDE93D
:1041D8000A010021204600F081F83A49204600F003
:1041E80097F800F07DF9FEDE300000003100000095
:1041F8003B000000047002409AF10320ACF1032058
:10420800070000000500000080740240060000005E
:1042180034000000350000003600000037000000C0
:1042280038000000390000002B0000002E000000BC
:104238002D0000002C00000041F2032024000000A3
:104248002A000000250000002600000028000000C9
:1042580029000000270000000900000023000000DA
:1042680022000000210000001600000019000000D4
:104278001C0000001A0000001B00000034F203209C
:1042880018000000170000001100000012000000D4
:1042980015000000140000001300000020000000BA
:1042A8001F0000000A000000100000000D000000C0
:1042B8000C000000B4F103200E0000000F00000005
:1042C800C6F103200B0000001E00000040F203208E
:1042D8001D0000003200000033000000F0B503AFFD
:1042E8004DF804BD094A1268D0E9003425889209BE
:1042F8006E1C6FF31F3559552680D0E900311846DA
:104308005DF804BBBDE8F04000F082B9041000E09D
:10431800F0B503AF4DF804BD8AB27F2A0AD3D0E9BD
:10432800003441F0800125886E1C6FF31F35595504
:10433800D1092680D0E9002003885C1C6FF31F3365
:10434800D15404805DF804BBF0BDD4D4E0B502AF0D
:1043580000F07AF900F0AEFC6C46CDE90001204689
:104368000021FFF7BBFF03492046FFF7D1FF00F00C
:1043780053FDFEDE44000000F0B503AF4DF8048D98
:1043880084B016480468046000F094FC0DF1040839
:104398000546CDE901010E4640460321FFF79EFF81
:1043A8000F494046FFF7B4FF30880A22411C6FF3DB
:1043B8001F302A54404631800A49FFF7A9FFDDE93A
:1043C8000101A7F11202022327F8124C00F084FC25
:1043D800204604B05DF8048BF0BD00BF00740240B5
:1043E8004300000064000000DCB504AF0848012168
:1043F800016000F05FFC6C46CDE900012046022117
:10440800FFF76CFF03492046FFF782FFDCBD00BFC2
:104418000475024042000000F0B503AF2DE9C00763
:10442800DFF8A4A0BAF80450BAF80600401B01044B
:104438001CD084B23F2C28BF3F2454FA85F081B2A7
:10444800E8B2B1F5807F13D9DAF80090C0F580762C
:10445800DFF8788009EB00013246404600F082FD23
:10446800A11B08EB06008AB2494606E0012625E0B2
:10447800DAF8001022460144144800F073FD2819A8
:10448800AAF8040020064FF0010617D000F012FC2D
:104498006D46CDE9000128460221FFF71FFF0C49B0
:1044A8002846FFF735FF2046294600F02FF809482F
:1044B80006490160446008480660022607480670FD
:1044C800BDE80C07F0BD00BFACF1032000C003201D
:1044D80041000000287602400C7002409AF1032047
:1044E800E0B502AF00F0B0F800F0E4FB6C46CDE9AF
:1044F800000120460021FFF7F1FE03492046FFF79F
:1045080007FF00F089FCFEDE3E000000C0B200F0AC
:1045180069B880B200F066B8F0B503AF4DF8048D05
:1045280082B0234E8046B08988BB234C88B20D46A2
:1045380040280AD9206820F004002060A5F1400036
:10454800F08102204025B08103E000F043F802200A
:10455800F06000F0AFFB6E46CDE900013046022165
:10456800FFF7BCFE15493046FFF7D2FE2846314614
:10457800FFF7CCFF124905F07F0048601148C1F8E9
:1045880000800121215002B05DF8048BF0BD00F0DD
:1045980091FB6C46CDE9000120460021FFF79EFE05
:1045A80004492046FFF7B4FE00F036FCFEDE00BFEB
:1045B8009AF103203C000000007202403D00000018
:1045C8000076024004FEFFFF0148012101607047A8
:1045D800507002400248016841F0040101607047D0
:1045E80000720240F0B503AF4DF804BD0246D1E9B0
:1045F80000031C880626651C6FF31F3406551D80B2
:10460800D1E900015DF804BBBDE8F04000F000B856
:10461800F0B503AF4DF804BD0C880023661C42F0CA
:1046280080056FF31F34B3EBD21F08BF02F07F057C
:10463800B3EBD21F05554FEAD21534462A460E80F1
:10464800ECD15DF804BBF0BDDCB504AF084800212F
:10465800016000F02FFB6C46CDE9000120460221E5
:10466800FFF73CFE03492046FFF752FEDCBD00BFC2
:104678000475024040000000E0B502AF00F01AFBEC
:104688006C46CDE9000120460021FFF727FE0349CB
:104698002046FFF73DFE00F0BFFBFEDE45000000B0
:1046A800DCB504AF00F006FB6C46CDE900012046FE
:1046B8000421FFF713FE0D492046FFF729FE0C4899
:1046C8000168090611D00021016000F0F3FA6C4678
:1046D800CDE9000120460221FFF700FE05492046EA
:1046E800FFF716FE044801210170DCBD54000000EC
:1046F800000100405500000098F10320F0B503AF19
:104708002DE9C00B00F0D6FA6C46CDE90001204631
:104718000421FFF7E3FD5D492046FFF7F9FD5C48FA
:104728004FF000080168090602D04FF000090FE0B9
:10473800014651F8042F120603D04FF0010908462C
:1047480006E050F8081F090600F095804FF00209AE
:10475800C0F8008000F0AEFA6E460446CDE90001CC
:104768000D4630460321FFF7B9FD4A493046FFF7A9
:10477800CFFD28880C22411C6FF31F30225430468D
:1047880029804549FFF7C4FDDDE900010A88531C6B
:104798006FF31F3200F802900B80404DA878811EFD
:1047A800CAB2032A28BF0121C9B271B1012967D150
:1047B8002A78002A114618BF01217ABB98F0010215
:1047C8002CD101212970002144E0B8F1000F4FD10C
:1047D800B9F1000F57D1334849F27531032201600E
:1047E800C0F81421016001212F48016000F062FA2D
:1047F8006C46CDE9000120460221FFF76FFD2B49E9
:104808002046FFF785FD2A4800210078A5F8011009
:10481800C0B2002818BF0120287029E0687890BB32
:1048280018EA010024D1B9F1020F2CD101206870D7
:1048380000F040FA6C46CDE9000120460221FFF75E
:104848004DFD17492046FFF763FD2978A878B1FA8E
:1048580081F1490960B159B9687848B10420A87054
:1048680000202880BDE80C0BBDE8F040FFF7BCBD78
:10487800BDE80C0BF0BD4FF003094FF001088CE7C1
:10488800FFF72EFEFEDEFFF761FDFEDE50000000A2
:104898001C010040030000005300000062F20320E6
:1048A8005200000000EC0640007502405100000074
:1048B80098F1032007484FF4803101604FF480518C
:1048C800C0F83C124FF4807103480160034800F0BF
:1048D80007B800BF04B300400C050050A214000044
:1048E800D0B502AF002201230021012A05D0845C43
:1048F800013203FA04F42143F7E709B101480160E2
:10490800D0BD00BF00E100E0B0B502AF154D0024F6
:10491800B4F5C67F04D0281900F036F88434F7E7D8
:1049280011480F2101234160082101600F4981606E
:104938008121C1600E490A6863F302020A6040F2ED
:1049480002214FF4822281620A49C1620021016377
:104958000949425009490A4A42500A48BDE8B0404C
:10496800FFF7BEBF40C103200C1500400800000639
:104978006C16004021100100F4FCFFFFF8FDFFFF5A
:1049880009400408A314000009490A68026051E8B4
:10499800003F934207D141E80002002A1A4608BFA7
:1049A80000F03FBAF2E7BFF32F8F1A46EEE700BFD9
:1049B80004F00320BCB504AF4FF08040012505602A
:1049C80000F078F96C46CDE9000120460221FFF796
:1049D80085FC05492046FFF79BFC04480560044810
:1049E800BDE8BC40FFF77CBF560000000403004050
:1049F800A4140000B0B502AF0C4D0024B4F5C67F76
:104A080004D02819FFF7C0FF8434F7E708480121CC
:104A180001604FF46071016006480749016007486A
:104A2800FFF75EFF064880210160B0BD08F0032053
:104A380004030040047302402194C001A414000040
:104A480004E100E0FFF7A0BF007800F07F02052A2C
:104A58001ED00A281ED00F281ED014281ED01928B0
:104A68001ED01E281ED023281ED028281ED02D2850
:104A78001ED032281ED037281ED03C281ED04128F0
:104A88001ED046281ED04B280CBF134A114A1AE0E4
:104A98001F4A18E01D4A16E01B4A14E0194A12E0A2
:104AA800174A10E0154A0EE0134A0CE0114A0AE0D2
:104AB8000F4A08E00D4A06E00B4A04E0094A02E002
:104AC800074A00E0054AD1E90601CB6811460222EF
:104AD800184700BFC3140000A5140000A714000065
:104AE800A9140000AB140000AD140000AF140000BE
:104AF800B1140000B3140000B5140000B71400008E
:104B0800B9140000BB140000BD140000BF1400005D
:104B1800C1140000014801210160704704100040E1
:104B2800BCB504AF0A48046800F0C4F86D46CDE986
:104B3800000128460321FFF7D1FB06492846FFF765
:104B4800E7FB2046294600F007F8204602B0B0BD32
:104B58005015004061000000F0B503AF4DF804BDEA
:104B68000C460546D1E900010C260A88531C6FF350
:104B78001F32865420460B801449FFF7C9FB05F005
:104B88000F010820DFE801F0070D0F091521212189
:104B980021110B13160000200CE003200AE0062068
:104BA80008E0012006E0022004E0052002E00720DA
:104BB80000E00420D4E9001213885C1C6FF31F3353
:104BC800C85414805DF804BBF0BDFEDE6000000030
:104BD800E0B502AF00F06EF86C46CDE90001204662
:104BE8000021FFF77BFB03492046FFF791FB00F00C
:104BF80013F9FEDE3F000000E1B3F0B503AF2DE985
:104C08000007DFF8749082460C46B9F80650B9F8E8
:104C18000400401B00F58070010424D080B2A0423B
:104C280038BF044654FA85F0E9B280B2B0F5807F07
:104C38000FD9D9F80080C1F5807608EB01005146FC
:104C4800324600F08FF9A01B0AEB060182B24046FB
:104C580004E0D9F8000022460844514600F082F9E1
:104C68002819A9F80600054880210160BDE8000759
:104C7800BDE8F040704700BFACF1032004E200E05B
:104C88000849086860B1026851E8003F834204D1CE
:104C980041E80023002BF4D103E0BFF32F8FF0E7A6
:104CA8000020704704F0032080B56F4600F0B4F888
:104CB800FEDED4D4064905480968C9B20029054969
:104CC80018BF00F5805018BF0231704700D003208C
:104CD80004ED00E094F10320F0B503AF2DE90007DF
:104CE800B1F800A0064688461C46914650466FF328
:104CF8001F30C11889B2B1F5805F0CD9C0F5805555
:104D0800311848462A4600F012F8611B09EB0500E5
:104D18008AB2314602E03118A2B2484600F007F8DC
:104D28000AEB0400A8F80000BDE80007F0BD2AB1AE
:104D380010F8013B013A01F8013BF8E77047F0B57C
:104D480003AF4DF804BDD6B201F00104C1F3074525
:104D5800D7E90212062E11D00A2E20D1012D08BF44
:104D6800002C1CD112041AD18AB2FF2A17D801715B
:104D7800002183700170190A417014E0012D0ED1D1
:104D88006CB18CB2FF2C0AD803F47F44B4F5085FE9
:104D980005D10171012142804370017003E00021B7
:104DA8008180022101605DF804BBF0BD024680B23B
:104DB800FF2801D9002107E0C2F30310002128B120
:104DC800082801D1012002E002207047002002F0EB
:104DD8000F0170474FF0FF3151FA80F10C200A297A
:104DE80018D8DFE801F006080A0C0E10121417177D
:104DF80016000120704702207047032070470420E6
:104E08007047052070470620704707207047082024
:104E180070470B207047FFBEAABE62B6704772B6D5
:104E2800704740BF704720BF7047F0B503AF4DF8DB
:104E3800048DA2B3531E02F0030C032B14D20022DC
:104E4800BCF1000F2BD08B5CBCF1010F835426D032
:104E5800531CBCF1020FCE5CC65420D00232895CD0
:104E680081545DF8048BF0BDACEB020E01F1010832
:104E7800441C6FF0030208EB0206A5180432F3780D
:104E8800EB7033792B7173796B71B379AB710EEB6E
:104E980002030433EFD10432BCF1000FD3D15DF823
:104EA800048BF0BDD0B502AF12B3531E02F0030C51
:104EB800032B01D200220FE0ACEB020E421C6FF074
:104EC8000303D4180433A17161712171E1700EEBF1
:104ED80003040434F5D11A1DBCF1000F1ABF815424
:104EE800BCF1010FD0BD0244BCF1020F517000D1DA
:104EF800D0BD9170D0BDF0B503AF2DE9000B4AB31A
:104F0800A2F1010EC2F1000C0023CC5CC55CA542E5
:104F180024D19E451ED001EB030800EB030998F845
:104F2800014099F80150A54218D10CEB0306B41CB6
:104F380010D098F8024099F80250A5420ED1F41CFE
:104F480008D098F8034099F80350A54206D10433D5
:104F58009A42DAD10020BDE8000BF0BD281BBDE85D
:104F6800000BF0BDFFF761BF042A38BFFFF7FABF97
:104F7800B0B502AFA2F1040C012303EB9C0313F0BC
:104F880003030ED08E4604465EF8045B012B44F8FA
:104F9800045B1FD1634620467146BCF10C0F04D256
:104FA80012E01346BCF10C0F0ED30D68103B0560E0
:104FB800032B4D6845608D688560CD6801F110014F
:104FC800C56000F11000F0D802F00302BDE8B0405F
:104FD800FFF7C8BF4D68022B456007D1A2F108034F
:104FE80008310830BCF10C0FDFD2EDE78B680C31CB
:104FF8008360A2F10C030C30BCF10C0FD5D2E3E7AF
:105008000B4611461A46FFF74DBF1346D2B2042984
:1050180038BFFFF7F5BFD0B502AFA1F1040E42EAE1
:105028000363012443EA024304EB9E0443EA022398
:1050380014F0030410D08446012C4CF8043B10D122
:1050480074466046BEF10C0F1ED201F00301BDE8A4
:10505800D0406046FFF7D4BF0C46BEF10C0F13D208
:10506800F3E7022C436007D10830A1F10804844615
:10507800BEF10C0F08D2E8E783600C30A1F10C04F4
:105088008446BEF10C0FE0D3C0E90033103CC0E900
:1050980002331030032CF7D8844601F00301BDE831
:0E50A800D0406046FFF7ACBF0022FFF7AEBF5E
:1050B800FD490000BD49000011490000BD4800003D
:1050C80040C003200000000012010002EF0201406E
:1050D8002020100300010000000109026B000301F9
:1050E8000080FA080B000202020100090400000116
:1050F8000202010005240010010524010301042413
:105108000202052406000107058103400020090466
:105118000100020A0000000705020240000007051E
:105128008202400000090402000203000000092175
:1051380000010001222100070503034000010705C3
:105148008303400001000000A120000000000200CD
:1051580003000000010600FF0901A101150026FF58
:105168000075089540090181029540090191029551
:10517800010901B102C000000280250000000008FA
:0400000300002CCD00
:00000001FF
