:10100000B0BE0320C92A00001B4C00001B4C00008E
:101010001B4C00001B4C00001B4C0000000000009B
:101020000000000000000000000000001B4C000059
:101030001B4C0000000000001B4C00001B4C00007B
:10104000712B0000812B00001B4C0000A52D00001F
:101050001B4C00001B4C00001B4C00001B4C0000F4
:101060001B4C00001B4C00001B4C0000D52D000049
:101070001B4C00001B4C00001B4C00001B4C0000D4
:101080001B4C00001B4C00001B4C00001B4C0000C4
:101090001B4C00001B4C00001B4C00001B4C0000B4
:1010A0001B4C00001B4C00001B4C00001B4C0000A4
:1010B0001B4C00001B4C0000000000000000000062
:1010C0001B4C00001B4C00001B4C00001B4C000084
:1010D0001B4C00001B4C00001B4C0000B12E0000FC
:1010E0001B4C00001B4C00001B4C000000000000CB
:1010F000000000001B4C0000000000001B4C000022
:101100008D180000040000000400000075190000A4
:10111000B11800004F190000646576696365696461
:101120003D000000D412000000000000D4120000B6
:101130000000000000000000200000000800000087
:101140000200000000000000000000000800000095
:101150000300000001000000200000000800000063
:101160000200000000000000000000000800000075
:1011700003000000206368616E6E656C3D2054784A
:10118000506F7765723D2B3864426D206170703D01
:101190006C6F6F706261636B2E6865780A00000087
:1011A00074110000090000007D1100002000000003
:1011B000696E76616C696420484944207061636B94
:1011C00065740A726571756573746564206368611E
:1011D0006E6E656C206973206F7574206F66207267
:1011E000616E6765202831312D3236290A6E6F779E
:1011F000206C697374656E696E67206F6E2063681A
:10120000616E6E656C200A00ED110000190000008F
:10121000061200000100000072656365697665646E
:101220002020627974650000181200000900000097
:101230002112000005000000734572724F6B2028D8
:101240004352433D282900003E12000006000000E2
:1012500044120000010000004512000001000000DF
:10126000000000002000000000000000020000005C
:101270000000000002000000000000000300000069
:1012800001000000200000000C000000020000002F
:101290000000000000000000060000000300000045
:1012A0002C204C51493D0000A01200000600000017
:1012B000290A6469646E2774207265706C79202D28
:1012C0002D206368616E6E656C2077617320627596
:1012D00073790A00303030313032303330343035C9
:1012E00030363037303830393130313131323133D6
:1012F00031343135313631373138313932303231BC
:1013000032323233323432353236323732383239A1
:101310003330333133323333333433353336333799
:10132000333833393430343134323433343434357F
:101330003436343734383439353035313532353365
:10134000353435353536353735383539363036314B
:101350003632363336343635363636373638363931
:101360003730373137323733373437353736373729
:10137000373837393830383138323833383438350F
:1013800038363837383838393930393139323933F5
:1013900039343935393639373938393930780B01FC
:1013A0000032353234323332323231323031393147
:1013B0003831373136313531343133313231313200
:0413C00036000000F3
:1013C400F0B503AF2DE9E00F8B688A460969D0E9CF
:1013D4000069012B02D1012903D077E0012940F0F3
:1013E400D480B9F1000F53D0DAF8141006EB090ECB
:1013F400019300224B1C3146344602960D4615F9E2
:10140400010BB0F1FF3FC6B229DC754505D0487821
:101414008D1C00F03F0C294602E04FF0000C714691
:1014240006F01F0BDF2E07D9714508D011F8010B08
:1014340000F03F080D4605E04CEA8B160FE04FF034
:101444000008714648EA8C1CF02E06D371450FD073
:1014540011F8010B00F03F060CE04CEA0B3629466C
:10146400013B17D0121B8E450A440C46C6D10BE033
:10147400002629464FF4E01000EA8B4040EA8C1025
:101484000644B6F5881FEBD14A46DDE901361AE079
:10149400002218E0019BB6F5881F02D14A46029E3D
:1014A40011E0029E3AB14A4505D04A4505D2B056EC
:1014B40010F1400F01DB304601E00020002200283B
:1014C4000CBF4A460646012B0CD19146B9F1000FD8
:1014D4000BD0A9F1010009F0030C032807D2002066
:1014E400324625E0DAE9060154E000203BE0ACEBAB
:1014F40009030020B64632461478557804F0C00437
:101504009678D178802C05F0C00408BF0130802C77
:1015140006F0C00408BF0130802C01F0C00108BFF0
:101524000130802908BF013004320433E4D1764607
:10153400BCF1000F17D0117801F0C001802908BF59
:101544000130BCF1010F0ED0517801F0C0018029A7
:1015540008BF0130BCF1020F05D0917801F0C00141
:10156400802908BF0130DAF80CE0A9EB00017145CD
:101574000BD2B9F1000F15D0A9F1010109F0030C48
:10158400032911D2002133462FE0DAF81C104A4611
:10159400DAF81800CB68314603B0BDE8000FBDE8A7
:1015A400F040184700213BE0ACEB09040021B046B1
:1015B40033461D785E789A7805F0C005D878802D7A
:1015C40006F0C00508BF0131802D02F0C00208BF3B
:1015D4000131802A00F0C00008BF0131802808BF13
:1015E400013104330434E4D14646BCF1000F17D072
:1015F400187800F0C000802808BF0131BCF1010F49
:101604000ED0587800F0C000802808BF0131BCF12A
:10161400020F05D0987800F0C000802808BF01317F
:101624009AF82000C21E18BF0246A1EB090000EB85
:101634000E0100200C46DFE802F008020502002437
:10164400084602E0480801314C08451C013D08D019
:10165400DAE90602DAF80410126990470028F5D096
:1016640013E0DAE906014A46CB683146DAF804B0F9
:10167400984750B9DAE906650134013C09D02A6972
:101684003046594690470028F7D00120BDE80E0F98
:10169400F0BD0020FAE7D4D4F0B503AF2DE9000F74
:1016A4008DB0D1E9023BD1E900A6D1E9045C032164
:1016B4008DF830102021059100216B4A04910B9282
:1016C40003AA0A920891039006910293C3B1B34509
:1016D40088BFB346BBF1000F2DD0DAF804100268BE
:1016E4005318802B00F2B280DAF80030A1B3024420
:1016F40013F8014B01391471026801320260F5E7F5
:10170400B44588BFB446BCF1000F14D0DAF8041015
:1017140002685318802B00F29980DAF80030E3460F
:10172400002978D0024413F8014B0139147102687E
:1017340001320260F4E74FF0000846450AD90AEB8B
:10174400C8005AF838104268DDE90A03DB68984794
:1017540000287BD100207AE00298544601964FF08D
:10176400010800F110094FF0000A6646029800EBE8
:101774008A0148680590087F8DF8300088680490D5
:10178400D1E9052062B1022A0CD0B04268D205EB3F
:10179400C002364B52689A4204D155F830000068B2
:1017A400012200E00022CDE90620C968D9F8000032
:1017B40061B102290CD0B04252D205EBC0012B4AD0
:1017C4004968914204D155F830000068012100E0D5
:1017D4000021CDE9081059F8100CB04240D255F858
:1017E400301005EBC0004268084604A9904768BB66
:1017F400D84530D204EB0A00D0E90212DDE90A032D
:10180400DB6898470AF1080A09F1200908F1010880
:101814000028ABD01AE00DF110093446002605EB80
:10182400C60155F836004A684946904770B906F132
:101834000108D84512D20AEBC600D0E90212DDE94C
:101844000A03DB68984700284646E8D001200DB01B
:10185400BDE8000FF0BDA246019E6EE726466CE788
:10186400314600F0CEFEFEDE00110000F925000036
:101874000068002818BF02F0E5BF70470068002820
:1018840018BF00F009B870477047006818B100210C
:10189400017003F0C6B970470021017003F0C1B9AB
:1018A4000068002818BF02F0CDBF7047E0B502AF52
:1018B4000068802909D202687F2A18D8024411716D
:1018C40001680131016000203DE00022B1F5006FA4
:1018D40001924FF002020CD28B0962F39F118DF832
:1018E4000510062161F35F138DF8043028E0012010
:1018F40029E00B46B1F5803F62F39F130ED28DF8B9
:1019040006308B0962F39F13090B0E228DF8053004
:1019140062F31F118DF80410032211E08DF80730D3
:10192400F02343EA91438DF804308B09090B62F3E9
:101934009F1362F39F1104228DF806308DF8051071
:1019440001A900F018F802B080BDF0B503AF4DF85E
:10195400048D86B00068EC4691E8744163466146A4
:1019640083E87441FFF798FE06B05DF8048BF0BD80
:10197400006800F000B8D0B502AF03689C18802C52
:1019840001D90120D0BD42B1034411F8014B013A01
:101994001C71036801330360F5E70020D0BD0168C2
:1019A40001394A1C08BF70470160F9E7F0B503AF7D
:1019B4002DE9E00F0446007CDFE810F00700090180
:1019C4000B010D0015004A0043000020A082D4E959
:1019D4000001C4E9020104F1140000F01FF978B118
:1019E40002200321EFE0204610F8181F061F8A0783
:1019F4000ED0032940F0EB80717901290AD1E6E089
:101A0400A068264646F8140F0021304640F8041F0B
:101A14000021717179490122497AC9B2022908BFAA
:101A2400032202297271027002D102200421CAE049
:101A34000020A04604F10C0BC6F800B008F81C0FF7
:101A440014E0264616F8140F012840F08C80BEE0FE
:101A5400A04618F81C0FA8F1080628B1032840F086
:101A6400B680D4F818B003E0D6F800B0C4F818B0C3
:101A740001AB0121002200208DF80410012A05D0B9
:101A84009D5C013201FA05F52843F7E708B15C498A
:101A94000860DFF868A19AF8070000F00300012845
:101AA40000F08680B0BB02208AF8070003F002F839
:101AB4000DF10409CDE901010221484602F00EFBB3
:101AC4005049484602F024FBDBF800000068C11CC2
:101AD4004D48C0F8F8144FF48041C0F8FC12D0F817
:101AE400F41141F48011C0F8F4119AF80810C9B245
:101AF40001290FD103218AF808100121016002F0A5
:101B0400D9FF01ADCDE901010221284602F0E6FA30
:101B14003E494AE002F004FFC5B2D5B3012D47D0D7
:101B2400022D57D138484FF001094FF000618AF86F
:101B34000990C0F8F812C0F8209002F0BBFF01AD84
:101B4400CDE901010221284602F0C8FA30492846AD
:101B540002F0DEFA01A88DF8049002F0C1FD002025
:101B640088F80090307025480122407AC1B20129DA
:101B740008BF03220129327002D10220062122E08B
:101B84006FF0030151FA80F0B0FA80F001214009AE
:101B940019E002F0BFFE02F08DFF01ADCDE90101B5
:101BA4000221284602F09AFA1A49284602F0B0FAAD
:101BB40001208DF8040001A802F092FD0320052104
:101BC40088F8000002202174BDE80E0FF0BD00F07B
:101BD40013FDFEDE02F06EFF01ACCDE90101002130
:101BE400204602F07BFA0C49204602F091FA28467E
:101BF400214602F0B1FE02F0EBFEFEDE9AF1032074
:101C040080E100E05B0000000C1000405C0000007C
:101C14005E0000005D0000005F00000080B56F46BC
:101C2400017839B1032902D14178012904D100F0A6
:101C3400E3FCFEDE00214170064901220978C9B2A5
:101C4400002908BF032202704270B1FA81F04009F2
:101C540080BD00BF98F10320DCB504AF04460078D2
:101C6400012810D002F00CFF009020B10221019055
:101C7400C170012104E06846FFF712FE0020032131
:101C8400217002B0D0BD00F0B7FCFEDE80B56F4617
:101C9400ADF50A7DDFF8D8A801210AF10500D0E8E6
:101CA4004F2F002A40F03784C0E8421F002AF6D1A3
:101CB400002001218DF843000AF10600D0E84F2FDF
:101CC400002A40F03584C0E8421F002AF6D10AF108
:101CD40004000121D0E84F2F002A40F03684C0E8E8
:101CE400421F002AF6D1D04E32200DF14409DFF80C
:101CF40094180922C6F8FC00002011904846FFF70A
:101D04003AFECA480DF5047864AC02250DF5007B53
:101D14004168809100688490DFF87008DFF86818E3
:101D24006791CDE9651833A93895CDE93654CDE9E5
:101D34003450DFF85C0833904846CDF890B1FFF793
:101D4400ABFCDFF85018D6F8FC000026CDE964811E
:101D54000121389100F07F00CDE93664CDE9345695
:101D640045460DF1CC08DFF8301833918DF8100298
:101D740048464146FFF790FC0DF1CB010DF14300BD
:101D84008DF86C6135908DF8B661CDE96651CDE979
:101D9400640904F13D00049004F124000B9004F163
:101DA40018000A9004F13A00019004F139000090FF
:101DB40004F13400079004F13C000C9004F110008D
:101DC400089004F12C000D9008F11000039008F124
:101DD4009800029008F190000F9008F10C00069012
:101DE40008F1A4000E9004F127004FF001090990B6
:101DF40008F1A1008DF8CB60CDE9335105909DF831
:101E04006C01DFE810F00B006D036D033600440035
:101E140028001B0039011D0011001F008DF870619E
:101E240036968DF86E6129E05C9C2078002847D0B6
:101E340028468496FFF729FD09204BE15C9804E1CC
:101E44005C9C3FE15C9C2078A0B328468496FFF715
:101E54001CFD0A203EE19DF87C01DFE810F04700FC
:101E64005903410305003C009DF88001012841D13C
:101E74004EE39DF87001012800F04A8302F000FE51
:101E8400849080B18DF870618DF8606157900E98E0
:101E9400FFF7E2FE849008B1599021E02846FFF74D
:101EA400E7FC042016E12846FFF7FAFC03208DF82E
:101EB40070010FE184F800901321DFF8F00604E0CC
:101EC400DFF8E4062A2184F8009002F095FD2670DC
:101ED40002F0A7FE04E09DF88001012827D117E352
:101EE4000F988DF87C615D9033985C908DF88061DB
:101EF4005D985E909AF80A00C0B2012818BF0320CA
:101F04008DF8800140F06680494841240346D0F8AA
:101F140078045E9900F07F000A680432C3F8082749
:101F2400444A1460C3F8009008718DF880619AF8EF
:101F34000A00C0B202284FD18DF87C918DF88091AF
:101F440002F0B8FD0DF5047B0546CDE984010E468B
:101F54005846022102F0C2F8DFF844165846DDF86C
:101F64005C819DF8604102F0D3F830880B22411C5B
:101F74006FF31F302A5422463180DDE984563146FE
:101F8400284602F045FA08F1040228463146234661
:101F940002F0A2FD9DF8600180AD0128AB4618BF98
:101FA400402824D157980079A0F10B010F2900F2A1
:101FB400E980052084AD4FF001090026DFE801F037
:101FC4004108282C22303C2E40263E2024321E2A52
:101FD4000A2036E0032006E080AD03208DF880015E
:101FE4000420AB4684AD8DF87C01052072E0359C5D
:101FF40084AD5C944FF00109002624E74B2020E0D7
:102004003C201EE019201CE041201AE0322018E098
:102014000F2016E0502014E0142012E0282010E0D5
:102024001E200EE046200CE00C140040600000105E
:102034003470024040770240232002E0372000E061
:102044002D208DF86D0134985C90017829B12846D3
:102054008496FFF713FC06203CE0D14A80F80090F8
:102064005A908DF86E919DF86D11C2F8FC1002998A
:102074008DF88061CDE95C010E98FFF797FCC0B242
:10208400022801D1072025E08DF86E615A98067068
:1020940002F0C7FD069C2046FFF781FC0220CDE933
:1020A40088B9CDE9866629468590DFF8F8048490DE
:1020B400DFF8E0048190059880902046FFF7ECFA61
:1020C400359C5C942078002845D028468496FFF7F8
:1020D400DCFB08208DF86C019DF8B601DFE810F0F8
:1020E4000A00000200020C00150025002100540122
:1020F40023001F008DF8BC610D98FFF7ADFD84909F
:1021040020B36890649C6F9400E06F9C2078002852
:1021140044D028468496FFF7B8FB042039E06F9C2E
:10212400D4E16F9817E16F9CBDE19DF8C801DFE829
:1021340010F04400EF01D701480006001E009DF88E
:10214400D40181071CD0032853D0E1E12846FFF7CE
:102154008FFB03201DE084F800903699039802F069
:102164004BFC267002F05DFD8DF86E61B8E69DF8BB
:10217400DC0110B1032875D0CAE1DDE973016FE019
:10218400739835E0359C84AD5C944FF001090026CA
:102194004BE68DF8B60102F046FD30E684F8009077
:1021A400659802C802F028FC267002F03AFD0898EF
:1021B4008DF8C861709066986F90ADF8CC61709896
:1021C40071900C98FFF72AFD18B103208DF8C8010F
:1021D40005E04FF48070ADF8C901012002E0002150
:1021E400022084E000064ED007988DF8D4617390E5
:1021F40074909AF80700C0B210B102286DD084E13F
:1022040002F08EFB5FFA80F8B8F1000F57D0B8F1F6
:10221400010F62D0B8F1020F40F063817498D8497D
:102224004FF00109006800680330C1F8F800DB488A
:102234008AF80890C0F8009002F03CFCCDE98401D3
:102244002846022101F04AFFD949284601F060FFDF
:10225400009901988DF8D4918DF8DC617491739094
:10226400CDE975019AF8080000F00300DFE810F0EA
:102274004D0104001400200005208DF8C80103203E
:102284008DF8DC01ABE7BE4801688DF8C8919DF874
:10229400C90180F001002AE08AF808607598067088
:1022A400BE48D0F8F803769900F00100087001E008
:1022B4008AF808608DF8DC919DF8CA0192E702F073
:1022C40029FB02F0F7FBCDE984012846022101F045
:1022D40005FFB849284601F01BFF042000218DF8B2
:1022E400C80103208DF8D40102204FF0010982B205
:1022F400022A01D105204CE7ADF8B001ADF8B211C6
:102304006899CA78023A8DF8B721D2B2032A08D361
:10231400CA78023A51FA82F212798DF8B92101226F
:1023240000E0002200048DF8B82101D0002441E02F
:1023340011F8030F821E51FA82F0D2B20131520811
:102344003AB10B78013A047801F8014B00F80139ED
:10235400F6E767986F90017829B128468496FFF7CD
:102364008DFA062015E708990F2280F800906990ED
:10237400CDE96F01DDE97C018DF8CC61CDE9710116
:1023840078A9049802F051FC0D98FFF70FFB05465D
:10239400C0B2022806D180AD0720AB4684ADF8E672
:1023A4000C1400406998067002F03BFC05F001042F
:1023B40080ADAB466598FFF7F2FA02257F4989950F
:1023C400D946CDE9876B0DF5FC78CDE9855684AE09
:1023D4008491DFF8ECB1DFF8ECA10999CDF80CB2E7
:1023E400CDF80882CDF804A280919DF8B7116598C4
:1023F4004A1E18BF0122012974497F92724A08BFFC
:1024040011467E913146FFF747F9BDF8B201ADF8A8
:10241400B401BDF8B0016E4901284FF0020008BFB5
:1024240003206B906B4808BF08466B498995CDE93A
:102434008759354686910321859100266749849101
:10244400674983910B996A906598CDE981B1CB4630
:102454000A9980912946FFF71FF99DF8B8014FF0BA
:10246400010988B19DF8B9018DF8F80165985D49B5
:10247400CDF82492CDE9876BCDE9859684912946E0
:10248400CDE9808AFFF708F9659802225649FFF7DB
:1024940072FADFF8DCA0BCB1659821225349FFF73A
:1024A4006AFA649C6F94207828B128468496FFF7D2
:1024B400ECF908206DE684F80090659802C802F0F3
:1024C4009BFA267002F0ADFB649C6F942078002880
:1024D4003FF464AE28468496FFF7D7F9092058E6FE
:1024E400FEDE02F0E7FA84ACCDE984010021204647
:1024F40001F0F4FD3049204601F00AFE4046214631
:1025040002F02AFA02F064FAFEDE01F0B5FFFEDE04
:1025140000F072F8FEDEBFF32F8F02F0CBFA33AC7B
:10252400CDE933010021204601F0D8FD114918E01E
:10253400BFF32F8F02F0BEFA33ACCDE93301002193
:10254400204601F0CBFD0C490BE0BFF32F8F02F0C6
:10255400B1FA33ACCDE933010021204601F0BEFDD0
:102564000649204601F0D4FD02F056FBFEDE00BF12
:102574009AF103206200000063000000570000008D
:102584000C14004018110000F72900003411000059
:10259400241100004D480000A01100000810004064
:1025A4000000000008120000C3110000B011000078
:1025B40059000000580000005A00000028120000D2
:1025C400C51300007B290000D4120000381200005B
:1025D400391200003C120000601200004812000092
:1025E400CD280000A8120000B0120000B2120000B2
:1025F40002F013BB0068FEE780B56F4600F006F8F2
:10260400FEDE80B56F4600F001F8FEDE80B56F4651
:1026140002F04AFAFEDED4D4F0B503AF2DE9000F80
:1026240083B0D0F800E09246BD680A461EF001016E
:102634004FF02B0B01EB050608BF4FF4881B1C461B
:1026440080465FEA4E7103D44FF0000A002254E042
:10265400BAF1000F0BD0AAF101010AF0030C03290F
:1026640007D200211346BCF1000F2BD142E0002118
:1026740040E08DE87000ACEB0A0600219146134659
:102684001A785D78987802F0C002DC78802A05F028
:10269400C00208BF0131802A00F0C00008BF013128
:1026A400802804F0C00008BF0131802808BF013130
:1026B40004330436E4D1DDE900454A46029EBCF108
:1026C400000F17D0187800F0C000802808BF01312F
:1026D400BCF1010F0ED0587800F0C000802808BF6C
:1026E4000131BCF1020F05D0987800F0C0008028B9
:1026F40008BF013106EB0A00461AD8F80800012881
:1027040018D1D8F80C90B14514D95FEA0E702AD4C8
:102714000292A9EB060198F8202000208946032A9A
:1027240008BF0122DFE802F0490245024FF0000928
:10273400084642E040465946534600F09EF828B108
:102744000126304603B0BDE8000FF0BDD8F81C10D8
:102754002A46D8F81800CB68214603B0BDE8000F1C
:10276400BDE8F0401847D8F80400594602960126FF
:1027740001903020C8F80400534698F820000090D7
:10278400404688F8206000F078F80028D9D198F8FD
:102794002020AA460298032A08BF0122A9EB0001BF
:1027A40000200D46DFE802F03A0237020025084611
:1027B40034E0480801314FEA5109461C013E08D073
:1027C400D8E90602D8F80410126990470028F5D019
:1027D400B6E7029A404659465346D8F8046000F0DA
:1027E4004CF80028ACD1D8E906012A46CB6821462A
:1027F40098470028A4D109F10105D8E90698344680
:102804000126013D2FD0D8F8102048462146904794
:102814000028F6D095E7480801314D08461C013ED2
:1028240008D0D8E90602D8F80410126990470028A5
:10283400F5D085E7D8E906022146D3685246D8F890
:102844000440984700287FF47BAFD8E9069A013505
:102854000126013D09D0DAF8102048462146904768
:102864000028F6D06DE700266BE70098002688F86C
:1028740020000198C8F8040063E7F0B503AF4DF8F1
:1028840004BD1C4615460646B1F5881F08D0D6E996
:1028940006021269904718B101205DF804BBF0BD2F
:1028A4004DB1D6E906012246CB6829465DF804BB42
:1028B400BDE8F040184700205DF804BBF0BD80B5CA
:1028C4006F46FFF7A3FEFEDEF0B503AF4DF804BD7F
:1028D400A2B0068802AD0C46802106F00F0000F17C
:1028E40057020A2838BF00F13002284602F0F0F9F6
:1028F4000020B0EB161F28D0310901F00F0101F1BF
:1029040057020A2938BF01F13002B0EB162F8DF8B7
:1029140086201DD0300A00F00F0000F157010A286C
:1029240038BF00F130010020B0EB163F8DF8851060
:1029340011D0300B00F157010A2838BF00F13001E3
:102944008DF884107C20042107E07F20012104E01D
:102954007E20022101E07D200321009141F29C317F
:102964002B18C0F2000120460222FFF755FE22B0C8
:102974005DF804BBF0BD80B56F468CB00A460178A3
:10298400642915D348F21F50C5F2EB10A1FB0003D4
:102994006FF063005B0903FB001041F2D421C0F225
:1029A4000001C0B231F81000ADF82D00242003E07E
:1029B4000A2906D226200B4603F1300102AB195432
:1029C40008E041F2D420C0F2000030F81100ADF864
:1029D4002D002520C0F12701009102A90B1841F216
:1029E400D4211046C0F200010022FFF715FE0CB0FE
:1029F40080BDB0B502AFA2B000680DF1080E8C46E0
:102A04008123002200F00F0101F157040A2938BF85
:102A140001F130040EEB0301B2EB101F01F8024C7C
:102A240030D0040904F00F0404F157050A2C38BF10
:102A340004F13005B2EB102F01F8035C27D0040A2F
:102A440004F00F0404F157050A2C38BF04F13005D3
:102A5400B2EB103F01F8045C1ED0040B043B04F0FD
:102A64000F0404F157050A2C38BF04F1300501F8AE
:102A7400055C010CB2EB104F0846C3D1581E8128E7
:102A84000ED31CE0981E013B812809D317E0D81E01
:102A9400023B812804D312E0181F033B81280ED285
:102AA400C3F18101009141F29C310EEB0003C0F2AD
:102AB400000160460222FFF7AFFD22B0B0BDFFF770
:102AC400FEFEFEDE80B56F461B481D4A016841F0DC
:102AD4008071016019480021416001681140013191
:102AE400016018480121C0F8101501601648816082
:102AF400016016481649091A21F0030102F037F95A
:102B040014481549091A21F00302144902F08FF8F8
:102B140002F085F812484FF48A51124C124D0160AC
:102B24000161AC4202D201CC8047FAE7FFF760FDB5
:102B3400FFF7ACF8FEDE00BFFCED00E0001000E0A3
:102B4400FEFFFF000800004000B0004000F003203A
:102B5400ACF10320ACF103206CF20320544E0000CE
:102B640008050050444E0000544E000080B56F46E6
:102B740001F096FCBDE8804001F0C0BCF0B503AFA5
:102B84002DE9C00B01F096FF6C46CDE9000120460B
:102B9400042101F0A3FA7949204601F0B9FA784AF0
:102BA400906B000605D000209063D2F80402400424
:102BB40006D41068000607D04FF0040810461BE046
:102BC40091464FF002081AE0104650F8481F0906D3
:102BD40002D04FF000080FE0104650F80C1F090611
:102BE40002D04FF0010807E0104650F86C1F0906A8
:102BF40000F0C0804FF0030891460021016001F00D
:102C040059FF6E460446CDE900010D4630460321C6
:102C140001F064FA5B49304601F07AFA28880C2204
:102C2400411C6FF31F30225430462980564901F06D
:102C34006FFADFE808F003722B482100DDE9000198
:102C440000250A88531C6FF31F3285540B8001F052
:102C540031FF6C46CDE900012046022101F03EFA25
:102C64004E49204601F054FA4FF000600421C9F89F
:102C740008024648C57161E0DDE9000104240A88C0
:102C8400531C6FF31F3284540B8070E0DDE90001A4
:102C940002240A883D4D531C6FF31F3284540B8069
:102CA400E879000666D101F005FF6C46CDE9000124
:102CB4002046022101F012FA3649204601F028FA92
:102CC4000120E87153E0DDE90012032013885C1C45
:102CD4006FF31F33C8542D491480CA79D2B2022A23
:102CE40048D14FF48042C9F80422D9F8002122F4D3
:102CF4008012C9F800214FF00062C9F808220022AE
:102D0400CA71487201F0D6FE6C46CDE90001204636
:102D1400022101F0E3F91E4926E0DDE90001012466
:102D24000A88531C6FF31F32845418480B80C179EE
:102D3400C9B2012904D002291CD10221417216E032
:102D4400017AC9B2012915D10021C9F86C10C171E9
:102D54000221017201F0AEFE6C46CDE9000120466D
:102D6400022101F0BBF90C49204601F0D1F9BDE87C
:102D74000C0BF0BD01F080FBFEDE00BF490000003B
:102D8400001100404A0000004F0000009AF10320A7
:102D94004E0000004C0000004D0000004B000000FD
:102DA400DCB504AF01F086FE6C46CDE90001204697
:102DB400042101F093F90449204601F0A9F90348DC
:102DC40000210160DCBD00BF480000001831004054
:102DD400DCB504AF2F480168C90741D1C16BC907ED
:102DE40022D000212F4CC1632D490A88931C013243
:102DF40004EA03332C4C23600A8091B20C22B1FB09
:102E0400F2F202EB4202A1EB820103290CD8DFE8C3
:102E140001F00207020721494FF480724A6003E07F
:102E24001E494FF480720A60016CC9071FBF00215C
:102E340001644FF40031C0F80412416CC9071FBF8C
:102E4400002141644FF48021C0F80412816CC90749
:102E54001FBF002181644FF40021C0F80412DCBDBF
:102E640001F028FE6C46CDE900012046002101F066
:102E740035F90949204601F04BF908484FF48051CF
:102E84000160402101604FF48071416001F0C4FE93
:102E9400FEDE00BF04B100404700000008050050FA
:102EA40000F0032000F0FF0040B50040F0B503AF90
:102EB4002DE9000F93B001F0FDFD0AACCDE90A0144
:102EC4000421204601F00AF9DFF85017204601F0EA
:102ED4001FF9DB4AD2F85401000604D002F5AA70A7
:102EE4004FF007093DE0104650F8FC1F090602D0D8
:102EF4004FF0080935E0D2F82401000604D002F5A9
:102F040092704FF003092CE0D2F85801000604D067
:102F140002F5AC704FF0040923E0D2F85C0100061E
:102F240004D002F5AE704FF005091AE0D2F82C0176
:102F3400000604D002F596704FF0000911E0D2F8B3
:102F44003801000604D002F59C704FF0010908E036
:102F5400D2F81001000600F0778402F588704FF073
:102F6400020900219246016001F0A4FD0AAE044664
:102F7400CDE90A010D463046032101F0AFF8DFF830
:102F8400941D304601F0C4F828880C22411C6FF3CC
:102F94001F30225430462980DFF87C1D01F0B8F838
:102FA4000820DFE809F005090B070F110D131400C1
:102FB40000200CE003200AE0012008E0022006E0E3
:102FC400062004E0042002E0052000E00720DDE9FB
:102FD4000A121388DFF8448D5C1C6FF31F33C85446
:102FE400148098F80200811ECAB2032A28BF012166
:102FF400C9B2012911D0022914D1DFE819F009005E
:103004000E01AE00BA0047002501AE01F500B5017E
:10301400DFF80C0D00218181EAE1B9F1070F08BF47
:10302400002802D001F092F8FEDE01F0A5F80005B8
:10303400F8D5012088F8020001F03CFD0AACCDE986
:103044000A010221204601F049F8DFF8D81C204685
:1030540001F05EF898F80000002800F0C98198F8A3
:103064000100002800F0C48198F80200002800F054
:10307400BF81042088F802000020A8F8000013B0E3
:10308400BDE8000FBDE8F04001F0AEB8DFF8900CE9
:1030940080890028C6D16B4E01220025D6F8009005
:1030A4005FFA89F0C109B2EBD01F0C4618BF0224A5
:1030B400B5EBD01F08BF0C46D6F804A0B368022CA9
:1030C400F068D9B241EA00210991D6F810E071699B
:1030D400B269F6695FFA8EFC4CEA012BD2B242EA7D
:1030E40006220892CDF81C9040F055818DF830509E
:1030F400CDE90A555546DDE9089601F0DBFC0DAC37
:10310400CDE90D010021204600F0E8FFDFF8181C8E
:10311400204600F0FDFF0798214601F0F7F8284605
:10312400214601F0F3F8DFF8045C30462146A84755
:1031340058462146A84748462146A8474049012009
:10314400086501F0B7FC0AACCDE90A01022120466A
:1031540000F0C4FFDFF8D81B47E101F0ABFC0AAC78
:10316400CDE90A010221204600F0B8FFDFF8C41BB4
:103174003BE1DFF8AC6BB089012800F02B81022819
:103184007FF450AFD14601F095FC0AACCDE90A01B9
:103194000221204600F0A2FFDFF84C1E204600F07A
:1031A400B7FFF089002800F02781264DD5F880016B
:1031B4004030C5F88001F489412CC0F0208101F031
:1031C40079FC0AACCDE90A010221204600F086FF11
:1031D400DFF8181E204600F09BFF4020214601F036
:1031E40095F8F089403824E100F0C6FFC10500F1EC
:1031F400DE80800540F1F58601F05CFC0AACCDE987
:103204000A010221204600F069FFDFF8001E204673
:1032140000F07EFF0B480021D9E001F04BFC0AAC22
:10322400CDE90A0102210225204600F057FFDFF80C
:10323400C01D204600F06CFFDFF8BC0D8572D7E09E
:103244000470024080740240DAF86854CAF8685482
:1032540015F0040608D0DFF8A00D0078C0B20228EB
:103264007FF4E0AE00F0D8FFA8072AD501F022FCD5
:103274000AACCDE90A010221204600F02FFFDFF855
:10328400901D204600F044FF01F014FC0AACCDE987
:103294000A010221204600F021FFDFF8781D2046B4
:1032A40000F036FFDFF8500D01210170DFF84C0DFE
:1032B4008188C08889B280B288421EBFD5488021E7
:1032C40001606EB101F0F6FB0AACCDE90A010221FE
:1032D400204600F003FFDFF8401D204600F018FFF1
:1032E400680318D5CC48866A804601F0E3FB0AAC33
:1032F400CDE90A010221204600F0F0FEDFF81C1D92
:10330400204600F005FF06F07F00214600F0FEFF96
:103314000020C8F82800280311D501F0CBFB0AAC23
:10332400CDE90A010221204600F0D8FEDFF8F01CA6
:10333400204600F0EDFEDFF8C00C01218172280761
:1033440056D501F0B7FB0AACCDE90A0102212046AB
:1033540000F0C4FEDFF8CC1C47E013B0BDE8000F5A
:10336400BDE8F04000F058BF01F0A4FB0AACCDE981
:103374000A010221204600F0B1FEDFF8841C204639
:1033840000F0C6FEDFF8700C4178022980F029862F
:10339400002141702CE0C9F34112002A51D0022AC5
:1033A4004CD0012A7FF4A2AE4FF480724AE001F0BF
:1033B40081FB0AACCDE90A010221204600F08EFE11
:1033C400DFF8401C204600F0A3FE93480121C0F81A
:1033D400AC100DE001F06EFB0AACCDE90A0102214C
:1033E400204600F07BFEDFF8F01C204600F090FE43
:1033F40013B0BDE8000FF0BD0020B081F8E701F084
:1034040059FB0DF12808CDE90A010221404600F0DC
:1034140065FEDFF8C01C404600F07AFE20464146B7
:1034240000F074FF00F0D6FF04F07F00C5F88401BB
:103434000020F0810120C9F80000D9E74FF40072A0
:1034440000E0002209F00F06032E3FF64FAE04F011
:103454000104049306940023DFE806F00A02050839
:103464004FF4803304E04FF4003301E04FF4403371
:1034740042EA0304C4F30122260A1C0C012A059320
:1034840037D00396002A069E7FF430AE5FFA8AF2A4
:1034940055460C2ACDF808B000F25582DFE812F048
:1034A4000D00370153021B0153020801C000E9005B
:1034B40054016601AD019A01A100002E00F043827F
:1034C4000998000402BF089880B2022840F03B82A9
:1034D400022C00F01382012C00F01D82002C40F01D
:1034E40032820298000440F02E824FF0000E042035
:1034F40050E106995FFA8AF0049A554622283AD098
:10350400DDF82090212821D0202808BF002948D0A8
:10351400059A002406F00300ADF840400F94CDE96D
:1035240000B940EA1220099E2A4641EA002111A866
:10353400334601F004FB9DF84400022840F0248245
:103544008DF830400320CDE90A442BE20029DFD076
:10355400012CDDD10998000404BF1FFA89F0072863
:10356400D6D11FFA8BF0B0F5807F28BF4FF0000C46
:10357400CED2022027E0DDF820900029C8D1012C0A
:1035840008BF5FEA0940C3D1099880B203289CBFF1
:103594001FFA8BF0FF28BBD862F3082CC2F340005B
:1035A40011E0012CB4D10998000404BF1FFA89F07A
:1035B4000728ADD11FFA8BF0B0F5807F28BF4FF0FC
:1035C400000CA5D203208DF82A000F98ADF828C06E
:1035D400CDF82B00BDF84000ADF82F000120099E66
:1035E400E0E1002E00F0AF81022C40F0AC8109989C
:1035F400000402BF089880B2022840F0A481029817
:1036040001F0D4FAC2B2022A00F09D8100F0010E4A
:103614000A20BFE004E200E08074024001000000E0
:10362400002E00F09081002C40F08D8101F0D2FA40
:10363400C1B20C2900F087814FF0FF3151FA80F2BA
:10364400062A00F2808104210220DFE812F007003C
:103654005201A3007C017C016E01780104980006EC
:1036640004BF02985FEA004040F06D81012100F040
:10367400A8BC56EA040140F0668101F0ABFAC0B27E
:103684000C2800F06081032800F02981022800F052
:103694002881069E0128554640F05581049800066D
:1036A40004BF02985FEA004040F04D8101211EE111
:1036B400002E40F04881099880B27F2800F24381AF
:1036C400002C40F04081089802990843000440F01F
:1036D4003A8105205CE0002E40F035810898000412
:1036E40040F03181099880B2002800F0DD80022882
:1036F40000F0BF80012808BF002C40F0248102980C
:10370400000440F020814FF0000E082042E0002E1B
:1037140040F01981032C00F016810898000440F051
:103724001281099880B2002800F0CD80012808BFDA
:10373400002C40F008810298000440F004814FF00E
:10374400020E0020002125E0002E00F0FC800898E5
:1037540080B2012808BF002C40F0F5800998029936
:103764000843000440F0EF80012013E0002E40F0F5
:10377400EA80099880B2FF2800F2E580002C40F02E
:10378400E280089802990843000440F0DC80062097
:10379400DDF810E0049AC9B2120642EA01415FFA68
:1037A4008EF241EA02210844CDF829000020029952
:1037B4008DF828000898C1EA0040CDF82D009DF846
:1037C4002A00BDF82810BDF82F80DDF82B4041EA0F
:1037D400004634E1002E40F0B680012C40F0B38066
:1037E400089A120401BF0002090208435FEA00407C
:1037F40040F0A98009200499CCE7002E00F0A380B2
:10380400029884F00103002180B2B0F5807F4FF06C
:10381400000038BF0120099A92B21A43089B9BB258
:1038240083F001031A43B2FA82F25209104008BF2E
:103834008646002800F0878000220320049200229C
:10384400029200220892A5E7DFF8AC070078C0B224
:1038540001287FF4CDADDFF8A4078188C08889B240
:1038640080B288423FF4C4AD92464FF00609FFF798
:103874007BBB44EA0E00000665D16FF0020050FAEB
:1038840081F24FF0020E0820032AFFF483AF069E54
:10389400CAB2012A3FF47EAF5546022A53D14FF0F3
:1038A400020E0820022175E7022C4CD1029801F087
:1038B4007DF90491C1B2022945D000F001014FF015
:1038C400010E082066E7022C3DD1029801F06EF942
:1038D400C2B2022A37D000F0010E00205AE70221BA
:1038E40005E0069E5FEA0B4055462CD100210720D7
:1038F40068E30298000426D1002162E3029801F0F3
:1039040055F90491C1B202291DD000F001014FF014
:10391400010E04203EE7029880B2B0F5807F12D2F7
:10392400714604204FF0020E34E70498000604BFE9
:1039340002985FEA004006D1022002212AE7029899
:10394400000400F03D8303982A460599DDF808B089
:1039540000F00300CDF800B040EA1120DDF820901B
:10396400CDF8049046EA0021099E11A8334601F0DF
:10397400E6F89DF84400022806D100208DF83000B6
:10398400CDE90A0003200DE01198CDF83500BDF80B
:103994004800ADF839000D980A90DDF83700CDF8ED
:1039A4002B00022003283FF4A8AB9DF82A10BDF891
:1039B4002820DDF82B4042EA0146F0B3DFF8385600
:1039C400012829D0687802285AD104F47F00C6F36C
:1039D4000745B0F5003F6BD106F47F40B0F5807F1A
:1039E40040F0AA8101F066F80AAECDE90A0102218D
:1039F400304600F073FBDFF83C16304600F088FBDD
:103A04002846314600F082FC2046314600F081FC15
:103A1400DFF824062121CCE2687802283CD1300664
:103A240052D001F047F80AACCDE90A010021204642
:103A340000F054FBDFF80816AFE2BDF82F8026F043
:103A44007F404FEA142A4FEA1049C0F30720DFE809
:103A540010F00B00E2008B00CA007300F8001E0196
:103A6400D6004B017F00560101F024F80AACCDE9E1
:103A74000A010021204600F031FBDFF854168CE2E5
:103A840001F018F80AACCDE90A010021204600F043
:103A940025FBDFF8941580E201F00CF80AACCDE9BF
:103AA4000A010021204600F019FBDFF8901574E2AA
:103AB40001F000F80AACCDE90A010021204600F02B
:103AC4000DFBDFF8681568E26FF0010050FAA6F00C
:103AD400C1B2022928BF0220C6F30744C0B200289D
:103AE40000F07981012800F0438100F0E3FF0AAD82
:103AF400CDE90A010221284600F0F0FADFF8441566
:103B0400284600F005FB04F00100294600F0FEFB06
:103B1400C6F30020294600F0F9FB00F0CBFF0AAC05
:103B2400CDE90A010221204600F0D8FADFF8181581
:103B3400204600F0EDFA14E100F0BCFF0AACCDE938
:103B44000A010021204600F0C9FADFF8501524E2EA
:103B540000F0B0FF0AACCDE90A010021204600F0D4
:103B6400BDFADFF8F81418E200F0A4FF0AADCDE9BD
:103B74000A010221284600F0B1FADFF82815284688
:103B840000F0C6FA4046294600F0C0FBE0B2042823
:103B940000F21A82DFE810F00500B701CB01180229
:103BA400AC0100F087FF0AACCDE90A0102212046EE
:103BB40000F094FADFF80015204600F0A9FA504608
:103BC400214600F0A3FB5FEA0A6000F0EB8100F0FD
:103BD40071FF0AACCDE90A010021204600F07EFA0B
:103BE400DFF8D814D9E100F065FF0AACCDE90A0189
:103BF4000021204600F072FADFF8A414CDE100F0B1
:103C040059FF0AACCDE90A010021204600F066FA0A
:103C1400DFF85014C1E100F04DFF0AACCDE90A0110
:103C24000221204600F05AFADFF89C14204600F0E6
:103C34006FFA0120214600F069FBDFF890040121AE
:103C4400B7E100F037FF0AACCDE90A0102212046B2
:103C540000F044FADFF83014204600F059FA4846E0
:103C6400214600F053FBE4494878002800F0218104
:103C7400012800F0C18000F01DFF0AACCDE90A0163
:103C84000021204600F02AFADFF8001485E100F054
:103C940011FF0AACCDE90A010221204600F01EFA08
:103CA400DFF8C413204600F033FA4846214600F0FA
:103CB4002DFBD1484078002800F00F81012800F046
:103CC400B380CD48B9F1000F00F03C81C07848457D
:103CD40047D000F0EFFE0AACCDE90A0100212046EE
:103CE40000F0FCF9E14958E100F0E4FE0AACCDE94A
:103CF4000A010021204600F0F1F9D9494DE100F014
:103D0400D9FE0AACCDE90A010021204600F0E6F90B
:103D1400D14942E1020000004600000062F20320A3
:103D24009AF103200400000008000000174300007B
:103D34002F0000003A00000000F0BCFE0AAECDE9FE
:103D44000A010221304600F0C9F9B949304600F0B1
:103D5400DFF92846314600F0D9FA2046314600F012
:103D6400D5FA13B0BDE8000FBDE8F04000F02CBB5D
:103D740000F0A0FE0AACCDE90A010221204600F0C1
:103D8400ADF9B249204600F0C3F9A88900287FF4B0
:103D940049A90126AE8100F08DFE0AACCDE90A01E5
:103DA4000221204600F09AF9A949204600F0B0F912
:103DB400954908F10300C1F880020720C1F8840284
:103DC4008C480146D0F8FC0140F00200C1F8FC0127
:103DD4008E64FFF70DBB00F06DFE0AACCDE90A015D
:103DE4000221204600F07AF99A49204600F090F921
:103DF40008F103000721DCE0B9F1000F00F0B58001
:103E0400887848453FF4F4AA012081F8029048706C
:103E140000F050FE0AACCDE90A010221204600F070
:103E24005DF99B49FFF7E1BAB9F1000F99D0B9F1F7
:103E3400010F40F0A88070480546867800F03AFEED
:103E44000AACCDE90A0102214FF00209204600F034
:103E540045F98849204600F05BF96B494FF00108A9
:103E64000F2085F80380AE7085F801900E46C1F8E6
:103E740090000920C1F894000020C86200F01AFEE6
:103E84000AACCDE90A010221204600F027F97A495B
:103E9400204600F03DF90A2021460A2500F036FAB2
:103EA4007648C6F894015348C6F89851C0F804807F
:103EB40057E7B9F1000F3FF49BAA012081F8029063
:103EC400487000F0F7FD0AACCDE90A010221204652
:103ED40000F004F97049FFF788BA00F0EBFD0AAC72
:103EE400CDE90A010021204600F0F8F8654954E0C4
:103EF40000F0E0FD0AACCDE90A010021204600F003
:103F0400EDF8694949E000F0D5FD0AACCDE90A01B4
:103F14000221204600F0E2F86549204600F0F8F856
:103F2400B8F1120F28BF4FF01208624840E000F0C9
:103F3400C1FD0AACCDE90A010121204600F0CEF80A
:103F44005A492AE00646857800F0B4FD0AACCDE96A
:103F54000A010221204600F0C1F84549204600F03C
:103F6400D7F80120B5707070FBE60020487000F0AF
:103F7400A1FD0AACCDE90A010221204600F0AEF809
:103F84004449FFF732BA00F095FD0AACCDE90A01C5
:103F94000021204600F0A2F83949204600F0B8F884
:103FA400FFF7CCB84648B8F16B0F28BF4FF06B0849
:103FB400414613B0BDE8000FBDE8F04000F0ACB9D5
:103FC40003210220FFF7E6BB00F074FD0AACCDE943
:103FD4000A010021204600F081F83A49204600F009
:103FE40097F800F07DF9FEDE30000000310000009B
:103FF4003B000000047002409AF10320ACF103205E
:104004000700000005000000807402400600000064
:1040140034000000350000003600000037000000C6
:1040240038000000390000002B0000002E000000C2
:104034002D0000002C00000041F2032024000000A9
:104044002A000000250000002600000028000000CF
:1040540029000000270000000900000023000000E0
:1040640022000000210000001600000019000000DA
:104074001C0000001A0000001B00000034F20320A2
:1040840018000000170000001100000012000000DA
:1040940015000000140000001300000020000000C0
:1040A4001F0000000A000000100000000D000000C6
:1040B4000C000000B4F103200E0000000F0000000B
:1040C400C6F103200B0000001E00000040F2032094
:1040D4001D0000003200000033000000F0B503AF03
:1040E4004DF804BD094A1268D0E9003425889209C4
:1040F4006E1C6FF31F3559552680D0E900311846E0
:104104005DF804BBBDE8F04000F082B9041000E0A3
:10411400F0B503AF4DF804BD8AB27F2A0AD3D0E9C3
:10412400003441F0800125886E1C6FF31F3559550A
:10413400D1092680D0E9002003885C1C6FF31F336B
:10414400D15404805DF804BBF0BDD4D4E0B502AF13
:1041540000F07AF900F0AEFC6C46CDE9000120468F
:104164000021FFF7BBFF03492046FFF7D1FF00F012
:1041740053FDFEDE44000000F0B503AF4DF8048D9E
:1041840084B016480468046000F094FC0DF104083F
:104194000546CDE901010E4640460321FFF79EFF87
:1041A4000F494046FFF7B4FF30880A22411C6FF3E1
:1041B4001F302A54404631800A49FFF7A9FFDDE940
:1041C4000101A7F11202022327F8124C00F084FC2B
:1041D400204604B05DF8048BF0BD00BF00740240BB
:1041E4004300000064000000DCB504AF084801216E
:1041F400016000F05FFC6C46CDE90001204602211D
:10420400FFF76CFF03492046FFF782FFDCBD00BFC8
:104214000475024042000000F0B503AF2DE9C00769
:10422400DFF8A4A0BAF80450BAF80600401B010451
:104234001CD084B23F2C28BF3F2454FA85F081B2AD
:10424400E8B2B1F5807F13D9DAF80090C0F5807632
:10425400DFF8788009EB00013246404600F0E5FCC7
:10426400A11B08EB06008AB2494606E0012625E0B8
:10427400DAF8001022460144144800F0D6FC28194C
:10428400AAF8040020064FF0010617D000F012FC33
:104294006D46CDE9000128460221FFF71FFF0C49B6
:1042A4002846FFF735FF2046294600F02FF8094835
:1042B4000649016044600848066002260748067003
:1042C400BDE80C07F0BD00BFACF1032000C0032023
:1042D40041000000287602400C7002409AF103204D
:1042E400E0B502AF00F0B0F800F0E4FB6C46CDE9B5
:1042F400000120460021FFF7F1FE03492046FFF7A5
:1043040007FF00F089FCFEDE3E000000C0B200F0B2
:1043140069B880B200F066B8F0B503AF4DF8048D0B
:1043240082B0234E8046B08988BB234C88B20D46A8
:1043340040280AD9206820F004002060A5F140003C
:10434400F08102204025B08103E000F043F8022010
:10435400F06000F0AFFB6E46CDE90001304602216B
:10436400FFF7BCFE15493046FFF7D2FE284631461A
:10437400FFF7CCFF124905F07F0048601148C1F8EF
:1043840000800121215002B05DF8048BF0BD00F0E3
:1043940091FB6C46CDE9000120460021FFF79EFE0B
:1043A40004492046FFF7B4FE00F036FCFEDE00BFF1
:1043B4009AF103203C000000007202403D0000001E
:1043C4000076024004FEFFFF0148012101607047AE
:1043D400507002400248016841F0040101607047D6
:1043E40000720240F0B503AF4DF804BD0246D1E9B6
:1043F40000031C880626651C6FF31F3406551D80B8
:10440400D1E900015DF804BBBDE8F04000F000B85C
:10441400F0B503AF4DF804BD0C880023661C42F0D0
:1044240080056FF31F34B3EBD21F08BF02F07F0582
:10443400B3EBD21F05554FEAD21534462A460E80F7
:10444400ECD15DF804BBF0BDDCB504AF0848002135
:10445400016000F02FFB6C46CDE9000120460221EB
:10446400FFF73CFE03492046FFF752FEDCBD00BFC8
:104474000475024040000000E0B502AF00F01AFBF2
:104484006C46CDE9000120460021FFF727FE0349D1
:104494002046FFF73DFE00F0BFFBFEDE45000000B6
:1044A400DCB504AF00F006FB6C46CDE90001204604
:1044B4000421FFF713FE0D492046FFF729FE0C489F
:1044C4000168090611D00021016000F0F3FA6C467E
:1044D400CDE9000120460221FFF700FE05492046F0
:1044E400FFF716FE044801210170DCBD54000000F2
:1044F400000100405500000098F10320F0B503AF1F
:104504002DE9C00B00F0D6FA6C46CDE90001204637
:104514000421FFF7E3FD5D492046FFF7F9FD5C4800
:104524004FF000080168090602D04FF000090FE0BF
:10453400014651F8042F120603D04FF00109084632
:1045440006E050F8081F090600F095804FF00209B4
:10455400C0F8008000F0AEFA6E460446CDE90001D2
:104564000D4630460321FFF7B9FD4A493046FFF7AF
:10457400CFFD28880C22411C6FF31F302254304693
:1045840029804549FFF7C4FDDDE900010A88531C71
:104594006FF31F3200F802900B80404DA878811E03
:1045A400CAB2032A28BF0121C9B271B1012967D156
:1045B4002A78002A114618BF01217ABB98F001021B
:1045C4002CD101212970002144E0B8F1000F4FD112
:1045D400B9F1000F57D1334849F275310322016014
:1045E400C0F81421016001212F48016000F062FA33
:1045F4006C46CDE9000120460221FFF76FFD2B49EF
:104604002046FFF785FD2A4800210078A5F801100F
:10461400C0B2002818BF0120287029E0687890BB38
:1046240018EA010024D1B9F1020F2CD101206870DD
:1046340000F040FA6C46CDE9000120460221FFF764
:104644004DFD17492046FFF763FD2978A878B1FA94
:1046540081F1490960B159B9687848B10420A8705A
:1046640000202880BDE80C0BBDE8F040FFF7BCBD7E
:10467400BDE80C0BF0BD4FF003094FF001088CE7C7
:10468400FFF72EFEFEDEFFF761FDFEDE50000000A8
:104694001C010040030000005300000062F20320EC
:1046A4005200000000EC064000750240510000007A
:1046B40098F1032007484FF4803101604FF4805192
:1046C400C0F83C124FF4807103480160034800F0C5
:1046D40007B800BF04B300400C0500509E1300004F
:1046E400D0B502AF002201230021012A05D0845C49
:1046F400013203FA04F42143F7E709B101480160E8
:10470400D0BD00BF00E100E0B0B502AF154D0024FC
:10471400B4F5C67F04D0281900F036F88434F7E7DE
:1047240011480F2101234160082101600F49816074
:104734008121C1600E490A6863F302020A6040F2F3
:1047440002214FF4822281620A49C162002101637D
:104754000949425009490A4A42500A48BDE8B04052
:10476400FFF7BEBF40C103200C150040080000063F
:104774006C16004021100100F4FCFFFFF8FDFFFF60
:10478400094004089F13000009490A68026051E8BF
:10479400003F934207D141E80002002A1A4608BFAD
:1047A40000F03FBAF2E7BFF32F8F1A46EEE700BFDF
:1047B40004F00320BCB504AF4FF080400125056030
:1047C40000F078F96C46CDE9000120460221FFF79C
:1047D40085FC05492046FFF79BFC04480560044816
:1047E400BDE8BC40FFF77CBF560000000403004056
:1047F400A0130000B0B502AF0C4D0024B4F5C67F81
:1048040004D02819FFF7C0FF8434F7E708480121D2
:1048140001604FF460710160064807490160074870
:10482400FFF75EFF064880210160B0BD08F0032059
:1048340004030040047302402194C001A01300004B
:1048440004E100E0FFF7A0BF007800F07F02052A32
:104854001ED00A281ED00F281ED014281ED01928B6
:104864001ED01E281ED023281ED028281ED02D2856
:104874001ED032281ED037281ED03C281ED04128F6
:104884001ED046281ED04B280CBF134A114A1AE0EA
:104894001F4A18E01D4A16E01B4A14E0194A12E0A8
:1048A400174A10E0154A0EE0134A0CE0114A0AE0D8
:1048B4000F4A08E00D4A06E00B4A04E0094A02E008
:1048C400074A00E0054AD1E90601CB6811460222F5
:1048D400184700BFBF130000A1130000A31300007A
:1048E400A5130000A7130000A9130000AB130000D8
:1048F400AD130000AF130000B1130000B3130000A8
:10490400B5130000B7130000B9130000BB13000077
:10491400BD130000014801210160704704100040EC
:10492400BCB504AF0A48046800F0C4F86D46CDE98C
:10493400000128460321FFF7D1FB06492846FFF76B
:10494400E7FB2046294600F007F8204602B0B0BD38
:104954005015004061000000F0B503AF4DF804BDF0
:104964000C460546D1E900010C260A88531C6FF356
:104974001F32865420460B801449FFF7C9FB05F00B
:104984000F010820DFE801F0070D0F09152121218F
:1049940021110B13160000200CE003200AE006206E
:1049A40008E0012006E0022004E0052002E00720E0
:1049B40000E00420D4E9001213885C1C6FF31F3359
:1049C400C85414805DF804BBF0BDFEDE6000000036
:1049D400E0B502AF00F06EF86C46CDE90001204668
:1049E4000021FFF77BFB03492046FFF791FB00F012
:1049F40013F9FEDE3F000000E1B3F0B503AF2DE98B
:104A04000007DFF8749082460C46B9F80650B9F8EE
:104A14000400401B00F58070010424D080B2A04241
:104A240038BF044654FA85F0E9B280B2B0F5807F0D
:104A34000FD9D9F80080C1F5807608EB0100514602
:104A4400324600F0F2F8A01B0AEB060182B240469F
:104A540004E0D9F8000022460844514600F0E5F885
:104A64002819A9F80600054880210160BDE800075F
:104A7400BDE8F040704700BFACF1032004E200E061
:104A84000849086860B1026851E8003F834204D1D4
:104A940041E80023002BF4D103E0BFF32F8FF0E7AC
:104AA4000020704704F0032080B56F4600F0B4F88E
:104AB400FEDED4D4064905480968C9B2002905496F
:104AC40018BF00F5805018BF0231704700D0032092
:104AD40004ED00E094F10320F0B503AF2DE90007E5
:104AE400B1F800A0064688461C46914650466FF32E
:104AF4001F30C11889B2B1F5805F0CD9C0F580555B
:104B0400311848462A4600F012F8611B09EB0500EB
:104B14008AB2314602E03118A2B2484600F007F8E2
:104B24000AEB0400A8F80000BDE80007F0BD2AB1B4
:104B340010F8013B013A01F8013BF8E77047F0B582
:104B440003AF4DF804BDD6B201F00104C1F307452B
:104B5400D7E90212062E11D00A2E20D1012D08BF4A
:104B6400002C1CD112041AD18AB2FF2A17D8017161
:104B7400002183700170190A417014E0012D0ED1D7
:104B84006CB18CB2FF2C0AD803F47F44B4F5085FEF
:104B940005D10171012142804370017003E00021BD
:104BA4008180022101605DF804BBF0BD024680B241
:104BB400FF2801D9002107E0C2F30310002128B126
:104BC400082801D1012002E002207047002002F0F1
:104BD4000F0170474FF0FF3151FA80F10C200A2980
:104BE40018D8DFE801F006080A0C0E101214171783
:104BF40016000120704702207047032070470420EC
:104C0400704705207047062070470720704708202A
:104C140070470B207047FFBEAABE62B6704772B6DB
:104C2400704740BF704720BF704700F0A3B8042A04
:104C340038BFFFF7FABFB0B502AFA2F1040C0123ED
:104C440003EB9C0313F003030ED08E4604465EF878
:104C5400045B012B44F8045B1FD163462046714674
:104C6400BCF10C0F04D212E01346BCF10C0F0ED3AE
:104C74000D68103B0560032B4D6845608D688560A9
:104C8400CD6801F11001C56000F11000F0D802F008
:104C94000302BDE8B040FFF7C8BF4D68022B456072
:104CA40007D1A2F1080308310830BCF10C0FDFD2A0
:104CB400EDE78B680C318360A2F10C030C30BCF17E
:104CC4000C0FD5D2E3E70B4611461A4600F08FB815
:104CD4001346D2B2042938BFFFF7F5BFD0B502AFEF
:104CE400A1F1040E42EA0363012443EA024304EB04
:104CF4009E0443EA022314F0030410D08446012CDA
:104D04004CF8043B10D174466046BEF10C0F1ED221
:104D140001F00301BDE8D0406046FFF7D4BF0C4664
:104D2400BEF10C0F13D2F3E7022C436007D1083015
:104D3400A1F108048446BEF10C0F08D2E8E78360B1
:104D44000C30A1F10C048446BEF10C0FE0D3C0E991
:104D54000033103CC0E902331030032CF7D88446EA
:104D640001F00301BDE8D0406046FFF7ACBF00226C
:104D7400FFF7AEBFF0B503AF4DF8048DA2B3531ED9
:104D840002F0030C032B14D20022BCF1000F2BD031
:104D94008B5CBCF1010F835426D0531CBCF1020F71
:104DA400CE5CC65420D00232895C81545DF8048BF9
:104DB400F0BDACEB020E01F10108441C6FF00302DC
:104DC40008EB0206A5180432F378EB7033792B71E3
:104DD40073796B71B379AB710EEB02030433EFD1CA
:104DE4000432BCF1000FD3D15DF8048BF0BDD0B513
:104DF40002AF12B3531E02F0030C032B01D20022A4
:104E04000FE0ACEB020E421C6FF00303D418043322
:104E1400A17161712171E1700EEB03040434F5D1C9
:104E24001A1DBCF1000F1ABF8154BCF1010FD0BD93
:104E34000244BCF1020F517000D1D0BD9170D0BDBD
:104E4400F9470000B94700000D470000B9460000CB
:104E540040C003200000000012010002EF020140E4
:104E64002020090300010000000109026B00030176
:104E74000080FA080B00020202010009040000018C
:104E84000202010005240010010524010301042489
:104E940002020524060001070581034000200904DD
:104EA4000100020A00000007050202400000070595
:104EB40082024000000904020002030000000921EC
:104EC400000100012221000705030340000107053A
:104ED4008303400001000000A12000000000020044
:104EE40003000000010600FF0901A101150026FFCF
:104EF40000750895400901810295400901910295C8
:104F0400010901B102C00000028025000000000870
:0400000300002AC906
:00000001FF
