:10100000000004202F2100002D7E00002D7E000016
:101010002D7E00002D7E00002D7E000000000000CF
:101020000000000000000000000000002D7E000015
:101030002D7E0000000000002D7E00002D7E0000AF
:10104000F9210000092200002D7E0000FD2600008D
:101050002D7E00002D7E00002D7E00002D7E0000E4
:101060002D7E00002D7E00002D7E00000D2700004B
:101070002D7E00002D7E00002D7E00002D7E0000C4
:101080002D7E00002D7E00002D7E00002D7E0000B4
:101090002D7E00002D7E00002D7E00002D7E0000A4
:1010A0002D7E00002D7E00002D7E00002D7E000094
:1010B0002D7E00002D7E00000000000000000000DA
:1010C0002D7E00002D7E00002D7E00002D7E000074
:1010D0002D7E00002D7E00002D7E00002D280000BA
:1010E0002D7E00002D7E00002D7E000000000000FF
:1010F000000000002D7E0000000000002D7E00009A
:101100002E3E747C77306D7A237B78323443483BB3
:1011100061542C76496A3F3D5068443A6721266500
:10112000596B376C45584E225E40563C42287D60D4
:101130007E64316E534D3952462B622F25714A2DF4
:101140006F5F75572A6970205C635D384C3329479F
:10115000244B555B79725A4127366651354F735B84
:10116000246C72454F4E48223828236E58215474FF
:10117000663F41207E2E4D2C3B79313A25303D5C37
:101180006B7B5F406827292F4C374B5E55512B579F
:1011900075322A6F7C6753713C4A6A7D33645A63A7
:1011A000563426605273653E467836695976397AE8
:1011B00077436D42625D44352D50494761700000B0
:1011C000663B742A6B7065506362657374626C521F
:1011D000465273746C522A3A65522A6563346265CA
:1011E0003D4E4A3D75753D75655334706C6545637C
:1011F000626B703B637325636F727265637400008A
:0C120000696E636F727265637400000019
:10120C00F0B503AF4DF804BDD1E900C30C221C8826
:10121C0004F1010E6FF31F340CF80420A3F800E066
:10122C0040F2500ED1E900C2C0F2000E16881FFA2F
:10123C008EF57E2D34466FF31F3402D80CF804E083
:10124C000EE04EF080050CF80450731C13804FEA2E
:10125C00DE15D1E90042168833466FF31F33E5548F
:10126C00731C138000F00F020820DFE802F0070D5A
:10127C000F091521212121110B13160000200CE060
:10128C0003200AE0062008E0012006E0022004E02A
:10129C00052002E0072000E00420D1E900210B88A2
:1012AC005E1C6FF31F33D0540E805DF804BBF0BD91
:1012BC00FEDED0B502AF8AB27F2A0BD341F0800C90
:1012CC00D0E900E10B885C1C6FF31F330EF803C0F0
:1012DC000C80D109D0E9002003885C1C6FF31F330C
:1012EC00D1540480D0BDD4D480B56F46DEB043F267
:1012FC00901A0121C2F2000A0AF10100D0E84F2F26
:10130C00002A40F0EE86C0E8421F002AF6D141F2D6
:10131C00505141F20019C4F2000137200DF12C0B91
:10132C0041F8480C0020C0F20009002200240B9068
:10133C000BF104000A900020A0EB420541F25F1073
:10134C0019F80430C0F2000010F8048001340021B8
:10135C0015EB010C1ED00BEB010090F804E09E4540
:10136C001ED01CF1020615D086799E422CD01CF1A1
:10137C0004060FD0067A9E422BD01CF1060609D02B
:10138C00807A08319842E3D10BEB0100851C681C74
:10139C001DB909E00025002035B180F800800FE070
:1013AC00051D681C002DF8D17F2A09D80A9800F871
:1013BC00123000EB420080F801800B9801300B904A
:1013CC005F2C0CD00B9AB6E7851D681C002DE4D160
:1013DC00EAE700F10805681C002DDED1E4E75CA803
:1013EC004FF000098DF848910224CDE94EB041F23E
:1013FC00505BCDE94C004CA800F12A01039100F19F
:10140C002901029100F12401099100F12801103009
:10141C000A9040F24B00C0F20000C4F2000B80B204
:10142C000891079040F24C00C0F2000080B2069088
:10143C0040F24D00C0F2000080B2059040F24E0028
:10144C00C0F2000080B2049040F24800C0F20000EC
:10145C0080B2019040F24900C0F2000080B20090CE
:10146C00002008E003208DF84C018DF8480106F0AF
:10147C00DFFC9DF84801C0B2DFE810F006000F0653
:10148C000F062300790009008DF84C9121E09DF89E
:10149C005C01DFE810F0F201000602060700FE0016
:1014AC0014010D019DF86001810700F0EC81032807
:1014BC0040F0F1859DF86101012840F0E68100F0D3
:1014CC00EABD9DF84C01012803D100F0E4BDBFF347
:1014DC002F8FDAF810000028C4D001685AE8042FC6
:1014EC00824206D14AE80412C2B3DAF8100030B9CD
:1014FC00B8E7BFF32F8FDAF810000028B2D00168DC
:10150C005AE8042F824206D14AE8041232B3DAF8C0
:10151C00100038B9A6E7BFF32F8FDAF810000028B7
:10152C003FF4A0AF01685AE8042F824206D14AE882
:10153C0004129AB1DAF8100038B993E7BFF32F8F81
:10154C00DAF8100000283FF48DAF01685AE8042F38
:10155C008242BCD14AE80412002ABAD10121C470DB
:10156C008DF8491150908DF84C1100F027BC9DF866
:10157C005801DFE810F029049005920506002C00B4
:10158C0015009DF85C01810700F02284032840F0CF
:10159C0082859DF85D01012840F01C8400F07BBD24
:1015AC009DF86C01002800F09580032840F07385AD
:1015BC009AF8070040F30101B1F1FF3F00F34585B4
:1015CC0000F00300022811D08AF807901DE09DF866
:1015DC006401002800F08280032840F05C859AF8B2
:1015EC000600000640F0488500F014BC8AF807900D
:1015FC00599880F8009041F20400C4F20000D0F831
:10160C00FC035A9900F00100087001208DF86C0160
:10161C009DF85A01002840F0F38341F20400C4F213
:10162C000000D0F8081401208DF858019DF85901DC
:10163C0080F0010082B2022A00F02A85ADF8461132
:10164C0040F208529DF84911C5F20002ADF8440170
:10165C004023002914BF53601360000481F0010182
:10166C008DF8491140F0AA83DDF840C19CF80310B5
:10167C0003293BD0022960D1392041F2C0118CF8EA
:10168C000300C0F2000150983722043006F0D2FB60
:10169C00EDE09DF86401810700F00981032840F01A
:1016AC00FA849DF86501012840F0038100F0F3BC39
:1016BC009DF86001012840F06D8300F0ECBC9DF8B2
:1016CC006801002800F09A80032840F0E484DDF8DB
:1016DC0064E105E1DDE9570100F0ADBC5798589085
:1016EC009AF80600000640F0C78493E34E9A002354
:1016FC009CF804108DF870111668A3EB4605EE18D3
:10170C0000F09D80D4182079884200F09B80B01C9A
:10171C0077D0A079884200F09780301D71D0207A64
:10172C00884200F09380B01D6BD0A07A083302245D
:10173C008842E4D1D018811C8BE002390CF1040EE4
:10174C005EFA81FC08E000230021002B1CBF097805
:10175C008BF80010E64529D04E9BF34600251968FE
:10176C00A5EB41041EF8011B6219ECD05E1996F82A
:10177C000480884512D0901CE5D0B07988420FD0F7
:10178C00101DE0D0307A88420CD0901DDBD0B07A9E
:10179C0008358842E8D159198B1C05E0331D03E04C
:1017AC00B31D01E006F10803591CCEE7509CE0780C
:1017BC0039280ED141F2C011201DC0F2000188421F
:1017CC0023D041F2C0113722C0F2000106F028FCF0
:1017DC00D8B140F208504FF48051C5F2000041F2EC
:1017EC00002201600B20E070C0F200025099107AC8
:1017FC000873D2E9000248608A601AE0DDF860E103
:10180C006CE000210022022424E040F208504FF446
:10181C008051C5F2000041600920E07041F2F711DF
:10182C00509AC0F200010868D1F80310C2F80710F2
:10183C00506041F2505B0224C4F2000B17E000210F
:10184C00002207E0211D03E0A11D01E004F10801C5
:10185C0002244A1C002908BF00225CA80321002A8C
:10186C0008BF024610788CF80310509908710A983A
:10187C0054904F988DF85C915390DDE9530155903D
:10188C00ADF8609156918DF861919AF8050001219F
:10189C00C0B2002808BF032100288DF860118DF814
:1018AC00611100F09B805598CDF8649158908DF89B
:1018BC0065919AF808000121C0B2022808BF0321E3
:1018CC0002288DF864118DF8651101D104206DE2A8
:1018DC00DDF820E08DF86891CDF860E1CDF864E199
:1018EC004EF20010CEF20000C0F880409AF80600CC
:1018FC0000F00300012800F02982002840F011813B
:10190C004EF604508AF80640CEF2000041F2000177
:10191C000068C2F2000101F5805C4FF0160802224B
:10192C00C0B2002841F204006346CEF2000008BFAA
:10193C000B4608BF4FF0140800683AF80840460BF5
:10194C00B9EB503F354621466FF31F315A5404F121
:10195C000101C0F386122AF8081018BF012542EACB
:10196C00C5126FF31F31A51CB9EB503F5A5425D04B
:10197C00010D6FF31F350A46B9EB105F18BF01223A
:10198C0006F07F0646EAC2125A55E51CB9EB105F09
:10199C0014D0C60E6FF31F35324601F07F01B9EB40
:1019AC00D06F18BF012241EAC2115955251DB9EB60
:1019BC00D06F1EBF6FF31F355E55651D2846079906
:1019CC006FF31F3002247E292AF8085008D840F201
:1019DC004B01C0F20001195401200EE00320E5E197
:1019EC0040F24B02C0F2000242F080011954691C13
:1019FC00D0096FF31F315854022028442AF80800EC
:101A0C0041F20401DEF80000C4F20001006803306A
:101A1C00C1F800054FF48040C1F80403D1F8FC0173
:101A2C0040F48010C1F8FC019AF80700C0B20128FC
:101A3C0077D1032001218AF8070041F20400C4F297
:101A4C00000081604EF60450CEF2000016210068B2
:101A5C00C0B2002841F20000C2F2000008BF844668
:101A6C0041F2040008BF1421CEF2000000683AF8DD
:101A7C000130B9EB503FC0F386151A466FF31F3295
:101A8C000CF8024003F101024FEA50342AF801200D
:101A9C0026466FF31F3218BF012645EAC616B9EB6E
:101AAC00503F0CF8026003F1020228D0060D6FF3D0
:101ABC001F323546B9EB105F18BF012504F07F04C7
:101ACC0044EAC5150CF80250DA1CB9EB105F16D0BD
:101ADC00C40E6FF31F32254606F07F06B9EBD06FAC
:101AEC0018BF012546EAC5160CF802601A1DB9EBA1
:101AFC00D06F1EBF6FF31F320CF802405A1D1046F8
:101B0C00069B6FF31F3002247E2B2AF8012000F273
:101B1C00FA8040F24C03C0F200030CF800300120B4
:101B2C0000E1DBF8005015F00F007CD0012800F02C
:101B3C000D81022840F0BF8241F204000121C4F261
:101B4C0000004FF000628AF808104FF0160CC0F835
:101B5C00002381624EF60450CEF2000041F20001E7
:101B6C000068C2F20001C0B2002841F2040018BFA4
:101B7C0001F58051CEF2000008BF4FF0140C05683F
:101B8C003AF80C30C5F38610B9EB553F1A466FF393
:101B9C001F328C5403F101024FEA55342AF80C2001
:101BAC006FF31F32264618BF012640EAC610885430
:101BBC009A1CB9EB553F25D02E0D6FF31F323046D2
:101BCC00B9EB155F18BF012004F07F0444EAC01084
:101BDC008854DA1CB9EB155F14D0EC0E6FF31F327E
:101BEC002046B9EBD56F18BF012006F07F0646EAF8
:101BFC00C01088541A1DB9EBD56F1EBF6FF31F327E
:101C0C008C545A1D134604986FF31F3302247E28FC
:101C1C002AF80C2000F2A48040F24E00C0F2000022
:101C2C00C8540121A9E041F204000121C4F20000D2
:101C3C004FF0160C01604EF60450CEF2000041F24B
:101C4C0000010068C2F20001C0B2002841F2040099
:101C5C0018BF01F58051CEF2000008BF4FF0140CF4
:101C6C0005683AF80C30C5F38610B9EB553F1A46A7
:101C7C006FF31F328C5403F101024FEA55342AF8EA
:101C8C000C206FF31F32264618BF012640EAC610FF
:101C9C0088549A1CB9EB553F25D02E0D6FF31F328B
:101CAC003046B9EB155F18BF012004F07F0444EAFD
:101CBC00C0108854DA1CB9EB155F14D0EC0E6FF31E
:101CCC001F322046B9EBD56F18BF012006F07F06F6
:101CDC0046EAC01088541A1DB9EBD56F1EBF6FF3BE
:101CEC001F328C545A1D134605986FF31F33022470
:101CFC007E282AF80C2019D840F24D00C0F20000C2
:101D0C00C85401211FE040F24C06C0F2000646F018
:101D1C0080030CF80030531CF0096FF31F330CF8E0
:101D2C000300022010442AF801000FE040F24D0697
:101D3C00C0F2000646F08000C854531CF0096FF343
:101D4C001F33C854022150182AF80C004EF2001010
:101D5C00CEF20000046003208DF86801052025E018
:101D6C0040F24E06C0F2000646F08000C854531CE8
:101D7C00F0096FF31F33C854022150182AF80C00D5
:101D8C004EF20010CEF20000046001208DF860913C
:101D9C008DF868019AF80800C0B201284FF00100D4
:101DAC0008BF03208DF8600105D106208DF85C0179
:101DBC000520FFF75ABB01208DF85C010A9854905E
:101DCC004C988DF8589153905498ADF85C9155906F
:101DDC008DF85D919AF80500C0B200284FF0010013
:101DEC0008BF03208DF85C018DF85D0100F0968032
:101DFC004FF48070ADF85901012000283FF40DAC70
:101E0C0009988DF86491579058909AF8060000063E
:101E1C0040F03281DBF8005015F00F0000F08280AA
:101E2C00012800F02981022840F03881589841F2AD
:101E3C0004014FF0160CC4F2000100680068033076
:101E4C00C1F8000501208AF8070048604EF60450DE
:101E5C00CEF2000041F200010068C2F20001C0B2F3
:101E6C00002841F2040018BF01F58051CEF20000A9
:101E7C0008BF4FF0140C05683AF80C30C5F3861007
:101E8C00B9EB553F1A466FF31F328C5403F1010224
:101E9C004FEA55342AF80C206FF31F32264618BF30
:101EAC00012640EAC61088549A1CB9EB553F25D040
:101EBC002E0D6FF31F323046B9EB155F18BF0120A2
:101ECC0004F07F0444EAC0108854DA1CB9EB155FA7
:101EDC0014D0EC0E6FF31F322046B9EBD56F18BF40
:101EEC00012006F07F0646EAC01088541A1DB9EB93
:101EFC00D56F1EBF6FF31F328C545A1D13460098BA
:101F0C006FF31F3302247E282AF80C207AD840F273
:101F1C004900C0F20000C854012180E003208DF874
:101F2C005801AFE041F204000121C4F200004FF06F
:101F3C00160C01604EF60450CEF2000041F2000186
:101F4C000068C2F20001C0B2002841F2040018BFC0
:101F5C0001F58051CEF2000008BF4FF0140C05685B
:101F6C003AF80C30C5F38610B9EB553F1A466FF3AF
:101F7C001F328C5403F101024FEA55342AF80C201D
:101F8C006FF31F32264618BF012640EAC61088544C
:101F9C009A1CB9EB553F25D02E0D6FF31F323046EE
:101FAC00B9EB155F18BF012004F07F0444EAC010A0
:101FBC008854DA1CB9EB155F14D0EC0E6FF31F329A
:101FCC002046B9EBD56F18BF012006F07F0646EA14
:101FDC00C01088541A1DB9EBD56F1EBF6FF31F329A
:101FEC008C545A1D134601986FF31F3302247E281C
:101FFC002AF80C2030D840F24800C0F20000C85437
:10200C00012136E040F24906C0F2000646F080009D
:10201C00C854531CF0096FF31F33C85402215018D5
:10202C002AF80C0001208DF86401029903988DF8B0
:10203C006C9158915790CDE959019AF8070040F3EB
:10204C000101B1F1FF3F7FF7BBAA05208DF85801C4
:10205C0003208DF86C0115E040F24806C0F2000632
:10206C0046F08000C854531CF0096FF31F33C8545A
:10207C00022150182AF80C0004208DF85801032076
:10208C008DF864010021022082B2022A7FF4D6AAC4
:10209C000420FFF7EAB900F03AF8FEDE05F0A8FEDE
:1020AC005CACCDE95C01204604F0C2FF40F24A0171
:1020BC00C0F200010BE005F09BFE5CACCDE95C01CD
:1020CC00204604F0B5FF40F24F01C0F2000120465B
:1020DC00FFF7EFF828462146FFF792F805F06EFE61
:1020EC00FEDEBFF32F8F05F083FE0BACCDE90B01A9
:1020FC00204604F09DFF40F247012046C0F200014B
:10210C0004F0C8FF05F08DFEFEDE05F08BBE80B539
:10211C006F4600F001F8FEDE80B56F4605F063FEF9
:10212C00FEDE80B56F464EF6FC504FF6FE72CEF2D8
:10213C000000C0F2FF02016841F08071016041F2C1
:10214C0000000021CEF20000416001681140013115
:10215C00016008200121C4F20000C0F810150160D4
:10216C004BF20000C4F200008160016043F2A81140
:10217C0043F20000C2F20001C2F20000091A21F081
:10218C00030105F04AFF43F2682143F2A810C2F2A2
:10219C000001C2F20000091A21F0030248F2AC015E
:1021AC00C0F2000105F085FE05F03EFE40F208503D
:1021BC004FF48A51C5F2000048F2AC040160C0F241
:1021CC000004016148F29C00C0F20000A04208D259
:1021DC0048F29C05C0F2000555F8040B8047A54257
:1021EC00FAD3FFF792FFFFF77FF8FEDE80B56F465C
:1021FC0005F0D8F8BDE8804005F067B9F0B503AF3D
:10220C002DE9000741F26C10C4F2000050F8341CA8
:10221C00090606D0002140F8341CD0F89811490466
:10222C0009D450F86C1C090611D0002140F86C1C24
:10223C00BDE80007F0BD43F2901CC2F2000C9CF804
:10224C000600000600F08180BDE80007F0BD50F8E4
:10225C00241C090600F0E7804EF604514FF00008EC
:10226C0040F8248CCEF20001096841F2000343F2DD
:10227C00901CC2F200034FF0160EC2F2000CC9B251
:10228C00002941F2040118BF03F58053CEF200017E
:10229C0008BF4FF0140E0C6802253CF80E204FEAD4
:1022AC005439B8EB543FC4F3861611466FF31F3103
:1022BC005D5402F101014D462CF80E106FF31F31E5
:1022CC0018BF0125B8EB543F46EAC5155D5402F121
:1022DC0002012AD04FEA145A6FF31F31564609F007
:1022EC007F05B8EB145F18BF012645EAC6155D548F
:1022FC00D11CB8EB145F18D04FEAD4696FF31F31BF
:10230C004E460AF07F054FF00008B8EBD46F18BFAB
:10231C00012645EAC6155D54111DB8EBD46F1EBFDE
:10232C006FF31F3103F80190511D0A4640F23F0430
:10233C00C0F200046FF31F32A5B27F2D2CF80E10E3
:10234C0080F087809C5401228CE04EF6045041F2C0
:10235C000002CEF20000C2F2000200684FF0160834
:10236C0002264FF0000EC0B2002841F2040018BF44
:10237C0002F58052CEF2000008BF4FF0140804683A
:10238C003CF80800650BC4F38611BEEB543F0346C2
:10239C006FF31F33D65400F101032E462CF808308E
:1023AC006FF31F3318BF012641EAC611D154831CA9
:1023BC00BEEB543F28D0260D6FF31F333146BEEBD6
:1023CC00145F18BF012105F07F0545EAC111D154F6
:1023DC00C31CBEEB145F17D0E10E6FF31F330D4619
:1023EC004FF0000EBEEBD46F18BF012506F07F0630
:1023FC00BEEBD46F46EAC515D55400F104031EBFDD
:10240C006FF31F33D154431D184640F24006C0F2FF
:10241C0000066FF31F30B1B27F292CF8083031D28F
:10242C001654012037E050F8601C09063CD043F2EA
:10243C00901C002140F8601CC2F2000C9CF80610A5
:10244C00C9B200293FF400AF012900F0BF8002207F
:10245C0013E044F080059D54E2094C1C6FF31F34CB
:10246C001A55022211442CF80E104FF00061C0F8DE
:10247C009C1100208CF8060004208CF80800BDE8A4
:10248C000007F0BD46F080011154591CF0096FF3A0
:10249C001F315054022018442CF8080001208CF8ED
:1024AC000600BDE80007F0BD016809063FF4CCAE9C
:1024BC0043F2901C4FF0000EC0F800E0C2F2000C8A
:1024CC009CF80610C9B202297FF4BEAE4FF48041CD
:1024DC0041F20002C0F89811C2F20002D0F8941038
:1024EC004FF01608022521F48011C0F894104FF01B
:1024FC000061C0F89C1103208CF806E041F2040145
:10250C008CF808004EF60450CEF20000CEF200011A
:10251C000068C0B2002818BF02F5805208BF4FF007
:10252C0014080C683CF80810660BC4F38610BEEB5C
:10253C00543F0B466FF31F33D55401F1010335465D
:10254C002CF808306FF31F3318BF012540EAC51073
:10255C00D0548B1CBEEB543F28D0250D6FF31F338A
:10256C0028464FF0000EBEEB145F18BF012006F09A
:10257C007F06BEEB145F46EAC010D05401F1030392
:10258C0014D0E60E6FF31F333046BEEBD46F18BF7A
:10259C00012005F07F0545EAC010D0540B1DBEEBA1
:1025AC00D46F1EBF6FF31F33D6544B1D194640F228
:1025BC004206C0F200066FF31F31B0B27F282CF830
:1025CC00083080F08680565401218BE04FF00008D3
:1025DC000223C0F800804EF604508CF80680CEF230
:1025EC0000008CF8073041F20002006841F204014F
:1025FC00C2F200024FF01609CEF20001C0B2002860
:10260C0018BF02F5805208BF4FF014090D683CF852
:10261C0009406E0BB8EB553FC5F3861021466FF39E
:10262C001F31535404F1010133462CF8091018BF23
:10263C00012340EAC3106FF31F31A31CB8EB553FC5
:10264C00505428D04FEA155E6FF31F337046B8EB29
:10265C00155F18BF012006F07F0141EAC010D0546D
:10266C00E31CB8EB155F16D0E90E6FF31F330E4663
:10267C000EF07F004FF00008B8EBD56F18BF0126A5
:10268C0040EAC610D054231DB8EBD56F1EBF6FF3B4
:10269C001F33D154631D194640F24106C0F20006A7
:1026AC006FF31F31B0B27F282CF8093002D2565488
:1026BC00012108E046F080005054591CF0096FF3DA
:1026CC001F315054022158182CF80900BDE800079E
:1026DC00F0BD46F080005054591CF0096FF31F31C7
:1026EC005054022158182CF80800BDE80007F0BD22
:1026FC0043F218100021C4F2000001607047D4D4DA
:10270C00D0B502AF82B04FF6FC514BF20830CFF689
:10271C00FF71C4F200004158C90762D14FF638610D
:10272C00CFF6FF714258D20735D000224FF2000489
:10273C00425043F20001C2F200010A88C0F2FF04C9
:10274C00931C013204EA03334BF24054C4F20004EC
:10275C0023600A8091B24AF6AB22CAF6AA22A1FBE8
:10276C000223DA0802EB4202A1EB8201032912D800
:10277C00DFE801F0020A020A40F208514FF48072BD
:10278C00C5F200014A6006E040F208514FF4807235
:10279C00C5F200010A604FF63C61CFF6FF7142585A
:1027AC00D20704D0002242504FF4003101604FF6A2
:1027BC004061CFF6FF714258D20704D0002242503C
:1027CC004FF4802101604FF64461CFF6FF714258FF
:1027DC00D20704D0002242504FF40021016002B015
:1027EC00D0BD05F005FB6C46CDE90001204604F098
:1027FC001FFC40F23E012046C0F2000104F04AFCEE
:10280C0040F208504FF48051C5F2000001604021A5
:10281C0001604FF48071416005F003FBFEDED4D4FF
:10282C00F0B503AF2DE9000F81B047F20015C4F2EB
:10283C000205A86D000604D000200722A86501211E
:10284C0030E02868000603D000210822296029E026
:10285C00A86A000603D000210322A96222E0E86DD9
:10286C00000603D000210422E9651BE0286E000657
:10287C0003D000210522296614E0286B000603D042
:10288C000021002229630DE0E86B000603D0002133
:10289C000122E96306E06869000601F0618100210C
:1028AC000222696143F2B019C2F2000999F80230B0
:1028BC009E1EF4B2032C28BF0126F6B2002E00F0A7
:1028CC00A580012E11D0DFE812F009009E0229012B
:1028DC009C01B2001E03B7032102BE0343F2901009
:1028EC000021C2F20000418190E0002B81F0010137
:1028FC0018BF0123194340F08980012141F20002E5
:10290C0089F802104EF60451CEF2000141F2040394
:10291C00096843F2901CC2F200024FF0160ACEF284
:10292C000003C2F2000CC9B2002918BF02F5805294
:10293C0008BF4FF0140A1C6802263CF80A504FF0EE
:10294C00000E600BC4F38611BEEB543F2B466FF3A5
:10295C001F33D65405F1010603462CF80A606FF3B9
:10296C001F3618BF012341EAC3119155AE1CBEEBB3
:10297C00543F28D04FEA14586FF31F36414600F0ED
:10298C007F00BEEB145F18BF012140EAC1109055C7
:10299C00EE1CBEEB145F16D0E30E6FF31F36194618
:1029AC0008F07F004FF0000EBEEBD46F18BF012172
:1029BC0040EAC11090552E1DBEEBD46F1EBF6FF3B5
:1029CC001F3693556E1D334640F20005C0F20005CC
:1029DC006FF31F33A8B27F282CF80A6002D2D554AB
:1029EC00012208E0711C45F08000D054E8096FF317
:1029FC001F3150540222B0182CF80A0099F800002C
:102A0C0000281CBF99F80100002803D101B0BDE8D3
:102A1C00000FF0BD042089F802000020A9F8000086
:102A2C0001B0BDE8000FBDE8F04001F0B4B801F012
:102A3C0041FA0028EAD0012041F2000145F8AC0C23
:102A4C004EF60450CEF2000041F20402006843F24C
:102A5C00901CC2F200014FF01609CEF20002C2F235
:102A6C00000CC0B2002818BF01F5805108BF4FF010
:102A7C001409156802233CF809604FF000086C0B30
:102A8C00C5F38610B8EB553F32466FF31F328B54AB
:102A9C0006F1010322462CF809306FF31F3318BFDF
:102AAC00012240EAC210C854B31CB8EB553F28D0E1
:102ABC004FEA155E6FF31F337046B8EB155F18BF06
:102ACC00012004F07F0242EAC010C854F31CB8EB9A
:102ADC00155F16D0EA0E6FF31F3314460EF07F000D
:102AEC004FF00008B8EBD56F18BF012440EAC410B2
:102AFC00C854331DB8EBD56F1EBF6FF31F33CA54C8
:102B0C00731D1A4640F204066FF31F32C0F2000622
:102B1C002CF80930B0B27F2870D3E4E14EF60450A3
:102B2C0041F20001CEF2000041F20402006843F2CF
:102B3C00901CC2F200014FF01609CEF20002C2F254
:102B4C00000CC0B2002818BF01F5805108BF4FF02F
:102B5C001409156802233CF809604FF000086C0B4F
:102B6C00C5F38610B8EB553F32466FF31F328B54CA
:102B7C0006F1010322462CF809306FF31F3318BFFE
:102B8C00012240EAC210C854B31CB8EB553F28D000
:102B9C004FEA155E6FF31F337046B8EB155F18BF25
:102BAC00012004F07F0242EAC010C854F31CB8EBB9
:102BBC00155F16D0EA0E6FF31F3314460EF07F002C
:102BCC004FF00008B8EBD56F18BF012440EAC410D1
:102BDC00C854331DB8EBD56F1EBF6FF31F33CA54E7
:102BEC00731D1A4640F20F062CF809306FF31F3292
:102BFC00C0F20006B0B27F2880F075818E5401219E
:102C0C007AE143F2901BC2F2000BBBF80A000028D9
:102C1C003FF4FCAE012800F014834EF6045041F250
:102C2C000008CEF20000C2F20008006808F5805CD3
:102C3C004FF0160A022661464FF0000EC0B2002873
:102C4C0041F2040008BF4146CEF2000008BF4FF02D
:102C5C00140A00683BF80A304FEA5039C0F3861466
:102C6C00BEEB503F1A466FF31F328E5403F1010234
:102C7C004E462BF80A206FF31F3218BF012644EA88
:102C8C00C6148C549A1CBEEB503F2ED04FEA1058F1
:102C9C006FF31F324446BEEB105F18BF012409F0DE
:102CAC007F0646EAC4148C54DA1CBEEB105F18D0B5
:102CBC004FEAD0696FF31F324E4608F07F044FF095
:102CCC00000EBEEBD06F18BF012644EAC6148C541C
:102CDC001A1DBEEBD06F1EBF6FF31F3201F80290AE
:102CEC005A1D41F20008C2F20008104640F20503DA
:102CFC00C0F200036FF31F309EB27F2E2BF80A2018
:102D0C0080F004860B54012000F009BED5F80003B6
:102D1C00C5F80003C10500F10982800540F1388730
:102D2C004EF6045041F20001CEF2000041F20402D2
:102D3C00006843F2901CC2F200014FF01609CEF26B
:102D4C000002C2F2000CC0B2002818BF01F580517D
:102D5C0008BF4FF01409156802233CF809604FF0C6
:102D6C0000086C0BC5F38610B8EB553F32466FF379
:102D7C001F328B5406F1010322462CF809306FF3F5
:102D8C001F3318BF012240EAC210C854B31CB8EB61
:102D9C00553F28D04FEA155E6FF31F337046B8EBE2
:102DAC00155F18BF012004F07F0242EAC010C8541E
:102DBC00F31CB8EB155F16D0EA0E6FF31F331446F5
:102DCC000EF07F004FF00008B8EBD56F18BF012450
:102DDC0040EAC410C854331DB8EBD56F1EBF6FF357
:102DEC001F33CA54731D1A4640F20206C0F2000685
:102DFC006FF31F32B0B27F282CF8093080F0A88214
:102E0C008E540121ADE24EF6045041F20001CEF297
:102E1C00000041F20402006843F2901CC2F200016F
:102E2C004FF01609CEF20002C2F2000CC0B200281C
:102E3C0018BF01F5805108BF4FF014091568022323
:102E4C003CF809604FF000086C0BC5F38610B8EB2A
:102E5C00553F32466FF31F328B5406F10103224665
:102E6C002CF809306FF31F3318BF012240EAC2104F
:102E7C00C854B31CB8EB553F28D04FEA155E6FF31E
:102E8C001F337046B8EB155F18BF012004F07F02AA
:102E9C0042EAC010C854F31CB8EB155F16D0EA0E0A
:102EAC006FF31F3314460EF07F004FF00008B8EBA1
:102EBC00D56F18BF012440EAC410C854331DB8EBB9
:102ECC00D56F1EBF6FF31F33CA54731D1A4640F2E1
:102EDC0010062CF809306FF31F32C0F20006B0B2A6
:102EEC007F28FFF48BAE46F0800088545A1CF00902
:102EFC006FF31F328854022158182CF8090001B0C6
:102F0C00BDE8000FF0BDD5F86CB3C5F86CB31BF081
:102F1C00040406D043F29010C2F20000007800F0D6
:102F2C00CAFE41F2040E4EF604595FEA8B70CEF2E3
:102F3C00000ECEF2000940F1BA82009441F2000179
:102F4C00D9F80000C2F2000101F5805843F2901A42
:102F5C00C2F2000A02244646C0B2002808BF0E4640
:102F6C004FF016014FF0000908BF1421DEF80020C5
:102F7C003AF801504FEA523CB9EB523F63462846AF
:102F8C006FF31F30345405F10100C2F386142AF894
:102F9C0001006FF31F3018BF0123B9EB523F44EA15
:102FAC00C313335405F102002ED04FEA125E6FF3B7
:102FBC001F307346B9EB125F18BF01230CF07F046E
:102FCC0044EAC3133354E81CB9EB125F18D04FEA30
:102FDC00D2696FF31F304C460EF07F034FF0000C9C
:102FEC00BCEBD26F18BF012443EAC4133354281D21
:102FFC00BCEBD26F1EBF6FF31F3006F80090681D3C
:10300C0041F2040ECEF2000E024640F2090541F2E6
:10301C0000044EF60459C0F200056FF31F32ABB238
:10302C00C2F200047F2BCEF200092AF8010080F0D6
:10303C00A681B5540122ABE101B0BDE8000FBDE89B
:10304C00F04000F038BE4EF6045041F20002CEF2D1
:10305C00000043F2901C0068C2F200024FF0160907
:10306C00C2F2000C02234FF00008C0B2002841F25B
:10307C00040018BF02F58052CEF2000008BF4FF0DA
:10308C00140905683CF809606C0BB8EB553FC5F3A7
:10309C00861130466FF31F30135406F1010320469E
:1030AC002CF809306FF31F3318BF0120B8EB553FD4
:1030BC0041EAC010D05406F1020328D04FEA155E45
:1030CC006FF31F337046B8EB155F18BF012004F087
:1030DC007F0141EAC010D054F31CB8EB155F16D039
:1030EC00E80E6FF31F3304460EF07F014FF000081B
:1030FC00B8EBD56F18BF012441EAC411D154331D6C
:10310C00B8EBD56F1EBF6FF31F33D054731D184629
:10311C0040F20306C0F200066FF31F30B1B27F29F4
:10312C002CF8093075D2165401207BE04EF6045071
:10313C0041F20001CEF2000041F20402006843F2B9
:10314C00901CC2F200014FF01609CEF20002C2F23E
:10315C00000CC0B2002818BF01F5805108BF4FF019
:10316C001409156802233CF809604FF000086C0B39
:10317C00C5F38610B8EB553F32466FF31F328B54B4
:10318C0006F1010322462CF809306FF31F3318BFE8
:10319C00012240EAC210C854B31CB8EB553F28D0EA
:1031AC004FEA155E6FF31F337046B8EB155F18BF0F
:1031BC00012004F07F0242EAC010C854F31CB8EBA3
:1031CC00155F16D0EA0E6FF31F3314460EF07F0016
:1031DC004FF00008B8EBD56F18BF012440EAC410BB
:1031EC00C854331DB8EBD56F1EBF6FF31F33CA54D1
:1031FC00731D1A4640F20106C0F200066FF31F322F
:10320C00B0B27F282CF8093080F08B808E540121CD
:10321C0090E046F080011154591CF0096FF31F31F6
:10322C005054022018442CF809009CF80200022883
:10323C0080F0AE8400208CF8020001B0BDE8000FD5
:10324C00F0BD4EF6045041F20002CEF20000C2F284
:10325C00000200684FF0160802254FF0000EC0B2B5
:10326C00002841F2040018BF02F58052CEF2000093
:10327C0008BF4FF0140800683BF80860C0F38611D3
:10328C00BEEB503F33466FF31F33D55406F10103A9
:10329C004FEA50352BF808306FF31F332C4618BF0C
:1032AC00012441EAC411D154B31CBEEB503F28D0C9
:1032BC004FEA105C6FF31F336146BEEB105F18BF13
:1032CC00012105F07F0444EAC111D154F31CBEEB7B
:1032DC00105F16D0C40E6FF31F3325460CF07F0120
:1032EC004FF0000EBEEBD06F18BF012541EAC5119F
:1032FC00D154331DBEEBD06F1EBF6FF31F33D454AC
:10330C00731D184640F20806C0F200066FF31F301A
:10331C00B1B27F292BF8083080F08383165401203A
:10332C0088E346F0800088545A1CF0096FF31F3272
:10333C008854022158182CF8090047F2A840C4F20E
:10334C0002000121C0F8841001B0BDE8000FF0BDEF
:10335C0046F0800088545A1CF0096FF31F328854D1
:10336C00022158182CF8090047F2A840C4F20200B8
:10337C000021C0F8841001B0BDE8000FF0BD45F08D
:10338C008003B354431CEA096FF31F33F254022237
:10339C0010442AF801000223D9F800004FF0000C69
:1033AC00C0B200284FF0160008BFA04608BF14207A
:1033BC00DEF800203AF80050560BBCEB523FC2F33B
:1033CC00861429466FF31F3108F8013005F101010D
:1033DC0033462AF800106FF31F3118BF0123BCEBE2
:1033EC00523F44EAC31308F8013005F102012BD017
:1033FC00140D6FF31F312346BCEB125F18BF012372
:10340C0006F07F0646EAC31308F80130E91CBCEB52
:10341C00125F19D0D30E6FF31F311E464FF0000C04
:10342C00BCEBD26F18BF012604F07F04BCEBD26F4B
:10343C0044EAC61608F8016005F104011EBF6FF3DB
:10344C001F3108F80130691D0A4640F20A03009C3E
:10345C00C0F200036FF31F329EB27F2E2AF80010C9
:10346C0003D208F8023001220AE043F0800608F883
:10347C000260DA094B1C6FF31F3308F80320022299
:10348C0011442AF8001001208AF8000043F2A81019
:10349C00C2F200008188C08889B280B2884206D00E
:1034AC004FF200508021CFF6FF7049F8001064B93C
:1034BC005FEA4B3000F18E805FEA0B3000F12B811C
:1034CC005FEA0B707FF5A2AAAAE1D9F8000041F2DD
:1034DC00000243F2901CC2F200024FF01609C2F235
:1034EC00000CC0B2002818BF02F5805208BF4FF084
:1034FC001409DEF8006002233CF809504FF0000874
:10350C00740BC6F38610B8EB563F29466FF31F3188
:10351C00535405F1010321462CF809306FF31F3386
:10352C0018BF012140EAC110D054AB1CB8EB563F78
:10353C002DD0F2464FEA165E70466FF31F33B8EB90
:10354C00165F18BF012004F07F01B8EB165F41EA4B
:10355C00C010D05405F1030318D0F10E6FF31F33D4
:10356C000C460EF07F004FF00008B8EBD66F18BF7A
:10357C00012440EAC410D0542B1DB8EBD66F05D0F3
:10358C006FF31F33D646D1546B1D00E0D646194657
:10359C0040F20B06C0F200066FF31F31B0B27F2869
:1035AC002CF8093002D25654012108E046F0800074
:1035BC005054591CF0096FF31F3150540221581804
:1035CC002CF809004EF60459CEF200095FEA4B3094
:1035DC007FF572AF47F2A84041F20003C4F202003B
:1035EC00C2F20003D0F800C04FF01608D9F8000062
:1035FC0002264FF0000AC0B2002843F2901018BF08
:10360C0003F58053C2F2000008BF4FF01408DEF837
:10361C00001030F80840BAEB513F22466FF31F32CE
:10362C009E5404F101064FEA513220F808606FF302
:10363C001F361546C1F3861018BF012540EAC51088
:10364C009855A61CBAEB513F2FD0F1464FEA115EAC
:10365C0070466FF31F36BAEB115F18BF012002F0F2
:10366C007F02BAEB115F42EAC010985504F10306D1
:10367C0016D0CA0E6FF31F3615460EF07F004FF0B2
:10368C00000ABAEBD16F18BF012540EAC510985556
:10369C00261DBAEBD16F1EBF6FF31F369A55661DF0
:1036AC00CE464EF60459CEF20009324640F20C05D5
:1036BC0047F2A84A43F29014C0F200056FF31F3290
:1036CC000CF07F01C2F20004A8B2C4F2020A7F28F7
:1036DC0024F8086002D29D54012208E045F08000D5
:1036EC009854721CE8096FF31F3298540222B018D8
:1036FC00062602466FF31F329E54821C013024F8BA
:10370C0008206FF31F3019540020CAF800005FEA3C
:10371C000B307FF5D5AED9F8000041F2000243F230
:10372C00901CC2F200024FF01609C2F2000CC0B29B
:10373C00002818BF02F5805208BF4FF01409DEF8BC
:10374C00006002233CF809504FF00008740BC6F3DC
:10375C008610B8EB563F29466FF31F31535405F1D1
:10376C00010321462CF809306FF31F3318BF0121D8
:10377C0040EAC110D054AB1CB8EB563F2DD0F246EA
:10378C004FEA165E70466FF31F33B8EB165F18BF27
:10379C00012004F07F01B8EB165F41EAC010D05451
:1037AC0005F1030318D0F10E6FF31F330C460EF026
:1037BC007F004FF00008B8EBD66F18BF012440EA29
:1037CC00C410D0542B1DB8EBD66F05D06FF31F333C
:1037DC00D646D1546B1D00E0D646194640F20D0674
:1037EC00C0F200066FF31F31B0B27F282CF80930FD
:1037FC0002D25654012108E046F080005054591C66
:10380C00F0096FF31F315054022158182CF809009D
:10381C004EF60459CEF200095FEA0B707FF5F6A85C
:10382C00D9F8000041F2000243F2901CC2F20002EF
:10383C004FF01609C2F2000CC0B2002818BF02F5F6
:10384C00805208BF4FF01409DEF8005002233CF8F8
:10385C0009604FF000086C0BC5F38610B8EB553FB0
:10386C0031466FF31F31535406F1010321462CF8F6
:10387C0009306FF31F3318BF012140EAC110D05437
:10388C00B31CB8EB553F28D04FEA155E6FF31F33CE
:10389C007046B8EB155F18BF012004F07F0141EAB8
:1038AC00C010D054F31CB8EB155F16D0E90E6FF3B3
:1038BC001F330C460EF07F004FF00008B8EBD56FAD
:1038CC0018BF012440EAC410D054331DB8EBD56F97
:1038DC001EBF6FF31F33D154731D194640F20E06F1
:1038EC00C0F200066FF31F31B0B27F282CF80930FC
:1038FC0002D25654FFF783B946F080005054591C3D
:10390C00F0096FF31F315054FFF7F5BA43F08006FE
:10391C000E54D809531C6FF31F33C85402201044A3
:10392C002BF80A00BBF80C00002800F08A8047F244
:10393C00A84A4FF01609C4F2020A0224DAF8580118
:10394C0000264030CAF858014EF60450BBF80CE083
:10395C00CEF200000068C0B2002841F2040008BF9B
:10396C00C446CEF2000008BF4FF0140901683BF8C2
:10397C000920B6EB513FC1F3861310466FF31F308D
:10398C000CF8004002F101044FEA51302BF80940C9
:10399C006FF31F34064618BF012643EAC6130CF812
:1039AC000430941CBEF1410F52D350B30E0D6FF383
:1039BC001F34334600F07F004FF00008B8EB115F66
:1039CC0018BF012340EAC3100CF80400D41CB8EB58
:1039DC00115F16D0C80E6FF31F340346B8EBD16FCE
:1039EC0018BF012306F07F0646EAC3130CF8043017
:1039FC00141DB8EBD16F1EBF6FF31F340CF804000D
:103A0C00541D204640F20601C0F200016FF31F3036
:103A1C008AB27F2A2BF8094056D20CF800100120EC
:103A2C005DE046F080011154591CF0096FF31F3111
:103A3C005054022018442BF8080001B0BDE8000FC8
:103A4C00F0BD0020ABF80A0001B0BDE8000FF0BDDE
:103A5C0050B30E0D6FF31F34334600F07F004FF060
:103A6C000008B8EB115F18BF012340EAC3100CF833
:103A7C000400D41CB8EB115F16D0C80E6FF31F34C2
:103A8C000346B8EBD16F18BF012306F07F0646EA58
:103A9C00C3130CF80430141DB8EBD16F1EBF6FF3B9
:103AAC001F340CF80400541D204640F20701C0F2EC
:103ABC0000016FF31F308AB27F2A2BF8094021D204
:103ACC000CF80010012028E041F080020CF80020D6
:103ADC00C809611C6FF31F310CF80100022020444F
:103AEC00062201466FF31F310CF80120811C0130B6
:103AFC002BF8091040216FF31F300CF80010AEF1B9
:103B0C00400024E041F080020CF80020C809611C40
:103B1C006FF31F310CF801000220204406220146ED
:103B2C006FF31F310CF80120811C01302BF80910A8
:103B3C000EF07F016FF31F300CF80010D5F8000168
:103B4C0040F00400C5F800010020CAF85C11ABF885
:103B5C000C00012045F8FC0C01B0BDE8000FF0BDD5
:103B6C0043F29010C2F200000078C0B201287EF43B
:103B7C004DAF43F2A810C2F200008188C08889B210
:103B8C0080B288423EF442AF06220021FEF78ABE84
:103B9C0000F079F9FEDEF0B503AF4DF8048D47F275
:103BAC0004500121C4F2020043F2901C01604EF655
:103BBC000450CEF2000041F200010068C2F2000194
:103BCC004FF0160EC2F2000C02244FF00008C0B2E7
:103BDC00002841F2040018BF01F58051CEF200001C
:103BEC0008BF4FF0140E00683CF80E20450BB8EBE4
:103BFC00503F2E4613466FF31F33CC5402F1010392
:103C0C00C0F386142CF80E306FF31F3318BF012647
:103C1C0044EAC614CC54931CB8EB503F28D0060D84
:103C2C006FF31F333446B8EB105F18BF012405F057
:103C3C007F0545EAC414CC54D31CB8EB105F17D0E5
:103C4C00C50E6FF31F332C464FF00008B8EBD06F46
:103C5C0018BF012406F07F06B8EBD06F46EAC414F7
:103C6C00CC5402F104031EBF6FF31F33CD54531D0C
:103C7C00184640F23D02C0F200026FF31F3094B2BE
:103C8C007F2C2CF80E3007D20A54012018442CF843
:103C9C000E005DF8048BF0BD42F080040C54D0098A
:103CAC005A1C6FF31F328854022018442CF80E0053
:103CBC005DF8048BF0BDF0B503AF2DE9000F81B0BA
:103CCC0043F2A81B43F29019C2F2000BC2F2000996
:103CDC00BBF80460BBF80600801B010421D01FFA5E
:103CEC0080F8B8F13F0F28BF4FF03F0858FA86F024
:103CFC0040F2080481B2F0B2B1F5807FC2F2000448
:103D0C0016D9DBF800A0C0F580750AEB000120463F
:103D1C002A4604F08FF8A8EB050160198AB25146C7
:103D2C000EE0012089F8000001B0BDE8000FF0BDE5
:103D3C00DBF800104246014440F20800C2F20000D9
:103D4C0004F078F84EF6045106EB0800ABF80400CA
:103D5C00CEF2000141F20000096841F20402C2F205
:103D6C0000004FF0160ACEF200020225C9B200295B
:103D7C0018BF00F5805008BF4FF0140A16684FF0BA
:103D8C00000C39F80A30740BC6F38611BCEB563FA5
:103D9C001A466FF31F32855403F10102254629F8A8
:103DAC000A206FF31F3218BF012541EAC511815457
:103DBC009A1CBCEB563F28D04FEA165E6FF31F32AD
:103DCC007146BCEB165F18BF012104F07F0444EA76
:103DDC00C1118154DA1CBCEB165F16D0F40E6FF3D4
:103DEC001F3225460EF07F014FF0000CBCEBD66F56
:103DFC0018BF012541EAC51181541A1DBCEBD66FC1
:103E0C001EBF6FF31F3284545A1D134640F23C06FA
:103E1C0040F20805C0F200066FF31F33B1B2C2F2D4
:103E2C0000057F2929F80A2002D2C654012308E094
:103E3C0046F08001C154531CF1096FF31F33C15478
:103E4C000223D11806230A466FF31F3283548A1CAF
:103E5C00013129F80A206FF31F3100F8018047F275
:103E6C002860C4F2020005600121C0F8048047F20A
:103E7C000C00C4F202000160022089F8000001B0BD
:103E8C00BDE8000FF0BD80B56F4682B003F0F9F9C4
:103E9C0003F0AEFF6C46CDE90001204603F0C8F8F4
:103EAC0040F239012046C0F2000103F0F3F803F0B0
:103EBC00B8FFFEDEF0B503AF2DE9000F8FB047F26F
:103ECC00500047F28441C4F20200C4F20201D0F85F
:103EDC0030C408680990D1F804B08A685FFA8BF591
:103EEC0045EA02200790C868D1F810800690C0B24D
:103EFC0040EA082308934B69D1F818A00593D9B26E
:103F0C0041EA0A24CCF3411159B3022907D0012903
:103F1C002CD101260CF00F01032905D926E002262D
:103F2C000CF00F01032921D80023CDE9025B049387
:103F3C004FF0010E4FF0000B4FF001090023DFE8AA
:103F4C0001F02202195A01214FF0000B04914FF09D
:103F5C00000E4FF00109012315024FEA0A21BEB9E8
:103F6C0057E000260CF00F010329DDD90020A246F2
:103F7C0002F0DABB002102234FF0010B04914FF049
:103F8C00000E4FF0010915024FEA0A21002E40D015
:103F9C00012E28D1099BA246DDF80CB0DBB2222BF6
:103FAC0000F08480212B69D0202B40F09B804FFAAD
:103FBC008CF1B1F1FF3F40F38E801FFA8AF1072993
:103FCC0040F089800799049A89B2B1FA81F14909C4
:103FDC00114000F08080089989B2B1F5807F80F0A3
:103FEC007A80032288E30020DDF80CB08DF83000D5
:103FFC00A24602F09BBB002103234FF0000B4FF0B5
:10400C00000E4FF00009049115024FEA0A21002E10
:10401C00BED10195A246099DEEB20C2E02F281830F
:10402C00DFE816F00D0023017F1305017F13ED006F
:10403C00A200CD0044015C0142028E017C004FFACB
:10404C008CF1B1F1FF3F02F36C830799090404BFB3
:10405C001FFA8AF1022942F06483022B02F04E838C
:10406C00012B02F04083002B04BF08985FEA00404C
:10407C0042F057834FF0000E04202EE14FFA8CF1E2
:10408C00B1F1FF3F27DC1FFA8AF1072923D10799E9
:10409C00049A89B2B1FA81F1490911401BD00899EF
:1040AC0089B2B1F5807F16D2022225E34FFA8CF04B
:1040BC00002810D41FFA8AF00499B0FA80F0400955
:1040CC00084008D0079881B203299EBF089880B297
:1040DC00FF2840F20A830020ADF838000D90002034
:1040EC0002F022BB0020062BADF838000D9000F03A
:1040FC000F810A2BF3D14FFA8CF30020B3F1FF3F61
:10410C00C8BF0120089B9BB2FF2BE8D85FEA0A438B
:10411C00E5D1049B184040F0DE81E0E74FFA8CF0CB
:10412C00B0F1FF3F02F3FD8207998BF0010089B2D9
:10413C00002918BF0121084304BF1FFA8AF0022886
:10414C0042F0EF82089880B2FF2802F2EA820698C9
:10415C00C0F30310002802F0AB82082842F0E18281
:10416C004FF0010E02F0A6BA4FFA8CF3002B4FF071
:10417C0000004FF0000148BF01201EEA000FDDE9EE
:10418C00024E01F050844FF0FF3050FA82F6062EAA
:10419C0001F2498404220220DFE816F00700310CFA
:1041AC00EB00450C450C370C410C002C04BF089857
:1041BC005FEA004041F03784012202F001BC4FFA63
:1041CC008CF00021B0F1FF3FC8BF012111EA0E0FA6
:1041DC0002F0A782D0B2032801F0F281022801F08C
:1041EC00E981012842F09D820298002804BF0898BA
:1041FC005FEA004042F09582012201F0E2B94FFAE9
:10420C008CF0B0F1FF3F42F38C82079880B27F288C
:10421C0002F28782089840EA0A0080B2B0FA80F075
:10422C00400910EA0E0002F07C8205206DE04FFA86
:10423C008CF1002902F175825FEA0A4142F0718229
:10424C00079989B2022901F02881012941F04281A4
:10425C00089880B2B0FA80F040091EEA000F02F014
:10426C0060824FF0000E082037E04FFA8CF00028E7
:10427C0002F157821FFA8AF0B0FA80F0400910EA76
:10428C00090002F04E82079880B2012840F0CC83DE
:10429C00089880B2B0FA80F040091EEA000F02F0D4
:1042AC0040824FF0020E0020002262E04FFA8CF0A8
:1042BC00B0F1FF3F02F335821FFA8AF0012842F079
:1042CC003082DDE90710084380B2B0FA80F0400973
:1042DC0010EA0E0002F0258201204AE04FFA8CF021
:1042EC00B0F1FF3F42F31D82079880B2FF2802F223
:1042FC001882089840EA0A0080B2B0FA80F04009AF
:10430C0010EA0E0002F00D820620DDF80CE030E021
:10431C004FFA8CF1B1F1FF3FC8BF0120049981F035
:10432C000101084304BFA8B2B0F5085F7FF4D7AE13
:10433C00089880B2FF283FF6D2AE01205A46CEE054
:10434C004FFA8CF0002802F1EC811FFA8AF00499E4
:10435C00B0FA80F04009084002F0E38101994FEA7D
:10436C0008200843000442F0DC810920039ADDF8A0
:10437C0018E0D1B2220642EA01415FFA8EF241EA1C
:10438C0002210844CDF8290000208DF82800089857
:10439C00C0EA0A40CDF82D009DF82A00BDF828107F
:1043AC00DDF82B4041EA0040BDF82F10030CC0F3A0
:1043BC000720260ADFE810F00B002406C8044C0581
:1043CC00EF0397061507B805F2075C0486074EF64F
:1043DC00045041F20001CEF2000041F204020068E8
:1043EC0043F2901CC2F200014FF01609CEF200020B
:1043FC00C2F2000CC0B2002818BF01F5805108BFF2
:10440C004FF0140915684FF000083CF809606C0B6C
:10441C00C5F38610731C2CF8093032466FF31F322B
:10442C006FF31F33B8EB553F01F80280224618BFDB
:10443C00012240EAC210C854B31CB8EB553F28D037
:10444C004FEA155E6FF31F337046B8EB155F18BF5C
:10445C00012004F07F0242EAC010C854F31CB8EBF0
:10446C00155F16D0EA0E6FF31F3314460EF07F0063
:10447C004FF00008B8EBD56F18BF012440EAC41008
:10448C00C854331DB8EBD56F1EBF6FF31F33CA541E
:10449C00731D1A4640F226062CF809306FF31F32B2
:1044AC00C0F2000600F0E5BF4FFA8CF0B0F1FF3F10
:1044BC0040F312824FF00000C8BF0120089B9BB252
:1044CC00FF2B02F22E815FEA0A4342F02A81049B01
:1044DC00184002F02681029841EA000A00208DF86B
:1044EC00290000208DF82E0043F2901E0698C2F28F
:1044FC00000E8DF82D00D0B2ADF82BA0BDF8281011
:10450C00DDF82B8041EA00409EF80210022940F0B1
:10451C00838008F47F01B1F5003F40F009824EF62C
:10452C00045141F2000BCEF2000141F20403096880
:10453C00C2F2000B4FF0160ACEF2000302254FEA2E
:10454C00104CC9B2002918BF0BF5805B08BF4FF0A7
:10455C00140A1E6800213EF80A4000F47F40B1EBBB
:10456C00563FC6F3861223466FF31F330BF80350E6
:10457C0004F101054FEA56332EF80A5019466FF331
:10458C001F3518BF012142EAC111B0F5807F0BF82D
:10459C00051004F1020540F0BB875BB3300D6FF3DF
:1045AC001F3501464FF00009B9EB165F18BF01210A
:1045BC0003F07F02B9EB165F42EAC1110BF805104C
:1045CC0004F1030516D0F30E6FF31F35194600F0F6
:1045DC007F00B9EBD66F18BF012140EAC1100BF870
:1045EC000500251DB9EBD66F1EBF6FF31F350BF8F9
:1045FC000530651D284640F23603C0F200036FF308
:10460C001F3099B27F292EF80A5081F010830BF8D5
:10461C000030012001F016BB4EF6045041F20002AE
:10462C00CEF20000C2F2000200684FF016094FF003
:10463C000008C0B2002841F2040018BF02F58052F5
:10464C00CEF2000008BF4FF0140906683EF80900CE
:10465C00750BC6F386112C46B8EB563F03466FF329
:10466C001F3302F8038000F101032EF809306FF3B9
:10467C001F3318BF012441EAC411D154831CB8EB79
:10468C00563F28D04FEA165C6FF31F336146B8EBE8
:10469C00165F18BF012105F07F0444EAC111D15403
:1046AC00C31CB8EB165F16D0F40E6FF31F33254600
:1046BC000CF07F014FF00008B8EBD66F18BF012546
:1046CC0041EAC511D154031DB8EBD66F1EBF6FF371
:1046DC001F33D454431D184640F234066FF31F3079
:1046EC00C0F200062EF809308AE10798089A00F00B
:1046FC00010042EA00204A0843F2901EC2F2000E6A
:10470C009EF8021002296CD1C0EA0243180600F090
:10471C00A6814EF6045041F20002CEF2000041F2A6
:10472C0004010068C2F200024FF01609CEF200013B
:10473C004FF00008C0B2002818BF02F5805208BF25
:10474C004FF014090D683EF809606C0BC5F3861028
:10475C00731C2EF8093031466FF31F316FF31F3382
:10476C00B8EB553F02F80180214618BF012140EA01
:10477C00C110D054B31CB8EB553F28D04FEA155C90
:10478C006FF31F336046B8EB155F18BF012004F0C0
:10479C007F0141EAC010D054F31CB8EB155F16D062
:1047AC00E90E6FF31F330C460CF07F004FF000083E
:1047BC00B8EBD56F18BF012440EAC410D054331D98
:1047CC00B8EBD56F1EBF6FF31F33D154731D194651
:1047DC0040F22E062EF809306FF31F31C0F200069E
:1047EC0066E04EF6045041F20002CEF2000041F2B7
:1047FC0004010068C2F200024FF01609CEF200016B
:10480C004FF00008C0B2002818BF02F5805208BF54
:10481C004FF014090D683EF809606C0BC5F3861057
:10482C00731C2EF8093031466FF31F316FF31F33B1
:10483C00B8EB553F02F80180214618BF012140EA30
:10484C00C110D054B31CB8EB553F28D04FEA155CBF
:10485C006FF31F336046B8EB155F18BF012004F0EF
:10486C007F0141EAC010D054F31CB8EB155F16D091
:10487C00E90E6FF31F330C460CF07F004FF000086D
:10488C00B8EBD56F18BF012440EAC410D054331DC7
:10489C00B8EBD56F1EBF6FF31F33D154731D194680
:1048AC0040F22D066FF31F31C0F200062EF80930CE
:1048BC00B0B27F2802D25654012108E046F08000A5
:1048CC005054591CF0096FF31F31505402215818E1
:1048DC002EF8090002F06EB807980022049980B2F5
:1048EC00B0FA80F0400908404FF0FF3111FA8AF11C
:1048FC00B1FA81F149090840089989B2B1F5807F74
:10490C004FF0000138BF012110EA01030698194647
:10491C0018BF01464FF00B0018BF0320012B41F0CC
:10492C0000878E460021002408914FF0000A20E5F4
:10493C004EF6045041F20002CEF20000C2F2000228
:10494C0000684FF016094FF00008C0B2002841F281
:10495C00040018BF02F58052CEF2000008BF4FF0E1
:10496C00140906683EF80900750BC6F386112C462F
:10497C00B8EB563F03466FF31F3302F8038000F188
:10498C0001032EF809306FF31F3318BF012441EADD
:10499C00C411D154831CB8EB563F28D04FEA165C97
:1049AC006FF31F336146B8EB165F18BF012105F09A
:1049BC007F0444EAC111D154C31CB8EB165F16D066
:1049CC00F40E6FF31F3325460CF07F014FF00008F7
:1049DC00B8EBD66F18BF012541EAC511D154031DA0
:1049EC00B8EBD66F1EBF6FF31F33D454431D18465C
:1049FC0040F235062EF809306FF31F30C0F2000676
:104A0C00B1B27F2902D21654012008E046F0800191
:104A1C001154591CF0096FF31F31505402201844E3
:104A2C002EF8090001F0C6BF00288BF0010118BF59
:104A3C000120084341F07586089880B2B0F5807F5C
:104A4C0081F06F860698C0F30310002801F0CD8426
:104A5C00082841F066864FF0010E01F0C8BC03F443
:104A6C007F006FF00101022401EB1040C1B202295A
:104A7C0028BF2046C0B2002801F06A80012800F04F
:104A8C00EB87C3F3074009904EF6045041F2000443
:104A9C00CEF20000C2F20004006804F5805A41F224
:104AAC0004014FF01609CEF200010222C0B2002818
:104ABC0050464FF0000B08BF204608BF4FF01409BA
:104ACC000D683EF809604FEA553CBBEB553FC5F30A
:104ADC00861831466FF31F31425406F101016246CC
:104AEC002EF8091018BF01226FF31F3148EAC212C9
:104AFC00BBEB553F425406F102022ED04FEA15583B
:104B0C006FF31F324146BBEB155F18BF01210CF050
:104B1C007F0444EAC1118154F21CBBEB155F18D021
:104B2C004FEAD56C6FF31F32644608F07F014FF0EB
:104B3C00000BBBEBD56F18BF012441EAC4118154A3
:104B4C00321DBBEBD56F1EBF6FF31F3200F802C0D6
:104B5C00721D41F20004C2F20004099D114640F29C
:104B6C002F064EF6045841F2040B6FF31F31C3F3BA
:104B7C000F2CC0F2000605F00105B3B2CEF200080E
:104B8C00CEF2000B7F2B2EF8092081F03684465490
:104B9C00012101F03BBC4EF6045041F20001CEF273
:104BAC00000041F20402006843F2901CC2F20001C2
:104BBC004FF01609CEF20002C2F2000CC0B200286F
:104BCC0018BF01F5805108BF4FF0140915684FF05C
:104BDC0000083CF809606C0BC5F38610731C2CF8AC
:104BEC00093032466FF31F326FF31F33B8EB553F6A
:104BFC0001F80280224618BF012240EAC210C854B4
:104C0C00B31CB8EB553F28D04FEA155E6FF31F333A
:104C1C007046B8EB155F18BF012004F07F0242EA22
:104C2C00C010C854F31CB8EB155F16D0EA0E6FF326
:104C3C001F3314460EF07F004FF00008B8EBD56F11
:104C4C0018BF012440EAC410C854331DB8EBD56F0B
:104C5C001EBF6FF31F33CA54731D1A4640F2290648
:104C6C002CF809306FF31F32C0F2000600F001BCC3
:104C7C004EF6045041F20001CEF2000041F2040263
:104C8C00006843F2901CC2F200014FF01609CEF2FC
:104C9C000002C2F2000CC0B2002818BF01F580510E
:104CAC0008BF4FF0140915684FF000083CF8096074
:104CBC006C0BC5F38610731C2CF8093032466FF35D
:104CCC001F326FF31F33B8EB553F01F802802246B9
:104CDC0018BF012240EAC210C854B31CB8EB553FB0
:104CEC0028D04FEA155E6FF31F337046B8EB155F93
:104CFC0018BF012004F07F0242EAC010C854F31C14
:104D0C00B8EB155F16D0EA0E6FF31F3314460EF096
:104D1C007F004FF00008B8EBD56F18BF012440EAB4
:104D2C00C410C854331DB8EBD56F1EBF6FF31F33BF
:104D3C00CA54731D1A4640F22C062CF809306FF336
:104D4C001F32C0F2000694E34EF604500896CEF2E1
:104D5C00000041F20003006843F29018C2F2000315
:104D6C0003F580524FF0160AC2F20008C0B20028B8
:104D7C0041F204000992CEF2000008BF1A4608BFA7
:104D8C004FF0140A056838F80AB002234FF0000CF3
:104D9C004FEA553EBCEB553F0BF10209C5F38616A5
:104DAC0058466FF31F3013540BF10100734628F86B
:104DBC000A006FF31F3018BF0123BCEB553F46EAC6
:104DCC00C313135432D04FEA15586FF31F394046B2
:104DDC00BCEB155F18BF01200EF07F0343EAC01037
:104DEC0002F809000BF10309BCEB155F1AD04FEA6E
:104DFC00D56C6FF31F3963460020B0EBD56F18BF2D
:104E0C00012308F07F06B0EBD56F46EAC31302F816
:104E1C0009300BF104091EBF6FF31F3902F809C0EA
:104E2C000BF1050943F29018C2F20008484640F213
:104E3C001306DDF824B0C0F200066FF31F30B3B2D6
:104E4C007F2B28F80A9080F0C08316540120C6E30B
:104E5C004EF6045041F20001CEF2000041F2040281
:104E6C00006843F2901CC2F200014FF01609CEF21A
:104E7C000002C2F2000CC0B2002818BF01F580512C
:104E8C0008BF4FF0140915684FF000083CF8096092
:104E9C006C0BC5F38610731C2CF8093032466FF37B
:104EAC001F326FF31F33B8EB553F01F802802246D7
:104EBC0018BF012240EAC210C854B31CB8EB553FCE
:104ECC0028D04FEA155E6FF31F337046B8EB155FB1
:104EDC0018BF012004F07F0242EAC010C854F31C32
:104EEC00B8EB155F16D0EA0E6FF31F3314460EF0B5
:104EFC007F004FF00008B8EBD56F18BF012440EAD3
:104F0C00C410C854331DB8EBD56F1EBF6FF31F33DD
:104F1C00CA54731D1A4640F228062CF809306FF358
:104F2C001F32C0F20006A4E24EF6045041F200011A
:104F3C00CEF2000041F20402006843F2901CC2F26F
:104F4C0000014FF01609CEF20002C2F2000CC0B202
:104F5C00002818BF01F5805108BF4FF014091568DF
:104F6C004FF000083CF809606C0BC5F38610731CFD
:104F7C002CF8093032466FF31F326FF31F33B8EB46
:104F8C00553F01F80280224618BF012240EAC210A8
:104F9C00C854B31CB8EB553F28D04FEA155E6FF3DD
:104FAC001F337046B8EB155F18BF012004F07F0269
:104FBC0042EAC010C854F31CB8EB155F16D0EA0EC9
:104FCC006FF31F3314460EF07F004FF00008B8EB60
:104FDC00D56F18BF012440EAC410C854331DB8EB78
:104FEC00D56F1EBF6FF31F33CA54731D1A4640F2A0
:104FFC002A062CF809306FF31F32C0F2000638E293
:10500C004EF6045141F20000CEF2000141F20402CE
:10501C00096843F2901CC2F200004FF01609CEF260
:10502C000002C2F2000CC9B2002918BF00F5805072
:10503C0008BF4FF01409156802233CF809604FF0C3
:10504C0000086C0BC5F38611B8EB553F32466FF375
:10505C001F32835406F1010322462CF809306FF3FA
:10506C001F3318BF012241EAC211C154B31CB8EB63
:10507C00553F28D04FEA155E6FF31F337146B8EBDE
:10508C00155F18BF012104F07F0242EAC111C1541F
:10509C00F31CB8EB155F16D0EA0E6FF31F331446F2
:1050AC000EF07F014FF00008B8EBD56F18BF01244C
:1050BC0041EAC411C154331DB8EBD56F1EBF6FF359
:1050CC001F33C254731D1A4640F22706C0F2000665
:1050DC006FF31F32B1B27F292CF8093080F0218395
:1050EC008654012226E34EF6045041F20001CEF222
:1050FC000000C2F20001006801F5805A4FF0160959
:10510C00022652464FF0000BC0B2002841F20400B8
:10511C0008BF0A46CEF2000008BF4FF01409016820
:10512C0043F29010C2F2000030F809E04FEA513817
:10513C00BBEB513FC1F3861475466FF31F355655C3
:10514C000EF10105464620F8095018BF012644EA25
:10515C00C6166FF31F350EF10204BBEB513F5655CB
:10516C002BD04FEA115C6FF31F346046BBEB115F21
:10517C0018BF012008F07F0545EAC01010550EF14C
:10518C000304BBEB115F18D0CE0E6FF31F34354602
:10519C000CF07F004FF00008B8EBD16F18BF012561
:1051AC0040EAC51010550EF10404B8EBD16F1EBFC8
:1051BC006FF31F3416550EF10504214640F21A0602
:1051CC0043F2901EC0F200066FF31F31C2F2000EC4
:1051DC00B5B27F2D2EF8094080F0C18256540121C2
:1051EC00C6E24EF6045041F20002CEF20000C2F2CA
:1051FC000002006802F580514FF0160902268A461B
:10520C004FF0000BC0B2002808BF114641F2040059
:10521C0043F29012CEF20000C2F2000208BF4FF02F
:10522C001409006832F809E04FEA5038BBEB503FE4
:10523C00C0F3861475466FF31F354E550EF10105FC
:10524C00464622F8095018BF012644EAC6166FF3E9
:10525C001F350EF10204BBEB503F4E5500F096810A
:10526C004FEA105C6FF31F346246BBEB105F18BF44
:10527C00012208F07F0545EAC2120A550EF103041B
:10528C00BBEB105F00F08281C60E6FF31F34354606
:10529C000CF07F0243F2901B4FF00008B8EBD06F7C
:1052AC0018BF012542EAC5120A550EF10404B8EBE9
:1052BC00D06FC2F2000B1EBF6FF31F340E550EF1F0
:1052CC00050467E14EF6045041F20001CEF20000F5
:1052DC0041F20402006843F2901CC2F200014FF04C
:1052EC001609CEF20002C2F2000CC0B2002818BFA0
:1052FC0001F5805108BF4FF0140915684FF00008F4
:10530C003CF809606C0BC5F38610731C2CF8093043
:10531C0032466FF31F326FF31F33B8EB553F01F872
:10532C000280224618BF012240EAC210C854B31CA6
:10533C00B8EB553F28D04FEA155E6FF31F3370461C
:10534C00B8EB155F18BF012004F07F0242EAC010D1
:10535C00C854F31CB8EB155F16D0EA0E6FF31F336D
:10536C0014460EF07F004FF00008B8EBD56F18BF55
:10537C00012440EAC410C854331DB8EBD56F1EBFCE
:10538C006FF31F33CA54731D1A4640F212066FF3A3
:10539C001F32C0F200062CF809306AE04EF60450B9
:1053AC0041F20001CEF2000041F20402006843F227
:1053BC00901CC2F200014FF01609CEF20002C2F2AC
:1053CC00000CC0B2002818BF01F5805108BF4FF087
:1053DC00140915684FF000083CF809606C0BC5F314
:1053EC008610731C2CF8093032466FF31F326FF3A2
:1053FC001F33B8EB553F01F80280224618BF01223B
:10540C0040EAC210C854B31CB8EB553F28D04FEA41
:10541C00155E6FF31F337046B8EB155F18BF012094
:10542C0004F07F0242EAC010C854F31CB8EB155FBD
:10543C0016D0EA0E6FF31F3314460EF07F004FF0B8
:10544C000008B8EBD56F18BF012440EAC410C8544B
:10545C00331DB8EBD56F1EBF6FF31F33CA54731DCA
:10546C001A4640F22B062CF809306FF31F32C0F2AB
:10547C000006B0B27F2802D28E54012108E046F01B
:10548C00800088545A1CF0096FF31F328854022193
:10549C0058182CF8090001F08DBA184341F04181DD
:1054AC004FF0FF3050FA88F1042901F23A810122C1
:1054BC004FF0020E0820DFE811F0050007009F0DE9
:1054CC00A10DA30DFEF755BF4FF0020E08200222CE
:1054DC00FEF74FBF00298BF0010218BF01211143C9
:1054EC0041F01F81089989B2B1F5807F81F0198153
:1054FC000022B2EB101F04D00109082941F01181E0
:10550C00012200F00F044FF0010E0820FEF731BF0E
:10551C005BB3300D6FF31F3501464FF00009B9EB4B
:10552C00165F18BF012103F07F02B9EB165F42EA48
:10553C00C1110BF8051004F1030516D0F30E6FF32F
:10554C001F35194600F07F00B9EBD66F18BF01214B
:10555C0040EAC1100BF80500251DB9EBD66F1EBF34
:10556C006FF31F350BF80530651D284640F23703E5
:10557C00C0F200036FF31F3099B27F292EF80A5046
:10558C0080F0C4830BF800300120CAE343F2901B77
:10559C00C2F2000B204640F21F06C0F200066FF369
:1055AC001F30B5B27F2D2BF8094080F080810E544E
:1055BC00012085E10898000441F0B380002200E04E
:1055CC0002220720029CFEF7D4BE46F0800313543F
:1055DC0009F10103F0096FF31F33D0540220484442
:1055EC000626C1F3C015894603466FF31F33D65404
:1055FC0000F1010300F1020628F80A306FF31F33A3
:10560C00D1541DB16FF31F369555C61CE0B204285A
:10561C0028F80A6001F2FA84DFE810F005000906A8
:10562C007D06F80C9F054EF60450DA46CEF20000CB
:10563C004FF0160E006802234FF0000CC0B2002889
:10564C0041F20000C2F2000008BF824641F20400A1
:10565C0008BF4FF0140ECEF20000056838F80E604B
:10566C004FEA5539C5F38612BCEB553F30466FF304
:10567C001F300AF8003006F101004B4628F80E00E6
:10568C006FF31F3018BF012342EAC3120AF800203F
:10569C00B01CBCEB553F31D0C3464FEA15584246BF
:1056AC006FF31F30BCEB155F18BF012209F07F03AD
:1056BC00BCEB155F43EAC2120AF8002006F10300A6
:1056CC0019D04FEAD5696FF31F304B4608F07F02B3
:1056DC004FF0000CBCEBD56F18BF012342EAC3128C
:1056EC000AF80020301DBCEBD56F1EBF6FF31F30C6
:1056FC000AF80090701DD846DDF824B0034640F23D
:10570C001706089DC0F200066FF31F33B2B27F2A52
:10571C0028F80E0081F0C8810AF80360012301F01B
:10572C00CEB946F0800181545A1CF1096FF31F3237
:10573C0081540222991806230A466FF31F328354B0
:10574C008A1C01312CF8092001226FF31F314254BD
:10575C0043F23C20C2F20000012101F061BB46F093
:10576C0080055554F109661C6FF31F3691550221C3
:10577C000C440626D8094FF0000C214605466FF361
:10578C001F31BCEBD31F565404F1010103F07F060B
:10579C002EF809106FF31F3118BF012546EAC51604
:1057AC005654A61CBCEBD31F1EBF6FF31F3690556F
:1057BC00E61C2EF809609EF80200002800F0E78332
:1057CC00012800F0F2824EF6045041F20401CEF2B0
:1057DC000000CEF2000100684FF0000CC0B20028AF
:1057EC0041F20000C2F2000008BF82464FF01600E2
:1057FC0008BF142009683EF800304C0BBCEB513F3D
:10580C002646C1F386151A466FF31F320AF802C0FA
:10581C0003F101022EF800206FF31F3218BF01268E
:10582C00BCEB513F45EAC6160AF8026003F10202CE
:10583C002BD00D0D6FF31F322E46BCEB115F18BF32
:10584C00012604F07F0444EAC6160AF80260DA1C4A
:10585C00BCEB115F19D0CC0E6FF31F3226464FF004
:10586C00000CBCEBD16F18BF012605F07F05BCEB1B
:10587C00D16F45EAC6160AF8026003F104021EBF96
:10588C006FF31F320AF802405A1D114640F21B03F7
:10589C00C0F200036FF31F319EB27F2E2EF8002052
:1058AC0080F0F7860AF80130012100F0FDBE46F0C9
:1058BC0080050D54F009661C6FF31F3688550220C5
:1058CC0004440626DA094FF0000C204615466FF307
:1058DC001F30BCEBD31F0E5404F1010003F07F0604
:1058EC002BF809006FF31F3018BF012546EAC516C7
:1058FC000E54A61CBCEBD31F1EBF6FF31F368A556C
:10590C00E61C2BF809609BF80200002800F0B98314
:10591C00012800F0C282002B01F055809BF8040096
:10592C00984201F05E834EF604501621CEF2000030
:10593C004FF0000C0068C0B2002841F20000C2F227
:10594C00000008BF824641F2040008BF1421CEF2C9
:10595C00000000683BF80130440BBCEB503F26467E
:10596C00C0F386151A466FF31F320AF802C003F112
:10597C0001022BF801206FF31F3218BF0126BCEB7C
:10598C00503F45EAC6160AF8026003F102022BD01A
:10599C00050D6FF31F322E46BCEB105F18BF0126AE
:1059AC0004F07F0444EAC6160AF80260DA1CBCEB69
:1059BC00105F19D0C40E6FF31F3226464FF0000C47
:1059CC00BCEBD06F18BF012605F07F05BCEBD06F88
:1059DC0045EAC6160AF8026003F104021EBF6FF313
:1059EC001F320AF802405A1D104640F222032BF8CF
:1059FC0001206FF31F30C0F2000301F0F4B90898D6
:105A0C00000410D1002200F0DBBF002C04BF08986A
:105A1C005FEA004007D102200222FEF7AABC0898D8
:105A2C00000400F0CC87B3F1FF3FC8BF01210498FC
:105A3C0080F00100084340F07486019880B2B0F504
:105A4C00085F40F06E86089880B2FF2800F26986E5
:105A5C000120039AFEF743BD4EF6045B41F20008A9
:105A6C00CEF2000BC2F20008DBF8000008F58059FA
:105A7C0041F204011625CEF200010223C0B2002827
:105A8C0048464FF0000A08BF404608BF14250A6874
:105A9C003EF80560540BBAEB523FC2F3861C3146FC
:105AAC006FF31F31435406F1010123462EF8051004
:105ABC0018BF01236FF31F314CEAC313BAEB523FEB
:105ACC00435406F102032ED04FEA125C6FF31F33DE
:105ADC006146BAEB125F18BF012104F07F0444EA5F
:105AEC00C111C154F31CBAEB125F1CD04FEAD26B3C
:105AFC006FF31F335C460CF07F014FF0000ABAEBDA
:105B0C00D26F18BF012441EAC411C154331DBAEB42
:105B1C00D26F1EBF6FF31F3300F803B0731D4EF628
:105B2C00045BCEF2000B194640F2320241F204043F
:105B3C00C0F200026FF31F3196B2CEF200047F2E3A
:105B4C002EF8053080F0F1844254012000F0F6BCB0
:105B5C004EF6045041F20002CEF2000041F2040174
:105B6C000068C2F200024FF01608CEF200014FF0AE
:105B7C00000CC0B2002818BF02F5805208BF4FF0CD
:105B8C0014080D683EF80860BCEB553FC5F3861051
:105B9C0031466FF31F3154544FEA553406F101016D
:105BAC0023462EF8081018BF012340EAC3106FF3E8
:105BBC001F31B31CBCEB553F505427D0290D6FF34C
:105BCC001F330846BCEB155F18BF012004F07F049F
:105BDC0044EAC010D054F31CBCEB155F16D0E80E91
:105BEC006FF31F33044601F07F014FF0000CBCEB48
:105BFC00D56F18BF012441EAC411D154331DBCEB3D
:105C0C00D56F1EBF6FF31F33D054731D194640F26E
:105C1C003106C0F200066FF31F31B0B27F282EF8A8
:105C2C00083080F024855654012100F029BD43F042
:105C3C0080010BF80010691CD8096FF31F310BF8A9
:105C4C0001000220054406234FEADC1600242846F6
:105C5C0031466FF31F30B4EBDC1F0CF07F020BF8F6
:105C6C00003005F101002EF80A006FF31F3018BF49
:105C7C000121B4EBDC1F42EAC1110BF8001005F155
:105C8C0002001EBF6FF31F300BF80060E81C0146CA
:105C9C001FFA88F66FF31F31F509B4EBD61F0BF81A
:105CAC00013000F101012A462EF80A1018BF01221A
:105CBC0008F07F0343EAC2126FF31F31831CB4EB6D
:105CCC00D61F0BF8012018D0B40B6FF31F332246EC
:105CDC000021B1EB963F18BF012205F07F05B1EB17
:105CEC00963F45EAC2120BF8032000F103031EBFD6
:105CFC006FF31F330BF80340031D43F244202EF8BF
:105D0C000A30C2F20000212101F08AB843F0800170
:105D1C000BF80010691CD8096FF31F310BF8010048
:105D2C0002202C1806234FEADC15002120462A46B7
:105D3C006FF31F30B1EBDC1F0CF07F060BF800305B
:105D4C0004F101002EF80A006FF31F3018BF012276
:105D5C00B1EBDC1F46EAC2120BF8002004F1020082
:105D6C001EBF6FF31F300BF80050E01C01466FF3A1
:105D7C001F31C8F3C0160BF8013000F1010100F11E
:105D8C0002032EF80A106FF31F310BF801801EB9B5
:105D9C002EF80A3001F025B96FF31F330BF80360AE
:105DAC00C31C2EF80A3001F01CB9002B00F03F8701
:105DBC009EF803100020994200F0FD8501218EF819
:105DCC0003308EF802104EF60451CEF200014FF063
:105DDC00160C09680226C9B2002941F20001C2F270
:105DEC00000108BF8A4641F2040108BF4FF0140CB1
:105DFC00CEF2000109683EF80C504C0BC1F3861230
:105E0C00B0EB513F2B466FF31F330AF8036005F1DB
:105E1C00010326462EF80C306FF31F3318BF0126F2
:105E2C0042EAC6120AF80320AB1CB0EB513F2AD051
:105E3C000E0D6FF31F3332460020B0EB115F18BF0D
:105E4C00012204F07F04B0EB115F44EAC2120AF89D
:105E5C00032005F1030316D0CC0E6FF31F3322463B
:105E6C00B0EBD16F18BF012206F07F0646EAC212D2
:105E7C000AF803202B1DB0EBD16F1EBF6FF31F333D
:105E8C000AF803406B1D184640F21E012EF80C3028
:105E9C006FF31F30C0F20001EBE0002B01F0A1808A
:105EAC004EF60450012BCEF2000040F0368700680D
:105EBC0052464FF0160802264FF0000EC0B20028D2
:105ECC0041F20000C2F2000008BF024641F2040099
:105EDC0008BF4FF01408CEF2000000683BF80840F1
:105EEC00450BC0F38611BEEB503F23466FF31F33B7
:105EFC00D65404F101032E462BF808306FF31F33F0
:105F0C0018BF012641EAC611D154A31CBEEB503F69
:105F1C0028D04FEA105C6FF31F336146BEEB105F65
:105F2C0018BF012105F07F0545EAC111D154E31CCE
:105F3C00BEEB105F16D0C60E6FF31F3335460CF058
:105F4C007F014FF0000EBEEBD06F18BF012541EA68
:105F5C00C511D154231DBEEBD06F1EBF6FF31F3381
:105F6C00D654631D184640F2230647F2844EC0F205
:105F7C0000066FF31F30B1B2C4F2020E7F292BF86A
:105F8C00083080F079871654012000F07EBF002085
:105F9C00002B00F0108501218EF803308EF80210D2
:105FAC004EF60451CEF200014FF0160C0968022691
:105FBC00C9B2002941F20001C2F2000108BF8A46B1
:105FCC0041F2040108BF4FF0140CCEF20001096835
:105FDC003EF80C504C0BC1F38612B0EB513F2B46E4
:105FEC006FF31F330AF8036005F1010326462EF800
:105FFC000C306FF31F3318BF012642EAC6120AF8A1
:10600C000320AB1CB0EB513F2AD00E0D6FF31F33A6
:10601C0032460020B0EB115F18BF012204F07F0460
:10602C00B0EB115F44EAC2120AF8032005F1030336
:10603C0016D0CC0E6FF31F332246B0EBD16F18BFC6
:10604C00012206F07F0646EAC2120AF803202B1D35
:10605C00B0EBD16F1EBF6FF31F330AF803406B1DFB
:10606C00184640F21C016FF31F30C0F200012EF8ED
:10607C000C308AB27F2A80F023830AF800100120AA
:10608C0029E34EF604501621CEF200004FF0000C1E
:10609C000068C0B2002841F20000C2F2000008BF44
:1060AC00824641F2040008BF1421CEF200000068C1
:1060BC003BF80130440BBCEB503F2646C0F3861531
:1060CC001A466FF31F320AF802C003F101022BF8D3
:1060DC0001206FF31F3218BF0126BCEB503F45EA7D
:1060EC00C6160AF8026003F102022BD0050D6FF3FD
:1060FC001F322E46BCEB105F18BF012604F07F0444
:10610C0044EAC6160AF80260DA1CBCEB105F19D020
:10611C00C40E6FF31F3226464FF0000CBCEBD06F51
:10612C0018BF012605F07F05BCEBD06F45EAC616FB
:10613C000AF8026003F104021EBF6FF31F320AF863
:10614C0002405A1D104640F220036FF31F30C0F27C
:10615C0000032BF8012000F046BE4EF60450162129
:10616C00CEF200004FF0000C0068C0B2002841F2E3
:10617C000000C2F2000008BF834641F2040008BFD1
:10618C001421CEF20000036838F801205C0BC3F335
:10619C0086162546BCEB533F10466FF31F300BF8A9
:1061AC0000C002F1010028F801006FF31F3018BF86
:1061BC00012546EAC5160BF80060901CBCEB533F5A
:1061CC002AD01E0D6FF31F303546BCEB135F18BF82
:1061DC00012504F07F0444EAC5150BF80050D01CCF
:1061EC00BCEB135F18D0DC0E6FF31F30254606F0A6
:1061FC007F064FF0000CBCEBD36F18BF012546EAAD
:10620C00C5160BF80060101DBCEBD36F1EBF6FF3EF
:10621C001F300BF80040501D024640F2190328F8BD
:10622C0001006FF31F32C0F2000300F0D1BC4EF638
:10623C0004501622CEF20000022100684FF0000E2E
:10624C00C0B2002841F20000C2F2000008BF834631
:10625C0041F2040008BF1422CEF20000066838F8A0
:10626C000230740BBEEB563FC6F3861518466FF31F
:10627C001F300BF8001003F10100214628F8020032
:10628C006FF31F3018BF0121BEEB563F45EAC11119
:10629C000BF8001003F102002BD04FEA165C6FF3E1
:1062AC001F306146BEEB165F18BF012104F07F045E
:1062BC0044EAC1110BF80010D81CBEEB165F18D0C5
:1062CC00F40E6FF31F3025460CF07F014FF0000EDB
:1062DC00BEEBD66F18BF012541EAC5110BF80010B3
:1062EC00181DBEEBD66F1EBF6FF31F300BF80040AE
:1062FC00581D034640F21506C0F200066FF31F331B
:10630C00B1B27F2928F8020080F078840BF8036082
:10631C00012300F07EBC4EF604501621CEF2000094
:10632C00012600684FF0000CC0B2002841F20000BA
:10633C00C2F2000008BF834641F2040008BF1421DA
:10634C00CEF20000036838F801205C0BBCEB533F25
:10635C00254610466FF31F300BF8006002F1010068
:10636C00C3F3861628F801006FF31F3018BF012500
:10637C0046EAC5160BF80060901CBCEB533F2AD0C4
:10638C001E0D6FF31F303546BCEB135F18BF012594
:10639C0004F07F0444EAC5150BF80050D01CBCEB8C
:1063AC00135F18D0DC0E6FF31F30254606F07F0606
:1063BC004FF0000CBCEBD36F18BF012546EAC51695
:1063CC000BF80060101DBCEBD36F1EBF6FF31F30BA
:1063DC000BF80040501D024640F216036FF31F32BB
:1063EC00C0F2000328F80100F2E34FF0000E06980B
:1063FC0000F00F020020FDF7BCBF46F080034354B1
:10640C00531CF1096FF31F33C154022111440623AD
:10641C000A466FF31F3283544A1C6FF31F328554A4
:10642C008A1C6FF31F3283540A1D03312EF8092086
:10643C000CF001026FF31F314FF0000C425402229A
:10644C00D8F80000C0B200284FF0160008BFA246D2
:10645C0008BF1420DBF800603EF80030740BBCEB76
:10646C00563FC6F3861519466FF31F310AF8012003
:10647C0003F1010122462EF8001018BF01226FF320
:10648C001F3145EAC212BCEB563F0AF8012003F15A
:10649C0002022AD0310D6FF31F320D4604F07F0437
:1064AC00BCEB165F18BF012544EAC5140AF802407C
:1064BC00DA1CBCEB165F18D0F40E6FF31F322546B6
:1064CC0001F07F014FF0000CBCEBD66F18BF01251B
:1064DC0041EAC5110AF802101A1DBCEBD66F1EBF9B
:1064EC006FF31F320AF802405A1D114640F2300376
:1064FC00C0F200036FF31F319EB27F2E2EF80020E6
:10650C0003D20AF8013001210AE043F080060AF8B0
:10651C000160D909531C6FF31F330AF803100221D1
:10652C0011442EF8001000F05CBD42F08006465479
:10653C00D1095A1C6FF31F328154022018442EF8D3
:10654C0005000120AEF80A001622DBF8000002213B
:10655C004FF0000CC0B2002808BFC14608BF14227F
:10656C0026683EF80230740BBCEB563FC6F386151A
:10657C0018466FF31F3009F8001003F10100214693
:10658C002EF802006FF31F3018BF0121BCEB563FF1
:10659C0045EAC11109F8001003F102002AD0310DAF
:1065AC006FF31F300D4604F07F04BCEB165F18BF71
:1065BC00012544EAC51409F80040D81CBCEB165F51
:1065CC0018D0F40E6FF31F30254601F07F014FF009
:1065DC00000CBCEBD66F18BF012541EAC51109F8B8
:1065EC000010181DBCEBD66F1EBF6FF31F3009F8DF
:1065FC000040581D014640F23303C0F200036FF314
:10660C001F319EB27F2E2EF8020003D209F8013002
:10661C0001210AE043F0800609F80160D909431C06
:10662C006FF31F3309F803100221084447F2844129
:10663C002EF8020043F23D20C2F20000C4F2020127
:10664C00C1F87C020720C1F8800247F25001C4F265
:10665C000201D1F8B00140F00200C1F8B0010120F4
:10666C0041F8040C00200FB0BDE8000FF0BD46F05F
:10667C0080005054591CF0096FF31F315054022103
:10668C0058182EF8080043F23D20C2F200000721F2
:10669C00C6E343F080060AF80160D909531C6FF376
:1066AC001F330AF80310022111442EF8001081E167
:1066BC004FF0000E069800F00F020A20FDF759BEAD
:1066CC0041F080020AF80020C809591C6FF31F31F1
:1066DC000AF80100022018442EF80C0000200FB01C
:1066EC00BDE8000FF0BD089880B2B0F5807F18D2DD
:1066FC004FF0020E0420069AFDF73BBE089989B2B2
:10670C00FF290ED80022B2EB101F03D00109082973
:10671C0007D1012200F00F044FF0010E0420FDF709
:10672C0028BE0020DDF80CB08DF83000CDE90A0051
:10673C004EF6045141F20000CEF2000143F2901EDD
:10674C000968C2F200004FF01608C2F2000E4FF0BA
:10675C000009C9B2002941F2040118BF00F58050AC
:10676C00CEF2000108BF4FF014080E683EF8083056
:10677C00750BB9EB563F2A46C6F3861419466FF3D0
:10678C001F3100F8019003F101012EF808106FF38E
:10679C001F3118BF0122B9EB563F44EAC2124254D2
:1067AC0003F1020127D0320D6FF31F311446B9EB00
:1067BC00165F18BF012405F07F0545EAC414445444
:1067CC00D91CB9EB165F16D0F50E6FF31F312C46A2
:1067DC0002F07F024FF00009B9EBD66F18BF01240D
:1067EC0042EAC4124254191DB9EBD66F1EBF6FF3A7
:1067FC001F314554591D0A4640F21103C0F20003E3
:10680C006FF31F329CB27F2C2EF8081002D28354E7
:10681C00012208E043F080048454DA094B1C6FF326
:10682C001F33C25402228C180621A31C22466FF37C
:10683C001F328154621C2EF808206FF31F3200F8AF
:10684C0002C0CCF3C0121AB16FF31F33C254E31C55
:10685C001A466FF31F328154591C099A2EF80810EE
:10686C006FF31F314254C2F3C012991C1AB16FF36B
:10687C001F314254D91C0A464FF0060C6FF31F32DD
:10688C004B1C2EF808304FF000096FF31F3300F843
:10689C0002C00BF07F06079A95B2EA09B9EBD51F37
:1068AC00144618BF0124B9EBD51F46EAC414C454CE
:1068BC0001F1020314D0AC0B6FF31F33264602F028
:1068CC007F02B9EB953F18BF012642EAC612C254AB
:1068DC00CB1CB9EB953F1EBF6FF31F33C4540B1D7C
:1068EC00089A19466FF31F3195B200F801C0EC09F4
:1068FC00591C22462EF80810B9EBD51F18BF0122DF
:10690C006FF31F31069EB9EBD51F06F07F0646EAE2
:10691C00C212425403F1020116D0AA0B6FF31F31BD
:10692C00164604F07F044FF0000CBCEB953F18BFEB
:10693C00012644EAC6144454D91CBCEB953F1EBF37
:10694C006FF31F314254191D0A4606236FF31F3291
:10695C001FFA8AF6059DF40983544B1C22462EF827
:10696C0008306FF31F334FF0000CBCEBD61F18BF71
:10697C00012205F07F05BCEBD61F45EAC212C254BA
:10698C0001F1020314D0B20B6FF31F33154604F060
:10699C007F04BCEB963F18BF012544EAC514C454D0
:1069AC00CB1CBCEB963F1EBF6FF31F33C2540B1DA9
:1069BC002EF8083001200FB0BDE8000FF0BD032207
:1069CC000220FDF7D6BC4EF604501621CEF2000084
:1069DC00022600684FF0000CC0B2002841F2000003
:1069EC00C2F2000008BF824641F2040008BF142125
:1069FC00CEF2000000683BF80130440BBCEB503F7A
:106A0C0025461A466FF31F320AF8026003F10102A1
:106A1C00C0F386162BF801206FF31F3218BF012527
:106A2C0046EAC5160AF802609A1CBCEB503F2AD005
:106A3C00060D6FF31F323546BCEB105F18BF0125F6
:106A4C0004F07F0444EAC5150AF80250DA1CBCEBCA
:106A5C00105F18D0C40E6FF31F32254606F07F0668
:106A6C004FF0000CBCEBD06F18BF012546EAC516E1
:106A7C000AF802601A1DBCEBD06F1EBF6FF31F32F9
:106A8C000AF802405A1D104640F22503C0F20003DA
:106A9C006FF31F309EB27F2E2BF8012080F0C78140
:106AAC000AF800300120CDE146F080020AF80320FC
:106ABC00431CF2096FF31F330AF803200223184416
:106ACC00062305F07F0602466FF31F320AF80230E8
