:101000000000042005420000CB9F0000CB9F0000A1
:10101000CB9F0000CB9F0000CB9F00000000000092
:10102000000000000000000000000000CB9F000056
:10103000CB9F000000000000CB9F0000CB9F000072
:10104000CF420000DF420000CB9F0000D3470000EA
:10105000CB9F0000CB9F0000CB9F0000CB9F0000E8
:10106000CB9F0000CB9F0000CB9F0000E14700001A
:10107000CB9F0000CB9F0000CB9F0000CB9F0000C8
:10108000CB9F0000CB9F0000CB9F0000CB9F0000B8
:10109000CB9F0000CB9F0000CB9F0000CB9F0000A8
:1010A000CB9F0000CB9F0000CB9F0000CB9F000098
:1010B000CB9F0000CB9F000000000000000000005C
:1010C000CB9F0000CB9F0000CB9F0000CB9F000078
:1010D000CB9F0000CB9F0000CB9F00000149000088
:1010E000CB9F0000CB9F0000CB9F000000000000C2
:1010F00000000000CB9F000000000000CB9F00001C
:10110000A71A00000400000004000000531C0000A7
:10111000A91A0000271C00002E3E747C77306D7ADF
:10112000237B78323443483B61542C76496A3F3DF7
:101130005068443A67212665596B376C45584E22F2
:101140005E40563C42287D607E64316E534D39527C
:10115000462B622F25714A2D6F5F75572A697020C3
:101160005C635D384C332947244B555B79725A4197
:1011700027366651354F735B246C72454F4E4822BB
:101180003828236E58215474663F41207E2E4D2C02
:101190003B79313A25303D5C6B7B5F406827292FD6
:1011A0004C374B5E55512B5775322A6F7C67537104
:1011B0003C4A6A7D33645A63563426605273653EF6
:1011C000467836695976397A77436D42625D44359F
:1011D0002D50494761700000663B742A6B70655062
:1011E0006362657374626C52465273746C522A3A2D
:1011F00065522A65633462653D4E4A3D75753D759D
:10120000655334706C654563626B703B6373250096
:10121000A813000000000000A81300000000000058
:101220000000000020000000080000000200000094
:1012300000000000000000000800000003000000A3
:101240000100000020000000080000000200000073
:101250000000000000000000080000000300000083
:10126000206368616E6E656C3D205478506F7765C1
:10127000723D2B3864426D206170703D70757A7AD2
:101280006C652E6865780A00601200000900000095
:10129000691200001E000000696E76616C696420AE
:1012A000484944207061636B65740A00726571750A
:1012B0006573746564206368616E6E656C20697324
:1012C000206F7574206F662072616E67652028310B
:1012D000312D3236290A6E6F77206C697374656E12
:1012E000696E67206F6E206368616E6E656C200AA0
:1012F000D612000019000000EF12000001000000EB
:10130000636F7272656374696E636F727265637422
:101310007265636569766564202062797465000092
:101320001013000009000000191300000500000060
:10133000734572724F6B20284352433D28290000A9
:1013400036130000060000003C13000001000000FE
:101350003D1300000100000000000000200000001C
:101360000000000002000000000000000200000079
:101370000000000003000000010000002000000049
:101380000C0000000200000000000000000000004F
:1013900006000000030000002C204C51493D0000D5
:1013A0009813000006000000303030313032303306
:1013B0003034303530363037303830393130313103
:1013C00031323133313431353136313731383139E9
:1013D00032303231323232333234323532363237E1
:1013E00032383239333033313332333333343335C7
:1013F00033363337333833393430343134323433AD
:101400003434343534363437343834393530353192
:101410003532353335343535353635373538353978
:101420003630363136323633363436353636363770
:101430003638363937303731373237333734373556
:10144000373637373738373938303831383238333C
:101450003834383538363837383838393930393122
:101460003932393339343935393639373938393908
:1014700030783235323432333232323132303139FF
:101480003138313731363135313431333132313130
:0414900032360000F0
:10149400F0B503AF2DE9000F81B0D1F808E08A461A
:1014A4000969D0E90069BEF1010F0FD1012910D0FB
:1014B400B9F1000F00F06C82A9F1010809F0030EE4
:1014C400B8F1030F60D20021334661E1012940F0F5
:1014D4006682DAF8143006EB09040022009633BB66
:1014E400B44200F04A82304610F9011BB1F1FF3FCB
:1014F4005BDD009E002A18BF4A4540F0ED8030466F
:10150400F3E010F8016B06F03F0806464FF4E010D4
:1015140000EA814040EA0B3040EA8C104044B0F5C8
:10152400881F00F02A82701B013B0244D8D0B442C9
:1015340000F02382354616F9010BB0F1FF3FF2DCCF
:10154400C1B2A64207D06878AE1C00F03F0B30460B
:10155400E029E8D304E04FF0000B2046E029E2D371
:10156400A04207D010F8016B06F03F0C0646F029A4
:10157400D9D304E04FF0000C2046F029D3D3A04285
:10158400BFD14FF00008C1E7A9F1040020F0030126
:1015940001200C2900EB910000F0030C12D2002171
:1015A4003346BCF1000F7AD1F2E0C9B2A04200F098
:1015B400C4807078B31C00F03F008001E02980F003
:1015C400C18096E720F0030000214042B346334631
:1015D4001E785C7806F0C0069D78DA78802E08BF05
:1015E400013104F0C004802C08BF013105F0C004AF
:1015F40002F0C002802C08BF0131802A08BF0131EB
:101604001A7902F0C002802A08BF01315A7902F027
:10161400C002802A08BF01319A7902F0C002802AF0
:1016240008BF0131DA7902F0C002802A08BF013113
:101634001A7A02F0C002802A08BF01315A7A02F0F5
:10164400C002802A08BF01319A7A02F0C002802ABF
:1016540008BF0131DA7A02F0C002802A08BF0131E2
:101664001A7B02F0C002802A08BF01315A7B02F0C3
:10167400C002802A08BF01319A7B02F0C002802A8E
:1016840008BF0131DA7B103302F0C002802A08BFA0
:10169400013104309CD15E46BCF1000F78D018783B
:1016A4005A7800F0C0009C788028DD7802F0C000F1
:1016B40008BF0131802804F0C00008BF0131802830
:1016C40005F0C00008BF0131802808BF0131BCF11A
:1016D400010F15D104335BE04A4504D2B05610F132
:1016E400400FBFF60CAF0020002200280CBF4A4672
:1016F4000646BEF1010F00F04681DAE9060153E126
:1017040018795A7900F0C0009C798028DD7902F0BC
:10171400C00008BF0131802804F0C00008BF0131B7
:10172400802805F0C00008BF0131802808BF0131BE
:10173400BCF1020F11D108332AE000202346E0292E
:10174400FFF4D7AEA34200F0018113F8016B06F059
:101754003F06F029FFF4CDAEFDE0187A34465A7AFC
:1017640000F0C0009E7ADD7A802808BF013102F0C3
:10177400C000802806F0C00008BF0131802808BFDF
:10178400013105F0C0008028264608BF01310C3322
:10179400BEF1000F17D0187800F0C000802808BFF1
:1017A4000131BEF1010F0ED0587800F0C00080283E
:1017B40008BF0131BEF1020F05D0987800F0C000D7
:1017C400802808BF0131DAF80CB0A9EB01005845B4
:1017D40080F0E580B8F1030F02D20022334606E11F
:1017E400A9F1040020F0030201200C2A00EB92006E
:1017F40000F0030C02D20022334669E020F003001B
:1018040000224542B046334618785C7800F0C000A8
:101814009E788028D97808BF013204F0C00080285F
:1018240008BF013206F0C000802808BF013201F071
:10183400C000802808BF0132187900F0C000802859
:1018440008BF0132587900F0C000802808BF013277
:10185400987900F0C000802808BF0132D87900F0E0
:10186400C000802808BF0132187A00F0C000802828
:1018740008BF0132587A00F0C000802808BF013246
:10188400987A00F0C000802808BF0132D87A00F0AE
:10189400C000802808BF0132187B00F0C0008028F7
:1018A40008BF0132587B00F0C000802808BF013215
:1018B400987B00F0C000802808BF0132D87B103329
:1018C40000F0C000802808BF013204359CD1464690
:1018D400BCF1000F00F08B801878597800F0C0003C
:1018E4009C788028DD7801F0C00008BF0132802890
:1018F40004F0C00008BF0132802805F0C00008BF12
:101904000132802808BF0132BCF1010F01D1043338
:101914006DE01879597900F0C0009C798028DD7950
:1019240001F0C00008BF0132802804F0C00008BFE5
:101934000132802805F0C00008BF0132802808BFAA
:101944000132BCF1020F37D1083350E000262346A0
:10195400F029FFF4CEAD30434FF4E01606EA81419E
:10196400A34241EA80101ABF1B7803F03F0300230F
:101974001844B0F5881F7FF4BCAD4A46009EBEF102
:10198400010F7FF4BAAE9146B9F1000F7FF494AD24
:10199400DAF80CB0BBF1000F01D0002242E0DAF813
:1019A4001C104A46DAF81800CB68314601B0BDE88D
:1019B400000FBDE8F0401847187A3446597A00F011
:1019C400C0009E7ADD7A802808BF013201F0C00091
:1019D400802806F0C00008BF0132802808BF013209
:1019E40005F0C0008028264608BF01320C33BEF142
:1019F400000F17D0187800F0C000802808BF01320B
:101A0400BEF1010F0ED0587800F0C000802808BF46
:101A14000132BEF1020F05D0987800F0C000802892
:101A240008BF01329AF82000C31E18BF0346A2EB78
:101A3400090000EB0B0100200C46DFE803F008026C
:101A440005020024084602E0480801314C08451C00
:101A5400013D08D0DAE90602DAF804101269904769
:101A64000028F5D013E0DAE906014A46CB6831468E
:101A7400DAF804B0984750B9DAE906650134013C54
:101A84000AD02A693046594690470028F7D00120E9
:101A940001B0BDE8000FF0BD002001B0BDE8000FAB
:101AA400F0BD7047F0B503AF4DF8048D81B0006808
:101AB400802908D202687F2A22D802441171016861
:101AC40001310160A8E00022B1F5006F00924FF6E9
:101AD400FE72C0F2FF3218D20B464FF0000C62F3D4
:101AE4009F136FF03F0242EA91148DF801308DF894
:101AF400004002224FF0000E01688D18802D34D969
:101B0400012001B05DF8048BF0BDB1F5803F11D226
:101B14006FF01F038E4643EA11348B0962F39F1E54
:101B240062F39F138DF802E003228DF800404FF01A
:101B3400000C14E06FF00F038C4643EA91444FEA23
:101B4400911E0B0B62F39F1C62F39F1E62F39F13A3
:101B540004228DF803C08DF800408DF802E08DF862
:101B6400013001688D18802DCAD80144012A0C71F6
:101B7400016801F1010404604ED004446D4605EB94
:101B840002082371AC1C0368444503F1010303609C
:101B940042D00344EC1C444583F804E0036803F199
:101BA4000103036038D0A2F1040E013212F00302E3
:101BB40015D003442C1D012A83F804C0036803F1E3
:101BC400010303600BD00168022A01F101030360E1
:101BD40001D1013403E0016802344B1C0360BEF1FF
:101BE400030F19D3221F051D12F8044FEC54036888
:101BF4005478013303609178EC540368D678013348
:101C04000360E9540168013101606E5401684B1CA2
:101C1400111D41450360E6D1002001B05DF8048B3D
:101C2400F0BDF0B503AF4DF804BD88B000680DF108
:101C3400080C019091E87C406046614680E87C4055
:101C440001A802F04EF808B05DF804BBF0BDB0B5D1
:101C540002AF006803689C18802C01D90120B0BD34
:101C6400002A41D012F00304A2F1010C19D08E46CF
:101C740003441EF8015B012C1D71036803F1010389
:101C840003600FD003444D78022C1D71036803F1E7
:101C9400010303602AD101F1020EBCF1030F04D247
:101CA40022E08E46BCF1030F1ED301EB020CAEF111
:101CB4000402051D12F8044FEC54036854780133F0
:101CC40003609178EC54036892F803E001330360F5
:101CD400E95401680131016005F801E001684B1C19
:101CE400111D61450360E4D10020B0BD03448D782B
:101CF40001F1030E1D71036801330360BCF1030F8E
:101D0400D3D2F1E7F0B503AF4DF804BDD1E900C378
:101D14000C221C8804F1010E6FF31F340CF804200C
:101D2400A3F800E040F2510ED1E900C2C0F2000E67
:101D340016881FFA8EF57E2D34466FF31F3402D8B1
:101D44000CF804E00EE04EF080050CF80450731C0F
:101D540013804FEADE15D1E90042168833466FF34B
:101D64001F33E554731C138000F00F020820DFE8D2
:101D740002F0070D0F091521212121110B13160063
:101D840000200CE003200AE0062008E0012006E021
:101D9400022004E0052002E0072000E00420D1E94D
:101DA40000210B885E1C6FF31F33D0540E805DF846
:101DB40004BBF0BDFEDED0B502AF8AB27F2A0BD3DE
:101DC40041F0800CD0E900E10B885C1C6FF31F33F9
:101DD4000EF803C00C80D109D0E9002003885C1CF4
:101DE4006FF31F33D1540480D0BDF0B503AF4DF869
:101DF400048D41F204014FF00008CEF20001D1F845
:101E040000C0D0E900E213885C1C6FF31F330EF8A6
:101E1400038014804FEA9C12D409B8EBD21F2346E6
:101E240002F07F0118BF012341EAC31CD0E9003549
:101E3400B8EBD21F2E88224606F101016FF31F363C
:101E440003F806C02980E7D15DF8048BF0BDD4D433
:101E5400F0B503AF2DE9000F85B0017CDFE811F088
:101E64000700400342031F00100068006100D0E92E
:101E74000012C0E902120022014621F8142F1AE0D0
:101E8400014611F8182FA1F1040C96072AD0032A51
:101E940040F026839CF80520012A26D120E3014640
:101EA40011F8142F930706D0032A40F019834A78B7
:101EB400012A02D114E300224A7043F29012012352
:101EC400C2F20002D279D2B2002A08BF03230B70F7
:101ED4004B70C2B382680023C1E9002300F11801EA
:101EE40000F1140C00228CF8052043F29012012614
:101EF400C2F20002927AD2B2022A08BF0326022A50
:101F04008CF805600E7003D14FF0020B0422E1E25D
:101F14000021864600F10C03CCF800300EF81C1F9B
:101F240017E084461CF8141F012940F0BB82D7E255
:101F340086461EF81C1FAEF1080C41B1032940F07F
:101F4400CF82836906E04FF0020B0322C2E2DCF881
:101F5400003083614EF2001943F29016CEF200096C
:101F64004FF0020BC2F20006C9F880B0327A02F0D8
:101F74000302012A00F06482002A40F036814EF602
:101F84000452CDE9013E4FF0020ECEF2000286F873
:101F940008E041F200011268C2F2000101F5805428
:101FA40000944FF0160AD2B2002A08BF0C4641F240
:101FB4000401CEF2000108BF4FF0140A0A6836F893
:101FC4000A90C2F3861309F102084D466FF31F35D8
:101FD40004F805E009F101054FEA523E26F80A50DB
:101FE4000026B6EB523F71466FF31F3518BF01212F
:101FF400B6EB523F43EAC11161552FD0110D6FF377
:102004001F380B46B6EB125F18BF01230EF07F0595
:1020140045EAC31304F8083009F10308B6EB125F6C
:102024001CD0D60E6FF31F38354601F07F01002314
:10203400B3EBD26F18BF012541EAC51104F80810AB
:1020440009F10408B3EBD26FDDF808E01EBF6FF3AB
:102054001F3804F8086009F1050801E0DDF808E01C
:1020640043F29011424640F24C05019B4EF2001996
:10207400C2F200016FF31F32C0F2000521F80A809A
:10208400A9B27E29CEF2000902D8A554012209E0A2
:1020940045F08001A15408F10102E9096FF31F32F0
:1020A400A154022243F2901608EB0201C2F2000688
:1020B40041F2002226F80A10C4F2000219680968E5
:1020C4000331C2F804134FF48041C2F808111168B7
:1020D40041F480111160717AC9B2012940F0858000
:1020E4000321012371724FF60C61CFF6FF714FF09B
:1020F400160C53504EF60451CEF200010968022228
:10210400DDF800A0C9B2002941F20001C2F20001C9
:1021140008BF8A4641F2040108BF4FF0140CCEF206
:1021240000010B6836F80C504FEA5338C3F3861499
:1021340029466FF31F310AF80120691C0022B2EB13
:10214400533F424626F80C1018BF01226FF31F318B
:1021540044EAC212AC1C0AF801200021B1EB533F3F
:1021640032D0190D6FF31F340026B6EB135F0291C2
:1021740018BF012108F07F02B6EB135F42EAC111D8
:102184000AF8041005F103041AD0DA0E4FF000081F
:102194001646B8EBD36F18BF012602996FF31F34AC
:1021A400B8EBD36F01F07F0141EAC6110AF80410BD
:1021B40005F104041EBF6FF31F340AF804206C1DDC
:1021C40043F29016C2F20006224640F24D03C0F2DA
:1021D40000036FF31F3299B27E2926F80C4000F2F7
:1021E40014810AF8023001221AE141F25051C4F27A
:1021F40000010C6814F00F0200F08380012A00F043
:102204001F81022ACDF808E040F06D8141F20022DE
:102214000121C4F200024FF00063B17241F20004E4
:10222400C2F804314FF62C63CFF6FF73D1504EF64B
:102234000451CEF200010968C2F200044FF0160EF8
:1022440002234FF00008C9B2002941F2040118BF6B
:1022540004F58054CEF2000108BF4FF0140E0A6852
:1022640036F80EB04FEA523AB8EB523F554659464B
:102274006FF31F3163540BF10103C2F3861126F887
:102284000E3018BF012541EAC5116FF31F330BF15E
:102294000205B8EB523FE15400F0DA804E464FEAB3
:1022A400125949466FF31F35B8EB125F18BF01216D
:1022B4000AF07F03B8EB125F43EAC11161550BF1D9
:1022C400030500F0C4804FEAD26A6FF31F3551460C
:1022D4004FF00008B8EBD26F18BF012109F07F035B
:1022E400B8EBD26F43EAC11161550BF1040500F05C
:1022F400AE806FF31F35B14604F805A00BF1050558
:10230400A6E04FF6046141F20022CFF6FF71C4F259
:102314000002012341F2000453504EF60451CEF260
:1023240000010968C2F200044FF0160A0223C9B280
:10233400002941F2040118BF04F58054CEF20001D3
:1023440008BF4FF0140A0A6836F80A804FEA523C74
:10235400C2F3861541466FF31F31635408F101013E
:10236400634626F80A100026B6EB523F18BF012335
:1023740045EAC3136FF31F3108F10205B6EB523F70
:1023840063542FD04FEA12596FF31F354946B6EB09
:10239400125F18BF01210CF07F0343EAC11161559C
:1023A40008F10305B6EB125F18D0D60E6FF31F3594
:1023B400334609F07F014FF0000CBCEBD26F18BF1D
:1023C400012341EAC311615508F10405BCEBD26F46
:1023D4001EBF6FF31F35665508F105054EF200194F
:1023E400CEF200092A4640F24E0343F29016C0F2A0
:1023F40000036FF31F32C2F2000699B27E2926F859
:102404000A5011D8A354012217E043F080010AF8BE
:102414000210621CD9096FF31F320AF8021002225B
:10242400A11826F80C100BE043F08001A1546A1C9B
:10243400D9096FF31F32A1540222A91826F80A10F1
:102444000321C9F800B005228EF8001042E0B1461D
:10245400294640F24F02DDF808B043F29016C0F26C
:1024640000026FF31F31C2F2000693B27E2B26F8EE
:102474000E5002D86254012108E042F080036354F4
:10248400D1096A1C6FF31F32A1540221294426F892
:102494000E100221C9F8001001218BF80010002150
:1024A4008CF8001043F290110122C2F20001897AE3
:1024B400C9B2012908BF032201298CF8002003D1E5
:1024C4004FF0020B062205E004390122B1FA81F132
:1024D4004FEA511B0274584605B0BDE8000FF0BD29
:1024E40001F0BAFAFEDE07F056FD03ADCDE90301B3
:1024F4002846FFF77AFC40F250012846C0F200015A
:10250400FFF759FC20462946FFF7FCFB07F029FD9D
:10251400FEDED4D480B56F46ADF5527D40F20C504A
:1025240043F2901BC5F2000040210160C2F2000B8F
:102534000BF102000121D0E84F2F002A41F056820E
:10254400C0E8421F002AF6D1002001218DF8530073
:102554000BF10300D0E84F2F002A41F05682C0E867
:10256400421F002AF6D10BF101000121D0E84F2FC0
:10257400002A41F05982C0E8421F002AF6D141F2F4
:1025840008510DF1D80AC4F200014B204FF00009A4
:102594000025002608600AF10400CDF85490CDF817
:1025A400D890139041F27710A9EB4503C0F20000D4
:1025B40010F8068041F21810C0F20000825D013666
:1025C400002013EB000C1DD00AEB000494F804E087
:1025D40096451DD01CF1020114D0A17991422BD053
:1025E4001CF104010ED0217A91422AD01CF106017B
:1025F40008D0A17A08309142E3D15044831C581C7E
:102604001BB909E00023002033B180F800800FE0FB
:10261400231D581C002BF8D17F2D09D8139800F8DE
:10262400152000EB450080F8018036980130369083
:102634005F2E0CD0369DB5E7A31D581C002BE4D1AA
:10264400EAE704F10803581C002BDED1E4E7159AED
:1026540002F1090080282BD815A8642104306523D1
:10266400762663258154159A013215928354159A5E
:102674000132159286546926159A013215928654B0
:10268400159A013215928554159A01321592835484
:10269400159A013215928654159A01321592815475
:1026A4003D22159901311591425415980130159028
:1026B4006020A9AEC1F2000002254168C7AABE91FC
:1026C40044F23F110068C0F20001C79041F220209B
:1026D400C0F200007D95CDE97B560DF15409CDE99A
:1026E400795041F21020C0F20000AC91AA91BEA929
:1026F400A99178A97890CCA8AB921446CDF83093E0
:1027040001F0EFFA41F2085049F66961C4F20000A1
:10271400C0F2000100680DF54C78CDE9A941002410
:1027240000F07F008DF81C030120CDF83093CDE933
:102734007C6041F288207B94C0F20000CDE979549A
:1027440078AD78904046294601F0CBFA0DF2DF11BE
:102754000DF153008DF8CE42CDE9ACA143F2A81A95
:10276400CDE9AA980DF545797A90C2F2000AA990AC
:1027740006F14100079006F12800109006F11C00B4
:102784000F9006F13E00049006F13D00039006F11F
:1027940038000D9006F11400119006F130000B90F2
:1027A40005F11000059005F19800069005F19000E0
:1027B400129005F10C000A9005F1A4000C9006F1AA
:1027C4002B000E9005F1A100099040F24900C0F2DF
:1027D40000008DF8804280B2CDE97881029040F209
:1027E4004A00C0F200000DF5477880B2002601903F
:1027F40040F20000C0F200008DF8DF4180B2089082
:1028040004E005208DF8CE0207F0E5FB9DF8800278
:10281400DFE810F00B00D208D20811008F007F000F
:102824006A0052027100630078008DF884627B961E
:102834008DF8826207E09DF88402012803D101F03B
:10284400D2B8BFF32F8FDBF81000002841D0016805
:102854005BE8042F824206D14BE804129AB3DBF8FA
:10286400100028B935E0BFF32F8FDBF8100080B3D8
:1028740001685BE8042F824206D14BE8041212B3CC
:10288400DBF8100028B924E0BFF32F8FDBF8100029
:10289400F8B101685BE8042F824206D14BE80412C8
:1028A4008AB1DBF8100028B913E0BFF32F8FDBF8EF
:1028B400100070B101685BE8042F8242C1D14BE87B
:1028C4000412002ABFD18DF884628DF874629C9042
:1028D40037E003208DF88402FAE2A19C20780028D6
:1028E40000F071820920F3E2A1980178002900F038
:1028F400D2810620ECE2A19D2878002800F00D8208
:102904000820E5E2A19C2078002800F077810A20C5
:10291400DEE29DF89002DFE810F0A60266084F0898
:10292400050060009DF89402012840F0A08201F0A7
:102934005AB89DF88402012803D101F054B8BFF3BA
:102944002F8FDBF81000002842D001685BE8042FC9
:10295400824206D14BE804129AB3DBF8100028B97E
:1029640036E0BFF32F8FDBF8100088B301685BE813
:10297400042F824206D14BE8041212B3DBF8100094
:1029840028B925E0BFF32F8FDBF8100000B30168EE
:102994005BE8042F824206D14BE804128AB1DBF8CB
:1029A400100028B914E0BFF32F8FDBF8100078B1C2
:1029B40001685BE8042F8242C1D14BE80412002A6B
:1029C400BFD10221C1709E9001208DF8840244E29F
:1029D40003208DF8840204207AE29DF894020128F1
:1029E40001F001809BF80B00C0B2022840F067821E
:1029F40001208DF8900241F200098DF894024EF204
:102A04000420CEF20000C2F20009D0F8000B162414
:102A14000223C0B2002841F2040018BF09F580590E
:102A2400CEF2000008BF142402683BF80410550BD2
:102A3400B6EB523FC2F3861608466FF31F3009F80F
:102A4400003001F101002B462BF804006FF31F3016
:102A540018BF012346EAC31309F80030881C002676
:102A6400B6EB523F2FD0160D6FF31F3033464FF0A5
:102A7400000CBCEB125F18BF012305F07F05BCEB13
:102A8400125F45EAC31309F8003001F1030019D0BD
:102A9400D50E6FF31F302B46BCEBD26F18BF01234A
:102AA40006F07F0646EAC31309F80030081DBCEBA4
:102AB400D26F4FF000061EBF6FF31F3009F80050AD
:102AC400481D00E000260246089B9C996FF31F32C4
:102AD4009DF874827E2B2BF8040007D840F2000383
:102AE400C0F2000309F8023001220EE040F20005B2
:102AF400C0F2000545F0800309F80230431CEA09DE
:102B04006FF31F3309F803200222104401F1040A71
:102B14000B22B6EBD81F014608F07F066FF31F3176
:102B240000F1020509F8012000F101024FEAD81171
:102B34002BF804200B466FF31F3218BF012346EA1B
:102B4400C313002609F80230B6EBD81F1EBF6FF37B
:102B54001F3509F80510C51C29466FF31F312BF8E2
:102B6400045001EB0800B0F5805F0FD9C1F5805621
:102B740009EB01005146324607F02FFAA8EB060094
:102B84000AEB0601002682B2484603E009EB010085
:102B94005146424607F021FAC7ABB8F1010F05EBE5
:102BA40008002BF8040018BFB8F1400F19D19AF8A7
:102BB40000000DF54579A0F10B010F2900F2F88012
:102BC40043F2A81A0520C2F2000ADFE801F05B080C
:102BD4004A4E445256505A4858424654404C0A2091
:102BE40050E043F2A81A7A9CA194C2F2000A0DF5AF
:102BF40045799846207800287FF489AE012020701A
:102C0400BAF80650BAF80400401B00F580700104BD
:102C140000F01A8186B2132E28BF132656FA85F0C7
:102C2400E9B280B2B0F5807F08D9DAF8008041F2C9
:102C3400982AC1F58079C0F2000AE2E0DAF80000CF
:102C44003246084441F29821C0F20001F6E04B20DC
:102C540018E03C2016E0192014E0412012E0322054
:102C640010E00F200EE050200CE014200AE0282091
:102C740008E01E2006E0462004E0232002E037207E
:102C840000E02D208DF8810298467998A190017872
:102C940000297FF42EAE012141F208520170C4F2E2
:102CA40000028DF882129DF881129F90116006999E
:102CB4008DF89462CDE9A1010C98FFF7C9F8C0B270
:102CC400022801D1072003E19F988DF882620670E3
:102CD40007F07FF97B98CCA9002849F6696018BFF2
:102CE4007B96C0F20000C8900998C7900A98C590D6
:102CF4000120CDE9D0800220CDE9CE66CD9041F20D
:102D0400F020C0F20000CC90484600F0EAFF7A9D23
:102D1400A195287800287FF4F3AD012028707B9ECC
:102D2400002E3ED0BAF80640BAF80400001B00F5A5
:102D3400807001042FD080B2864288BF064656FABE
:102D440084F0E1B280B2B0F5807F1AD9DAF800805D
:102D5400C1F58079DDF814A008EB01004A4651461C
:102D640007F03BF9A6EB0900C7AB0AEB090143F2F4
:102D7400A81A0DF5457982B24046C2F2000A984677
:102D840004E0DAF8000032460844059907F025F912
:102D9400A019AAF806004EF204208021CEF2000009
:102DA400016000262E7007F014F98DF8826254E059
:102DB40043F2A81A7A9CA194C2F2000A9846207899
:102DC40000287FF48FAD01202070BAF80650BAF8BD
:102DD4000400401B00F58070010435D086B22A2E11
:102DE40028BF2A2656FA85F0E9B280B2B0F5807F72
:102DF4001CD9DAF8008041F2AC2AC1F58079C0F21E
:102E0400000A08EB010051464A4607F0E6F8A6EB33
:102E14000900C7AB0AEB090143F2A81A0DF545797D
:102E240082B24046C2F2000A984607E0DAF800008F
:102E34003246084441F2AC21C0F2000107F0CDF85B
:102E4400A8190026AAF806004EF204208021CEF22A
:102E540000000160267007F0BCF81298A2907898E0
:102E64008DF89062A190A2988DF89462A3909BF83B
:102E74000B00C0B2012818BF03208DF8940223D19F
:102E840047F234034126C4F20203D3F87804A39929
:102E940000F07F000A680432C3F8082747F2407242
:102EA400C4F202021660012200261A6008718DF82D
:102EB40094629BF80B00C0B202283FF499AD032042
:102EC4008DF89402042000E003208DF89002052080
:102ED4008DF880029DF8CE02DFE810F00A006E053E
:102EE4006E0518000D00810071009F037900120027
:102EF4008DF8D46212E0B59C2078002857D1D2E036
:102F0400B59C2078002840F05485CCE09DF8D4028C
:102F1400012803D100F067BDBFF32F8FDBF8100049
:102F2400002847D001685BE8042F824206D14BE8B1
:102F340004129AB3DBF8100028B93BE0BFF32F8FDB
:102F4400DBF81000B0B301685BE8042F824206D1BD
:102F54004BE8041212B3DBF8100028B92AE0BFF3DF
:102F64002F8FDBF8100028B301685BE8042F82423E
:102F740006D14BE804128AB1DBF8100028B919E035
:102F8400BFF32F8FDBF81000A0B101685BE8042FBA
:102F94008242C1D14BE80412002ABFD10221C17080
:102FA400A99CAE90B5942078002800F07C80042081
:102FB400FFF728BC03208DF8D402FFF723BCB59893
:102FC4000178002900F012830620FFF71BBCB59C92
:102FD4002078002800F092840820FFF713BC9DF8A5
:102FE400E002DFE810F0BD000005E904060053002C
:102FF40015009DF8E402810700F0B680032840F034
:10300400F2849DF8E502012840F0B08000F0EBBCAA
:103014009DF8F402002841D0032840F0E4849BF892
:10302400090040F30101B1F1FF3F00F3F38100F027
:103034000300022802D08BF809600DE08BF80960C8
:10304400BB98067041F20400C4F20000D0F8FC03FF
:10305400BC9900F00100087001208DF8F4029DF87D
:10306400E202002840F0978041F204000121C4F2FA
:103074000000D0F808048DF8E0129DF8E11281F008
:1030840001018AB2022A3FF4BCABCFE19DF8EC0205
:1030940038B1032800F0848000F0A5BCDDE9B90153
:1030A400AEE1B9987BE001202070DDF8A8A251467A
:1030B40051F8046B002E45D043F2A810C2F2000070
:1030C400C5888088401B00F58070020434D080B22B
:1030D400864288BF064656FA85F0EAB280B2B0F559
:1030E400807F1CD943F2A810C2F58079C2F2000097
:1030F400D0F8008008EB02004A4606F06EFF0AEBA7
:103104000900C7AB011DA6EB090043F2A81A0DF58F
:10311400457982B24046C2F2000A984607E043F27B
:10312400A81AC2F2000ADAF800001044324606F087
:1031340054FFA819AAF806004EF204208021CEF20A
:10314400000001600026267006F043FF43F2A81A2F
:103154001198B690C2F2000AAB988DF8E062B5906F
:10316400B698ADF8E462B7908DF8E5629BF8070075
:10317400C0B200284FF0010008BF03208DF8E4021C
:103184008DF8E5021ED04FF48070ADF8E102012005
:1031940000283FF469AF0D988DF8EC62B990BA90AD
:1031A4009BF80800000611D0042002218DF8E002EB
:1031B40003208DF8EC02002000268AB2022A3FF494
:1031C40020AB33E103208DF8E00229E141F20850FD
:1031D400C4F20000866C16F00F0074D00128E3D00E
:1031E400022840F0EA83BA9841F204014FF0160C29
:1031F400C4F200014FF0000E006800680330C1F80B
:10320400000501208BF8090048604EF20420CEF23C
:10321400000041F20001D0F8000BC2F20001C0B27C
:10322400002841F2040018BF01F58051CEF20000DD
:1032340008BF4FF0140C066802203BF80C30740BE6
:10324400BEEB563F25461A466FF31F32885403F1EE
:103254000102C6F386102BF80C206FF31F3218BF3F
:10326400012540EAC51088549A1CBEEB563F00F075
:103274009D80350D6FF31F322846BEEB165F18BFD5
:10328400012004F07F0444EAC0108854DA1CBEEB29
:10329400165F00F08B80F40E6FF31F322046BEEBF6
:1032A400D66F18BF012005F07F0545EAC010885489
:1032B4001A1DBEEBD66F4FF000061EBF6FF31F3210
:1032C4008C545A1D73E041F204000121C4F2000041
:1032D4004FF0160C01604EF20420CEF2000041F2D1
:1032E4000001D0F8000BC2F200014FF0000EC0B292
:1032F400002841F2040018BF01F58051CEF200000D
:1033040008BF4FF0140C066802203BF80C30740B15
:10331400BEEB563F25461A466FF31F32885403F11D
:103324000102C6F386102BF80C206FF31F3218BF6E
:10333400012540EAC51088549A1CBEEB563F25D09F
:10334400350D6FF31F322846BEEB165F18BF012000
:1033540004F07F0444EAC0108854DA1CBEEB165F04
:1033640014D0F40E6FF31F322046BEEBD66F18BF95
:10337400012005F07F0545EAC01088541A1DBEEBF4
:10338400D66F1EBF6FF31F328C545A1D134602981A
:103394006FF31F332BF80C207E2800F2F08040F2EC
:1033A4004900C0F20000C8540121F5E0002613468C
:1033B40001986FF31F332BF80C207E2806D840F2B7
:1033C4004A00C0F20000C85401210DE040F24A0650
:1033D400C0F2000646F08000C854531CF0096FF395
:1033E4001F330026C854022150182BF80C0001206A
:1033F4008DF8EC02039904988DF8F462BA91B990AF
:10340400CDE9BB019BF8090040F30101B1F1FF3F95
:103414007FF70DAE05208DF8E00203208DF8F4024D
:10342400002002218AB2022A3FF4EBA9ADF8CA02B5
:10343400AE98ADF8C812C278023A8DF8CF22D2B253
:10344400032A0DD3C278023A50FA82F212798DF827
:10345400D122012209048DF8D02206D00024ECE008
:10346400002209048DF8D022F8D1C17803290AD0AA
:1034740002292DD139213722C17041F2D811AE98D9
:10348400C0F2000194E0AC9A002301798DF8301366
:103494001668A3EB460C1CEB03046DD0D5182E79EB
:1034A4008E4200F08980A61C66D0AE798E4200F070
:1034B4008580261D60D02E7A8E4200F08180A61D64
:1034C4005AD0AE7A08338E42E5D1D118023179E070
:1034D4000239C24600F1040858FA81FC09E00023CD
:1034E40000210026002B1CBF08788EF80000E04560
:1034F40028D0AC9BC64618F8014B00261968A6EBE9
:103504004105AA19EBD099190879A04212D0901C50
:10351400E5D08879A0420FD0101DE0D0087AA042EF
:103524000CD0901DDBD0887A0836A042E9D19819D6
:10353400831C05E00B1D03E08B1D01E001F1080372
:10354400591CCEE7AE9CD04643F2A81AC2F2000A38
:10355400E07839280AD141F2D811201DC0F20001C7
:1035640088421DD0372206F02EFEC8B141F2073141
:103574000922C0F2000118E00021002223E040F2F9
:103584004906C0F2000646F08000C854531CF009F6
:103594006FF31F33C854022150182BF80C0003E6B4
:1035A40041F200310722C0F20001901CE070AE9895
:1035B400043006F012FD13E0291D03E0A91D01E00B
:1035C40005F108014A1C002908BF0022CCA9002AE1
:1035D40008BF0A46117803220026C270AE98017112
:1035E400AD98B590017800297FF4EEAC0121BEAB13
:1035F400079D01700ECB29601199DDF80363AB6060
:10360400C5F80B6000266A60CDE9B501AF90DDE92D
:10361400C2018DF8E462CDE9B7010B98FEF718FCFE
:10362400C4B2022C02D10720FFF7ECB8AF980670A1
:1036340006F0CFFC002C18BF0124AA98139401684B
:1036440049B14FF0000B44F2C10AC0F800B0C0F217
:10365400000AAA9805E044F2C10A4FF0000BC0F238
:10366400000A41F295440DF54579C0F200040E9923
:10367400CA9441F23032CDE9C8A941F2A833C791C6
:10368400C0F200029DF8CF12C0F20003CBAE0DF5DC
:103694004C79012908BF1A460139C59218BF012186
:1036A400CB9041F220300225C0F20000C691D195A2
:1036B4004946CDE9CFB8CDE9CD5BCC90304600F09A
:1036C40010FBBDF8CA0241F23131ADF8CC02C0F2B0
:1036D4000001BDF8C80201284FF0020008BF032012
:1036E400B19041F23430C0F2000008BF084644F201
:1036F4001301B090C0F20001AA98CA911099C59024
:1037040041F25830C0F20000D195CDE9CF58CE90A7
:103714000320CDE9C841C5ACCD9041F240300F99AA
:10372400C0F20000C7914946CC90204600F0D9FA77
:103734009DF8D002B0B19DF8D10249468DF82C0312
:10374400AA98C5900120D190CDE9CFB8CDE9CD0B91
:1037540041F2A030C0F20000CDE9C76ACC90204607
:1037640000F0BFFAAA9801688A1C802A0AD8021DB0
:10377400292353540A230168013101605354016819
:1037840001310160139843F2A81A43F2901BC2F26C
:10379400000A0028A1464FF00006C2F2000B00F018
:1037A4000281AA98026802F12101802900F2A08016
:1037B400011D6423692672258B544FF0650E702415
:1037C40002684FF0790C013202608E542726026899
:1037D400013202608B546E230268013202608B5402
:1037E4000268013202608E5474260268013202605B
:1037F4008E5420260268013202608E54026801321F
:1038040002608D542D2502680132026001F802E045
:103814000268013202608C546C2402680132026036
:103824008C5402680132026001F802C0026801325D
:1038340002608E540268013202608D5402680132C3
:1038440002608D5463250268013202608E5402685E
:10385400013202608D5468250268013202608D5481
:1038640061250268013202608D54026801320260EF
:103874008B540268013202608B5477230268013250
:10388400026001F802E00268013202608C540268AE
:10389400013202608E540268013202608B54732339
:1038A4000268013202608D540268013202608B5456
:1038B4000268013202608E5462260268013202609C
:1038C4008E5475260268013202608E540026026806
:1038D400013202608B540A2302680132026001F84B
:1038E40002C00268013202608B5401680131016038
:1038F400A99CB594207800287FF46EAB0120207039
:10390400AA9D294651F8046B002E48D05046BAF8B7
:1039140006A08088A0EB0A0000F58070020434D071
:1039240080B2864288BF064656FA8AF05FFA8AF267
:1039340080B2B0F5807F1CD943F2A810C2F580791B
:10394400C2F20000D0F8008008EB02004A4606F0FC
:1039540044FB05EB0900C7AB011DA6EB090043F2CC
:10396400A8150DF5457982B24046C2F20005984685
:1039740006E043F2A815C2F2000528681044324656
:1039840006F02BFB0AEB0600E8804EF2042043F21B
:10399400A81AC2F2000ACEF20000802101600026BB
:1039A400267006F016FBA99CB594207800283FF4F5
:1039B4007AAB0920FEF726BFFEDE06F0ECFACCACAB
:1039C400CDE9CC012046FEF710FA40F24B01204627
:1039D400C0F20001FEF7EFF930462146FEF792F9F6
:1039E40006F0BFFAFEDE00F037F8FEDEBFF32F8FDD
:1039F40006F0D1FA36ACCDE936012046FEF7F5F9EA
:103A040040F25201C0F200011CE0BFF32F8F06F018
:103A1400C2FA36ACCDE936012046FEF7E6F940F2AB
:103A24005301C0F200010DE0BFF32F8F06F0B3FA8B
:103A340036ACCDE936012046FEF7D7F940F248010D
:103A4400C0F20001204605F079FB06F0BDFAFEDE67
:103A540006F0BBBA0068FEE780B56F4600F006F8D2
:103A6400FEDE80B56F4600F001F8FEDE80B56F46DD
:103A740006F08CFAFEDED4D4F0B503AF2DE9000FC6
:103A840085B004460068BD688A4610F001014FF015
:103A94002B0601EB050808BF4FF488169946410729
:103AA4000FD44FF0000B4FF0000AA168012935D064
:103AB4002046314652465B4600F0F1F8D0B101256C
:103AC4006CE093460AB31BF0030220D09AF800106E
:103AD400012A01F0C001A1F18001B1FA81F14FEA9C
:103AE400511114D09AF8012002F0C002802A08BFB4
:103AF40001310CE0D4E906012A46CB68494605B0F9
:103B0400BDE8000FBDE8F04018470021FFE708EBCF
:103B14000B02A2EB0108A1680129C9D1CDE903591F
:103B2400D4F80C90C14514D9000726D494F8202069
:103B3400A9EB08010020032A08BF0122DDF8109038
:103B44008846DFE802F0460242024FF000080846C9
:103B54003FE02046314652465B4600F0A0F800287C
:103B640040F07880D4E90601CB68DDE9032105B093
:103B7400BDE8000FBDE8F0401847606801250290D9
:103B840030206060314694F820005246019020466F
:103B94005B4684F8205000F082F820B1284605B036
:103BA400BDE8000FF0BD94F82020A9EB0801002027
:103BB400032A08BF01220D46DDF80C80DFE802F07D
:103BC400360233020025084630E0480801314FEA46
:103BD4005108451C013D07D0D4E906026168126909
:103BE40090470028F6D035E02046314652465B46E1
:103BF400656800F054F868BBD4E90601CB6849460F
:103C0400039A984730BB08F10106D4E906892C468B
:103C14000125013E32D0D9F8102040462146904774
:103C24000028F6D0BAE7480801314D08461C013E89
:103C340007D0D4E906026168126990470028F6D0DB
:103C440008E0D4E906014246CB680499D4F804A0FC
:103C5400984728B10125284605B0BDE8000FF0BDFE
:103C6400D4E906896E1C0125013E0DD0D9F8102037
:103C74004046514690470028F6D08FE70025284655
:103C840005B0BDE8000FF0BD0198002584F82000C0
:103C940002986060284605B0BDE8000FF0BDF0B59D
:103CA40003AF4DF804BD1C4615460646B1F5881F02
:103CB40008D0D6E906021269904718B101205DF8D0
:103CC40004BBF0BD4DB1D6E906012246CB682946B6
:103CD4005DF804BBBDE8F040184700205DF804BB64
:103CE400F0BDF0B503AF2DE9000F8DB00322D1F87C
:103CF40008B041F200138DF830202022BBF1000FF0
:103D040005924FF00002C0F200030492CDE90A03C9
:103D1400089206923AD0CB68D1E9002A534588BF6D
:103D24005346002B03926ED0CDE901A3006853687B
:103D34000268D518802D00F24381002B00F09E808C
:103D4400039E13F00308A3F1010CD6F800E071D030
:103D54007546024415F8014BB8F1010F147102685D
:103D640002F10102026066D002449EF80140B8F1FB
:103D7400020F1471026802F10102026040F0258111
:103D84000EF10205BCF1030F58D277E0D1F814907C
:103D9400D1E9002AD14588BFD146B9F1000F039279
:103DA40031D0006853680268D618802E00F208816A
:103DB400D1F810C0002BDDF80C8000F0E580D8F8B5
:103DC400004013F00301A3F1010E00F0BD8026466C
:103DD400024416F8015B01291571026802F101021F
:103DE400026000F0B280024465780229157102680D
:103DF40002F10102026040F0F680A61CBEF1030F3E
:103E040080F0A680C0E04FF00009CA450DD90398A0
:103E1400494650F8311000EBC9004268DDE90A0355
:103E2400DB689847002840F0CB8000200DB0BDE847
:103E3400000FF0BD7546BCF1030F1FD30EEB030C4E
:103E4400043D041D15F8046FA65402680132026093
:103E54006E78AB7895F803E0A654026801320260EC
:103E6400A3542B1D6345026802F10102026004F8A9
:103E740002E0026802F101020260E2D102980BF151
:103E84001008D1E904944FF0000A451E0BEB8A0197
:103E9400D1E90520D1E9013605930B7F8DF8303047
:103EA400049682B1022A10D0A04280F0A78009EBC8
:103EB400C00243F65923C0F2000352689A4204D167
:103EC40059F830000068012200E00022CDE9062004
:103ED400C968D8F8000081B1022910D0A04280F04E
:103EE4008D8009EBC00143F65922C0F200024968F3
:103EF400914204D159F830000068012100E000210A
:103F0400CDE9081058F8100CA04277D259F83010B7
:103F140009EBC0004268084604A9904700284FD125
:103F24007DB103985044D0E90212DDE90A03DB684D
:103F34009847013D08F120080AF1080A0028A5D095
:103F44003EE0DDE901A960E72646BEF1030F1BD37D
:103F540004EB030E043E011D16F8045F8D54026841
:103F6400013202607578B478F3788D5402680132B6
:103F740002608C540268013202608B5401684A1C4E
:103F8400311D71450260E6D108F10804A9F101056B
:103F94000CF104060DF1100856F8040C4146326881
:103FA400904768B9002D3FF430AFDDE90A01CB68D2
:103FB400D4E900129847013D083608340028EBD0B4
:103FC40001200DB0BDE8000FF0BD02449EF8024090
:103FD4000EF103051471026801320260BCF1030F93
:103FE400BFF42CAF4AE78118A278E61C0A71016875
:103FF4004A1C0260BEF1030FAAD2C5E72146FFF7AF
:1040040030FDFEDE80B56F46FFF730FDFEDEF0B515
:1040140003AF4DF804BDA2B0068802AD0C46802162
:1040240006F00F0000F157020A2838BF00F13002F1
:10403400284606F07FF80020B0EB161F28D031097F
:1040440001F00F0101F157020A2938BF01F13002D2
:10405400B0EB162F8DF886201DD0300A00F00F002B
:1040640000F157010A2838BF00F130010020B0EBFD
:10407400163F8DF8851011D0300B00F157010A2836
:1040840038BF00F130018DF884107C20042107E052
:104094007F20012104E07E20022101E07D20032114
:1040A400009141F270412B18C0F200012046022217
:1040B400FFF7E2FC22B05DF804BBF0BD80B56F46AB
:1040C4008CB00A460178642916D348F21F53C8B24B
:1040D400C5F2EB13A0FB03036FF063005B0903FB62
:1040E400001041F2A831C0F20001C0B231F8100052
:1040F400ADF82D00242003E00A2906D226200B4621
:1041040003F1300102AB195408E041F2A830C0F2C7
:10411400000030F81100ADF82D002520C0F1270172
:10412400009102A90B1841F2A8311046C0F2000117
:104134000022FFF7A1FC0CB080BDB0B502AFA2B065
:1041440000680DF1080E8C468123002200F00F0157
:1041540001F157040A2938BF01F130040EEB0301C1
:10416400B2EB101F01F8024C2ED0040904F00F0426
:1041740004F157050A2C38BF04F13005B2EB102FB7
:1041840001F8035C23D0040A04F00F0404F157057A
:104194000A2C38BF04F13005B2EB103F01F8045C7F
:1041A40018D0040B043B04F00F0404F157050A2C47
:1041B40038BF04F1300501F8055C010CB2EB104F77
:1041C4000846C3D1581E07E0981E013B04E0D81EE0
:1041D400023B01E0181F033B81280ED2C3F1810189
:1041E400009141F270410EEB0003C0F20001604601
:1041F4000222FFF741FC22B0B0BDFFF703FFFEDE51
:1042040080B56F464EF6FC504FF6FE72CEF20000BB
:10421400C0F2FF02016841F08071016041F20000C8
:104224000021CEF2000041600168114001310160BB
:1042340008200121C4F20000C0F8101501604BF2FF
:104244000000C4F200008160016043F2A81143F24F
:104254000000C2F20001C2F20000091A21F00301B9
:1042640005F0AEFF43F2682143F2A810C2F2000148
:10427400C2F20000091A21F003024AF24821C0F2F6
:10428400000105F0E9FE05F0A2FE40F208504FF4EB
:104294008A51C5F200004AF248240160C0F20004C9
:1042A40001614AF23820C0F20000A04208D24AF26A
:1042B4003825C0F2000555F8040B8047A542FAD30F
:1042C400FFF7C6FBFEF726F9FEDE80B56F4605F064
:1042D400BDF8BDE8804005F04CB9F0B503AF2DE959
:1042E400000741F26C10C4F2000050F8341C0906B7
:1042F40006D0002140F8341CD0F89811490409D4A0
:1043040050F86C1C090611D0002140F86C1CBDE863
:104314000007F0BD43F2901CC2F2000C9CF80800A8
:10432400000600F08180BDE80007F0BD50F8241CB1
:10433400090600F0E7804EF604514FF0000840F8FB
:10434400248CCEF20001096841F2000343F2901C70
:10435400C2F200034FF0160EC2F2000CC9B20029DB
:1043640041F2040118BF03F58053CEF2000108BFE7
:104374004FF0140E0C6802253CF80E204FEA543915
:10438400B8EB543FC4F3861611466FF31F315D54E6
:1043940002F101014D462CF80E106FF31F3118BFC6
:1043A4000125B8EB543F46EAC5155D5402F10201FC
:1043B4002AD04FEA145A6FF31F31564609F07F058D
:1043C400B8EB145F18BF012645EAC6155D54D11C2D
:1043D400B8EB145F18D04FEAD4696FF31F314E461F
:1043E4000AF07F054FF00008B8EBD46F18BF012620
:1043F40045EAC6155D54111DB8EBD46F1EBF6FF3AB
:104404001F3103F80190511D0A4640F24004C0F2E6
:1044140000046FF31F32A5B27F2D2CF80E1080F02C
:1044240087809C5401228CE04EF6045041F2000235
:10443400CEF20000C2F2000200684FF01608022615
:104444004FF0000EC0B2002841F2040018BF02F57C
:104454008052CEF2000008BF4FF0140804683CF804
:104464000800650BC4F38611BEEB543F03466FF39B
:104474001F33D65400F101032E462CF808306FF395
:104484001F3318BF012641EAC611D154831CBEEB69
:10449400543F28D0260D6FF31F333146BEEB145F13
:1044A40018BF012105F07F0545EAC111D154C31C91
:1044B400BEEB145F17D0E10E6FF31F330D464FF0C0
:1044C400000EBEEBD46F18BF012506F07F06BEEBCD
:1044D400D46F46EAC515D55400F104031EBF6FF32B
:1044E4001F33D154431D184640F24106C0F2000662
:1044F4006FF31F30B1B27F292CF8083031D2165433
:10450400012037E050F8601C09063CD043F2901CAF
:10451400002140F8601CC2F2000C9CF80810C9B2DB
:1045240000293FF400AF012900F0BF80022013E00E
:1045340044F080059D54E2094C1C6FF31F341A5556
:10454400022211442CF80E104FF00061C0F89C11A7
:1045540000208CF8080004208CF80A00BDE800074D
:10456400F0BD46F080011154591CF0096FF31F315E
:104574005054022018442CF8080001208CF808003C
:10458400BDE80007F0BD016809063FF4CCAE43F274
:10459400901C4FF0000EC0F800E0C2F2000C9CF832
:1045A4000810C9B202297FF4BEAE4FF4804141F233
:1045B4000002C0F89811C2F20002D0F894104FF033
:1045C4001608022521F48011C0F894104FF0006100
:1045D400C0F89C1103208CF808E041F204018CF827
:1045E4000A004EF60450CEF20000CEF2000100683C
:1045F400C0B2002818BF02F5805208BF4FF014085B
:104604000C683CF80810660BC4F38610BEEB543FEC
:104614000B466FF31F33D55401F1010335462CF8D3
:1046240008306FF31F3318BF012540EAC510D0547A
:104634008B1CBEEB543F28D0250D6FF31F33284647
:104644004FF0000EBEEB145F18BF012006F07F068A
:10465400BEEB145F46EAC010D05401F1030314D03A
:10466400E60E6FF31F333046BEEBD46F18BF012044
:1046740005F07F0545EAC010D0540B1DBEEBD46F86
:104684001EBF6FF31F33D6544B1D194640F2430629
:10469400C0F200066FF31F31B0B27F282CF8083047
:1046A40080F08680565401218BE04FF000080223ED
:1046B400C0F800804EF604508CF80880CEF200005A
:1046C4008CF8093041F20002006841F20401C2F2A0
:1046D40000024FF01609CEF20001C0B2002818BF44
:1046E40002F5805208BF4FF014090D683CF80940E8
:1046F4006E0BB8EB553FC5F3861021466FF31F319F
:10470400535404F1010133462CF8091018BF012356
:1047140040EAC3106FF31F31A31CB8EB553F50544C
:1047240028D04FEA155E6FF31F337046B8EB155F60
:1047340018BF012006F07F0141EAC010D054E31CE9
:10474400B8EB155F16D0E90E6FF31F330E460EF06B
:104754007F004FF00008B8EBD56F18BF012640EA80
:10476400C610D054231DB8EBD56F1EBF6FF31F3393
:10477400D154631D194640F24206C0F200066FF39D
:104784001F31B0B27F282CF8093002D256540121CF
:1047940008E046F080005054591CF0096FF31F31B3
:1047A4005054022158182CF80900BDE80007F0BD48
:1047B40046F080005054591CF0096FF31F315054D7
:1047C400022158182CF80800BDE80007F0BD43F298
:1047D40018100021C4F2000001607047D0B502AF88
:1047E40082B04FF6FC514BF20830CFF6FF71C4F2A1
:1047F40000004158C90762D14FF63861CFF6FF7106
:104804004258D20735D000224FF20004425043F2FE
:104814000001C2F200010A88C0F2FF04931C0132B5
:1048240004EA03334BF24054C4F2000423600A80C8
:1048340091B24AF6AB22CAF6AA22A1FB0223DA08F5
:1048440002EB4202A1EB8201032912D8DFE801F056
:10485400020A020A40F208514FF48072C5F20001C4
:104864004A6006E040F208514FF48072C5F200013C
:104874000A604FF63C61CFF6FF714258D20704D06C
:10488400002242504FF4003101604FF64061CFF6F0
:10489400FF714258D20704D0002242504FF48021C5
:1048A40001604FF64461CFF6FF714258D20704D03D
:1048B400002242504FF40021016002B0D0BD05F047
:1048C4006AFB6C46CDE900012046FDF78EFA40F202
:1048D4003F012046C0F2000104F030FC40F20850D1
:1048E4004FF48051C5F200000160402101604FF493
:1048F4008071416005F068FBFEDED4D4F0B503AFEF
:104904002DE9000F81B047F20015C4F20205A86D2D
:10491400000604D000200722A865012130E02868A1
:10492400000603D000210822296029E0A86A0006B5
:1049340003D000210322A96222E0E86D000603D01F
:1049440000210422E9651BE0286E000603D0002143
:104954000522296614E0286B000603D000210022FA
:1049640029630DE0E86B000603D000210122E9630E
:1049740006E06869000601F078810021022269617D
:1049840043F2B019C2F2000999F802309E1EF4B243
:10499400032C28BF0126F6B2002E00F0A580012EBC
:1049A40011D0DFE812F009009B0226019901B20040
:1049B4000E03A7031E02AE0343F290100021C2F2BD
:1049C4000000818190E0002B81F0010118BF0123D8
:1049D400194340F08980012141F2000289F8021054
:1049E4004EF60451CEF2000141F20403096843F289
:1049F400901CC2F200024FF0160ACEF20003C2F27B
:104A0400000CC9B2002918BF02F5805208BF4FF04C
:104A1400140A1C6802263CF80A504FF0000E600B82
:104A2400C4F38611BEEB543F2B466FF31F33D654A9
:104A340005F1010603462CF80A606FF31F3618BF10
:104A4400012341EAC3119155AE1CBEEB543F28D05B
:104A54004FEA14586FF31F36414600F07F00BEEB57
:104A6400145F18BF012140EAC1109055EE1CBEEB43
:104A7400145F16D0E30E6FF31F36194608F07F005B
:104A84004FF0000EBEEBD46F18BF012140EAC110F5
:104A940090552E1DBEEBD46F1EBF6FF31F3693557A
:104AA4006E1D334640F20105C0F200056FF31F335B
:104AB400A8B27F282CF80A6002D2D554012208E05B
:104AC400711C45F08000D054E8096FF31F31505435
:104AD4000222B0182CF80A0099F8000000281CBF24
:104AE40099F80100002803D101B0BDE8000FF0BD22
:104AF400042089F802000020A9F8000001B0BDE8F4
:104B0400000FBDE8F04001F0CBB801F059FA0028DD
:104B1400EAD0012041F2000145F8AC0C4EF60450F5
:104B2400CEF2000041F20402006843F2901CC2F28B
:104B340000014FF01609CEF20002C2F2000CC0B21E
:104B4400002818BF01F5805108BF4FF014091568FB
:104B540002233CF809604FF000086C0BC5F3861083
:104B6400B8EB553F32466FF31F328B5406F1010305
:104B740022462CF809306FF31F3318BF012240EA94
:104B8400C210C854B31CB8EB553F28D04FEA155E89
:104B94006FF31F337046B8EB155F18BF012004F0A4
:104BA4007F0242EAC010C854F31CB8EB155F16D05C
:104BB400EA0E6FF31F3314460EF07F004FF0000827
:104BC400B8EBD56F18BF012440EAC410C854331D94
:104BD400B8EBD56F1EBF6FF31F33CA54731D1A464B
:104BE40040F205066FF31F32C0F200062CF80930BC
:104BF4006BE04EF6045041F20001CEF2000041F2A7
:104C04000402006843F2901CC2F200014FF016093E
:104C1400CEF20002C2F2000CC0B2002818BF01F5A7
:104C2400805108BF4FF01409156802233CF809604D
:104C34004FF000086C0BC5F38610B8EB553F3246B5
:104C44006FF31F328B5406F1010322462CF809300E
:104C54006FF31F3318BF012240EAC210C854B31CBB
:104C6400B8EB553F28D04FEA155E6FF31F337046FB
:104C7400B8EB155F18BF012004F07F0242EAC010B0
:104C8400C854F31CB8EB155F16D0EA0E6FF31F334C
:104C940014460EF07F004FF00008B8EBD56F18BF34
:104CA400012440EAC410C854331DB8EBD56F1EBFAD
:104CB4006FF31F33CA54731D1A4640F210062CF8C2
:104CC40009306FF31F32C0F20006B0B27F2880F0C3
:104CD4008C828E5400F08DBE43F2901BC2F2000B06
:104CE400BBF80C0000283FF4FFAE012800F0258338
:104CF4004EF6045041F20008CEF20000C2F2000861
:104D0400006808F5805C4FF0160A022661464FF0F1
:104D1400000EC0B2002841F2040008BF4146CEF2A2
:104D2400000008BF4FF0140A00683BF80A304FEA4D
:104D34005039C0F38614BEEB503F1A466FF31F324E
:104D44008E5403F101024E462BF80A206FF31F32F2
:104D540018BF012644EAC6148C549A1CBEEB503F7B
:104D64002ED04FEA10586FF31F324446BEEB105F4B
:104D740018BF012409F07F0646EAC4148C54DA1CD7
:104D8400BEEB105F18D04FEAD0696FF31F324E4666
:104D940008F07F044FF0000EBEEBD06F18BF012661
:104DA40044EAC6148C541A1DBEEBD06F1EBF6FF3B9
:104DB4001F3201F802905A1D41F20008C2F20008A5
:104DC400104640F20603C0F200036FF31F309EB298
:104DD4007F2E2BF80A2080F01E860B54012000F051
:104DE40023BED5F80003C5F80003C10500F107820E
:104DF400800540F152874EF6045041F20001CEF294
:104E0400000041F20402006843F2901CC2F2000167
:104E14004FF01609CEF20002C2F2000CC0B2002814
:104E240018BF01F5805108BF4FF01409156802231B
:104E34003CF809604FF000086C0BC5F38610B8EB22
:104E4400553F32466FF31F328B5406F1010322465D
:104E54002CF809306FF31F3318BF012240EAC21047
:104E6400C854B31CB8EB553F28D04FEA155E6FF316
:104E74001F337046B8EB155F18BF012004F07F02A2
:104E840042EAC010C854F31CB8EB155F16D0EA0E02
:104E94006FF31F3314460EF07F004FF00008B8EB99
:104EA400D56F18BF012440EAC410C854331DB8EBB1
:104EB400D56F1EBF6FF31F33CA54731D1A4640F2D9
:104EC4000306C0F200066FF31F32B0B27F282CF83D
:104ED400093080F0B9828E540121BEE24EF60450AE
:104EE40041F20002CEF2000041F20401006843F2F4
:104EF400901CC2F200024FF01609CEF20001C2F279
:104F0400000CC0B2002818BF02F5805208BF4FF051
:104F140014090D6802233CF809604FF000086C0B7B
:104F2400C5F38610B8EB553F31466FF31F31535428
:104F340006F1010321462CF809306FF31F3318BF23
:104F4400012140EAC110D054B31CB8EB553F28D01E
:104F54004FEA155E6FF31F337046B8EB155F18BF49
:104F6400012004F07F0141EAC010D054F31CB8EBD7
:104F7400155F16D0E90E6FF31F330C460EF07F0059
:104F84004FF00008B8EBD56F18BF012440EAC410F5
:104F9400D054331DB8EBD56F1EBF6FF31F33D154FC
:104FA400731D194640F21106C0F200066FF31F315B
:104FB400B0B27F282CF8093080F094815654012136
:104FC40099E1D5F86CB3C5F86CB31BF0040406D0B2
:104FD40043F29010C2F20000007800F0F1FE41F2BA
:104FE400040E4EF604595FEA8B70CEF2000ECEF238
:104FF400000940F1D882009441F20001D9F8000080
:10500400C2F2000101F5805843F2901AC2F2000A7C
:1050140002244646C0B2002808BF0E464FF01601CF
:105024004FF0000908BF1421DEF800203AF80150BF
:105034004FEA523CB9EB523F634628466FF31F30A8
:10504400345405F10100C2F386142AF801006FF309
:105054001F3018BF0123B9EB523F44EAC313335442
:1050640005F102002ED04FEA125E6FF31F30734633
:10507400B9EB125F18BF01230CF07F0444EAC31399
:105084003354E81CB9EB125F18D04FEAD2696FF3BE
:105094001F304C460EF07F034FF0000CBCEBD26F78
:1050A40018BF012443EAC4133354281DBCEBD26F48
:1050B4001EBF6FF31F3006F80090681D41F2040E06
:1050C400CEF2000E024640F20A0541F200044EF60A
:1050D4000459C0F200056FF31F32ABB2C2F20004F0
:1050E4007F2BCEF200092AF8010080F0C481B55468
:1050F4000122C9E101B0BDE8000FBDE8F04000F0B5
:105104005FBE4EF6045041F20002CEF2000043F2BC
:10511400901C0068C2F200024FF01609C2F2000CA3
:1051240002234FF00008C0B2002841F2040018BF67
:1051340002F58052CEF2000008BF4FF01409056852
:105144003CF809606C0BB8EB553FC5F3861130464B
:105154006FF31F30135406F1010320462CF8093075
:105164006FF31F3318BF0120B8EB553F41EAC0105D
:10517400D05406F1020328D04FEA155E6FF31F33B3
:105184007046B8EB155F18BF012004F07F0141EAB7
:10519400C010D054F31CB8EB155F16D0E80E6FF3B3
:1051A4001F3304460EF07F014FF00008B8EBD56FB3
:1051B40018BF012441EAC411D154331DB8EBD56F93
:1051C4001EBF6FF31F33D054731D184640F20406FC
:1051D400C0F200066FF31F30B1B27F292CF80930FA
:1051E40080F093801654012098E046F080008854A3
:1051F4005A1CF0096FF31F3288540221FAE34EF669
:10520400045041F20001CEF2000041F204020068B1
:1052140043F2901CC2F200014FF01609CEF20002D4
:10522400C2F2000CC0B2002818BF01F5805108BFBB
:105234004FF01409156802233CF809604FF0000888
:105244006C0BC5F38610B8EB553F32466FF31F3233
:105254008B5406F1010322462CF809306FF31F33F7
:1052640018BF012240EAC210C854B31CB8EB553F22
:1052740028D04FEA155E6FF31F337046B8EB155F05
:1052840018BF012004F07F0242EAC010C854F31C86
:10529400B8EB155F16D0EA0E6FF31F3314460EF009
:1052A4007F004FF00008B8EBD56F18BF012440EA27
:1052B400C410C854331DB8EBD56F1EBF6FF31F3332
:1052C400CA54731D1A4640F20206C0F200066FF378
:1052D4001F32B0B27F282CF8093080F09E808E54A3
:1052E4000121A3E046F080005054591CF0096FF3EB
:1052F4001F315054022158182CF8090002208CF850
:105304000B0001B0BDE8000FF0BD46F08001115460
:10531400591CF0096FF31F315054022018442CF823
:1053240009009CF80400022880F0B78400208CF85F
:10533400040001B0BDE8000FF0BD4EF6045041F288
:105344000002CEF20000C2F2000200684FF016081C
:1053540002254FF0000EC0B2002841F2040018BF2D
:1053640002F58052CEF2000008BF4FF01408006826
:105374003BF80860C0F38611BEEB503F33466FF331
:105384001F33D55406F101034FEA50352BF808308A
:105394006FF31F332C4618BF012441EAC411D154C2
:1053A400B31CBEEB503F28D04FEA105C6FF31F33A1
:1053B4006146BEEB105F18BF012105F07F0444EA8B
:1053C400C111D154F31CBEEB105F16D0C40E6FF3A1
:1053D4001F3325460CF07F014FF0000EBEEBD06F5B
:1053E40018BF012541EAC511D154331DBEEBD06F5E
:1053F4001EBF6FF31F33D454731D184640F20906C1
:10540400C0F200066FF31F30B1B27F292BF80830C9
:1054140080F08C831654012091E346F08000885478
:105424005A1CF0096FF31F328854022158182CF8C3
:10543400090047F2A840C4F202000121C0F8841018
:1054440001B0BDE8000FF0BD46F0800088545A1C3E
:10545400F0096FF31F328854022158182CF8090000
:1054640047F2A840C4F202000021C0F8841001B041
:10547400BDE8000FF0BD45F08003B354431CEA09B6
:105484006FF31F33F254022210442AF8010002235E
:10549400D9F800004FF0000CC0B200284FF01600FD
:1054A40008BFA04608BF1420DEF800203AF80050D8
:1054B400560BBCEB523FC2F3861429466FF31F31DF
:1054C40008F8013005F1010133462AF800106FF3A2
:1054D4001F3118BF0123BCEB523F44EAC31308F841
:1054E400013005F102012BD0140D6FF31F31234657
:1054F400BCEB125F18BF012306F07F0646EAC31314
:1055040008F80130E91CBCEB125F19D0D30E6FF31D
:105514001F311E464FF0000CBCEBD26F18BF0126A2
:1055240004F07F04BCEBD26F44EAC61608F80160AD
:1055340005F104011EBF6FF31F3108F80130691D26
:105544000A4640F20B03009CC0F200036FF31F32C3
:105554009EB27F2E2AF8001003D208F802300122EE
:105564000AE043F0800608F80260DA094B1C6FF386
:105574001F3308F80320022211442AF800100120E6
:105584008AF8000043F2A810C2F200008188C088A3
:1055940089B280B2884206D04FF200508021CFF603
:1055A400FF7049F8001064B95FEA4B3000F18E8057
:1055B4005FEA0B3000F12B815FEA0B707FF594AA50
:1055C400ADE1D9F8000041F2000243F2901CC2F2AE
:1055D40000024FF01609C2F2000CC0B2002818BF36
:1055E40002F5805208BF4FF01409DEF80060022370
:1055F4003CF809504FF00008740BC6F38610B8EB62
:10560400563F29466FF31F31535405F101032146D8
:105614002CF809306FF31F3318BF012140EAC11081
:10562400D054AB1CB8EB563F2DD0F2464FEA165E71
:1056340070466FF31F33B8EB165F18BF012004F0F8
:105644007F01B8EB165F41EAC010D05405F10303A3
:1056540018D0F10E6FF31F330C460EF07F004FF09D
:105664000008B8EBD66F18BF012440EAC410D05428
:105674002B1DB8EBD66F05D06FF31F33D646D1542C
:105684006B1D00E0D646194640F20C06C0F2000637
:105694006FF31F31B0B27F282CF8093002D2565470
:1056A400012108E046F080005054591CF0096FF3C2
:1056B4001F315054022158182CF809004EF6045991
:1056C400CEF200095FEA4B307FF572AF47F2A84093
:1056D40041F20003C4F20200C2F20003D0F800C099
:1056E4004FF01608D9F8000002264FF0000AC0B2A5
:1056F400002843F2901018BF03F58053C2F2000053
:1057040008BF4FF01408DEF8001030F80840BAEB78
:10571400513F22466FF31F329E5404F101064FEAB3
:10572400513220F808606FF31F361546C1F3861016
:1057340018BF012540EAC5109855A61CBAEB513F85
:105744002FD0F1464FEA115E70466FF31F36BAEB65
:10575400115F18BF012002F07F02BAEB115F42EA29
:10576400C010985504F1030616D0CA0E6FF31F3605
:1057740015460EF07F004FF0000ABAEBD16F18BF48
:10578400012540EAC5109855261DBAEBD16F1EBFFE
:105794006FF31F369A55661DCE464EF60459CEF267
:1057A4000009324640F20D0547F2A84A43F290142C
:1057B400C0F200056FF31F320CF07F01C2F2000447
:1057C400A8B2C4F2020A7F2824F8086002D29D54C9
:1057D400012208E045F080009854721CE8096FF338
:1057E4001F3298540222B018062602466FF31F3265
:1057F4009E54821C013024F808206FF31F30195482
:105804000020CAF800005FEA0B307FF5D5AED9F866
:10581400000041F2000243F2901CC2F200024FF079
:105824001609C2F2000CC0B2002818BF02F580525B
:1058340008BF4FF01409DEF8006002233CF8095059
:105844004FF00008740BC6F38610B8EB563F294698
:105854006FF31F31535405F1010321462CF809302D
:105864006FF31F3318BF012140EAC110D054AB1CA1
:10587400B8EB563F2DD0F2464FEA165E70466FF3F2
:105884001F33B8EB165F18BF012004F07F01B8EB9B
:10589400165F41EAC010D05405F1030318D0F10E8D
:1058A4006FF31F330C460EF07F004FF00008B8EB87
:1058B400D66F18BF012440EAC410D0542B1DB8EB96
:1058C400D66F05D06FF31F33D646D1546B1D00E05D
:1058D400D646194640F20E06C0F200066FF31F3199
:1058E400B0B27F282CF8093002D25654012108E0C6
:1058F40046F080005054591CF0096FF31F31505486
:10590400022158182CF809004EF604590120CEF251
:1059140000098CF80B005FEA0B707FF5E5A8D9F855
:10592400000041F2000243F2901CC2F200024FF068
:105934001609C2F2000CC0B2002818BF02F580524A
:1059440008BF4FF01409DEF8005002233CF8096048
:105954004FF000086C0BC5F38610B8EB553F314689
:105964006FF31F31535406F1010321462CF809301B
:105974006FF31F3318BF012140EAC110D054B31C88
:10598400B8EB553F28D04FEA155E6FF31F337046CE
:10599400B8EB155F18BF012004F07F0141EAC01085
:1059A400D054F31CB8EB155F16D0E90E6FF31F3318
:1059B4000C460EF07F004FF00008B8EBD56F18BF0F
:1059C400012440EAC410D054331DB8EBD56F1EBF78
:1059D4006FF31F33D154731D194640F20F06C0F202
:1059E40000066FF31F31B0B27F282CF8093008D2BB
:1059F4005654012158182CF8090001B0BDE8000FD5
:105A0400F0BD46F080005054591CF0096FF31F316B
:105A140050540221EEE743F080060E54D809531C7B
:105A24006FF31F33C854022010442BF80A00BBF84C
:105A34000E00002800F08A8047F2A84A4FF01609A9
:105A4400C4F2020A0224DAF8580100264030CAF8E7
:105A540058014EF60450BBF80EE0CEF20000006888
:105A6400C0B2002841F2040008BFC446CEF20000D0
:105A740008BF4FF0140901683BF80920B6EB513F09
:105A8400C1F3861310466FF31F300CF8004002F187
:105A940001044FEA51302BF809406FF31F340646D6
:105AA40018BF012643EAC6130CF80430941CBEF157
:105AB400410F52D350B30E0D6FF31F34334600F031
:105AC4007F004FF00008B8EB115F18BF012340EAD4
:105AD400C3100CF80400D41CB8EB115F16D0C80E28
:105AE4006FF31F340346B8EBD16F18BF012306F0E0
:105AF4007F0646EAC3130CF80430141DB8EBD16FCB
:105B04001EBF6FF31F340CF80400541D204640F2EE
:105B14000701C0F200016FF31F308AB27F2A2BF80D
:105B2400094056D20CF8001001205DE046F08001D7
:105B34001154591CF0096FF31F31505402201844BA
:105B44002BF8080001B0BDE8000FF0BD0020ABF851
:105B54000C0001B0BDE8000FF0BD50B30E0D6FF3A3
:105B64001F34334600F07F004FF00008B8EB115F9C
:105B740018BF012340EAC3100CF80400D41CB8EB8E
:105B8400115F16D0C80E6FF31F340346B8EBD16F04
:105B940018BF012306F07F0646EAC3130CF804304D
:105BA400141DB8EBD16F1EBF6FF31F340CF8040043
:105BB400541D204640F20801C0F200016FF31F306B
:105BC4008AB27F2A2BF8094021D20CF80010012058
:105BD40028E041F080020CF80020C809611C6FF332
:105BE4001F310CF8010002202044062201466FF305
:105BF4001F310CF80120811C01302BF809104021C1
:105C04006FF31F300CF80010AEF1400024E041F0B7
:105C140080020CF80020C809611C6FF31F310CF8D6
:105C2400010002202044062201466FF31F310CF8C4
:105C34000120811C01302BF809100EF07F016FF355
:105C44001F300CF80010D5F8000140F00400C5F82E
:105C540000010020CAF85C11ABF80E00012045F8E1
:105C6400FC0C01B0BDE8000FF0BD43F29010C2F28D
:105C740000000078C0B201287EF436AF43F2A810C9
:105C8400C2F200008188C08889B280B288423EF4A2
:105C94002BAF06220021FEF773BE00F079F9FEDE79
:105CA400F0B503AF4DF8048D47F204500121C4F25E
:105CB400020043F2901C01604EF60450CEF2000044
:105CC40041F200010068C2F200014FF0160EC2F268
:105CD400000C02244FF00008C0B2002841F2040076
:105CE40018BF01F58051CEF2000008BF4FF0140E2A
:105CF40000683CF80E20450BB8EB503F2E46134687
:105D04006FF31F33CC5402F10103C0F386142CF853
:105D14000E306FF31F3318BF012644EAC614CC5467
:105D2400931CB8EB503F28D0060D6FF31F33344655
:105D3400B8EB105F18BF012405F07F0545EAC414D1
:105D4400CC54D31CB8EB105F17D0C50E6FF31F33C0
:105D54002C464FF00008B8EBD06F18BF012406F0B2
:105D64007F06B8EBD06F46EAC414CC5402F10403A6
:105D74001EBF6FF31F33CD54531D184640F23E022D
:105D8400C0F200026FF31F3094B27F2C2CF80E3057
:105D940007D20A54012018442CF80E005DF8048B35
:105DA400F0BD42F080040C54D0095A1C6FF31F322A
:105DB4008854022018442CF80E005DF8048BF0BDC2
:105DC400F0B503AF2DE9000F81B043F2A81B43F2F5
:105DD4009019C2F2000BC2F20009BBF80460BBF8D0
:105DE4000600801B010421D01FFA80F8B8F13F0F90
:105DF40028BF4FF03F0858FA86F040F2080481B2F9
:105E0400F0B2B1F5807FC2F2000416D9DBF800A02D
:105E1400C0F580750AEB000120462A4604F0DDF83F
:105E2400A8EB050160198AB251460EE0012089F8F9
:105E3400000001B0BDE8000FF0BDDBF800104246E1
:105E4400014440F20800C2F2000004F0C6F84EF625
:105E5400045106EB0800ABF80400CEF2000141F255
:105E64000000096841F20402C2F200004FF0160A71
:105E7400CEF200020225C9B2002918BF00F58050F5
:105E840008BF4FF0140A16684FF0000C39F80A30B6
:105E9400740BC6F38611BCEB563F1A466FF31F32E0
:105EA400855403F10102254629F80A206FF31F32B5
:105EB40018BF012541EAC51181549A1CBCEB563F19
:105EC40028D04FEA165E6FF31F327146BCEB165FA3
:105ED40018BF012104F07F0444EAC1118154DA1C83
:105EE400BCEB165F16D0F40E6FF31F3225460EF08E
:105EF4007F014FF0000CBCEBD66F18BF012541EABF
:105F0400C51181541A1DBCEBD66F1EBF6FF31F322F
:105F140084545A1D134640F23D0640F20805C0F26F
:105F240000066FF31F33B1B2C2F200057F2929F8CE
:105F34000A2002D2C654012308E046F08001C1546D
:105F4400531CF1096FF31F33C1540223D1180623E4
:105F54000A466FF31F3283548A1C013129F80A2040
:105F64006FF31F3100F8018047F22860C4F2020089
:105F740005600121C0F8048047F20C00C4F202005D
:105F84000160022089F8000001B0BDE8000FF0BDF7
:105F940080B56F4682B003F0C8F903F0FCFF6C468D
:105FA400CDE900012046FBF720FF40F23A012046EC
:105FB400C0F2000103F0C2F804F006F8FEDED4D407
:105FC400F0B503AF2DE9000F8FB047F2500047F250
:105FD4008441C4F20200C4F20201D0F830C408685B
:105FE4000990D1F804B08A685FFA8BF545EA02207B
:105FF4000790C868D1F810800690C0B240EA082320
:1060040008934B69D1F818A00593D9B241EA0A2440
:10601400CCF3411159B3022907D001292CD101260F
:106024000CF00F01032905D926E002260CF00F011C
:10603400032921D80023CDE9025B04934FF0010E1C
:106044004FF0000B4FF001090023DFE801F02202BA
:10605400195A01214FF0000B04914FF0000E4FF03C
:106064000109012315024FEA0A21BEB957E00026AF
:106074000CF00F010329DDD90020A24602F0DABB9F
:10608400002102234FF0010B04914FF0000E4FF05A
:10609400010915024FEA0A21002E40D0012E28D111
:1060A400099BA246DDF80CB0DBB2222B00F0848001
:1060B400212B69D0202B40F09B804FFA8CF1B1F159
:1060C400FF3F40F38E801FFA8AF1072940F0898050
:1060D4000799049A89B2B1FA81F14909114000F093
:1060E4008080089989B2B1F5807F80F07A8003229C
:1060F40088E30020DDF80CB08DF83000A24602F0F1
:106104009BBB002103234FF0000B4FF0000E4FF018
:106114000009049115024FEA0A21002EBED101950F
:10612400A246099DEEB20C2E02F28183DFE816F03E
:106134000D0023017F1305017F13ED00A200CD00A4
:1061440044015C0142028E017C004FFA8CF1B1F1F2
:10615400FF3F02F36C830799090404BF1FFA8AF115
:10616400022942F06483022B02F04E83012B02F0D9
:106174004083002B04BF08985FEA004042F0578335
:106184004FF0000E04202EE14FFA8CF1B1F1FF3FE5
:1061940027DC1FFA8AF1072923D10799049A89B2C7
:1061A400B1FA81F1490911401BD0089989B2B1F5BE
:1061B400807F16D2022225E34FFA8CF0002810D4F7
:1061C4001FFA8AF00499B0FA80F04009084008D018
:1061D400079881B203299EBF089880B2FF2840F235
:1061E4000A830020ADF838000D90002002F022BB95
:1061F4000020062BADF838000D9000F00F810A2B1B
:10620400F3D14FFA8CF30020B3F1FF3FC8BF012054
:10621400089B9BB2FF2BE8D85FEA0A43E5D1049BB5
:10622400184040F0DE81E0E74FFA8CF0B0F1FF3F18
:1062340002F3FD8207998BF0010089B2002918BF8F
:106244000121084304BF1FFA8AF0022842F0EF82BA
:10625400089880B2FF2802F2EA820698C0F303107D
:10626400002802F0AB82082842F0E1824FF0010ED0
:1062740002F0A6BA4FFA8CF3002B4FF000004FF057
:10628400000148BF01201EEA000FDDE9024E01F0C3
:1062940050844FF0FF3050FA82F6062E01F2498402
:1062A40004220220DFE816F00700310CEB00450C55
:1062B400450C370C410C002C04BF08985FEA0040E1
:1062C40041F03784012202F001BC4FFA8CF0002126
:1062D400B0F1FF3FC8BF012111EA0E0F02F0A782FF
:1062E400D0B2032801F0F281022801F0E9810128EB
:1062F40042F09D820298002804BF08985FEA00409B
:1063040042F09582012201F0E2B94FFA8CF0B0F12B
:10631400FF3F42F38C82079880B27F2802F2878283
:10632400089840EA0A0080B2B0FA80F0400910EA06
:106334000E0002F07C8205206DE04FFA8CF10029FA
:1063440002F175825FEA0A4142F07182079989B2CB
:10635400022901F02881012941F04281089880B284
:10636400B0FA80F040091EEA000F02F060824FF09C
:10637400000E082037E04FFA8CF0002802F1578213
:106384001FFA8AF0B0FA80F0400910EA090002F01E
:106394004E82079880B2012840F0CC83089880B2DE
:1063A400B0FA80F040091EEA000F02F040824FF07C
:1063B400020E0020002262E04FFA8CF0B0F1FF3FA1
:1063C40002F335821FFA8AF0012842F03082DDE9B7
:1063D4000710084380B2B0FA80F0400910EA0E00BA
:1063E40002F0258201204AE04FFA8CF0B0F1FF3F21
:1063F40042F31D82079880B2FF2802F2188208989F
:1064040040EA0A0080B2B0FA80F0400910EA0E00B7
:1064140002F00D820620DDF80CE030E04FFA8CF13A
:10642400B1F1FF3FC8BF0120049981F00101084385
:1064340004BFA8B2B0F5085F7FF4D7AE089880B265
:10644400FF283FF6D2AE01205A46CEE04FFA8CF038
:10645400002802F1EC811FFA8AF00499B0FA80F066
:106464004009084002F0E38101994FEA08200843FB
:10647400000442F0DC810920039ADDF818E0D1B26F
:10648400220642EA01415FFA8EF241EA02210844FF
:10649400CDF8290000208DF828000898C0EA0A40A9
:1064A400CDF82D009DF82A00BDF82810DDF82B400A
:1064B40041EA0040BDF82F10030CC0F30720260A60
:1064C400DFE810F00B002406C8044C05EF03970620
:1064D4001507B805F2075C0486074EF6045041F22E
:1064E4000001CEF2000041F20402006843F2901C65
:1064F400C2F200014FF01609CEF20002C2F2000C03
:10650400C0B2002818BF01F5805108BF4FF014092C
:1065140015684FF000083CF809606C0BC5F3861051
:10652400731C2CF8093032466FF31F326FF31F339C
:10653400B8EB553F01F80280224618BF012240EA19
:10654400C210C854B31CB8EB553F28D04FEA155EAF
:106554006FF31F337046B8EB155F18BF012004F0CA
:106564007F0242EAC010C854F31CB8EB155F16D082
:10657400EA0E6FF31F3314460EF07F004FF000084D
:10658400B8EBD56F18BF012440EAC410C854331DBA
:10659400B8EBD56F1EBF6FF31F33CA54731D1A4671
:1065A40040F227062CF809306FF31F32C0F20006C0
:1065B40000F0E5BF4FFA8CF0B0F1FF3F40F31282D8
:1065C4004FF00000C8BF0120089B9BB2FF2B02F2D2
:1065D4002E815FEA0A4342F02A81049B184002F0AC
:1065E4002681029841EA000A00208DF82900002043
:1065F4008DF82E0043F2901E0698C2F2000E8DF81C
:106604002D00D0B2ADF82BA0BDF82810DDF82B80FA
:1066140041EA00409EF80410022940F0838008F407
:106624007F01B1F5003F40F009824EF6045141F27A
:10663400000BCEF2000141F204030968C2F2000B20
:106644004FF0160ACEF2000302254FEA104CC9B2ED
:10665400002918BF0BF5805B08BF4FF0140A1E68B1
:1066640000213EF80A4000F47F40B1EB563FC6F3E8
:10667400861223466FF31F330BF8035004F1010510
:106684004FEA56332EF80A5019466FF31F3518BFD8
:10669400012142EAC111B0F5807F0BF8051004F125
:1066A400020540F0BB875BB3300D6FF31F35014625
:1066B4004FF00009B9EB165F18BF012103F07F0208
:1066C400B9EB165F42EAC1110BF8051004F103059A
:1066D40016D0F30E6FF31F35194600F07F00B9EBA7
:1066E400D66F18BF012140EAC1100BF80500251D23
:1066F400B9EBD66F1EBF6FF31F350BF80530651D60
:10670400284640F23703C0F200036FF31F3099B2FA
:106714007F292EF80A5081F010830BF800300120F5
:1067240001F016BB4EF6045041F20002CEF2000016
:10673400C2F2000200684FF016094FF00008C0B220
:10674400002841F2040018BF02F58052CEF2000086
:1067540008BF4FF0140906683EF80900750BC6F32C
:1067640086112C46B8EB563F03466FF31F3302F8ED
:10677400038000F101032EF809306FF31F3318BFB3
:10678400012441EAC411D154831CB8EB563F28D0EC
:106794004FEA165C6FF31F336146B8EB165F18BF00
:1067A400012105F07F0444EAC111D154C31CB8EBA4
:1067B400165F16D0F40E6FF31F3325460CF07F01DD
:1067C4004FF00008B8EBD66F18BF012541EAC51198
:1067D400D154031DB8EBD66F1EBF6FF31F33D454CF
:1067E400431D184640F235066FF31F30C0F2000611
:1067F4002EF809308AE10798089A00F0010042EA6D
:1068040000204A0843F2901EC2F2000E9EF80410C3
:1068140002296CD1C0EA0243180600F0A6814EF6A4
:10682400045041F20002CEF2000041F2040100687B
:10683400C2F200024FF01609CEF200014FF0000838
:10684400C0B2002818BF02F5805208BF4FF01409E7
:106854000D683EF809606C0BC5F38610731C2EF8A6
:10686400093031466FF31F316FF31F33B8EB553FD7
:1068740002F80180214618BF012140EAC110D0541A
:10688400B31CB8EB553F28D04FEA155C6FF31F33A8
:106894006046B8EB155F18BF012004F07F0141EAA0
:1068A400C010D054F31CB8EB155F16D0E90E6FF38B
:1068B4001F330C460CF07F004FF00008B8EBD56F87
:1068C40018BF012440EAC410D054331DB8EBD56F6F
:1068D4001EBF6FF31F33D154731D194640F22F06A8
:1068E4002EF809306FF31F31C0F2000666E04EF651
:1068F400045041F20002CEF2000041F204010068AB
:10690400C2F200024FF01609CEF200014FF0000867
:10691400C0B2002818BF02F5805208BF4FF0140916
:106924000D683EF809606C0BC5F38610731C2EF8D5
:10693400093031466FF31F316FF31F33B8EB553F06
:1069440002F80180214618BF012140EAC110D05449
:10695400B31CB8EB553F28D04FEA155C6FF31F33D7
:106964006046B8EB155F18BF012004F07F0141EACF
:10697400C010D054F31CB8EB155F16D0E90E6FF3BA
:106984001F330C460CF07F004FF00008B8EBD56FB6
:1069940018BF012440EAC410D054331DB8EBD56F9E
:1069A4001EBF6FF31F33D154731D194640F22E06D8
:1069B4006FF31F31C0F200062EF80930B0B27F2801
:1069C40002D25654012108E046F080005054591C6C
:1069D400F0096FF31F315054022158182EF80900A2
:1069E40002F06EB807980022049980B2B0FA80F0E1
:1069F400400908404FF0FF3111FA8AF1B1FA81F1F0
:106A040049090840089989B2B1F5807F4FF0000127
:106A140038BF012110EA01030698194618BF014640
:106A24004FF00B0018BF0320012B41F000878E4666
:106A34000021002408914FF0000A20E54EF604508E
:106A440041F20002CEF20000C2F2000200684FF0F0
:106A540016094FF00008C0B2002841F2040018BF24
:106A640002F58052CEF2000008BF4FF01409066808
:106A74003EF80900750BC6F386112C46B8EB563F59
:106A840003466FF31F3302F8038000F101032EF86D
:106A940009306FF31F3318BF012441EAC411D154E4
:106AA400831CB8EB563F28D04FEA165C6FF31F33B4
:106AB4006146B8EB165F18BF012105F07F0444EA74
:106AC400C111D154C31CB8EB165F16D0F40E6FF38A
:106AD4001F3325460CF07F014FF00008B8EBD66F4A
